:020000022000DC
:1070000000F0032069730200517302005373020001
:10701000557302005773020059730200000000000C
:107020000000000000000000000000005B73020090
:107030005D730200000000005F73020061730200D4
:1070400063730200637302006373020063730200E0
:10705000637302006373020045E20300637302007E
:107060006373020063730200F9B5030063730200E7
:1070700063730200637302006373020063730200B0
:10708000637302003162040041DD02006373020099
:10709000956204006373020039ED0300637302001C
:1070A0006373020063730200637302006373020080
:1070B0006373020063730200000000000000000020
:1070C0006373020063730200637302006373020060
:1070D0006373020063730200637302006373020050
:1070E0006373020063730200637302000000000018
:1070F00000000000637302000000000063730200E0
:10710000000000000000000000000000000000007F
:10711000000000000000000000000000000000006F
:10712000000000000000000000000000000000005F
:10713000000000000000000000000000000000004F
:10714000000000000000000000000000000000003F
:10715000000000000000000000000000000000002F
:10716000000000000000000000000000000000001F
:10717000000000000000000000000000000000000F
:1071800000000000000000000000000000000000FF
:1071900000000000000000000000000000000000EF
:1071A00000000000000000000000000000000000DF
:1071B00000000000000000000000000000000000CF
:1071C00000000000000000000000000000000000BF
:1071D00000000000000000000000000000000000AF
:1071E000000000000000000000000000000000009F
:1071F000000000000000000000000000000000008F
:10720000334934480A1A02D0072291438D46324945
:1072100032480A1A06D00722914381F309880222D4
:1072200082F314882E482F492F4A00F03FF82F4848
:107230002F49304A00F03AF82F483049304A00F0E0
:1072400035F830483049314A00F030F8304831499B
:10725000314A00F02BF831483149324A00F026F823
:1072600031483249324A00F021F83248324900228E
:1072700000F027F831483249002200F022F8314866
:107280003149091A21F050FD1F482049884205D094
:107290000268043003B4904703BCF7E70020864639
:1072A000EC4600200021294A9047FEE7884207D09B
:1072B000521A05D0037801300B700131013AF9D12F
:1072C0007047884202D002700130FAE77047000030
:1072D00000F0032000E8032000F0032000F003206A
:1072E000ACB40400002E0020AF2F00209C730200DD
:1072F0009C730200908D0400ACB40400002E0020AA
:10730000002E0020E8910400E8910400E8910400B8
:10731000E8910400E8910400E8910400E891040079
:10732000E8910400ACB404005CB60400B02F002067
:10733000B02F0020B02F00203C7100203C710020B5
:107340003C7100203C7100203C750020B97C02009B
:10735000FEE7FEE7FEE7FEE7FEE7FEE7FEE7FEE705
:10736000FEE7FEE700F002B8FFF7FCBF08484FF069
:10737000070188438546074880470748016841F46C
:1073800070010160BFF34F8FBFF36F8FFFF738BFFE
:0C73900000F00320B9F1030088ED00E0DC
:10739C0041DF70470C4B1B6813F4804F03D00B4B31
:1073AC001B68012B00DC704700B583B0084BD3F889
:1073BC000435084A00924FF4B6720749022007F0D0
:1073CC00FBFD03B05DF804FB482F0020442F002088
:1073DC0000100140309204002692040010B586B0D3
:1073EC001078B0FA80F35B091B4C23705468DCB145
:1073FC001A4B1B6813F4804F03D0194B1B68032BDB
:10740C0001DC06B010BD174BD3F80435498852780F
:10741C000494039202900191134A0092B1221349F1
:10742C00042007F0C9FDECE70C4B1B6813F4804FEC
:10743C00E7D00B4B1B68032BE3DD0A4BD3F8043569
:10744C004A88029001920A4A0092B6220749042007
:10745C0007F0B2FDD5E700BFB02F0020482F002069
:10746C00442F00200010014050920400269204008A
:10747C00A49204000D4B1B6813F4804F03D00C4BEB
:10748C001B68032B00DC704700B585B0094BD3F8A3
:10749C00043502920191084A0092D0220749042037
:1074AC0007F08AFD05B05DF804FB00BF482F0020F3
:1074BC00442F002000100140D092040026920400BA
:1074CC0000B583B0012A20D0022A38D042B1264A16
:1074DC004FF4C171032017F059FF03B05DF804FBA2
:1074EC00224B1B6813F4804FF7D0214B1B68032BE6
:1074FC00F3DD204BD3F804351F4A009240F275128D
:10750C001E49042007F058FDE7E7062232210F2020
:10751C0000F0A0FF154B1B6813F4804FDDD0144B0B
:10752C001B68032BD9DD134BD3F80435144A009296
:10753C004FF4BD721149042007F03EFDCDE70B4B13
:10754C001B6813F4804FC8D0094B1B68032BC4DD98
:10755C00084BD3F804350B4A00924FF4BF7207491D
:10756C00042007F029FDB8E7E8910400482F00201B
:10757C00442F002000100140F892040026920400D1
:10758C00189304003893040030B587B0441C634B47
:10759C001B6813F4804F03D0614B1B68032B33DC47
:1075AC00604A1378591C11708DF8153032230493EE
:1075BC0064230393594B1B6813F4804F03D0584B2F
:1075CC001B68032B2DDC032C3AD8022C5CD2012C2B
:1075DC0045D1554B1B788DF81430544D288810F03C
:1075EC0021FB03AA05A928461EF01EF8112800F25B
:1075FC008C80DFE800F0658A8A8A578A8A74578AF9
:10760C008A8A8A8A8A8A8A57494BD3F80435019424
:10761C00484A00924FF48C724749042007F0CCFC86
:10762C00BEE7434BD3F804359DF814200192434A2E
:10763C0000924FF498724049042007F0BDFCC2E759
:10764C00042C0CD100238DF81430384D288810F000
:10765C00E9FA03AA05A928461DF0E6FFC6E72F4B59
:10766C001B6813F4804F2BD02D4B1B68032B27DD8D
:10767C002F4BD3F80435324A00924FF49E722E49A8
:10768C00042007F099FC1BE0274B1B788DF8143075
:10769C00264D288810F0C6FA03AA05A928461DF025
:1076AC00C3FFA3E71D4B1B6813F4804F03D01C4B87
:1076BC001B68032B06DC062232210F2000F0CAFEC9
:1076CC0007B030BD1A4BD3F8043501941D4A009213
:1076DC004FF4AB721849042007F06EFCEBE70F4B2C
:1076EC001B6813F4804FEBD00D4B1B68032BE7DDAD
:1076FC000F4BD3F804350194134A00924FF4B17236
:10770C000D49042007F058FCDAE70028D8D00F4ABE
:10771C004FF4B37117F03AFED2E700BF482F0020A8
:10772C00442F002040300020B02F0020B42F002028
:10773C00001001405C930400269204007093040036
:10774C00789504008C930400A4930400E891040041
:10775C0000B583B03138032814D90D4B1B6813F4D2
:10776C00804F11D00B4B1B68032B0DDD0A4BD3F84C
:10777C0004350A4A009240F28F120949042007F09E
:10778C001BFC01E0FFF700FF03B05DF804FB00BF3A
:10779C00482F0020442F0020001001407895040051
:1077AC002692040000B58DB02422002103A821F0FC
:1077BC00E7F901238DF80C3007238DF80F300623E1
:1077CC008DF81430254B0793254B0B93254903A8B3
:1077DC000BF064FC034618B3002B32D00B2B2FD1CB
:1077EC001EF034F8204B1B6813F4804F03D01F4B52
:1077FC001B68032B18DC1C4B1B6813F4804F20D028
:10780C001A4B1B68032B1CDD194BD3F80435194A92
:10781C00009240F2DD121849042007F0CDFB10E075
:10782C001DF0F0FF0346D7E7114BD3F80435134A8C
:10783C0000924FF4EE721049042007F0BDFBDAE71A
:10784C0023B91DF0BFFF0DB05DF804FB0C4A4FF4DB
:10785C00F171184617F09AFDF3E700BFDD7A0200CC
:10786C00957902001C300020482F0020442F002066
:10787C00001001402094040026920400D0930400D0
:10788C00E891040000B583B01D4A05214FF4103077
:10789C0007F076FB1B4B1B6813F4804F03D01A4B7D
:1078AC001B68032B13DC1EF0F3FCE0B900F014FE94
:1078BC00164800F045FEE0B901F060F901F09CF9C2
:1078CC0001F0CAF9FFF76EFF03B05DF804FB104B33
:1078DC00D3F804350F4A009240F2EB120E49042003
:1078EC0007F06AFBDFE70D4A40F2ED1117F04EFD91
:1078FC00DCE70A4A40F2F11117F048FDDCE700BF63
:10790C0061EF0200482F0020442F002095750200E3
:10791C00001001405C94040026920400E8910400DD
:10792C0000B583B00021114800F0BEFA58B9104BD5
:10793C001B6813F4804F03D00E4B1B68032B07DC22
:10794C0003B05DF804FB0C4AE12117F01FFDEEE7D4
:10795C000A4BD3F80435054A12880192084A009262
:10796C00E2220849042007F027FBE9E7102E00204B
:10797C00482F0020442F0020E89104000010014003
:10798C008C9404002692040010B582B01A4B1B682C
:10799C0013F4804F03D0194B1B68032B01DC00241C
:1079AC000CE0174BD3F80435164A009240F2B31290
:1079BC001549042007F000FBF1E70134012C17D81E
:1079CC001248342303FB0400114B0363002383622E
:1079DC0080F82C3080F82D30611CC9B21DF0EEFD02
:1079EC000028EAD00B4A4FF4DE7117F0CFFCE4E725
:1079FC00FFF796FF02B010BD482F0020442F002047
:107A0C0000100140A894040026920400B42F00201A
:107A1C0068950400E891040010B50C46062000F0AF
:107A2C0081FC207010BD000010B582B00C460D4BCF
:107A3C001B6813F4804F03D00B4B1B68032B05DC26
:107A4C002146062000F09AFC02B010BD074BD3F87B
:107A5C0004350191064A0092BE220649042007F023
:107A6C00ABFAEDE7482F0020442F00200010014016
:107A7C00C89404002692040000B583B00F4B1B6819
:107A8C0013F4804F03D00E4B1B68032B0BDC1DF043
:107A9C00DDFE0322C8210F2000F0DCFC0BF068FB9C
:107AAC0003B05DF804FB074BD3F80435064A00928B
:107ABC00FC220649042007F07FFAE8E7482F002053
:107ACC00442F002000100140E09404002692040092
:107ADC0008B50378232B00D008BDFFF7CDFFFBE7DB
:107AEC0010B5044600210F2000F09EFC04EB84042A
:107AFC0062003221032000F0ADFC10BD08B5037804
:107B0C001D2B00D008BD044800F006FA0028F9D05F
:107B1C0017F02EFCF6E700BF102E002008B500F081
:107B2C00CDFC08BD00B585B003A811F0EDFC0D4BE4
:107B3C001B6813F4804F03D00B4B1B68032B02DC28
:107B4C0005B05DF804FB094BD3F80435BDF80C20E7
:107B5C000192074A009240F29D120649042007F058
:107B6C002BFAEDE7482F0020442F00200010014095
:107B7C00FC9404002692040010B58AB064212648B7
:107B8C0000F078FB254B1B789BB90DF10C0C244CA9
:107B9C000FCCACE80F0094E807008CE8070003A8B2
:107BAC0000F0FEFA38B11F4A40F20F2117F0EEFB3D
:107BBC0001E0FFF7B7FF01F075F900F0F3FC1A488C
:107BCC0004F004FE0BF0C4FA98B9184B1B6813F4BC
:107BDC00804F03D0164B1B68032B10DC00210C20AC
:107BEC0000F022FC0222C8210C2000F033FC0AB069
:107BFC0010BD0C4A40F21B2117F0C8FBE5E70D4BFA
:107C0C00D3F804350C4A009240F21D220B49042093
:107C1C0007F0D2F9E2E700BF5D7702001C300020CC
:107C2C004C950400E8910400002E0020482F002001
:107C3C00442F002000100140789504002692040087
:107C4C0000B583B0144B1B6813F4804F03D0134B57
:107C5C001B68032B13DC00F0CFFF00F0FDFFFFF7D8
:107C6C0061FF00F02BFC00210F2000F0DDFB042253
:107C7C00C8210F2000F0EEFB03B05DF804FB084BAD
:107C8C00D3F80435074A00924FF4D1720649042008
:107C9C0007F092F9DFE700BF482F0020442F0020A7
:107CAC0000100140149504002692040008B5FFF75B
:107CBC00E9FDFFF761FFFFF76BFBFCE7002380F8A2
:107CCC006C302D23836629B14A68C0F880200B687C
:107CDC000366704700230366C0F88030704708B510
:107CEC00836B13B190F84810984708BD30B583B03A
:107CFC0004461546124B1B6813F4804F03D0114BEE
:107D0C001B68032B11DCE36B04F1480120469847F8
:107D1C0094F848302B7094F84A306B7004F1500092
:107D2C0000F0F8FD686003B030BD074BD3F80435A4
:107D3C00064A009287220649042007F03DF9E2E743
:107D4C00482F0020442F002000100140FC96040016
:107D5C00ED960400F0B585B0044615461F460A9E04
:107D6C00204B1B6813F4804F03D01F4B1B68032B55
:107D7C001CDCE36B0DF10F0120469847297884F841
:107D8C004A1094F830001DF07DFBE0B92A789DF87C
:107D9C000F309A421CD1002536B194F8483033701C
:107DAC0094F84A307370756005B0F0BD0F4BD3F882
:107DBC000435127801920E4A00929A220D49042041
:107DCC0007F0FAF8D5E70C4AA22117F0DFFADDE745
:107DDC0039462046FFF772FF256E04F1500000F083
:107DEC008BFDD9E7482F0020442F002000100140C4
:107DFC0008970400ED960400BC96040030B583B0DF
:107E0C000446A0F1500510F8082C10F8063C9A42D4
:107E1C0018D114F8083C8DF8003014F8063C8DF895
:107E2C000130002301936946A4F150001DF082FA41
:107E3C0054F8103C23B114F8062C216A28469847B4
:107E4C0003B030BD00F8083C2846FFF748FFE0E7D8
:107E5C0030B583B00446A0F1500510F8073C13B9B7
:107E6C0010F8063C4BB954F8103C23B114F8062C0E
:107E7C00216A2846984703B030BD00F8083C2846D4
:107E8C00FFF72DFF00230093019314F8083C8DF8A5
:107E9C00003014F8063C8DF80130236A01936946D2
:107EAC0028461DF047FADEE758B310B50446174BC9
:107EBC00C362C36B43B3836B33B120461DF008FA26
:107ECC00034630B1184610BD036C002BF5D10E23C0
:107EDC00F8E704F130001DF0FDFA03460028F1D15B
:107EEC00002323650A4A6265A3650A4BE36504F126
:107EFC005000C4F8D8000123636600F02FFD034640
:107F0C00E0E70E23184670470E23DBE718970400B2
:107F1C005D7E0200097E020010B582B004460DF1B0
:107F2C00070190F830001DF0C3FA30B99DF8071026
:107F3C0020461DF00BFA02B010BD034A40F273113B
:107F4C0017F024FAF2E700BFBC96040069DF704713
:107F5C0003781F2B00D07047014B01221A70FAE7EF
:107F6C00443000203F4B1B78002B79D000B587B0F4
:107F7C00012804D003286CD007B05DF804FB002363
:107F8C00019301A9012016F071FD00284BD10023AB
:107F9C000393049305939DF80C20012363F30302D0
:107FAC008DF80C20D2B263F307128DF80C209DF8DB
:107FBC000D2063F301028DF80D201B23ADF8163054
:107FCC00019A03A94120FFF7C1FF78BB01A816F065
:107FDC00A7FD70BB244B1B6803B198470123029388
:107FEC0002A90DF1020012F079F828BBBDF80200CD
:107FFC0011F07CFC0DF1010111F024FEF8B90CF02C
:10800C0097FB9DF8011000200CF08EFED0B904F007
:10801C006FFBD8B9134B00221A70134B5B68002B03
:10802C00AAD09847A8E717F0A3F9B0E717F0A0F982
:10803C00CCE717F09DF9CDE717F09AF9D6E717F0D2
:10804C0097F9DCE7784600F0EDFEE0E717F090F9E1
:10805C00E0E716F0DFFD00288ED017F089F98BE7EA
:10806C00704700BF433000204830002008B5064B55
:10807C0001221A70054804F0A9FB04F08BFB00B92F
:10808C0008BD17F075F9FBE743300020002F0020E6
:10809C0008B503781C2B00D008BD074B1B78002BB0
:1080AC00FAD016F0FBFD18B9044804F093FBF3E783
:1080BC0017F05EF9F8E700BF43300020002F0020D6
:1080CC0008B5094B1B7863B90849094817F018FE25
:1080DC0040B90323002207494969074817F02CFED1
:1080EC0000E0082008BD00BF4430002064300020B0
:1080FC00D0330020483000209C32002008B5037893
:10810C00023B082B3FD8DFE803F01C05113E3E2C48
:10811C003E3E36001E4B9B68002B34D0007A002864
:10812C0031D01C4A0121117098472CE0184BDB68A8
:10813C004BB3184A127832B3164A00211170984783
:10814C0021E0154B1B784BB9114B1B691BB1114A24
:10815C00002111709847FFF7B3FF14E0FFF786FF7B
:10816C0011E010220A4B99690C4817F068FE50B1C7
:10817C0017F0FEF807E08168C0680AF00FFF18B925
:10818C00054B01221A7008BD17F0F2F8F8E700BF92
:10819C004830002041300020423000209C3200202A
:1081AC0010B586B08446224A03AB07CA03C323F832
:1081BC00022B120C1A701F4CA646BCE80F00AEE83E
:1081CC000F009CE807008EE80700A369002B2DD058
:1081DC00194B009303AB194A19491A4817F04EFD75
:1081EC00034610B1184606B010BD174819F0F6FA40
:1081FC000146144817F06EFD03460028F2D11348CF
:10820C0019F06CFC03460028ECD1104819F09EFCC8
:10821C0001460C4817F05EFD03460028E2D10C48DD
:10822C0004F0D4FAFFF74CFF0346DBE70723D9E74A
:10823C00209704004830002009810200643000209F
:10824C00D03300209C320020843000204C3200209F
:10825C000C2F002008B5064B1B681BB906E0044B1D
:10826C001B68984714F042FB0028F8DA08BD00BFE1
:10827C001034002010B50C46134B1860134A012122
:10828C0013481EF03FF898B9610CE00341F270738B
:10829C00984271F1000310D34FF47A72002320F04E
:1082AC0071FB014600220B481EF042F838B910BD94
:1082BC00094A4A2117F06AF8E6E70521F2E7064A6F
:1082CC004B2117F063F8F2E71034002061820200B2
:1082DC006C970400143400202C97040070B50546EC
:1082EC00002404B170BD262D01D00134F9E70A4BEE
:1082FC001E6804F0C3FD331A0BD4084A9342F4D918
:10830C0004F0BCFD044B1860054B1B6820469847D5
:10831C00EBE7831BF1E700BF60340020801A0600F6
:10832C005C3400201F280BD900F01F00064BD3F83B
:10833C000435C34013F0010F0CBF0120002070471F
:10834C004FF0A043F3E700BF0003005070B50546A3
:10835C000024264600E00134032C0AD80123A34054
:10836C002B42F8D0044B185DFFF7DCFFA04006430E
:10837C00F1E7304670BD00BF7897040008B511B125
:10838C0015F064FE08BD15F051FEFBE770B505460F
:10839C00002400E00134032C0FD80123A3402B420E
:1083AC00F8D0064B1E5D3046FFF7BCFF80F0010194
:1083BC00C9B23046FFF7E2FFECE770BD78970400D6
:1083CC0010B5144B1B684BB1134B1868FFF7DEFF4D
:1083DC00104B1C68013C1C6024B110BD002016F031
:1083EC00C7FFF1E70D481DF0C5FF00E00134032C79
:1083FC00F3D80123A340084A12681342F6D0084B65
:10840C001968E14001F00101064B185DFFF7B6FF5A
:10841C00ECE700BF34340020383400203C3400201A
:10842C00643400207897040070B505460E4600248D
:10843C0000E00134032C09D80123A3402B42F8D0CF
:10844C003146034B185DFFF799FFF2E770BD00BF93
:10845C007897040042B310B50C461346132900D884
:10846C0010BD124A10605B00013B114A1360FFF70C
:10847C006DFF104B1860610CE40314F5FA704FF4A7
:10848C007A724FF0000341F1000120F07BFA0146B3
:10849C00002209481DF04CFF0028E1D10121034BBB
:1084AC001868FFF7C1FFDBE7704700BF38340020C6
:1084BC0034340020643400203C34002008B50448D7
:1084CC001DF058FF0021034B1868FFF7ADFF08BDE6
:1084DC003C3400203834002010B582B015F020FD5B
:1084EC0040B10024ADF804408DF8064001238DF80E
:1084FC00053007E015F0C4FC0028F2D016F038FF68
:10850C00EFE70134032C09D801A90A4B185D15F0CB
:10851C0011FD0028F5D016F02BFFF2E7064A0121D9
:10852C0006481DF0EFFE08B902B010BD16F020FF92
:10853C00FAE700BF78970400CD830200749704001B
:10854C0040B310B582B0144A106015F0E9FC58B174
:10855C00124B1B68ADF804301B0C8DF80630002450
:10856C004CB1002002B010BD15F08AFC0028EFD0F1
:10857C0016F0FEFEECE70A4A01A9262015F076FD5E
:10858C0028B90121262015F0EBFD0134E8E716F09F
:10859C00EFFEF6E70E2070475C3400207097040065
:1085AC00E9820200002800F082802DE9F04FD1B062
:1085BC0004463F4B1B6813F4804F03D03D4B1B68A4
:1085CC00032B31DC3A4B1B6813F4804F03D0394B2F
:1085DC001B68032B2ADC51B0BDE8F08FE25C3649F6
:1085EC000D68100959002E5C0FA800F8136002F0FA
:1085FC000F020131AA5C425401330F2BEED90FAAA2
:10860C0000238DF85C3003F1804303F58833D3F8F5
:10861C0004350292294A0192294A009242222949A0
:10862C00042006F0C9FCCDE70023E6E7264BD3F87F
:10863C0004350D932068020202F47F0242EA0062C4
:10864C00010A01F47F4142EA0108B4F804C04FEA80
:10865C000C2292B2B4F806E04FEA0E2189B2257AC8
:10866C00667AA77AE37A94F80C9094F80DA094F8B3
:10867C000EB0E47B0B94CDF828B0CDF824A0CDF847
:10868C002090079306970596049541EA1E210391C5
:10869C0042EA1C22029248EA106001900B4A0092B6
:1086AC000D9B43220749042006F086FC93E7704794
:1086BC00482F0020442F00204C2F0020C09704008E
:1086CC00D4970400AD97040000100140DC9704001F
:1086DC0008B5034B53F820300846984708BD00BF37
:1086EC001C98040008B5034B53F8203008469847F3
:1086FC0008BD00BF3498040008B5836803B19847DF
:10870C0008BD006B003818BF012070470369013B9E
:10871C0013F1030F03D843691BB9002070470020E5
:10872C0070470120704708B5024601218C3009F0D2
:10873C0072FD08BD08B50A4600230B63022102F145
:10874C008C0009F068FD08BD90F82C30022B01D18B
:10875C000020704710B5044638301DF0A9F94A01C5
:10876C0042EAD06243011B1A62EB0102920042EA18
:10877C0093729B001B1841EB0201C90041EA537133
:10878C00C3F3103343EA4143C90B226A934271F19C
:10879C00000101D3012010BD0020FCE710B50446F8
:1087AC00002303630362703004F01CFB04F13800F7
:1087BC001DF0BAF910BD10B5044638301DF0B4F9EF
:1087CC0000232362E3680BB12046984710BD08B51F
:1087DC00844600F1200E00F110030FCB8EE80F0041
:1087EC006046FFF7E8FF08BD08B5FFF7E4FF08BDDA
:1087FC0070B5044600F1380528461DF095F904F1D2
:10880C00200604F110030FCB86E80F00636A83EA9D
:10881C00E376A6EBE376002B43D0226AD30E51010C
:10882C00891A63F100039B0043EA9173890089184C
:10883C0043F100034FEAC30C32460023C8004CEA54
:10884C00517120F09FF8A66AF30E7201921B63F12E
:10885C0000039B0043EA92739200921943F10003C8
:10886C00DB0043EA5273D20016469C46904271EBF1
:10887C00030301D306468C46B6F57A7F7CF10003E0
:10888C0013D221220023C4E91023012384F83830A9
:10889C0028461DF020F918B963680BB1204698479B
:1088AC0070BD784600F0BEFAB7E74FEACC3141EA2A
:1088BC005641F60305483018054A4FF0000341F1C4
:1088CC00000120F05FF8C4E91001DEE720A10700E9
:1088DC0040420F0010B5044604F0D0FA236B4FF45D
:1088EC007A7101FB030104F1700004F093FA236820
:1088FC000BB12046984710BD10B5044630B1224646
:10890C00002104F18C0009F086FC10BD784600F0C3
:10891C0089FAF4E738B50546D8B12C6A05F1380068
:10892C001DF0C6F84A0142EAD06243011B1A62EB01
:10893C000102920042EA93729B00181841EB02016B
:10894C00C90041EA5071C0F3103040EA4140201A8E
:10895C0038BD784600F066FADFE7000038B504460B
:10896C0090B1C4F880400A4BA367A464094BE3643C
:10897C0004F138001DF0F0F80546074904F18C00AD
:10898C0009F033FC284638BD784600F04BFAE8E78E
:10899C0041870200338702006C98040072DF704735
:1089AC0073DF704774DF70472DE9F047A2B00746BC
:1089BC0088469146324C002525606560A560E560CF
:1089CC0030490B78C3EB43102F4E064426602F4AD8
:1089DC000244A2601F22A280A281013303F0010392
:1089EC000B704FF03C0A5246294613A820F0C8F8E9
:1089FC0006238DF84F30ADF8487001238DF84A30BE
:108A0C00ADF85C3012AA1892ADF83C70ADF84090FD
:108A1C00CDF844800DEB0A021D928DF87830524649
:108A2C002946684620F0ACF802238DF80030221D50
:108A3C00314613A815F00DFF90B9114B03F10C0240
:108A4C009968684615F005FF68B9114A0C49114838
:108A5C00FFF7A4FF082809D070B922B0BDE8F08751
:108A6C0016F086FCE9E716F083FCEEE700220449D9
:108A7C000848FFF793FFEFE716F07AFCEDE700BF2D
:108A8C00AC340020683400206C340020BC3400204E
:108A9C001C2F0020182F0020B0F5202F0AD2074BD6
:108AAC00A3FB0023DB0808B103B90123044A93811B
:108ABC00916070474FF6FF73F5E700BFCDCCCCCC7F
:108ACC001C2F002008B50121054B1878FFF768FF13
:108ADC0018B9002004F024FE08BD16F049FCF8E794
:108AEC00182F002008B5044B1878FFF75BFF00B96E
:108AFC0008BD16F03DFCFBE7182F002076DF704711
:108B0C007ADF70477CDF704769DF704708B516F075
:108B1C002FFC08BD08B503F061FE08BD00B583B09D
:108B2C00037823B1012B0BD003B05DF804FB3B2180
:108B3C004088FFF7E3FF0028F6D016F019FCF3E7A6
:108B4C00094B1B6813F4804FEED0084B1B68032BAA
:108B5C00EADD074BD3F80435064A00926822064931
:108B6C00042006F029FADFE7482F0020442F0020CC
:108B7C0000100140C8980400AD98040000B585B001
:108B8C0016F048F860BB0023039303A9012015F0ED
:108B9C006DFF40BB00230093019302939DF80020CE
:108BAC00012363F303028DF80020D2B263F30712A2
:108BBC008DF800209DF8012063F301028DF801204F
:108BCC001B23ADF80A30039A69464120FFF79CFF3E
:108BDC0060B903A815F0A4FF58B905B05DF804FB03
:108BEC0016F0C6FBCFE716F0C3FBD3E716F0C0FBBD
:108BFC00EFE716F0BDFBF0E700B585B09DF80C3043
:108C0C00012262F303038DF80C30DBB262F307131D
:108C1C008DF80C301B220F4903A8FFF773FF98B98E
:108C2C000023019302937823ADF80430C823ADF8E8
:108C3C0006304FF4C873ADF80A3001A8FFF760FF97
:108C4C0028B905B05DF804FB16F092FBE8E716F0C6
:108C5C008FFBF6E7F498040000B58BB001AA002353
:108C6C00019302937821ADF80410C821ADF80610D9
:108C7C004FF4C871ADF80A1003930493059306934F
:108C8C00079308930993039240F6CD4304934FF452
:108C9C008033059303238DF81830074B0893074B4B
:108CAC00099303A816F0A2F910B90BB05DF804FBF8
:108CBC0016F05EFBF9E700BF298B0200198B02004E
:108CCC000620704700B587B044F2010398425DD08E
:108CDC001BD8012836D041F20103984271D1474B81
:108CEC001B6813F4804F36D0454B1B68002B32DDCC
:108CFC00444BD3F8043502920191434A009263220B
:108D0C004249012006F058F925E044F2020398424A
:108D1C0057D13A4B1B6813F4804F1CD0384B1B684F
:108D2C00002B18DD374BD3F80435106803905268CC
:108D3C0002920191364A009269223449012006F0D0
:108D4C003BF908E02D4B1B6813F4804F03D02C4BE0
:108D5C001B68002B0DDC4FF0A0434FF49A52C3F864
:108D6C001825C3F80C25EFF3108372B64DF6AD6CD5
:108D7C003DE0244BD3F8043502920191254A009230
:108D8C0060222249012006F017F9E4E71B4B1B680F
:108D9C0013F4804FDFD01A4B1B68002BDBDD194B13
:108DAC00D3F80435106804905068039002919268CF
:108DBC000192194A009273221449012006F0FCF822
:108DCC00C9E70E4B1B6813F4804FC4D00C4B1B68C7
:108DDC00002BC0DD0B4BD3F8043501910F4A0092E8
:108DEC007B220A49012006F0E7F8B4E730BF0C4BB0
:108DFC001B78002BFAD107B05DF804FB482F00203C
:108E0C00442F002000100140709904004199040087
:108E1C009499040054990400B4990400D89904005E
:108E2C00342F002000B583B0014600230093054B7E
:108E3C0001936A4644F20200FFF744FF03B05DF869
:108E4C0004FB00BFD499040010B40346044C006822
:108E5C0059689A68DB680FC45DF8044B704700BF13
:108E6C00FC3400200E4B4FF0805202F1600103C91C
:108E7C0083E8030003F1080CA43292E803008CE8A9
:108E8C00030093F9062002F00F0242F040029A719F
:108E9C0093F9082002F03F0242F080021A727047E8
:108EAC00FC34002000487047FC340020002308E00C
:108EBC00074901EBC30000224280426001F83320D5
:108ECC0001331F2BF4D9034B00221A60704700BFEB
:108EDC000C3500200C36002000B58646114B1B6863
:108EEC004FF0000C0BE01F230F4A12F83300B0B107
:108EFC0002EBC3025288724509D00CF1010CBCF193
:108F0C001F0F0BD85A1E002BEDD01346ECE7064A68
:108F1C0002EBC30252688A42EFD100E000205DF8F8
:108F2C0004FB00BF0C3600200C35002010B40B4A9B
:108F3C0013680B4C04EBC30CACF80200CCF8041017
:108F4C00012104F833100B441360202B02D05DF880
:108F5C00044B7047134600221A60F8E70C360020C9
:108F6C000C3500200021072918D830B402E001315B
:108F7C00072910D84FEA011C094C34F80CC0844561
:108F8C00F5D104EB0114A568E4689C4208BF954236
:108F9C00EDD1012000E0002030BC7047002070476C
:108FAC001036002030B4C3698469C288190A1B06C4
:108FBC00C4F30C0C944519D2A2EB0C022244A2F57A
:108FCC0000529A1841F100010A4C23685D1C25607F
:108FDC0003F00703B0F814C007481C0100EB03139F
:108FEC0020F804C09A60D96030BC7047A2EB0C0228
:108FFC002244E6E79036002010360020C37D9BB15A
:10900C00C2780B7803F080030B7002F07F021343DD
:10901C000B7002780B7803F07F030B7043EAC213DA
:10902C000B7003789BB97047C2780B7803F0BF03C1
:10903C000B70920102F0400213430B70027903F0A3
:10904C00C0030B7002F03F0213430B70E1E7827810
:10905C00082A14BF002201224B7803F07F034B70C7
:10906C0043EAC2134B70C288DBB203F080034B702F
:10907C00C2F3861C43EA0C034B708B7803F003039A
:10908C008B7043EA82038B70027ADBB203F0FC0331
:10909C008B70C2F3C10C43EA0C038B70CB7803F0DA
:1090AC001F03CB7043EA4213CB70427ADBB203F05E
:1090BC00E003CB7002F01F021343CB70B3E7000048
:1090CC00002300E00133032B28D8C3EBC30C144A54
:1090DC0002EB0C1292F84820012AF3D1104A02EB51
:1090EC000C12B2F814C0C2899445EBD1C3EBC30C7B
:1090FC000B4A02EB0C12D2888A42E3D1084A02EBEB
:10910C000C12B2F858201AB1B0F814C06245D9D17B
:10911C00C3EBC303024800EB0310704700207047F9
:10912C00C4360020002300E00133032B15D8C3EB19
:10913C00C3010B4A02EB011292F84820022AF3D128
:10914C00074A02EB0112918A828A9142ECD1C3EB5D
:10915C00C303034800EB031070470020704700BFA7
:10916C00C436002008B9042070470820704700005E
:10917C0000210E4B1B688B4216D9002300E00133F3
:10918C000B4A02EBC10252689A420BD9084A52F8B8
:10919C00312002EBC30C12F833208242EFD1DCF801
:1091AC00040070470131E4E700207047943600203A
:1091BC009836002070B58CB006460D4614462C220D
:1091CC00002101A81FF0DCFC0F238DF80430ADF852
:1091DC0008609DF80A3065F300038DF80A308DF8AD
:1091EC000B4001A801F0BAFA0CB070BD30B58DB0CF
:1091FC0005460C462C22002101A81FF0C1FC1023AF
:10920C008DF8043002958DF80C4001A801F0A6FAF7
:10921C000DB030BD00B58DB010B913F1020F06D1F1
:10922C00074B186804F0B8FC0DB05DF804FB012185
:10923C008DF804100293039201A801F08FFAEFE766
:10924C00A836002070B5049C002962D01D468E46BD
:10925C00D2F800C051689668D368C4F80CC021617C
:10926C006661A361D2F810C05169C4F81CC02162B8
:10927C00002363700278D20922705AB30423734519
:10928C0049D8E17D41B3037803F07F03E3700023F9
:10929C00A3709AB143789B0103F4FE53827843EA9E
:1092AC009203E3808378DB0003F01803C27843EA6F
:1092BC0052132372C37803F01F036372002363629B
:1092CC002B78032B21D82A78144B53F82230E362E5
:1092DC00002070BD0123D2E70178C1F38011E17049
:1092EC00017801F03F01217142B190F90130002B5E
:1092FC0002DB0423A370CCE70823FBE70421A17055
:10930C000B447345C5D90920E3E77846FFF78AFD7E
:10931C00D9E70920DDE70920DBE700BF749B0400D7
:10932C0070B50C461D4603789BB104263244A260EE
:10933C0000F10C032360836A6360C36AE36000235B
:10934C002374204604F0A4FF10B9636933442B60E6
:10935C0070BD0126EAE72DE9F0418EB00D461646A8
:10936C001C46804600282DD0002D2FD0002C31D04B
:10937C00636A0233059304F10C00E378002B2DD0C3
:10938C000121A27801AF3B46082A14BF002201221A
:10939C0004F04DFD0697CDF81C80B2B2ADF820203C
:1093AC000B9515440C95A3788DF83430237B022B48
:1093BC0016D00023ADF8283005A804F030FD0EB00F
:1093CC00BDE8F0817846FFF72DFDCDE77846FFF735
:1093DC0029FDCBE77846FFF725FDC9E70221D0E749
:1093EC0023692BB1236909931023ADF82830E3E7E7
:1093FC007846FFF717FDF5E72DE9F04188B00446F4
:10940C000D46C37D002B3CD0082605FB06F8637A7D
:10941C00AB4238D0257201AB324602A92046FFF789
:10942C007FFF074648BB4DB994F8533033B9A36955
:10943C00C3F30C03E380012384F85330E37D7BB941
:10944C0094F8523063B91DBBE06EB4F84A10A278A0
:10945C0023468A1A0146FFF77EFF012384F8523017
:10946C0007992046FFF7CAFDE16E32464144019848
:10947C001FF050FB02A804F031FF384608B0BDE8DD
:10948C00F0810C26C1E7B4F84A60A6EB0806C1E7E8
:10949C007846FFF7C7FCD7E770B505460E4609B10D
:1094AC0000230B6095F85040002104E0631C85F804
:1094BC0050300134E4B26B7AA34210D3EA6C01232E
:1094CC00A3401A42F5D121462846FFF795FF0146E5
:1094DC0028B9002EEAD0336801333360E6E708463A
:1094EC0070BDF0B589B004460E46154683789A18BF
:1094FC00C37D63B10B239A4221D801AB02A920464C
:10950C00FFF70EFF074620B1384609B0F0BD0F2318
:10951C00F1E707992046FFF771FDE37D43B12A4639
:10952C00314601981FF0F6FA02A804F0D7FEEBE7DB
:10953C0023462A4601993046FFF70DFFF4E7092729
:10954C00E2E7000010B5044690F84830012B0CD12E
:10955C0003F094FC237B012B0BD0094BD9680144FD
:10956C0004F1300003F056FC10BD7846FFF75AFCAE
:10957C00EEE7A27D024BD9681B6903FB0211EEE7F3
:10958C00AC36002030B583B0002403E02846FFF74A
:10959C00D9FF0134032C17D8C4EBC4020B4B03EBDB
:1095AC00021393F84830012BF3D100230193074D9C
:1095BC0005EB021501A92846FFF76EFF0428E5D03C
:1095CC00019B002BE5D0E1E703B030BDC436002091
:1095DC0038B5044690F84830022B09D1064B1D686B
:1095EC0003F04CFC411904F1300003F013FC38BDBE
:1095FC007846FFF717FCF1E7AC36002038B5044687
:10960C0090F84830022B10D10A4B5A7D5D689B684C
:10961C0003FB025503F032FC411904F1500003F036
:10962C00F9FB012384F8683038BD7846FFF7FAFB64
:10963C00EAE700BFAC36002010B504460B460978AB
:10964C00C1700021416299680B2903D8197B51B371
:10965C00012100E0012121700020A07029B199683E
:10966C000731C9080139617220720121E17504F1D9
:10967C000C0C03F1100103C98CE80300D989A182F9
:10968C0099692162197FA1751B6AE362A262204667
:10969C001EF008FB30B1237B012B06D0E36A43F0AC
:1096AC002003E36210BD0021D5E72023E362F9E734
:1096BC0010B50446808A02F0D5FE01281CD1237B0C
:1096CC00E3B194F91620002A1ADBE27D4AB1022B91
:1096DC0018D094F90330002B16DBA378B3B9002013
:1096EC000BE0E2780AB9012B12D1237893B9A37855
:1096FC00042B11D1002000E0102010BD1020FCE73D
:10970C000720FAE71020F8E70720F6E70720F4E730
:10971C000720F2E70020F0E70720EEE738B5044613
:10972C0003784BB1C388C2698169808A06F096FFC1
:10973C00054645B9284638BDC2698169808A06F05C
:10974C0087FF0546F5E7E169002201F00101A08AD7
:10975C00FFF730FDEEE700002DE9F04780460E469E
:10976C0017464B1EDBB2012B0FD8B7F5C07F10D8B4
:10977C000024032C1AD8C4EBC402314B03EB0213A4
:10978C0093F848304BB10134F3E77846FFF74AFBC6
:10979C00EBE77846FFF746FBEAE7DFF8A49009EB26
:1097AC000215384609F0D1FBE86600E000255DB3F0
:1097BC00EB6E002B42D043462C4608F1300ED3F80A
:1097CC0000C058689968DA68C4F800C06060A1608D
:1097DC00E260103310347345F1D10023EB64A5F82B
:1097EC004A70012E13D06FF00103AB62002385F891
:1097FC006830144BAB652D66134BAB632D640120A5
:10980C0002F0B4FA85F848602846BDE8F0870F4BA3
:10981C001B7D85F85130002385F8523085F8533084
:10982C0085F85030D8F828206A65A5F858306FF0C4
:10983C000103AB62064BAB632D64E0E71D46E3E727
:10984C00C4360020F7A20200CD9B0200AC360020EB
:10985C00199C020000B585B000228DF80F20A0B134
:10986C000B46024602320A600DF10F01184604F055
:10987C00DAFA9DF80F3043B10C4B1B6813F0040F50
:10988C0003D00B4B1B68032B04DC9DF80F0005B0B9
:10989C005DF804FB074BD3F80435074A009240F2FD
:1098AC0015420649042005F087FBEEE7482F0020FF
:1098BC00442F0020001001402C9A04001F9A040031
:1098CC002DE9F04391B005460E4614461F46D0F8DC
:1098DC00188003784BB1C388C8F30C029A4230D27B
:1098EC009B1A4344A3F50053AB6105F10C00EB78D4
:1098FC0053B30121AA780DF130094B46082A14BF45
:10990C000022012204F093FAC5F81880CDF81090CB
:10991C000596AB78E21A92B2ADF8182016440A9666
:10992C0009978DF82C300023ADF82030EB78002B04
:10993C0041D02B7B022B09D000236B620193029345
:10994C0016E09B1A4344CFE70221D3E71023ADF86E
:10995C0020302B690793EFE710AB03EB840454F82A
:10996C003C3C6B62002011B0BDE8F083019BB3B1AD
:10997C0002AB01AA2979286A10F0FEFE0024012C02
:10998C00F4D810AB03EB840353F83C0C0028EDD057
:10999C0003A9FFF75FFF0028DED10134EFE72B7B33
:1099AC00022B2CD105F10C01E88910F09FFF002847
:1099BC00BFD10520D7E72B7B012B01D00520D2E7A7
:1099CC00EB89ADF80430AB8AADF806300024012CDD
:1099DC0013D82946002341F8243F10AB03EB440372
:1099EC0033F83C0C10F0EDFE03A9686AFFF732FF68
:1099FC0008B90134EBE70020B5E70520B3E70520F3
:109A0C00B1E7000070B5F0B00E4614461D4610AB21
:109A1C000A4601462046FFF753FF50B1224B1B6804
:109A2C0013F0040F03D0214B1B68052B2FDC70B0F7
:109A3C0070BD2046FFF772FE0028F8D103AB01225F
:109A4C008DF80C20A28AADF80E20002204928DF81D
:109A5C00142010AA0692A278B11AADF81C1008AA0C
:109A6C0093E8030082E803000AAB04F10C0292E8CD
:109A7C00030083E80300A37D8DF83830236A0C9330
:109A8C00636A0D930F9505A800F068FECFE7084BAD
:109A9C00D3F80435074A009240F2037206490620B7
:109AAC0005F08AFAC3E700BF482F0020442F00209E
:109ABC0000100140409A04001F9A040010B504469F
:109ACC00C06E09F046FA04F1300003F08BF994F8FB
:109ADC004830022B08D07022002120461FF050F88D
:109AEC00002002F043F910BD04F1500003F07AF9A4
:109AFC00F1E710B58CB0044690F84830012B0FD12B
:109B0C0001238DF80430636D029303F0B7F90390D1
:109B1C0001A800F023FE2046FFF7D0FF0CB010BDCB
:109B2C007846FFF77FF9EBE730B585B00D46044674
:109B3C00D0B1E18894F84830022B19D094F8483011
:109B4C00022B1ED02946606DFFF750FB2046FFF715
:109B5C00B5FF164B1B6813F0040F03D0144B1B6896
:109B6C00032B12DC05B030BD7846FFF75BF9E0E75C
:109B7C00637813F0020FE1D00022A08A1EF0ECF8FB
:109B8C00DCE72046FFF70EFADCE70A4BD3F8043586
:109B9C0094F8482002950192074A009240F2F31281
:109BAC000649042005F008FADCE700BF482F002026
:109BBC00442F0020001001406C9A04001F9A0400EE
:109BCC0008B508460021FFF7AFFF08BD08B5037BB9
:109BDC00012B02D0FFF78DFF08BD0121FFF7A4FF79
:109BEC00FAE7000008B590F8513053B1013B80F80A
:109BFC005130002380F85030034B186803F0CCFF31
:109C0C0008BDFFF7E3FFFBE7A836002010B50C46B4
:109C1C0091F84830012B03D12046FFF7E3FF10BD2C
:109C2C007846FFF7FFF8F7E770B5C6B00E46154655
:109C3C0082782A44C37D2BB14FF48073934278D33E
:109C4C00002303E04FF4C073F8E70133032B14D85F
:109C5C00C3EBC30C394C04EB0C1C9CF848100129C9
:109C6C00F3D1BCF81440818A8C42EED1BCF80E4082
:109C7C00C1898C42E9D1082554E00121FFF76CFD24
:109C8C000446002857D02A463146C06E1EF042FFCB
:109C9C000023459345A92046FFF7FEFB054608B176
:109CAC00042842D1459B8BB9254B1B6813F0040F3C
:109CBC0037D0244B1B68032B33DDB4F84AC0BCF1FE
:109CCC00800F28BF4FF0800C002313E02046FFF7D5
:109CDC0039FCE9E7E26ED25C1B490D6810095900AA
:109CEC002E5C04A800F8136002F00F020131AA5C8C
:109CFC00425401336345EDD304AA002302F81C300F
:109D0C0003F1804303F58833D3F8043502920F4AEC
:109D1C0001920F4A00924FF4AC620E49042005F0F8
:109D2C004BF90025284646B070BD2046FFF7C6FE0D
:109D3C00F8E70925F6E70425F4E700BFC436002050
:109D4C00482F0020442F00204C2F0020909A040014
:109D5C00D49704001F9A040070B504460D461646AD
:109D6C00FFF7A6FC30B923782BB1324629462046A2
:109D7C00FFF75AFF70BD324629462046FFF7B1FB6C
:109D8C00F8E7000038B504460D46CB695B780371E3
:109D9C00CB691B7883F00103C370CB6943628B8A58
:109DAC000B2B07D8CB7A002B40D10B7B012B02D08D
:109DBC00002300E001232370002B3CD0287B0228D9
:109DCC0036D0FFF7CFF9A070AB8A03440B331E4A91
:109DDC0082FB03235B10013B63720023237200237D
:109DEC00E37504F10C0395E8030083E80300AB6909
:109DFC0023622B89A382AB7AA3752B6AA362DF2320
:109E0C00E362284610F0DEFE20B12B78012B15D032
:109E1C00FF23E36220461DF045FF30B1237B012B6D
:109E2C000ED0E36A43F02003E36238BD0123C2E79E
:109E3C00064B987DC5E70423A370D0E72023E8E701
:109E4C002023E362F1E700BFABAAAA2AAC360020BC
:109E5C0006297AD1F0B585B0154690F800C04FEAC6
:109E6C008C1202F4FE5241788478C3781B0443EAC6
:109E7C000463047943EA0423407943EA00044FFA6B
:109E8C008CF642EA91012846FFF71AF90746E0B131
:109E9C00002E2FDBC289A98A8A422BD02B4B1B6840
:109EAC0013F0040F30D02A4B1B68012B2CDD294BEF
:109EBC00D3F8043502910192274A009240F27D6258
:109ECC002649022005F078F81EE0204B1B6813F0A1
:109EDC00040F19D01E4B1B68012B15DD1D4BD3F83D
:109EEC0004351F4A009240F279621C49022005F0A9
:109EFC0063F809E0002E09DBFD6C2543FD644CB9C9
:109F0C0003213846FFF710FE05B0F0BDAB8AA7F869
:109F1C005830F1E73B7883B17A7A013201239340D0
:109F2C00013B9D420DD0002187F850103846FFF7B9
:109F3C00B3FA3846FFF706FBE6E77846FEF772FF02
:109F4C00EAE73846FFF7D5FDDEE77047482F0020DB
:109F5C00442F002000100140D09A04001F9A0400E6
:109F6C00A09A04002DE9F0438BB007460E46144628
:109F7C001D461046FFF7D2FB50B994F80380B8F198
:109F8C00000F08D12B46224631463846FFF760FFBA
:109F9C000BB0BDE8F0834046FFF7EAF88146002895
:109FAC00F6D08DF80480236A0793A38AADF812309B
:109FBC0005AB04F10C0292E8030083E80300A37DD7
:109FCC008DF820300297039623788DF81030E36AD1
:109FDC000993294601A8C847DAE792F801C01CF09A
:109FEC00010F08D010B5D47D14B1FFF7BBFF10BD25
:109FFC00FFF708FDFBE77047F8B505460E4614461B
:10A00C001F46537813F0020F06D13B462246711EB1
:10A01C00681CFFF7E2FFF8BD0123C9B21DF0B4FDC7
:10A02C00F3E7000010B54FF4E072002113481EF066
:10A03C00A7FD06F0DFFA0024114B1C60802221469C
:10A04C0010481EF09DFD104B104A1A60104A5A60C1
:10A05C004CF250329A600F49D9601A6104221A7579
:10A06C009C7508225A750C4803F076FD0B4B186052
:10A07C000B4B1C600B4806F0BBFD10BDC43600201A
:10A08C009036002010360020AC36002080969800C8
:10A09C00F049020020A10700E9A20200A836002026
:10A0AC00943600202192020008B506F0C3FA08BDD0
:10A0BC0098B110B58CB00446036983B1C36983B100
:10A0CC00836983B101466846FFF75CFEA28A216969
:10A0DC006846FFF741FE0CB010BD0E2070470E20F5
:10A0EC00F9E70E20F7E70E20F5E7000058B310B59E
:10A0FC0090B00A46044643683BB383693BB30146C0
:10A10C0004A8FFF799FA134B1B6813F0040F03D044
:10A11C00114B1B68062B06DCA268616804A8FFF7CC
:10A12C001BFE10B010BD0D4BD3F804352278A1697D
:10A13C00029101920A4A009240F605020949072051
:10A14C0004F03AFFE8E70E2070470E20E9E70E20F6
:10A15C00E7E700BF482F0020442F002000100140EB
:10A16C00149B04001F9A0400037B012B01D00020D8
:10A17C00704730B591B004460D463F4B1B6813F049
:10A18C00040F03D03D4B1B68032B59DC04A900239F
:10A19C0004930593CDF81730E0889DF8102002F059
:10A1AC0080028DF81020C0F3861C42EA0C028DF858
:10A1BC0010209DF8112002F003028DF8112042EAC4
:10A1CC0080028DF811202A0E8DF812202A0C8DF8A1
:10A1DC0013202A0A8DF814208DF815506278022A63
:10A1EC000CBF012018469DF8102002F07F028DF85C
:10A1FC00102042EAC0128DF810204FF0060209928E
:10A20C004FF001028DF82C20A28AADF82E200C9371
:10A21C008DF81C300891226A0D928DF82830E36A73
:10A22C000F9319D0E389ADF82A30A37DF3B98DF8DB
:10A23C0038306FF0010107A8FFF758FF11B030BD9F
:10A24C000F4BD3F804350F4A009240F263220E49AB
:10A25C00042004F0B1FE99E70DF10E0103A810F0F3
:10A26C0061FBBDF80C30ADF82A30DEE7074B5B7DA7
:10A27C008DF83830DDE700BF482F0020442F002038
:10A28C0000100140409B04001F9A0400AC360020D3
:10A29C0090F84830022B00D0704710B5044690F867
:10A2AC006830022B00D010BDC16CFFF75DFF002899
:10A2BC00F9D1002384F86830F5E7000010B50024CC
:10A2CC0007E0C4EBC402130103481844FFF7E0FF96
:10A2DC000134032CF5D910BDC436002008B5FFF7A6
:10A2EC0051F9FFF7EBFF012008BD10B50C4691F8B2
:10A2FC004830022B06D1022384F868302046FFF741
:10A30C00C7FF10BD7846FEF78DFDF4E7F0B583B0BE
:10A31C000446C1698369C2880E0A0906C3F30C009E
:10A32C0082422FD9121A1A44A2F500528D1846F106
:10A33C0000062A463346A08AFEF714FE002840F099
:10A34C00A2802046FEF7EEFE074630B3C269806954
:10A35C00F988130A1206C0F30C0C8C4515D2A1EB2C
:10A36C000C010144A1F50051521843F10003AA421B
:10A37C0073EB06010DD3954276EB030339D33846C4
:10A38C0003B0F0BD121A1A44D0E7A1EB0C01014442
:10A39C00EAE705213846FFF7C7FBE388E269A169C4
:10A3AC00A08A06F02FFA30BB2A463346A08A1DF04D
:10A3BC00F5FC00283AD1627A0132E37D002B45D0BE
:10A3CC00082101FB02F2002B42D04FF48073934220
:10A3DC0041D302212046FFF7BFF907460028CED112
:10A3EC0000212046FFF7C0FE02210020FEF7FEFEF2
:10A3FC00C5E70027C3E7E388E269A169A08A06F0F4
:10A40C0079FA08B90027BAE723785BB1637A01338C
:10A41C000121994001392046FFF7A6FE2046FFF79F
:10A42C007DF9EFE77846FEF7FDFCEFE723784BB1BB
:10A43C00637A01330121994001392046FFF794FEDC
:10A44C0000279CE77846FEF7EDFCF1E70C21B8E716
:10A45C004FF4C073BBE70D4B1B6813F0040F03D014
:10A46C000B4B1B68002B01DC002788E7094BD3F84A
:10A47C0004350192084A009240F27F3207490120CC
:10A48C0004F09AFDF0E7002779E700BF482F002081
:10A49C00442F002000100140509B04001F9A040020
:10A4AC002DE9F04782B007460E46154698461046F1
:10A4BC00FFF72CFF00284ED004464D4B1B6813F0C1
:10A4CC00040F03D04B4B1B68032B47DC2046FFF7D4
:10A4DC007FF8237B012B4FD0E16C2B7A01229A4021
:10A4EC00114238D11143E164A6F1040A2B7AEA7DBA
:10A4FC00002A49D04FF0080C0CFB03FC617A8B420C
:10A50C0045D0002A48D00823534547D1A269AB69EE
:10A51C009A420BD204F10C0E05F10C09B9E80F00AC
:10A52C00AEE80F0099E803008EE80300E06E524697
:10A53C00391D60441EF0EEFA6B7813F0020F32D125
:10A54C00E66C2378002B35D0627A013201239340DC
:10A55C00013B9E4232D002B0BDE8F087264BD3F8C7
:10A56C0004352A7A0192254A009240F2A3322449FA
:10A57C00042004F021FDA9E794F86830002BABD13E
:10A58C002046FFF73BF8A7E74FF00C0CB4E70CEBB9
:10A59C000A03A4F84A30B9E70C23B5E70421204696
:10A5AC00FFF7C2FAD7E701232A46F1B238461DF06D
:10A5BC00EBFAC5E77846FEF735FCC5E7E16C2046BB
:10A5CC00FFF7D2FD6B7813F0020F0AD143462246F7
:10A5DC00B4F84A10E06EFFF700FD2046FFF76EFA64
:10A5EC00B9E70122E988A88A1DF0B6FBEEE700BFA7
:10A5FC00482F0020442F002000100140649B0400D1
:10A60C001F9A04002DE9F04190B0002856D00F4657
:10A61C0014461E468046002A52D004AB00933346A3
:10A62C00FEF710FE054618B1284610B0BDE8F081C3
:10A63C0004A8FFF73DF805460028F5D104A81DF045
:10A64C0031FB28B19DF8113043F002038DF8113025
:10A65C0000230293039302A9608810F047F928B1F4
:10A66C009DF8113043F001038DF811302269E16837
:10A67C00208906F07FF838B19DF8113003F0FE0305
:10A68C008DF81130002BCFD09DF81130002BCBD092
:10A69C0013F0010F01D0039B08939DF8103033B1D8
:10A6AC00334604AA39464046FFF7FAFEBCE7334668
:10A6BC0004AA39464046FFF79FFCB5E70E25B3E7E1
:10A6CC000E25B1E738B3F8B50E460546174B1F6893
:10A6DC00012F22D8002400E00134B44210D205EB43
:10A6EC00C4035B68DBB115F8340015F93430002B6A
:10A6FC0017DBC0B1FEF73CFD0028EDD00F200DE0BC
:10A70C000B4B43F8375003EBC7035E600137074B25
:10A71C001F60002002E00E2070470420F8BD0E20C0
:10A72C00FCE70B20FAE70F20F8E700BF9436002077
:10A73C0098360020084B196861B110B501E021462C
:10A74C003CB10C680B79002BF9D0034804F09FFB4B
:10A75C00F5E710BD704700BF8838002038B50546B6
:10A76C0030B1104B1C68C4B10F4B01221A7004E0BD
:10A77C007846FEF757FBF4E724683CB12379002BAD
:10A78C00FAD154F8043C28469847F5E7064B1B7859
:10A79C00022B03D0044B00221A7038BDFFF7CAFFFE
:10A7AC00F8E700BF883800208438002010B5044634
:10A7BC0030B100232372211D034804F03DFB10BD72
:10A7CC007846FEF72FFBF4E78838002010B50446D6
:10A7DC0058B10A4B1B78013BDBB2012B09D8074B54
:10A7EC0002221A700123237210BD7846FEF71AFB61
:10A7FC00EFE7211D024804F04AFBF5E784380020FE
:10A80C00883800200A8883689B5A07339BB223F050
:10A81C00030313449BB20288043A934200D90023E9
:10A82C000B80704710B582B004468368C91AADF826
:10A83C0006100DF10601FFF7E5FFBDF80630A06824
:10A84C00184402B010BD0088043880B270474388A9
:10A85C008268D018D152012383707047826800231C
:10A86C00937043808380704708B5073189B221F01B
:10A87C00030189B2428883889A4204D29B1A994276
:10A88C0020DC002008BD9A4212D9B0F800C0ACEB15
:10A89C00020C614518D98B4218D3BCF1030F03D9B4
:10A8AC008368134404229A70002343801846E9E716
:10A8BC0082681A4493780BB10420E3E7FFF7CEFFCC
:10A8CC000020DFE70420DDE70020DBE70420D9E7E8
:10A8DC0038B504460D468368828813448B4202D0F7
:10A8EC007846FEF79FFA0023AB70211D2046FFF738
:10A8FC0089FFA288A36813449B78042B00D038BD31
:10A90C000023A380FBE710B50C46836842881344F0
:10A91C008B4202D07846FEF785FA0023A37010BD57
:10A92C0070B5054614460E46002944D0002D46D07D
:10A93C00B6F1005F08D94FF08053D3F80C3103F512
:10A94C000023B6EB832F0ED3B6F5000F08D94FF0CA
:10A95C008053D3F80C3103F50053B6EB832F02D39D
:10A96C007846FEF75FFA631E3344B3F1005F08D9F3
:10A97C004FF08052D2F80C2102F50022B3EB822F5B
:10A98C000ED3B3F5000F08D94FF08052D2F80C213A
:10A99C0002F50052B3EB822F02D37846FEF742FA4F
:10A9AC00042C10D92C8000236B80AB80AE60043C4F
:10A9BC003480B37070BD7846FEF734FAB6E778464B
:10A9CC00FEF730FAB4E77846FEF72CFAEAE738B52A
:10A9DC000446A0B16288A36813449B78012B12D063
:10A9EC00EFF3108572B6A388A16819448B78032BFA
:10A9FC000DD02046FFF732FF05B962B638BD784658
:10AA0C00FEF710FAE6E77846FEF70CFAE8E7204680
:10AA1C00FFF708FFA368C31A638000238370EBE77A
:10AA2C002DE9F0410E4614460546D0B1EEB16A88C8
:10AA3C00AB6813449B78012B1BD024B32846FFF73B
:10AA4C0002FFA04221D3EFF3108872B621462846AC
:10AA5C00FFF70AFF074680B1B8F1000F16D162B6B6
:10AA6C0014E07846FEF7DEF9E0E77846FEF7DAF90F
:10AA7C00DDE77846FEF7D6F9DFE721462846FFF7F3
:10AA8C00E6FE3060E8E7092700E009273846BDE814
:10AA9C00F081F8B50C4615460646E0B1FCB1A3783A
:10AAAC00012B20D12388AB4221D325B3EFF31087A0
:10AABC0072B625800223A370F1183046FFF7A2FE70
:10AACC007388B288934203D0B268134400229A7000
:10AADC0007B962B6F8BD7846FEF7A4F9DEE778460A
:10AAEC00FEF7A0F9DBE77846FEF79CF9DAE7784643
:10AAFC00FEF798F9D9E77846FEF794F9D6E770B5E2
:10AB0C000C46054690B1ACB1EFF3108672B6AA882C
:10AB1C00AB6813449A78042A10D09A78022A15D07C
:10AB2C00032A18D0052006B962B670BD7846FEF728
:10AB3C0079F9E8E77846FEF775F9E5E7291D284627
:10AB4C00FFF760FEAA88AB681344E6E703229A700D
:10AB5C0023600020E7E77846FEF764F90020E2E77F
:10AB6C0038B5044680B1EFF3108572B6A388A1689E
:10AB7C0019448B78042B0BD08878022814BF002042
:10AB8C00012005B962B638BD7846FEF74BF9EAE705
:10AB9C002046FFF747FE0146EEE738B5054630B1D3
:10ABAC00EFF3108472B6AB88A968194407E07846B5
:10ABBC00FEF738F9F4E72846FFF734FE01468878AB
:10ABCC00C31EDBB2012BF6D9022814BF00200120D2
:10ABDC0004B962B638BD70B50C46064678B194B16E
:10ABEC00EFF3108572B6A378012B10D0032B13D181
:10ABFC0021463046FFF76CFE05B962B670BD78464B
:10AC0C00FEF710F9EBE77846FEF70CF9E8E721467A
:10AC1C003046FFF778FEEFE77846FEF703F9EBE7EF
:10AC2C0010B5EFF3108472B68388816819448B7861
:10AC3C00042B06D08878B0FA80F0400904B962B6CB
:10AC4C0010BDFFF7EFFD0146F4E70000024B0022B8
:10AC5C001A769A60022070478C38002008B5064B93
:10AC6C00986800221A605A609A60DA601A615A6118
:10AC7C009A6105F069F908BD8C38002000B585B0E3
:10AC8C000A4BDB6802228DF8002001934FF48053AD
:10AC9C000293074A6946012001F0FAFA18B901201B
:10ACAC0005B05DF804FB0020FAE700BF8C380020EB
:10ACBC00AA38002000B585B00A4B1B6802228DF81B
:10ACCC00002001934FF480530293074A69460120F8
:10ACDC0001F0DEFA18B9012005B05DF804FB002084
:10ACEC00FAE700BFAC380020AA380020164BDA680F
:10ACFC00137951795B1A03F57F2303F6FF7302EB8B
:10AD0C0003339A4205D002F580520F4BDA600320D0
:10AD1C00704700B585B00D4B1B6801208DF8000005
:10AD2C0001930B4B0393042302930A4A694601F0E7
:10AD3C00AFFA18B1002005B05DF804FB024B0122FC
:10AD4C001A760220F7E700BF8C380020AC380020C0
:10AD5C00B0380020AA38002000B585B00C4BDA685A
:10AD6C000C4B1B68043301208DF8000001920393F7
:10AD7C0040F6FC730293084A694601F089FA28B937
:10AD8C000120034B187605B05DF804FB0020FAE7B0
:10AD9C008C380020AC380020AA38002000B585B0D3
:10ADAC000A4B1B6801208DF800000193084B03939C
:10ADBC0004230293074A694601F06AFA18B9012084
:10ADCC0005B05DF804FB0020FAE700BFAC380020AA
:10ADDC0098380020AA38002010B584B0104BDA68DF
:10ADEC001478104B1B68043301208DF8000001937C
:10ADFC00039202940C4A694601F04AFA70B9094B65
:10AE0C001B6804F0FC0423440433054A5361D168E5
:10AE1C000B780B441361012004B010BD0020FBE73C
:10AE2C008C380020AC380020AA38002008B500234C
:10AE3C000A2B09D8064A52F82320824201D001334A
:10AE4C00F6E7044A536002E07846FDF7EBFF08BDD5
:10AE5C00FC9B04008C38002010B5214BDB6853B1EF
:10AE6C001F4B1B7E5BB91E4B5B680A2B26D97846A1
:10AE7C00FDF7D8FF22E07846FDF7D4FFF0E77846DF
:10AE8C00FDF7D0FFEFE7164A5368013353600A2BE6
:10AE9C0021D97846FDF7C6FF1DE0114B00225A6000
:10AEAC0019E00F4B1B7E1BB10D4B02221A7012E0E6
:10AEBC00FFF7D4FE0FE00A4B1B7E83B9084B5A6890
:10AECC00084B53F82230984704460228E9D003284F
:10AEDC00E3D00128D7D0012CEDD0032CEBD010BD42
:10AEEC008C380020FC9B0400104B1B681B685A1EFE
:10AEFC0012F1030F18D8C3F30B020AB100207047EC
:10AF0C0010B50B4AD36000231376537601241470CA
:10AF1C0093600848FFF78AFF0749204601F0A6F91D
:10AF2C00FFF79AFF204610BD00207047AC38002078
:10AF3C008C38002089AC020049AF020008B50B78B0
:10AF4C00032B06D00B4B1B78012B06D0022B0BD0FE
:10AF5C0008BD084B00221A76F4E7064B1B7E002B2B
:10AF6C00F6D1FFF779FFF3E70B78032BF0D1FFF75E
:10AF7C0075FEEDE78C38002000B585B0174BDB680B
:10AF8C0018784FF6FF7203F58051184405F0E6FD72
:10AF9C00E0B10246114BD9680B780B44984217D09C
:10AFAC000E4B5B7E83B10E4B01208DF8000001929D
:10AFBC000393042302930B4A694601F069F948B9DB
:10AFCC000120064B187606E0074BEDE7012002E066
:10AFDC00012000E0002005B05DF804FB8C38002057
:10AFEC00509E0400AA3800204C9E040008B5104B5B
:10AFFC00DB681878002203F58051184405F0AEFD8B
:10B00C0008B1012008BD0A4BDA68137951795B1A33
:10B01C0003F57F2303F6FF7302EB03339A4205D04B
:10B02C0002F58052024BDA600320EBE70220E9E7DD
:10B03C008C380020F0B585B0514BDE6872793379CD
:10B04C00591E8A4214D006F580510D780D444D4995
:10B05C000968081D0F7907449B1A06EB03366B88A9
:10B06C00013B9BB247F6FE62934260D92C461AE034
:10B07C000120434B58767EE07846FDF7D3FE15E071
:10B08C0024F47F6424F00F0404F5805423781C44CA
:10B09C00A6421CD9A5421CD26388013B9BB247F641
:10B0AC00FE62934211D92388002BE5D0238804EB50
:10B0BC00830323F47F6222F00F029342E0D0628874
:10B0CC00B2F5FE4FDCD01C46E2E725462FE000250A
:10B0DC002DE000252BE07846FDF7A4FE15E024F4C6
:10B0EC007F6424F00F0404F5805423781C44A6429A
:10B0FC001CD9A54237D26388013B9BB247F6FE624E
:10B10C00934211D92388002BE5D0238804EB8303C9
:10B11C0023F47F6222F00F029342E0D06288B2F5F2
:10B12C00FE4FDCD01C46E2E7254600E00025E5B1E9
:10B13C00144B19686A8801F58051384605F00EFDEC
:10B14C00074690B101200E4B18768DF80000019542
:10B15C000D4B0393042302930C4A694601F098F8B3
:10B16C0058B92C46CEE70025E1E7B5FA85F56D090F
:10B17C00034B5D76012005B0F0BD0020FBE700BF5E
:10B18C008C380020AC380020489E0400AA380020DF
:10B19C002DE9F04186B0654B1B6923B1634B5B69AC
:10B1AC002BB1002748E07846FDF73CFEF6E77846E1
:10B1BC00FDF738FEF5E7A04618E07846FDF732FEBD
:10B1CC0018E028F47F6828F00F0808F5805898F8E4
:10B1DC0000309844454520D944454AD2B8F802304D
:10B1EC00013B9BB247F6FE62934214D9B8F800308B
:10B1FC00002BE2D0B8F8003008EB830323F47F6215
:10B20C0022F00F029342DCD0B8F80220B2F5FE4FC8
:10B21C00D7D09846DEE7444600E000243CBB002330
:10B22C000093019B002B5CD10127002C78D0628805
:10B23C0047F6FF739A4273D0002F75D13B4B5A6976
:10B24C0022F47F6626F00F06B61A06F580561C69A6
:10B25C00DD682B796A799B1A05EB03350023019382
:10B26C006388013B9BB247F6FE629342A3D80094DD
:10B27C000EE00024D2E77846FDF7D4FD23E024F459
:10B28C007F6323F00F0303F580531A7813441C4695
:10B29C00A542C6D92388019A02EB83029642C0D9F3
:10B2AC00009B634023F47F6323F00F03002BB8D182
:10B2BC006388013B9BB247F6FE618B42B1D8019289
:10B2CC002388002BD7D0238804EB830323F47F62DD
:10B2DC0022F00F029342D2D06288B2F5FE4FD6D143
:10B2EC00CDE7124A526901208DF808000392009AAA
:10B2FC00059204930E4A02A900F0CAFF70B90B49DB
:10B30C00019B23F003024B6913444B6114B1074BAF
:10B31C001C618AE77846FDF785FDF8E7002000E020
:10B32C00012006B0BDE8F0810120FAE78C3800203E
:10B33C00AA38002000B585B00023294A1370D3F831
:10B34C00F83FB3F1FF3F09D0B3F1FF3F0DD08BB104
:10B35C00B3F1FF3F39D0A3F5805211E04FF010222A
:10B36C005269B2F1FF3FEFD104E04FF01022526965
:10B37C00002AEDD14FF080535A691B6903FB02F28E
:10B38C00A2F58052174B1A60174B1B6813F4801FE1
:10B39C0016D0164B1B68062B12DD154BD3F8043553
:10B3AC000021D1F8F81FB1F1FF3F14D002920191A6
:10B3BC00104A009240F276220F49072003F0FCFD60
:10B3CC00FFF792FD05B05DF804FB4FF010235A69AE
:10B3DC00A2F58052D4E74FF010214969E6E700BF8F
:10B3EC00A8380020AC380020482F0020442F002023
:10B3FC0000100140C89B0400AF9B040010B504462C
:10B40C00B0B1104B1B78BBB10E4BD968E3685879BF
:10B41C00A3EB0032914211D31A79121A02F57F2252
:10B42C0002F6FF7203EB0233994209D8012004E0C3
:10B43C007846FDF7F7FCE4E7002010BD0020FCE7A0
:10B44C000020FAE78C380020024B1878003818BF1F
:10B45C00012070478C38002010B50446124B1B7825
:10B46C00BBB92378032B18D10F4B9C60E268DA60D0
:10B47C000E4B1B78ABB10A220B4B5A6000221A768A
:10B48C00012018705A760A4900F0F0FEFFF7E4FC30
:10B49C0010BD7846FDF7C6FCE3E77846FDF7C2FC25
:10B4AC00E2E70022E8E700BF8C380020A838002033
:10B4BC0049AF0200014B1868704700BFAC38002040
:10B4CC0010B5044680B163681BB123680BB1A36847
:10B4DC0013B97846FDF7A6FCA3685A1E134207D190
:10B4EC000023E360236110BD7846FDF79BFCEAE77F
:10B4FC007846FDF797FCF3E770B508B30E460446A3
:10B50C008368FBB1EFF3108572B60369C26893428E
:10B51C0012D001684268806800F1FF3C03EA0C031A
:10B52C0003FB021116B130461DF0F4FA2369013306
:10B53C0023614DB962B608E005B962B6052504E091
:10B54C000E2502E0092500E00025284670BD00000C
:10B55C000246C0F30B0030BB39B301F6FF714FEA62
:10B56C00113C134B0221C3F80415114BD3F80034D2
:10B57C00002BFAD001460AE00D4BC3F808250C4B02
:10B58C00D3F80034002BFAD002F58052013161451A
:10B59C00F2D3074B0022C3F80425054BD3F8003433
:10B5AC00002BFAD07047102070470920704700BF5D
:10B5BC0000E00140844610F0030F2DD111F0030F71
:10B5CC002CD16AB312F0030F2CD19008164B012228
:10B5DC00C3F80425144BD3F80034002BFAD003E045
:10B5EC000CF1040C04311046421E58B10B68B3F137
:10B5FC00FF3FF5D0CCF800300B4BD3F80034002BC8
:10B60C00FAD0EDE7084B0022C3F80425064BD3F81B
:10B61C000034002BFAD07047102070471020704770
:10B62C00092070470920704700E00140094B1B7846
:10B63C0013F0040F02D00378122B00D07047064B86
:10B64C001A68064B5A60034B1A786FF382021A7011
:10B65C00F4E700BF5839002048390020E4380020B6
:10B66C0010B582B001900C46BDF80630012B11D1FB
:10B67C0023680A490B600A4B1A7842F001021A70CF
:10B68C00D3B25B0883F0010303F001030B710020BC
:10B69C0002B010BD7846FDF7C5FBE9E7483900203C
:10B6AC005839002010B582B001900C46BDF8063018
:10B6BC00022B0FD12268094B1A6022791A710020D3
:10B6CC0058719871D871064A137843F002031370BD
:10B6DC0002B010BD7846FDF7A5FBEBE74039002022
:10B6EC005839002010B582B001900C46BDF80630D8
:10B6FC00032B06D1054B186820601B79237102B00F
:10B70C0010BD7846FDF78EFBF4E700BF48390020EA
:10B71C0010B582B001900C46BDF80630032B0CD14D
:10B72C00084B2068186022791A71074A137843F085
:10B73C0001031370002002B010BD7846FDF772FBB8
:10B74C00EEE700BF483900205839002010B582B010
:10B75C0001900C46BDF80630042B05D1044B03CBED
:10B76C002060616002B010BD7846FDF75BFBF5E729
:10B77C004039002010B582B001900C46BDF806305F
:10B78C00042B0BD1074B2068616803C3064A13785E
:10B79C0043F002031370002002B010BD7846FDF791
:10B7AC0041FBEFE7403900205839002000B583B049
:10B7BC000190BDF80630032B06D1054B00221A6010
:10B7CC001A7103B05DF804FB7846FDF72BFBF4E728
:10B7DC004839002000B583B00190BDF80630042B29
:10B7EC0006D1054B00221A605A6003B05DF804FBC9
:10B7FC007846FDF717FBF4E74039002000B585B01B
:10B80C001A4B1B7813F0400F13D0184B1B7813F006
:10B81C00040F0BD1002301938DF80830144B5B6897
:10B82C0003F500530193B3F1807F06D905B05DF8A1
:10B83C0004FB7846FDF7F6FAE7E70E4B1B788DF81C
:10B84C0008300A4A137843F0040313700023ADF850
:10B85C000C300323ADF80E3001A9039806F06CFBF5
:10B86C000028E3D07846FDF7DDFADFE758390020F1
:10B87C00E43800205939002000B585B0002201922F
:10B88C0002920F4B996801911B7B8DF808300D4982
:10B89C000B780133DBB20B708DF80B30ADF80C204C
:10B8AC000423ADF80E300DEB0301039806F044FBB6
:10B8BC0010B905B05DF804FB7846FDF7B3FAF8E76C
:10B8CC00E43800205939002000B585B000230193DD
:10B8DC0002930F4A91680191117B8DF80810128A1E
:10B8EC00ADF809200B4A12788DF80B20ADF80C300E
:10B8FC000423ADF80E300DEB0301039806F01CFB8E
:10B90C0010B905B05DF804FB7846FDF78BFAF8E743
:10B91C00E43800205939002000B58DB00B4B1B7B4F
:10B92C00012B0ED0094A926804928DF808300390CE
:10B93C0002238DF8043001A8FEF710FF0DB05DF85E
:10B94C0004FB024A9268013A0492EEE7E4380020C4
:10B95C0008B51D481D4B036000F038FF1C4B1B78CD
:10B96C0013F0200F2AD103F00303032B14D1194B2E
:10B97C001968194A916019791173B3F8050010828E
:10B98C00DB79164A1370164A1279934217D0B1B963
:10B99C00114B00221A6007E00F4B00221A609A60CC
:10B9AC001A731A82FFF768FF0B4B1A685A60084A21
:10B9BC00137843F040031370FFF720FF08BD084BCA
:10B9CC001A68054B1A60EFE73439002039B60200CB
:10B9DC005839002040390020E43800205939002023
:10B9EC004839002010B582B00024ADF80040012386
:10B9FC00ADF80230009806F0D0FAADF804400223FE
:10BA0C00ADF80630019806F0C8FA02B010BD00007F
:10BA1C0008B5002006F0E8FA094A002313605360C9
:10BA2C009360D3601361074A117863F34511117069
:10BA3C00CBB243F040031370FFF7E0FE08BD00BF2C
:10BA4C00E43800205839002038B50C4D00242C6007
:10BA5C006C60AC60EC602C6101F010FA084B586023
:10BA6C00084A9A60084ADA601C615C61074B1A78D4
:10BA7C0064F3C3021A706C6038BD00BFE438002058
:10BA8C00C0380020F5BB0200008793035839002012
:10BA9C0008B50C4B1B7813F0100F00D008BD0A48EA
:10BAAC000A4B036000F092FEFFF752FFFFF79AFF7C
:10BABC00074801F067F9034A137843F01003137039
:10BACC00ECE700BF58390020D83800204DBD0200EB
:10BADC00C0380020034B1878800880F0010000F07B
:10BAEC00010070475839002010B501F0B7FF174B13
:10BAFC001B7B1BBB154B9B7B2BBB144B1A8A41F23C
:10BB0C0082639A4206D8124B1B7813F0080F05D0AB
:10BB1C00012300E001231BB9082410E00023FAE7FD
:10BB2C000A4B01221A7300241C829A6801329A6013
:10BB3C00FFF7A2FE2046FFF7EFFE00E0082401F01D
:10BB4C00D3FF204610BD0824F9E700BFE4380020DD
:10BB5C005839002010B501F081FF214B5B7BABB154
:10BB6C001F4B9B7B03BB1E4B1A8A41F282639A428A
:10BB7C0006D81C4B1B7813F0080F05D0012300E0EE
:10BB8C0001239BB1012302E00023FAE700231C46AA
:10BB9C000BB3134B00225A731B7B4BB1012B0ED0F2
:10BBAC007846FDF73FF916E00023F0E70023EEE7B7
:10BBBC00FFF79AFF78B17846FDF734F90BE0084BA4
:10BBCC0000201860586018731882FFF7A5FEFFF765
:10BBDC0053FEFFF713FE01F087FF204610BD00BF98
:10BBEC00E43800205839002008B52C4B1B7BDBB106
:10BBFC00012B2ED07846FDF715F9284A138A01330C
:10BC0C009BB21382264AA2FB03121209C2EB021248
:10BC1C00A3EB42039BB2002B3DD0204B5B8A13B1AC
:10BC2C00013B1E4A538208BD1C4B1A8A41F28263A7
:10BC3C009A4206D81B4B1B7813F0080F07D0012330
:10BC4C0000E00123002BD8D0FFF784FFE5E70023A9
:10BC5C00F8E7124B1B8A41F28262934206D8114AD2
:10BC6C00127812F0080F14D0012200E00122002AF1
:10BC7C00C3D042F2B012934202D9084B01225A733C
:10BC8C00FFF768FF0028C8D1044B5B7B012BB4D1B4
:10BC9C00C3E70022EBE7FFF717FEBEE7E43800200E
:10BCAC00898888885839002010B5244B1B7B002BC1
:10BCBC0035D10446214B5B8A2BBB1AB91F4B9B68B1
:10BCCC008B4205D3FAB11D4B9B6801338B421AD2C0
:10BCDC001A4B9B682A338B4223D3184B9B7B03BB99
:10BCEC00164B996000221A605A601A8242F606516D
:10BCFC0059825A731A73FFF7BFFDFFF77FFD204679
:10BD0C00FFF70AFE0DE062B10C4B9B6801338B42CE
:10BD1C0007D10A4B01225A73FFF71CFF01E0012BDC
:10BD2C0000D010BD002AFCD1044B9B688B42F8D18B
:10BD3C00024B01225A73FFF70DFFF2E7E4380020A3
:10BD4C000378042B00D0704743681B78002BFAD083
:10BD5C0010B58468027E437E012A14BF00220122A2
:10BD6C00416904F11000FFF79FFF10BD08B538B111
:10BD7C000D4B01229A730D4A13680133136008BDF1
:10BD8C000A4B1B685BB1094A1368013B1360002B1B
:10BD9C00F5D1054B00229A73FFF7DCFEEFE77846EE
:10BDAC00FDF740F8EFE700BFE4380020B43800207E
:10BDBC0000B58DB0ADF808008DF810200391032369
:10BDCC008DF8043001A8FEF7C9FC0DB05DF804FB3A
:10BDDC00014B9868704700BFE4380020054B1B7B73
:10BDEC00012B02D0034B98687047024B98680138BE
:10BDFC00704700BFE43800201D4B1B7813F0400F38
:10BE0C0034D070B504460D461A4B1A685B689A42DA
:10BE1C0028D2184B1B7B012B17D0174B9A4216D2EA
:10BE2C00144B1A685B68403B9A4218D2EFF31086A9
:10BE3C0072B6104A1368591C11602B60FFF7CEFFC5
:10BE4C00206006B962B6002070BD0C4BE6E7094BCA
:10BE5C0001225A73FFF77EFE0028E7D1E0E7FFF7D7
:10BE6C00CDFCE3E7FFF7CAFC0F20EDE70F2070478E
:10BE7C0058390020E4380020FFFF7F0000E0FF006D
:10BE8C00044B9B68584010F0010F00D0013B184642
:10BE9C00704700BFE4380020014B187B704700BF8F
:10BEAC00E4380020F8B5104B1B7813F0200F01D0AC
:10BEBC000820F8BD17460C4E43F0200333700B4D91
:10BECC00A860297300242C82FFF7D6FC2046FFF7CC
:10BEDC0023FD2F606F60337843F040033370FFF71E
:10BEEC008DFC2046E5E700BF58390020E4380020DF
:10BEFC0008B50022FFF7D6FF08BD00002DE9F04180
:10BF0C00002625E0134604FB03F3244AD25A30469C
:10BF1C00C0472249BC2304FB03F3CA5A0132CA525C
:10BF2C000221284602F0C8FD01370221284602F002
:10BF3C0093FD014649B1194BBC2202FB0433D3F8E3
:10BF4C000880B8F1000FDDD1E3E797B90136F6B2FE
:10BF5C00022E1FD83446BC2306FB03F308330F4DC7
:10BF6C001D4404350221284602F076FD01460027C7
:10BF7C00E0E7284602F008FE0828E7D1074BBC2270
:10BF8C0002FB04339B68002BE0D0002204493046AE
:10BF9C009847DBE70120BDE8F08100BF6439002041
:10BFAC00389C040008B5082383731023437300F1F5
:10BFBC001C0343610323037300F1180303610C306A
:10BFCC0002F0B4FD08BD000008B50378012B06D0C3
:10BFDC00022B06D07846FCF725FF002002E0292032
:10BFEC0000E0014808BD00BF084C010008B503780B
:10BFFC00012B07D0022B15D07846FCF713FF4FF41A
:10C00C00FA730AE08268521A22F0030303EB9203DC
:10C01C00DB0003EB920303F5FA730748984228BF41
:10C02C00184608BD83685B1A1B0B044A02FB03F31A
:10C03C0003F5FA73F1E700BF60850100084C0100BD
:10C04C0038B5044601210C3002F006FD054678B1E6
:10C05C00084BC4F89C300023C4F8A0306168FFF78B
:10C06C00C5FFC4F8A800C4F8AC40012384F8B8306C
:10C07C00284638BDA1C1020010B50446FFF7E0FF09
:10C08C0020B104F19C000FF05DFB00B910BD7846A7
:10C09C00FCF7C8FEFAE70000F8B505460C46164654
:10C0AC0017680378012B19D1124BA3FB04314909F2
:10C0BC008B00AC68E41BB4EB810F00D31C468CB135
:10C0CC00686827F00307E968224639443844FFF7CB
:10C0DC0071FA58B9336823443360F8BD7846FCF7DD
:10C0EC00A1FEE1E77846FCF79DFEE9E77846FCF710
:10C0FC0099FEEFE77D0CCEC7F8B506460C46154603
:10C10C0017680378022B17D1114BA3FB04231B0CCC
:10C11C001A03B468E41BB4EB033F00D314467CB1A0
:10C12C00706827F0030721463844FFF711FA58B915
:10C13C002B6823442B60F8BD7846FCF773FEE3E7CD
:10C14C007846FCF76FFEEBE77846FCF76BFEEFE703
:10C15C00EB0661C538B505460C4611462378012B14
:10C16C0006D0022B0FD07846FCF75CFE002004E0D2
:10C17C00021D2046FFF790FFA0686B68834214BF36
:10C18C000020012038BD021D2046FFF7B5FFA06836
:10C19C00F3E700002DE9F8430F46D1F8A850254BE2
:10C1AC001B786BB90446A5F5FA7501F10C08012151
:10C1BC00404602F051FC064648B14FF0000922E01F
:10C1CC000FF0FCFA002387F8B830BDE8F883784606
:10C1DC00FCF728FEF1E70FF0F1FA0121404602F0DE
:10C1EC006BFC00237B6087F8B830134B186801F0A8
:10C1FC00D3FC3846FFF740FFE7E73046FFF7E4FE95
:10C20C004844A8420FD8A5EB090231463846FFF73F
:10C21C00A1FF0028DFD101F0EDFAB0EB0409ECD559
:10C22C00A4EB0009E9E70FF0C9FA3846FFF724FF41
:10C23C00CBE700BF603900205C39002010B50848FE
:10C24C0001F08AFC074B1860002406E0064BBC206A
:10C25C0000FB0430FFF7A6FE0134022CF6D910BD0A
:10C26C0009BF02005C3900206439002038B504464F
:10C27C000D46022805D8054BBC2202FB04339D60F9
:10C28C0038BD7846FCF7CEFDF5E700BF64390020D9
:10C29C002DE9F84305460C461746022816D8CCB1B2
:10C2AC002378012B1AD0022B3ED16368C3F30B0306
:10C2BC00002B31D1A368C3F30B03002B30D1A3683F
:10C2CC00002B34D17846FCF7ADFD30E07846FCF716
:10C2DC00A9FDE4E77846FCF7A5FDE1E7636813F0F8
:10C2EC00030F0DD1E36813F0030F0DD1A36813F006
:10C2FC00030F0DD1A368D3B97846FCF793FD16E074
:10C30C007846FCF78FFDEDE77846FCF78BFDEDE703
:10C31C007846FCF787FDEDE77846FCF783FDC9E727
:10C32C007846FCF77FFDCAE77846FCF77BFDEFF318
:10C33C00108872B6BC2305FB03F308332A4E1E4447
:10C34C0004360021304602F087FB814678B3002189
:10C35C00304602F0B1FB20686168A268E368C9F856
:10C36C000000C9F80410C9F80820C9F80C302FB126
:10C37C001D4BBC2202FB05335B883B801A4BBC2255
:10C38C0002FB05335A8801325A8093F8B83083B9CE
:10C39C00164B1B7813B10024A1460CE0124BBC20A9
:10C3AC0000FB0530FFF74CFE8146002403E004241B
:10C3BC0001E00024A146B8F1000F00D162B6B9F13A
:10C3CC00000F09D0BC2303FB05F59835064828441B
:10C3DC0004300FF0B7F910B92046BDE8F883784661
:10C3EC00FCF720FDF8E700BF64390020603900201D
:10C3FC0038B50446EFF3108572B610B9164B1B68AE
:10C40C0073B18CB1144A136801331360124B1B685F
:10C41C00003B18BF0123114A137005B962B638BD31
:10C42C007846FCF7FFFCECE70B4B1C68013C1C60EE
:10C43C000CB1EBE70134022CE8D8094BBC2202FB0F
:10C44C00043393F8B830002BF4D1054B02FB0430C5
:10C45C00FFF712FEEEE700BF983B0020603900208A
:10C46C006439002018B1830B024AD05C704700205D
:10C47C00704700BF489C040012DF704700B583B0C2
:10C48C0001F0E8FF40B10C4B1B6813F0400F03D0D8
:10C49C000A4B1B68012B02DC03B05DF804FB084B54
:10C4AC00D3F804350190074A009275220649022000
:10C4BC0002F082FDF0E700BF482F0020442F00203F
:10C4CC0000100140849C0400779C040000B58DB0E2
:10C4DC00114B1B78022B06D07846FCF7A3FC0120ED
:10C4EC000DB05DF804FBFFF7F5FA18B90B48FEF731
:10C4FC005DF9F4E70FF0A0FE074B03221A702C2213
:10C50C00002101A81CF03CFB1D238DF8043001A870
:10C51C00FEF724F9E3E700BFA03B0020382F0020F2
:10C52C000B4B1B78042B00D0704700B58DB0084B1B
:10C53C0005221A702C22002101A81CF021FB1C23BF
:10C54C008DF8043001A8FEF709F90DB05DF804FB75
:10C55C00A03B002008B50378122B00D008BD04487E
:10C56C00FEF734F9034B186801F016FBF6E700BF31
:10C57C00382F00209C3B002010B58AB00FF0A0FE95
:10C58C0070B3044600238DF810300DF1140C864660
:10C59C00BEE80F00ACE80F00DEF80030CCF800303D
:10C5AC00627D052A04D9237D03F00F03072B1ED1CE
:10C5BC00164B1A688AB104AB0393237DC3F30303B0
:10C5CC008DF80430637D062B1BD9063B8DF80530A6
:10C5DC0004F11D03029301A8904720460FF04EFE74
:10C5EC000FF08AFE80F00100C0B20AB010BD207DB1
:10C5FC0004AB063A04F11D0100F00F000EF054FBE1
:10C60C00D6E700238DF805300293E4E7A43B002025
:10C61C0070B582B0314B1B78002B54D104460028E6
:10C62C0055D0067A0F2E01D0062E52D106F08CFC76
:10C63C00E06870B1FCF708FC0DF10700FFF71CFF78
:10C64C000546002840D19DF80730012B04D0022567
:10C65C003AE0FCF707FCEFE7FCF728FC00F07AFB6C
:10C66C00304601F099F9E07800F094F900F08CFF75
:10C67C000EF0EAFF1A480FF0DBFE0EF0C1FC0EF0D4
:10C68C00F5FAFFF7DBFD05F01BFC00F0D9FD06F019
:10C69C001BFC06F0B7F9204601F0E4FDFDF7C2FCE7
:10C6AC0004F018FEFCF70CFB08B1062813D10D485A
:10C6BC0001F052FA0C4B18600C4B00221A60074B1D
:10C6CC0001221A7000E00825284602B070BD0E2524
:10C6DC00FAE70725F8E70546F6E700BFA03B002080
:10C6EC0085C50200D9C402009C3B0020A43B00205D
:10C6FC0010B582B0204B1B78012B0DD05AB2002AFA
:10C70C0035D0043BDBB2012B33D80FF00BF80446C9
:10C71C0028B3204602B010BD01F0B4FDFDF7C4FCF7
:10C72C00FCF7CEFA0446B8B1062815D0134B1B689B
:10C73C0013F4804FEDD0124B1B68012BE9DD114B2C
:10C74C00D3F804350190104A00924FF4C2720F498D
:10C75C00022002F031FCDCE701F054F9D5E7064B7E
:10C76C0002221A700A4B186801F016FAD1E7082455
:10C77C00CFE70824CDE700BFA03B0020482F0020C6
:10C78C00442F002000100140B09C0400779C040052
:10C79C009C3B002008B5094B1B78032B01D00820CB
:10C7AC0008BD064B04221A7005480EF06FFF0028D6
:10C7BC00F6D07846FCF736FB0020F1E7A03B0020D2
:10C7CC002DC5020008B5FDF773FC08BD08B5FDF7D3
:10C7DC00EDFF08BD08B5FDF7F9FF08BD08B500F081
:10C7EC0099FE002008BD08B508F036F808BD000019
:10C7FC00074A136801331360B3F1704F02D0044B36
:10C80C0018687047134600221A6001221A60F6E776
:10C81C00A83B002010B5044618B1002323606360C8
:10C82C0010BD7846FCF7FEFAF7E738B50C4605461E
:10C83C0068B184B100236360EFF3108372B62A6889
:10C84C006AB16A6854606C6003B962B638BD7846E8
:10C85C00FCF7E8FAEDE77846FCF7E4FAEAE72C6037
:10C86C00F1E710B5044658B1EFF3108372B62068A7
:10C87C0008B142682260226832B103B962B610BDB9
:10C88C007846FCF7CFFAEFE76260F6E710B504469E
:10C89C0008B1206810BD7846FCF7C4FAF9E738B542
:10C8AC000C46054688B1A4B12046FFF7EFFF58B1FE
:10C8BC002846FFF7EBFF80B16B6822685A6063680B
:10C8CC006B602046FFF7A6FF38BD7846FCF7AAFA46
:10C8DC00E9E77846FCF7A6FAE6E794E8030085E872
:10C8EC0003002046FFF796FFEEE7037A13B100230F
:10C8FC000372704743681B6804334360704710B57C
:10C90C0084B00446416803681A1D91420DD06368D7
:10C91C0018682268516888421CD063681A6852688B
:10C92C001A600123237204B010BD019302930023FB
:10C93C008DF80C30029B1B68002BE8D062681268E3
:10C94C009A4203D001A8FFF7D0FFF3E701A8FFF745
:10C95C00D6FFE8E7934202D0043B5360DDE70023A7
:10C96C005360DAE735DF704708B54FF0FF30FFF75B
:10C97C00F9FFBFF34F8F0549CA6802F4E062044B1C
:10C98C001343CB60BFF34F8F00BFFDE700ED00E01A
:10C99C000400FA05072814D8DFE800F0080C150489
:10C9AC00110F0A066420704714207047FA20704754
:10C9BC001E2070474FF4FA707047322070474B209E
:10C9CC007047FA207047962070470000024B586859
:10C9DC00103840B2704700BF00ED00E0034600285D
:10C9EC000FDB5B11084A52F82330424200F01F0063
:10C9FC0002F01F0258BF504223FA00F000F0010071
:10CA0C00704700F11F03ECE700E100E046DF7047E0
:10CA1C0038B504460D464B1EDBB2012B0AD8002359
:10CA2C0023616361A361E3612046FFF7EFFF4FF0E1
:10CA3C00010C1AE07846FCF7F5F9F0E7CA5CC81867
:10CA4C005200D2B2CA54407842EAD012CA540133CE
:10CA5C009BB20E2BF2D9CB7B5B00CB73BEF1000FDC
:10CA6C000ADB0CF1010C5FFA8CFCAC450BD82146AF
:10CA7C0011F920EF0023ECE794F82F3083F08703B3
:10CA8C0084F82F30EDE738BD2DE9F04190B08446A5
:10CA9C000C4696461F4602F10F084FEA281604ADC5
:10CAAC000068DCF80410DCF80820DCF80C300FC54A
:10CABC000EF00F055FEA181802D07DB1002300E0DC
:10CACC000023984663B1012104A8FFF7A1FFB8F138
