:020000022000DC
:1070000000F0032069730200517302005373020001
:10701000557302005773020059730200000000000C
:107020000000000000000000000000005B73020090
:107030005D730200000000005F73020061730200D4
:1070400063730200637302006373020063730200E0
:107050006373020063730200FDEA030063730200BE
:107060006373020063730200B1BE03006373020026
:1070700063730200637302006373020063730200B0
:1070800063730200A5740400EDE302006373020061
:107090000975040063730200F1F5030063730200D5
:1070A0006373020063730200637302006373020080
:1070B0006373020063730200000000000000000020
:1070C0006373020063730200637302006373020060
:1070D0006373020063730200637302006373020050
:1070E0006373020063730200637302000000000018
:1070F00000000000637302000000000063730200E0
:10710000000000000000000000000000000000007F
:10711000000000000000000000000000000000006F
:10712000000000000000000000000000000000005F
:10713000000000000000000000000000000000004F
:10714000000000000000000000000000000000003F
:10715000000000000000000000000000000000002F
:10716000000000000000000000000000000000001F
:10717000000000000000000000000000000000000F
:1071800000000000000000000000000000000000FF
:1071900000000000000000000000000000000000EF
:1071A00000000000000000000000000000000000DF
:1071B00000000000000000000000000000000000CF
:1071C00000000000000000000000000000000000BF
:1071D00000000000000000000000000000000000AF
:1071E000000000000000000000000000000000009F
:1071F000000000000000000000000000000000008F
:10720000334934480A1A02D0072291438D46324945
:1072100032480A1A06D00722914381F309880222D4
:1072200082F314882E482F492F4A00F03FF82F4848
:107230002F49304A00F03AF82F483049304A00F0E0
:1072400035F830483049314A00F030F8304831499B
:10725000314A00F02BF831483149324A00F026F823
:1072600031483249324A00F021F83248324900228E
:1072700000F027F831483249002200F022F8314866
:107280003149091A22F08AFE1F482049884205D058
:107290000268043003B4904703BCF7E70020864639
:1072A000EC4600200021294A9047FEE7884207D09B
:1072B000521A05D0037801300B700131013AF9D12F
:1072C0007047884202D002700130FAE77047000030
:1072D00000F0032000E8032000F0032000F003206A
:1072E0000CCA0400002E0020A73000209C7302006E
:1072F0009C73020004A004000CCA0400002E0020AD
:10730000002E002078A4040078A4040078A40400CF
:1073100078A4040078A4040078A4040078A40400ED
:1073200078A404000CCA0400B4CC0400A8300020E7
:10733000A8300020A83000206C7400206C7400205D
:107340006C7400206C7400206C780020B17B02000B
:10735000FEE7FEE7FEE7FEE7FEE7FEE7FEE7FEE705
:10736000FEE7FEE700F002B8FFF7FCBF08484FF069
:10737000070188438546074880470748016841F46C
:1073800070010160BFF34F8FBFF36F8FFFF738BFFE
:0C73900000F0032071FA030088ED00E01B
:10739C0041DF70470D4B1B6813F4804F03D00C4B2F
:1073AC001B68032B00DC704700B585B0094BD3F884
:1073BC00043502920191084A0092CF220749042019
:1073CC0008F050F905B05DF804FB00BF4030002018
:1073DC003C3000200010014040A50400B6A404007D
:1073EC000D4B1B6813F4804F03D00C4B1B68032B05
:1073FC0000DC704700B585B0094BD3F80435029218
:10740C000191084A0092C6220749042008F02AF983
:10741C0005B05DF804FB00BF403000203C3000207C
:10742C000010014068A50400B6A4040010B582B099
:10743C000C460D4B1B6813F4804F03D00B4B1B6891
:10744C00032B05DC2146062001F0E0FA02B010BD4A
:10745C00074BD3F804350191064A0092B62206492F
:10746C00042008F0FFF8EDE7403000203C3000200D
:10747C000010014090A50400B6A4040030B587B0FC
:10748C00441C634B1B6813F4804F03D0614B1B6887
:10749C00032B06DC631E032B13D8DFE803F00F3736
:1074AC000F375D4BD3F8043501945C4A00924FF4CE
:1074BC0087725B49042008F0D5F8EBE701238DF8BF
:1074CC001430584A1378591C11708DF8153032232A
:1074DC000493642303934E4B1B6813F4804F03D027
:1074EC004C4B1B68032B15DC022C22D9E31E012B01
:1074FC0020D8022303AA05A94B481EF009FD054616
:10750C009DF81410082001F081FA37E000238DF863
:10751C001430D6E7404BD3F804359DF81420019273
:10752C00424A00924FF493723D49042008F09AF8B5
:10753C00DAE7A4B9364B1B6813F4804F39D0354BBE
:10754C001B68032B35DD344BD3F80435384A0092D5
:10755C0040F23B123249042008F084F829E0354D02
:10756C00288810F0BBFF03AA05A928461EF092FC40
:10757C0005469DF81410062001F048FA112D3DD84F
:10758C00DFE805F0173C3C3C093C3C26093C3C3C04
:10759C003C3C3C3C3C091E4B1B6813F4804F03D015
:1075AC001C4B1B68032B06DC062232210F2001F03A
:1075BC0099FA07B030BD184BD3F8043501941E4A24
:1075CC00009240F247121649042008F04BF8EBE702
:1075DC000F4B1B6813F4804FEBD00E4B1B68032B27
:1075EC00E7DD0D4BD3F804350194144A009240F2B8
:1075FC0053120B49042008F035F8DAE7002DD8D0E7
:10760C000F4A40F25711284618F01CFBD1E700BF77
:10761C00403000203C30002000100140A8A50400A0
:10762C00B6A404006C310020DC300020BCA50400A2
:10763C00C0A70400A8300020D8A50400F0A50400C1
:10764C0078A4040000B583B03138032814D90D4B4D
:10765C001B6813F4804F11D00B4B1B68032B0DDDF3
:10766C000A4BD3F804350A4A009240F265120949D4
:10767C00042007F0F7FF01E0FFF700FF03B05DF80F
:10768C0004FB00BF403000203C30002000100140C3
:10769C00C0A70400B6A4040000B58DB01EF000FD18
:1076AC002422002103A822F0A5FB01238DF80C3025
:1076BC0007238DF80F3006238DF81430244B0793D5
:1076CC00244B0B93244903A80CF03EF8034618B343
:1076DC00002B32D00B2B2FD11EF026FD1F4B1B681D
:1076EC0013F4804F03D01E4B1B68032B18DC1B4B71
:1076FC001B6813F4804F20D0194B1B68032B1CDD27
:10770C00184BD3F80435184A00924FF4D872174925
:10771C00042007F0A7FF10E01EF0E2FC0346D7E7B9
:10772C00104BD3F80435124A009240F2AF120F49B5
:10773C00042007F097FFDAE713B90DB05DF804FBEE
:10774C000C4A40F2B511184618F07CFAF5E700BF68
:10775C00D579020021790200103100204030002040
:10776C003C300020001001406CA60400B6A40400BC
:10777C001CA6040078A4040000B583B01D4A0521A2
:10778C004FF4103007F052FF1B4B1B6813F4804F63
:10779C0003D01A4B1B68032B13DC1FF0B3FEE0B9AC
:1077AC0001F0E2F9164801F013FAE0B901F03CFDE2
:1077BC0001F078FD01F0A6FDFFF76EFF03B05DF858
:1077CC0004FB104BD3F804350F4A00924FF4DE72D1
:1077DC000E49042007F046FFDFE70D4A4FF4DF7136
:1077EC0018F030FADCE70A4A4FF4E17118F02AFA83
:1077FC00DCE700BF0DF60200403000203C300020DA
:10780C008974020000100140A8A60400B6A404006C
:10781C0078A4040000B583B00021334800F022FBAB
:10782C0000282CD1314B1B6813F4804F03D0304B04
:10783C001B68032B28DC00212E4800F093FB00284A
:10784C0030D12A4B1B6813F4804F03D0284B1B6894
:10785C00032B2CDC0021284800F07AFE002834D1C0
:10786C002649254800F0A2FE002833D122491E48A3
:10787C0000F050FB002832D103B05DF804FB204A25
:10788C00D72118F0DFF9CDE71E4BD3F80435164A93
:10789C00128801921C4A0092D8221C49042007F03D
:1078AC00E1FEC8E7164ADC2118F0CCF9C9E7154B04
:1078BC00D3F804350F4A12880192154A0092DD2242
:1078CC001249042007F0CEFEC4E70D4AE02118F05F
:1078DC00B9F9C5E70A4AE12118F0B4F9C6E7084A34
:1078EC00E22118F0AFF9C7E7102E0020403000203D
:1078FC003C30002014310020082F0020FC2E0020EA
:10790C0078A4040000100140D8A60400B6A404001A
:10791C00F4A6040000B583B00C4B1B6813F4804F25
:10792C0003D00B4B1B68032B04DCFFF773FF03B076
:10793C005DF804FB074BD3F80435074A00924FF46B
:10794C00C8720649042007F08DFEEEE74030002097
:10795C003C3000200010014010A70400B6A4040025
:10796C0010B50C46062001F025F8207010BD000063
:10797C0000B583B00F4B1B6813F4804F03D00E4B34
:10798C001B68032B0BDC1EF0CFFB0322C8210F203E
:10799C0001F0A8F80BF042FF03B05DF804FB074BB5
:1079AC00D3F80435064A0092F2220649042007F067
:1079BC0059FEE8E7403000203C3000200010014028
:1079CC0030A70400B6A4040008B50378232B00D01C
:1079DC0008BDFFF7CDFFFBE710B5044600210F20D3
:1079EC0001F06AF804EB840462003221032001F0F8
:1079FC0079F810BD08B503781D2B00D008BD0448DC
:107A0C0000F06EFA0028F9D018F00EF9F6E700BF76
:107A1C00102E002008B501F099F808BD00B585B00E
:107A2C0003A812F0CDF90D4B1B6813F4804F03D053
:107A3C000B4B1B68032B02DC05B05DF804FB094BF8
:107A4C00D3F80435BDF80C200192074A00924FF48C
:107A5C00BD720649042007F005FEEDE7403000201A
:107A6C003C300020001001404CA70400B6A40400D8
:107A7C0010B58AB06421264800F044FF254B1B78D2
:107A8C009BB90DF10C0C244C0FCCACE80F0094E816
:107A9C0007008CE8070003A800F0CAFE38B11F4AA3
:107AAC004FF4F07118F0CEF801E0FFF7B7FF01F0DA
:107ABC004FFD01F0BFF81A4805F0DEF90BF09EFE01
:107ACC0098B9184B1B6813F4804F03D0164B1B68E6
:107ADC00032B10DC00210C2000F0EEFF0222C82149
:107AEC000C2000F0FFFF0AB010BD0C4A4FF4F671E9
:107AFC0018F0A8F8E5E70D4BD3F804350C4A0092C2
:107B0C004FF4F7720B49042007F0ACFDE2E700BF1D
:107B1C0051760200103100209CA7040078A40400C8
:107B2C00002E0020403000203C300020001001408E
:107B3C00C0A70400B6A4040000B583B0144B1B68A6
:107B4C0013F4804F03D0134B1B68032B13DC01F091
:107B5C00A9FB01F0D7FBFFF761FF00F0F7FF002155
:107B6C000F2000F0A9FF0422C8210F2000F0BAFF5B
:107B7C0003B05DF804FB084BD3F80435074A0092B8
:107B8C0040F27F120649042007F06CFDDFE700BFCE
:107B9C00403000203C3000200010014064A704005D
:107BAC00B6A4040008B5FFF7E7FDFFF761FFFFF788
:107BBC00EFFBFCE730B583B00446002380F86C3053
:107BCC002D23836631B14A68C0F880200B680366A8
:107BDC0003B030BD00250195D0F8F030186B8368E8
:107BEC005B6801AA29469847019B2366C4F880501C
:107BFC00EEE708B5836B13B190F84810984708BDB1
:107C0C0008B59C3801F0CEF908BD00002DE9F04113
:107C1C0084B004460F4615461E46A0F1EC0850F8F9
:107C2C00B03C0DF10F0140469847A4F1A20214F8A4
:107C3C00BC1C38461EF0CEF850B90196029514F8CB
:107C4C00A22C9DF80F309A4208D104B0BDE8F08107
:107C5C00084A40F20F1117F0F5FFEEE79C3C204666
:107C6C0001F0A0F901A94046FFF7A4FF204601F05E
:107C7C008BF9EAE704A9040008B50346084613F893
:107C8C00A42C13F8BC1C1EF08DF800B908BD034AD7
:107C9C004FF4817117F0D6FFF8E700BF04A9040078
:107CAC0030B583B004461546124B1B6813F4804F55
:107CBC0003D0114B1B68032B11DCE36B04F148015F
:107CCC002046984794F848302B7094F84A306B70E3
:107CDC0004F1500001F074F9686003B030BD074B3B
:107CEC00D3F80435064A009287220649042007F08F
:107CFC00B9FCE2E7403000203C300020001001408D
:107D0C0044A9040035A90400F0B585B00446154615
:107D1C001F460A9E224B1B6813F4804F03D0214B45
:107D2C001B68032B1CDCE36B0DF10F0120469847FD
:107D3C00297884F84A1094F830001EF00BF8E0B95A
:107D4C002A789DF80F309A421CD1002536B194F850
:107D5C004830337094F84A307370756005B0F0BDDC
:107D6C00114BD3F8043512780192104A00929A22E2
:107D7C000F49042007F076FCD5E70E4AA22117F034
:107D8C0061FFDDE739462046FFF714FF256E04F14D
:107D9C00500001F0F9F8D4F8F00000F01BFCD5E726
:107DAC00403000203C3000200010014050A904005D
:107DBC0035A9040004A9040030B583B00446A0F131
:107DCC00500510F8082C10F8063C9A4218D114F8FB
:107DDC00083C8DF8003014F8063C8DF80130002377
:107DEC0001936946A4F150001DF002FF54F8103CB9
:107DFC0023B114F8062C216A2846984703B030BDED
:107E0C0000F8083C2846FFF7F4FEE0E730B583B0F5
:107E1C000446A0F1500510F8073C13B910F8063CC5
:107E2C004BB954F8103C23B114F8062C216A28469F
:107E3C00984703B030BD00F8083C2846FFF7D9FE40
:107E4C0000230093019314F8083C8DF8003014F8CB
:107E5C00063C8DF80130236A0193694628461DF0D3
:107E6C00C7FEDEE770B310B50446194BC362C36B93
:107E7C005BB3836B33B120461DF088FE034630B1F3
:107E8C00184610BD036C002BF5D10E23F8E704F156
:107E9C0030001DF0B3FF03460028F1D10D4BC4F8A0
:107EAC00EC30002323650C4A6265A3650B4BE3653C
:107EBC0004F15000C4F8D8000123636601F0A4F863
:107ECC000346DDE70E23184670470E23D8E700BFA4
:107EDC0060A9040068A90400197E0200C57D020097
:107EEC0010B582B004460DF1070190F830001DF07A
:107EFC0047FF30B99DF8071020461DF085FE02B0F3
:107F0C0010BD034A40F2731117F09CFEF2E700BF5C
:107F1C0004A9040020B129B1C0F8F010002070476A
:107F2C000E2070470E20704708B51146007B1EF0DE
:107F3C00E5FB00B908BD024A4B2117F083FEF9E7B7
:107F4C0074A9040008B511681960007B1EF0C2FB0F
:107F5C0000B908BD024A562117F074FEF9E700BFBC
:107F6C0074A9040060B110B50446064B83601EF082
:107F7C00FBFA00B110BD04F10C001EF0D1FBF9E7C7
:107F8C000E207047B0A904005038704710B586B069
:107F9C00FFF7FAFF0446154B1B6813F4804F03D010
:107FAC00134B1B68042B0BDC0023A4F84830236C08
:107FBC0023B1B4F84A20216F2046984706B010BD73
:107FCC000C4BD3F8043590F83420B0F84A10006FFD
:107FDC000490606F039002910192074A00924FF453
:107FEC00C6720649052007F03DFBDDE74030002056
:107FFC003C30002000100140F8A90400E9A904005D
:10800C0000B583B0FFF7C0FF0D4B1B6813F4804F16
:10801C0003D00C4B1B68042B02DC03B05DF804FB93
:10802C00094BD3F8043590F834200192074A00929A
:10803C0040F283120649052007F014FBEDE700BF60
:10804C00403000203C300020001001403CAA0400CD
:10805C00E9A9040000B585B08DF80410B0F84830DB
:10806C00ADF80630B0F84A30ADF80830039201A9EB
:10807C0004301EF089FD05B05DF804FB10B584B02A
:10808C00FFF782FF0446B0F84A20A0F848200023EE
:10809C00A0F84A30134B1B6813F4804F03D0124BDB
:1080AC001B68042B0DDC236C23B1B4F84A20216F20
:1080BC0020469847226F00212046FFF7CBFF04B0E3
:1080CC0010BD0A4BD3F8043590F83410029201918C
:1080DC00074A00924FF4D2720649052007F0C2FA03
:1080EC00E1E700BF403000203C3000200010014090
:1080FC0058AA0400E9A9040070B138B50C4605462D
:10810C003C301EF0E9FE00B138BD044BAB63214698
:10811C0028461EF047FDF7E70E207047C4AB04005D
:10812C0038B5044680F86C20012343662D23836602
:10813C000D4629B16B68C4F880302B68236638BDB6
:10814C00784601F0C5F9F5E72DE9F0418AB01546FE
:10815C001F46109E0446E0B1DAB1B4F848202988D5
:10816C008A421AD1002246B13270B4F8483073807A
:10817C00B4F84A30B380236EB360424B1B6813F4DF
:10818C00804F03D0404B1B68032B67DC0AB0BDE863
:10819C00F081784601F09CF9DFE70DF11B0294F8B1
:1081AC003C001EF05DFE8046002855D1002308934C
:1081BC000993D7B1002239462046FFF7B1FF2B882F
:1081CC00A4F84A30D4F8EC30434520D82D4B1B682A
:1081DC0013F4804F03D02C4B1B68042B26DC04F1CA
:1081EC00500000F0D1FE0022BDE7236B9B685B685A
:1081FC004BB1206B83685B6807AA00219847079BEB
:10820C00089308AFD6E7784601F062F9F1E708F178
:10821C003A0354F8230003685F68236ED4F8802077
:10822C009DF81B10B84708F10108CBE7174BD3F8A2
:10823C0004352A88216E0491D4F8801003919DF89E
:10824C001B1002910192124A009240F22B1211491A
:10825C00052007F007FAC2E7022284E70B4BD3F89C
:10826C000435B4F84810B4F84A0003900291019216
:10827C00094A00924FF49F720649042007F0F2F964
:10828C0084E700BF403000203C300020001001404B
:10829C0090AA0400E9A90400C8AA040070B5064617
:1082AC000D46002401E0023501340F2C0CD82A466F
:1082BC00E1B296F83C001EF0DBFD0028F3D0034A37
:1082CC00622117F0BFFCEEE770BD00BFB8A9040037
:1082DC0030B583B014460546A0B19AB10023237083
:1082EC00B5F848306380211D2846FFF7D7FF0E4BA9
:1082FC001B6813F4804F03D00C4B1B68032B05DC5D
:10830C0003B030BD784601F0E3F8E7E7084BD3F84B
:10831C00043562880192074A0092F822064904202B
:10832C0007F0A0F9ECE700BF403000203C30002003
:10833C0000100140FCAA0400E9A9040030B587B084
:10834C0014460546E0B1DAB100232370B5F8483085
:10835C006380B5F84A30A38095F87C30022B13D19A
:10836C002B6F0BB14FF0FF33A360144B1B6813F44E
:10837C00804F03D0124B1B68032B0BDC07B030BDB6
:10838C00784601F0A5F8DFE705F1500000F018FE83
:10839C00A060EAE70B4BD3F804356288A188686FBC
:1083AC000490A068039002910192074A0092E22285
:1083BC000649042007F056F9E0E700BF40300020E2
:1083CC003C3000200010014020AB0400E9A904005F
:1083DC00F0B587B016461D460446E0B1DAB10DF192
:1083EC001702318894F83C001EF05CFD074620BB58
:1083FC00B4F8482033889A4203D0B4F84A20934208
:10840C0017D104F1500000F0CDFD0023A4F84A3040
:10841C00A4F848300DE0784601F05AF8DFE707F190
:10842C003A0354F8230003689B689DF8171098478B
:10843C000137D4F8EC30BB42F1D845B100232B7096
:10844C00B4F848306B80291D2046FFF727FF0E4BF0
:10845C001B6813F4804F03D00C4B1B68032B01DCFF
:10846C0007B0F0BD0A4BD3F80435B4F84A20B4F881
:10847C00481002910192074A0092C3220649042037
:10848C0007F0F0F8ECE700BF403000203C30002053
:10849C000010014068AB0400E9A90400F0B587B0F6
:1084AC0015461C46074628B322B30DF1170229883E
:1084BC0097F83C001EF0B0FC064650BB2B88A7F882
:1084CC004830D7F8EC30B34218D800253CB12570B1
:1084DC00B7F848306380211D3846FFF7DFFE174B95
:1084EC001B6813F4804F03D0154B1B68032B12DC55
:1084FC0007B0F0BD784600F0EBFFD6E706F13A0383
:10850C0057F8230003681B689DF81710984701362D
:10851C00D7E70125DAE70B4BD3F80435B7F84A2037
:10852C00B7F84810039102920195074A00929822DD
:10853C000649042007F096F8DAE700BF4030002027
:10854C003C3000200010014090AB0400E9A904006D
:10855C0000B310B50446036CFBB1FFF7CDFD034629
:10856C0008B1184610BD0023A4F848300C4A226507
:10857C000C4A6265A3650C4BE36504F15000C4F82A
:10858C00D80000F041FD03460028EAD10022C4F8CF
:10859C00EC20E6E70E23184670470E23E1E700BFF8
:1085AC000D800200997F020089800200034658B1B9
:1085BC0061B1D0F8EC0058B900F13A0243F822103E
:1085CC00421CC3F8EC2070470E2070470E207047F9
:1085DC00042070470023A0F84830704769DF7047CB
:1085EC0003781F2B00D07047014B01221A70FAE759
:1085FC00703100203F4B1B78002B79D000B587B031
:10860C00012804D003286CD007B05DF804FB0023CC
:10861C00019301A9012016F085FE00284BD10023FF
:10862C000393049305939DF80C20012363F3030239
:10863C008DF80C20D2B263F307128DF80C209DF844
:10864C000D2063F301028DF80D201023ADF81630C8
:10865C00019A03A94120FFF7C1FF78BB01A816F0CE
:10866C00BBFE70BB244B1B6803B1984701230293DC
:10867C0002A90DF1020012F08DF928BBBDF8020021
:10868C0011F090FD0DF1010111F038FFF8B90CF06B
:10869C00A5FB9DF8011000200CF09CFED0B904F055
:1086AC007DFBD8B9134B00221A70134B5B68002B5F
:1086BC00AAD09847A8E717F0B7FAB0E717F0B4FAC2
:1086CC00CCE717F0B1FACDE717F0AEFAD6E717F012
:1086DC00ABFADCE7784600F0FBFEE0E717F0A4FA13
:1086EC00E0E716F0F3FE00288ED017F09DFA8BE72A
:1086FC00704700BF6F3100207431002008B5064B65
:10870C0001221A70054804F0B7FB04F099FB00B97C
:10871C0008BD17F089FAFBE76F310020F82F002015
:10872C0008B503781C2B00D008BD074B1B78002B19
:10873C00FAD016F00FFF18B9044804F0A1FBF3E7C8
:10874C0017F072FAF8E700BF6F310020F82F002005
:10875C0008B5094B1B7863B90849094817F02CFF79
:10876C0040B90323002207494969074817F040FF25
:10877C0000E0082008BD00BF7031002090310020BF
:10878C00FC34002074310020C833002008B5037875
:10879C00023B082B3FD8DFE803F01C05113E3E2CB2
:1087AC003E3E36001E4B9B68002B34D0007A0028CE
:1087BC0031D01C4A0121117098472CE0184BDB6812
:1087CC004BB3184A127832B3164A002111709847ED
:1087DC0021E0154B1B784BB9114B1B691BB1114A8E
:1087EC00002111709847FFF7B3FF14E0FFF786FFE5
:1087FC0011E010220A4B99690C4817F07CFF50B11C
:10880C0017F012FA07E08168C0680AF01DFF18B96A
:10881C00054B01221A7008BD17F006FAF8E700BFE5
:10882C00743100206D3100206E310020C8330020DF
:10883C0010B586B08446224A03AB07CA03C323F89B
:10884C00022B120C1A701F4CA646BCE80F00AEE8A7
:10885C000F009CE807008EE80700A369002B2DD0C1
:10886C00194B009303AB194A19491A4817F062FEC9
:10887C00034610B1184606B010BD174819F00AFC93
:10888C000146144817F082FE03460028F2D1134823
:10889C0019F080FD03460028ECD1104819F0B2FD08
:1088AC0001460C4817F072FE03460028E2D10C4832
:1088BC0004F0E2FAFFF74CFF0346DBE70723D9E7A6
:1088CC00D8AB04007431002099870200903100204D
:1088DC00FC340020C8330020B03100207833002055
:1088EC000430002008B5064B1B681BB906E0044B8E
:1088FC001B68984714F056FC0028F8DA08BD00BF36
:10890C003C35002010B50C46134B1860134A01215E
:10891C0013481EF031FE98B9610CE00341F27073FC
:10892C00984271F1000310D34FF47A72002321F0B6
:10893C0063F9014600220B481EF034FE38B910BD15
:10894C00094A4A2117F07EF9E6E70521F2E7064AC3
:10895C004B2117F077F9F2E73C350020F188020043
:10896C0024AC040040350020E4AB040070B505468F
:10897C00002404B170BD262D01D00134F9E70A4B57
:10898C001E6804F0D1FD331A0BD4084A9342F4D973
:10899C0004F0CAFD044B1860054B1B682046984731
:1089AC00EBE7831BF1E700BF8C350020801A060033
:1089BC00883500201F280BD900F01F00064BD3F878
:1089CC000435C34013F0010F0CBF01200020704789
:1089DC004FF0A043F3E700BF0003005070B505460D
:1089EC000024264600E00134032C0AD80123A340BE
:1089FC002B42F8D0044B185DFFF7DCFFA040064378
:108A0C00F1E7304670BD00BF30AC040008B511B1C1
:108A1C0015F078FF08BD15F065FFFBE770B505464E
:108A2C00002400E00134032C0FD80123A3402B4277
:108A3C00F8D0064B1E5D3046FFF7BCFF80F00101FD
:108A4C00C9B23046FFF7E2FFECE770BD30AC040072
:108A5C0010B5144B1B684BB1134B1868FFF7DEFFB6
:108A6C00104B1C68013C1C6024B110BD002017F099
:108A7C00DBF8F1E70D481EF0B7FD00E00134032CE4
:108A8C00F3D80123A340084A12681342F6D0084BCE
:108A9C001968E14001F00101064B185DFFF7B6FFC4
:108AAC00ECE700BF603500206435002068350020FD
:108ABC009035002030AC040070B505460E460024FD
:108ACC0000E00134032C09D80123A3402B42F8D039
:108ADC003146034B185DFFF799FFF2E770BD00BFFD
:108AEC0030AC040042B310B50C461346132900D821
:108AFC0010BD124A10605B00013B114A1360FFF776
:108B0C006DFF104B1860610CE40314F5FA704FF410
:108B1C007A724FF0000341F1000121F06DF801462B
:108B2C00002209481EF03EFD0028E1D10121034B33
:108B3C001868FFF7C1FFDBE7704700BF6435002002
:108B4C0060350020903500206835002008B50448B9
:108B5C001EF04AFD0021034B1868FFF7ADFF08BD5E
:108B6C00683500206435002010B582B015F034FE55
:108B7C0040B10024ADF804408DF8064001238DF877
:108B8C00053007E015F0D8FD0028F2D017F04CF8AE
:108B9C00EFE70134032C09D801A90A4B185D15F035
:108BAC0025FE0028F5D017F03FF8F2E7064A012120
:108BBC0006481EF0E1FC08B902B010BD17F034F8FD
:108BCC00FAE700BF30AC04005D8A02002CAC040054
:108BDC0040B310B582B0144A106015F0FDFD58B1C9
:108BEC00124B1B68ADF804301B0C8DF806300024BA
:108BFC004CB1002002B010BD15F09EFD0028EFD046
:108C0C0017F012F8ECE70A4A01A9262015F08AFEA3
:108C1C0028B90121262015F0FFFE0134E8E717F0F2
:108C2C0003F8F6E70E2070478835002028AC0400C6
:108C3C0079890200002800F082802DE9F04FD1B034
:108C4C0004463F4B1B6813F4804F03D03D4B1B680D
:108C5C00032B31DC3A4B1B6813F4804F03D0394B98
:108C6C001B68032B2ADC51B0BDE8F08FE25C36495F
:108C7C000D68100959002E5C0FA800F8136002F063
:108C8C000F020131AA5C425401330F2BEED90FAA0B
:108C9C0000238DF85C3003F1804303F58833D3F85F
:108CAC0004350292294A0192294A0092422229490A
:108CBC00042006F0D7FCCDE70023E6E7264BD3F8DB
:108CCC0004350D932068020202F47F0242EA00622E
:108CDC00010A01F47F4142EA0108B4F804C04FEAEA
:108CEC000C2292B2B4F806E04FEA0E2189B2257A32
:108CFC00667AA77AE37A94F80C9094F80DA094F81D
:108D0C000EB0E47B0B94CDF828B0CDF824A0CDF8B0
:108D1C002090079306970596049541EA1E2103912E
:108D2C0042EA1C22029248EA106001900B4A00921F
:108D3C000D9B43220749042006F094FC93E77047EF
:108D4C00403000203C3000204430002078AC04003F
:108D5C008CAC040065AC04000010014094AC040021
:108D6C0008B5034B53F820300846984708BD00BFA0
:108D7C00D4AC040008B5034B53F820300846984790
:108D8C0008BD00BFECAC040008B5836803B198477C
:108D9C0008BD006B003818BF012070470369013B08
:108DAC0013F1030F03D843691BB90020704700204F
:108DBC0070470120704708B5024601218C3009F03C
:108DCC0080FD08BD08B50A4600230B63022102F1A1
:108DDC008C0009F076FD08BD90F82C30022B01D1E7
:108DEC000020704710B5044638301DF0CFFA4A0108
:108DFC0042EAD06243011B1A62EB0102920042EA82
:108E0C0093729B001B1841EB0201C90041EA53719C
:108E1C00C3F3103343EA4143C90B226A934271F105
:108E2C00000101D3012010BD0020FCE710B5044661
:108E3C00002303630362703004F02AFB04F1380052
:108E4C001DF0E0FA10BD10B5044638301DF0DAFA0A
:108E5C0000232362E3680BB12046984710BD08B588
:108E6C00844600F1200E00F110030FCB8EE80F00AA
:108E7C006046FFF7E8FF08BD08B5FFF7E4FF08BD43
:108E8C0070B5044600F1380528461DF0BBFA04F114
:108E9C00200604F110030FCB86E80F00636A83EA07
:108EAC00E376A6EBE376002B43D0226AD30E510176
:108EBC00891A63F100039B0043EA917389008918B6
:108ECC0043F100034FEAC30C32460023C8004CEABE
:108EDC00517120F091FEA66AF30E7201921B63F1A0
:108EEC0000039B0043EA92739200921943F1000332
:108EFC00DB0043EA5273D20016469C46904271EB5B
:108F0C00030301D306468C46B6F57A7F7CF1000349
:108F1C0013D221220023C4E91023012384F8383012
:108F2C0028461DF046FA18B963680BB120469847DD
:108F3C0070BD784600F0CCFAB7E74FEACC3141EA85
:108F4C005641F60305483018054A4FF0000341F12D
:108F5C00000120F051FEC4E91001DEE720A107005A
:108F6C0040420F0010B5044604F0DEFA236B4FF4B8
:108F7C007A7101FB030104F1700004F0A1FA23687B
:108F8C000BB12046984710BD10B5044630B12246AF
:108F9C00002104F18C0009F094FC10BD784600F01F
:108FAC0097FAF4E710B5044630B12246032104F1D8
:108FBC008C0009F086FC10BD784600F089FAF4E7C5
:108FCC0038B50546D8B12C6A05F138001DF0DEF92C
:108FDC004A0142EAD06243011B1A62EB0102920081
:108FEC0042EA93729B00181841EB0201C90041EA56
:108FFC005071C0F3103040EA4140201A38BD784619
:10900C0000F066FADFE7000038B5044690B1C4F80A
:10901C0080400A4BA367A464094BE36404F1380055
:10902C001DF008FA0546074904F18C0009F033FCE1
:10903C00284638BD784600F04BFAE8E7D18D02009F
:10904C00C38D020024AD040072DF704773DF7047DC
:10905C0074DF70472DE9F047A2B007468846914669
:10906C00324C002525606560A560E56030490B78C1
:10907C00C3EB43102F4E064426602F4A0244A260D5
:10908C001F22A280A281013303F001030B704FF069
:10909C003C0A5246294613A820F0ACFE06238DF854
:1090AC004F30ADF8487001238DF84A30ADF85C3084
:1090BC0012AA1892ADF83C70ADF84090CDF84480EF
:1090CC000DEB0A021D928DF87830524629466846FF
:1090DC0020F090FE02238DF80030221D314613A89B
:1090EC0016F013F890B9114B03F10C02996868460D
:1090FC0016F00BF868B9114A0C491148FFF7A4FF98
:10910C00082809D070B922B0BDE8F08716F08CFDA4
:10911C00E9E716F089FDEEE7002204490848FFF75D
:10912C0093FFEFE716F080FDEDE700BFD835002088
:10913C009435002098350020E835002014300020AC
:10914C0010300020B0F5202F0AD2074BA3FB0023D0
:10915C00DB0808B103B90123044A9381916070477D
:10916C004FF6FF73F5E700BFCDCCCCCC143000200C
:10917C0008B50121054B1878FFF768FF18B90020D6
:10918C0004F024FE08BD16F04FFDF8E71030002067
:10919C0008B5044B1878FFF75BFF00B908BD16F053
:1091AC0043FDFBE71030002076DF70477ADF704715
:1091BC007CDF704769DF704708B516F035FD08BDD8
:1091CC0008B503F061FE08BD00B583B0037823B188
:1091DC00012B0BD003B05DF804FB3B214088FFF75B
:1091EC00E3FF0028F6D016F01FFDF3E7094B1B68D0
:1091FC0013F4804FEED0084B1B68032BEADD074BB2
:10920C00D3F80435064A009268220649042006F079
:10921C0029FADFE7403000203C30002000100140EC
:10922C0080AD040065AD040000B585B016F04EF9B4
:10923C0060BB0023039303A9012016F073F840BB15
:10924C0000230093019302939DF80020012363F304
:10925C0003028DF80020D2B263F307128DF80020C0
:10926C009DF8012063F301028DF801201023ADF865
:10927C000A30039A69464120FFF79CFF60B903A8A6
:10928C0016F0AAF858B905B05DF804FB16F0CCFC42
:10929C00CFE716F0C9FCD3E716F0C6FCEFE716F0E3
:1092AC00C3FCF0E700B585B09DF80C30012262F3E9
:1092BC0003038DF80C30DBB262F307138DF80C301E
:1092CC0010220F4903A8FFF773FF98B900230193ED
:1092DC0002937823ADF80430C823ADF806304FF470
:1092EC00C873ADF80A3001A8FFF760FF28B905B0C4
:1092FC005DF804FB16F098FCE8E716F095FCF6E731
:10930C00ACAD040000B58BB001AA0023019302930D
:10931C007821ADF80410C821ADF806104FF4C871CF
:10932C00ADF80A10039304930593069307930893DF
:10933C000993039240F6CD4304934FF48033059385
:10934C0003238DF81830074B0893074B099303A898
:10935C0016F0A8FA10B90BB05DF804FB16F064FC1B
:10936C00F9E700BFD5910200C591020006207047B5
:10937C0000B587B044F2010398425DD01BD8012898
:10938C0036D041F20103984271D1474B1B6813F45C
:10939C00804F36D0454B1B68002B32DD444BD3F845
:1093AC00043502920191434A009263224249012002
:1093BC0006F058F925E044F20203984257D13A4B93
:1093CC001B6813F4804F1CD0384B1B68002B18DD26
:1093DC00374BD3F804351068039052680292019110
:1093EC00364A009269223449012006F03BF908E024
:1093FC002D4B1B6813F4804F03D02C4B1B68002B98
:10940C000DDC4FF0A0434FF49A52C3F81825C3F863
:10941C000C25EFF3108372B64DF6AD6C3DE0244B8A
:10942C00D3F8043502920191254A00926022224918
:10943C00012006F017F9E4E71B4B1B6813F4804F6F
:10944C00DFD01A4B1B68002BDBDD194BD3F804352E
:10945C001068049050680390029192680192194A26
:10946C00009273221449012006F0FCF8C9E70E4B58
:10947C001B6813F4804FC4D00C4B1B68002BC0DD51
:10948C000B4BD3F8043501910F4A00927B220A4909
:10949C00012006F0E7F8B4E730BF0C4B1B78002B2B
:1094AC00FAD107B05DF804FB403000203C300020BE
:1094BC000010014020AE0400F1AD040044AE0400E5
:1094CC0004AE040064AE040088AE04002C3000200E
:1094DC0000B583B0014600230093054B01936A4607
:1094EC0044F20200FFF744FF03B05DF804FB00BF39
:1094FC0084AE040010B40346044C006859689A68A2
:10950C00DB680FC45DF8044B704700BF28360020A1
:10951C000E4B4FF0805202F1600103C983E8030047
:10952C0003F1080CA43292E803008CE8030093F9D1
:10953C00062002F00F0242F040029A7193F90820C3
:10954C0002F03F0242F080021A7270472836002067
:10955C000048704728360020002308E0074901EB3B
:10956C00C30000224280426001F8332001331F2BDC
:10957C00F4D9034B00221A60704700BF3836002024
:10958C003837002000B58646114B1B684FF0000C95
:10959C000BE01F230F4A12F83300B0B102EBC302E9
:1095AC005288724509D00CF1010CBCF11F0F0BD87D
:1095BC005A1E002BEDD01346ECE7064A02EBC30211
:1095CC0052688A42EFD100E000205DF804FB00BF36
:1095DC00383700203836002010B40B4A13680B4C77
:1095EC0004EBC30CACF80200CCF80410012104F815
:1095FC0033100B441360202B02D05DF8044B7047E2
:10960C00134600221A60F8E738370020383600205D
:10961C000021072918D830B402E00131072910D8ED
:10962C004FEA011C094C34F80CC08445F5D104EB0D
:10963C000114A568E4689C4208BF9542EDD1012055
:10964C0000E0002030BC70470020704740370020FD
:10965C0030B4C3698469C288190A1B06C4F30C0CA4
:10966C00944519D2A2EB0C022244A2F500529A188E
:10967C0041F100010A4C23685D1C256003F00703CF
:10968C00B0F814C007481C0100EB031320F804C009
:10969C009A60D96030BC7047A2EB0C022244E6E71A
:1096AC00C037002040370020C37D9BB1C2780B78B7
:1096BC0003F080030B7002F07F0213430B700278EF
:1096CC000B7803F07F030B7043EAC2130B70037823
:1096DC009BB97047C2780B7803F0BF030B709201F3
:1096EC0002F0400213430B70027903F0C0030B70BD
:1096FC0002F03F0213430B70E1E78278082A14BF93
:10970C00002201224B7803F07F034B7043EAC21313
:10971C004B70C288DBB203F080034B70C2F3861C23
:10972C0043EA0C034B708B7803F003038B7043EA12
:10973C0082038B70027ADBB203F0FC038B70C2F3F2
:10974C00C10C43EA0C038B70CB7803F01F03CB7076
:10975C0043EA4213CB70427ADBB203F0E003CB70E6
:10976C0002F01F021343CB70B3E70000002300E0AC
:10977C000133032B28D8C3EBC30C144A02EB0C1295
:10978C0092F84820012AF3D1104A02EB0C12B2F8DD
:10979C0014C0C2899445EBD1C3EBC30C0B4A02EB4A
:1097AC000C12D2888A42E3D1084A02EB0C12B2F8AE
:1097BC0058201AB1B0F814C06245D9D1C3EBC30319
:1097CC00024800EB0310704700207047F43700206C
:1097DC00002300E00133032B15D8C3EBC3010B4A64
:1097EC0002EB011292F84820022AF3D1074A02EB4D
:1097FC000112918A828A9142ECD1C3EBC3030348D4
:10980C0000EB031070470020704700BFF4370020B6
:10981C0008B90420704708207047000000210E4B47
:10982C001B688B4216D9002300E001330B4A02EB74
:10983C00C10252689A420BD9084A52F8312002EB05
:10984C00C30C12F833208242EFD1DCF804007047CD
:10985C000131E4E700207047C4370020C8370020EE
:10986C0070B58CB006460D4614462C22002101A87A
:10987C0020F0C0FA0F238DF80430ADF808609DF885
:10988C000A3065F300038DF80A308DF80B4001A8FF
:10989C0001F0BAFA0CB070BD30B58DB005460C466F
:1098AC002C22002101A820F0A5FA10238DF80430F9
:1098BC0002958DF80C4001A801F0A6FA0DB030BD50
:1098CC0000B58DB010B913F1020F06D1074B186813
:1098DC0004F0B8FC0DB05DF804FB01218DF8041008
:1098EC000293039201A801F08FFAEFE7D83700201A
:1098FC0070B5049C002962D01D468E46D2F800C07B
:10990C0051689668D368C4F80CC021616661A36184
:10991C00D2F810C05169C4F81CC0216200236370D6
:10992C000278D20922705AB30423734549D8E17DD9
:10993C0041B3037803F07F03E3700023A3709AB163
:10994C0043789B0103F4FE53827843EA9203E3804D
:10995C008378DB0003F01803C27843EA52132372B6
:10996C00C37803F01F036372002363622B78032B0D
:10997C0021D82A78144B53F82230E362002070BDB2
:10998C000123D2E70178C1F38011E170017801F075
:10999C003F01217142B190F90130002B02DB04230D
:1099AC00A370CCE70823FBE70421A1700B4473459B
:1099BC00C5D90920E3E77846FFF78AFDD9E70920E6
:1099CC00DDE70920DBE700BF24B0040070B50C46CE
:1099DC001D4603789BB104263244A26000F10C03AF
:1099EC002360836A6360C36AE360002323742046A8
:1099FC0004F0A4FF10B9636933442B6070BD0126D9
:109A0C00EAE72DE9F0418EB00D4616461C4680461D
:109A1C0000282DD0002D2FD0002C31D0636A0233BA
:109A2C00059304F10C00E378002B2DD00121A278D2
:109A3C0001AF3B46082A14BF0022012204F04DFD61
:109A4C000697CDF81C80B2B2ADF820200B951544CA
:109A5C000C95A3788DF83430237B022B16D0002381
:109A6C00ADF8283005A804F030FD0EB0BDE8F0814B
:109A7C007846FFF72DFDCDE77846FFF729FDCBE7BC
:109A8C007846FFF725FDC9E70221D0E723692BB102
:109A9C00236909931023ADF82830E3E77846FFF7E4
:109AAC0017FDF5E72DE9F04188B004460D46C37D5E
:109ABC00002B3CD0082605FB06F8637AAB4238D065
:109ACC00257201AB324602A92046FFF77FFF0746FD
:109ADC0048BB4DB994F8533033B9A369C3F30C03A5
:109AEC00E380012384F85330E37D7BB994F8523042
:109AFC0063B91DBBE06EB4F84A10A27823468A1AEB
:109B0C000146FFF77EFF012384F852300799204667
:109B1C00FFF7CAFDE16E32464144019820F034F95A
:109B2C0002A804F031FF384608B0BDE8F0810C26DD
:109B3C00C1E7B4F84A60A6EB0806C1E77846FFF720
:109B4C00C7FCD7E770B505460E4609B100230B607C
:109B5C0095F85040002104E0631C85F85030013426
:109B6C00E4B26B7AA34210D3EA6C0123A3401A42ED
:109B7C00F5D121462846FFF795FF014628B9002E5E
:109B8C00EAD0336801333360E6E7084670BDF0B5C0
:109B9C0089B004460E46154683789A18C37D63B186
:109BAC000B239A4221D801AB02A92046FFF70EFFE6
:109BBC00074620B1384609B0F0BD0F23F1E70799ED
:109BCC002046FFF771FDE37D43B12A4631460198EB
:109BDC0020F0DAF802A804F0D7FEEBE723462A4679
:109BEC0001993046FFF70DFFF4E70927E2E7000083
:109BFC0010B5044690F84830012B0CD103F094FCBE
:109C0C00237B012B0BD0094BD968014404F13000A4
:109C1C0003F056FC10BD7846FFF75AFCEEE7A27D28
:109C2C00024BD9681B6903FB0211EEE7DC370020FD
:109C3C0030B583B0002403E02846FFF7D9FF013488
:109C4C00032C17D8C4EBC4020B4B03EB021393F891
:109C5C004830012BF3D100230193074D05EB02157E
:109C6C0001A92846FFF76EFF0428E5D0019B002BC5
:109C7C00E5D0E1E703B030BDF437002038B5044639
:109C8C0090F84830022B09D1064B1D6803F04CFCB0
:109C9C00411904F1300003F013FC38BD7846FFF78E
:109CAC0017FCF1E7DC37002038B5044690F8483053
:109CBC00022B10D10A4B5A7D5D689B6803FB025541
:109CCC0003F032FC411904F1500003F0F9FB0123BD
:109CDC0084F8683038BD7846FFF7FAFBEAE700BF36
:109CEC00DC37002010B504460B460978C170002102
:109CFC00416299680B2903D8197B51B3012100E00B
:109D0C00012121700020A07029B199680731C90880
:109D1C000139617220720121E17504F10C0C03F11F
:109D2C00100103C98CE80300D989A18299692162C9
:109D3C00197FA1751B6AE362A26220461FF0ECF842
:109D4C0030B1237B012B06D0E36A43F02003E3629E
:109D5C0010BD0021D5E72023E362F9E710B50446D6
:109D6C00808A02F0D5FE01281CD1237BE3B194F943
:109D7C001620002A1ADBE27D4AB1022B18D094F986
:109D8C000330002B16DBA378B3B900200BE0E2788C
:109D9C000AB9012B12D1237893B9A378042B11D1D2
:109DAC00002000E0102010BD1020FCE70720FAE78F
:109DBC001020F8E70720F6E70720F4E70720F2E782
:109DCC000020F0E70720EEE738B5044603784BB1E6
:109DDC00C388C2698169808A06F096FF054645B939
:109DEC00284638BDC2698169808A06F087FF05461E
:109DFC00F5E7E169002201F00101A08AFFF730FDCF
:109E0C00EEE700002DE9F04780460E4617464B1E44
:109E1C00DBB2012B0FD8B7F5C07F10D80024032C70
:109E2C001AD8C4EBC402314B03EB021393F848303D
:109E3C004BB10134F3E77846FFF74AFBEBE7784682
:109E4C00FFF746FBEAE7DFF8A49009EB021538466A
:109E5C0009F0D1FBE86600E000255DB3EB6E002B4A
:109E6C0042D043462C4608F1300ED3F800C0586857
:109E7C009968DA68C4F800C06060A160E2601033D1
:109E8C0010347345F1D10023EB64A5F84A70012E10
:109E9C0013D06FF00103AB62002385F86830144BCC
:109EAC00AB652D66134BAB632D64012002F0B4FA45
:109EBC0085F848602846BDE8F0870F4B1B7D85F878
:109ECC005130002385F8523085F8533085F85030E6
:109EDC00D8F828206A65A5F858306FF00103AB62FA
:109EEC00064BAB632D64E0E71D46E3E7F437002037
:109EFC00A3A9020079A20200DC370020C5A202004F
:109F0C0000B585B000228DF80F20A0B10B4602469B
:109F1C0002320A600DF10F01184604F0DAFA9DF8CE
:109F2C000F3043B10C4B1B6813F0040F03D00B4BD9
:109F3C001B68032B04DC9DF80F0005B05DF804FBD7
:109F4C00074BD3F80435074A009240F215420649F4
:109F5C00042005F087FBEEE7403000203C30002069
:109F6C0000100140DCAE0400CFAE04002DE9F0433C
:109F7C0091B005460E4614461F46D0F8188003785B
:109F8C004BB1C388C8F30C029A4230D29B1A43449B
:109F9C00A3F50053AB6105F10C00EB7853B3012131
:109FAC00AA780DF130094B46082A14BF0022012271
:109FBC0004F093FAC5F81880CDF810900596AB789C
:109FCC00E21A92B2ADF8182016440A9609978DF849
:109FDC002C300023ADF82030EB78002B41D02B7BBC
:109FEC00022B09D000236B620193029316E09B1A9B
:109FFC004344CFE70221D3E71023ADF820302B697F
:10A00C000793EFE710AB03EB840454F83C3C6B6212
:10A01C00002011B0BDE8F083019BB3B102AB01AAE3
:10A02C002979286A11F004F80024012CF4D810AB1B
:10A03C0003EB840353F83C0C0028EDD003A9FFF785
:10A04C005FFF0028DED10134EFE72B7B022B2CD1F4
:10A05C0005F10C01E88911F0A5F80028BFD1052005
:10A06C00D7E72B7B012B01D00520D2E7EB89ADF88C
:10A07C000430AB8AADF806300024012C13D82946E5
:10A08C00002341F8243F10AB03EB440333F83C0CA2
:10A09C0010F0F3FF03A9686AFFF732FF08B9013427
:10A0AC00EBE70020B5E70520B3E70520B1E700009A
:10A0BC0070B5F0B00E4614461D4610AB0A4601466C
:10A0CC002046FFF753FF50B1224B1B6813F0040FCF
:10A0DC0003D0214B1B68052B2FDC70B070BD2046C4
:10A0EC00FFF772FE0028F8D103AB01228DF80C208B
:10A0FC00A28AADF80E20002204928DF8142010AA2A
:10A10C000692A278B11AADF81C1008AA93E80300C5
:10A11C0082E803000AAB04F10C0292E8030083E826
:10A12C000300A37D8DF83830236A0C93636A0D937A
:10A13C000F9505A800F068FECFE7084BD3F804355F
:10A14C00074A009240F203720649062005F08AFA8B
:10A15C00C3E700BF403000203C300020001001401D
:10A16C00F0AE0400CFAE040010B50446C06E09F08A
:10A17C0046FA04F1300003F08BF994F84830022BC6
:10A18C0008D07022002120461FF034FE002002F07F
:10A19C0043F910BD04F1500003F07AF9F1E710B562
:10A1AC008CB0044690F84830012B0FD101238DF868
:10A1BC000430636D029303F0B7F9039001A800F02B
:10A1CC0023FE2046FFF7D0FF0CB010BD7846FFF7FA
:10A1DC007FF9EBE730B585B00D460446D0B1E18888
:10A1EC0094F84830022B19D094F84830022B1ED02A
:10A1FC002946606DFFF750FB2046FFF7B5FF164B65
:10A20C001B6813F0040F03D0144B1B68032B12DCD8
:10A21C0005B030BD7846FFF75BF9E0E7637813F0E3
:10A22C00020FE1D00022A08A1EF0D0FEDCE720460F
:10A23C00FFF70EFADCE70A4BD3F8043594F8482004
:10A24C0002950192074A009240F2F312064904204B
:10A25C0005F008FADCE700BF403000203C3000205D
:10A26C00001001401CAF0400CFAE040008B5084636
:10A27C000021FFF7AFFF08BD08B5037B012B02D00F
:10A28C00FFF78DFF08BD0121FFF7A4FFFAE70000DF
:10A29C0008B590F8513053B1013B80F85130002390
:10A2AC0080F85030034B186803F0CCFF08BDFFF763
:10A2BC00E3FFFBE7D837002010B50C4691F8483087
:10A2CC00012B03D12046FFF7E3FF10BD7846FFF7C3
:10A2DC00FFF8F7E770B5C6B00E46154682782A44EB
:10A2EC00C37D2BB14FF48073934278D3002303E0EA
:10A2FC004FF4C073F8E70133032B14D8C3EBC30C32
:10A30C00394C04EB0C1C9CF848100129F3D1BCF817
:10A31C001440818A8C42EED1BCF80E40C1898C422B
:10A32C00E9D1082554E00121FFF76CFD0446002813
:10A33C0057D02A463146C06E1FF026FD00234593A8
:10A34C0045A92046FFF7FEFB054608B1042842D17B
:10A35C00459B8BB9254B1B6813F0040F37D0244B4E
:10A36C001B68032B33DDB4F84AC0BCF1800F28BF47
:10A37C004FF0800C002313E02046FFF739FCE9E78F
:10A38C00E26ED25C1B490D68100959002E5C04A8C2
:10A39C0000F8136002F00F020131AA5C4254013341
:10A3AC006345EDD304AA002302F81C3003F180436B
:10A3BC0003F58833D3F8043502920F4A01920F4A01
:10A3CC0000924FF4AC620E49042005F04BF90025C5
:10A3DC00284646B070BD2046FFF7C6FEF8E70925B3
:10A3EC00F6E70425F4E700BFF437002040300020E6
:10A3FC003C3000204430002040AF04008CAC040002
:10A40C00CFAE040070B504460D461646FFF7A6FC09
:10A41C0030B923782BB1324629462046FFF75AFF34
:10A42C0070BD324629462046FFF7B1FBF8E7000025
:10A43C0038B504460D46CB695B780371CB691B7844
:10A44C0083F00103C370CB6943628B8A0B2B07D853
:10A45C00CB7A002B40D10B7B012B02D0002300E0E8
:10A46C0001232370002B3CD0287B022836D0FFF729
:10A47C00CFF9A070AB8A03440B331E4A82FB032333
:10A48C005B10013B6372002323720023E37504F11C
:10A49C000C0395E8030083E80300AB6923622B8966
:10A4AC00A382AB7AA3752B6AA362DF23E3622846EF
:10A4BC0010F0E4FF20B12B78012B15D0FF23E362C1
:10A4CC0020461EF029FD30B1237B012B0ED0E36A10
:10A4DC0043F02003E36238BD0123C2E7064B987DAD
:10A4EC00C5E70423A370D0E72023E8E72023E36229
:10A4FC00F1E700BFABAAAA2ADC37002006297AD1E3
:10A50C00F0B585B0154690F800C04FEA8C1202F4F5
:10A51C00FE5241788478C3781B0443EA04630479BF
:10A52C0043EA0423407943EA00044FFA8CF642EAEA
:10A53C0091012846FFF71AF90746E0B1002E2FDBF0
:10A54C00C289A98A8A422BD02B4B1B6813F0040FAB
:10A55C0030D02A4B1B68012B2CDD294BD3F804354A
:10A56C0002910192274A009240F27D622649022014
:10A57C0005F078F81EE0204B1B6813F0040F19D07F
:10A58C001E4B1B68012B15DD1D4BD3F804351F4AE0
:10A59C00009240F279621C49022005F063F809E050
:10A5AC00002E09DBFD6C2543FD644CB903213846B4
:10A5BC00FFF710FE05B0F0BDAB8AA7F85830F1E7F5
:10A5CC003B7883B17A7A013201239340013B9D425F
:10A5DC000DD0002187F850103846FFF7B3FA3846F3
:10A5EC00FFF706FBE6E77846FEF772FFEAE7384628
:10A5FC00FFF7D5FDDEE77047403000203C300020EF
:10A60C000010014080AF0400CFAE040050AF040036
:10A61C002DE9F0438BB007460E4614461D461046F6
:10A62C00FFF7D2FB50B994F80380B8F1000F08D1B2
:10A63C002B46224631463846FFF760FF0BB0BDE88B
:10A64C00F0834046FFF7EAF881460028F6D08DF8F3
:10A65C000480236A0793A38AADF8123005AB04F18A
:10A66C000C0292E8030083E80300A37D8DF82030F0
:10A67C000297039623788DF81030E36A09932946E4
:10A68C0001A8C847DAE792F801C01CF0010F08D006
:10A69C0010B5D47D14B1FFF7BBFF10BDFFF708FD5B
:10A6AC00FBE77047F8B505460E4614461F4653782F
:10A6BC0013F0020F06D13B462246711E681CFFF7B1
:10A6CC00E2FFF8BD0123C9B21EF098FBF3E70000CE
:10A6DC0010B54FF4E072002113481FF08BFB06F00D
:10A6EC00DFFA0024114B1C608022214610481FF019
:10A6FC0081FB104B104A1A60104A5A604CF25032CF
:10A70C009A600F49D9601A6104221A759C75082247
:10A71C005A750C4803F076FD0B4B18600B4B1C6004
:10A72C000B4806F0BBFD10BDF4370020C0370020ED
:10A73C0040370020DC37002080969800F04902005A
:10A74C0020A1070095A90200D8370020C4370020AB
:10A75C00CD98020008B506F0C3FA08BD98B110B543
:10A76C008CB00446036983B1C36983B1836983B137
:10A77C0001466846FFF75CFEA28A21696846FFF72E
:10A78C0041FE0CB010BD0E2070470E20F9E70E20D4
:10A79C00F7E70E20F5E7000058B310B590B00A4665
:10A7AC00044643683BB383693BB3014604A8FFF7F7
:10A7BC0099FA134B1B6813F0040F03D0114B1B6851
:10A7CC00062B06DCA268616804A8FFF71BFE10B01C
:10A7DC0010BD0D4BD3F804352278A169029101927A
:10A7EC000A4A009240F605020949072004F03AFF94
:10A7FC00E8E70E2070470E20E9E70E20E7E700BFE0
:10A80C00403000203C30002000100140C4AF040058
:10A81C00CFAE0400037B012B01D00020704730B574
:10A82C0091B004460D463F4B1B6813F0040F03D048
:10A83C003D4B1B68032B59DC04A90023049305939F
:10A84C00CDF81730E0889DF8102002F080028DF8CA
:10A85C001020C0F3861C42EA0C028DF810209DF8E3
:10A86C00112002F003028DF8112042EA80028DF8CB
:10A87C0011202A0E8DF812202A0C8DF813202A0A8A
:10A88C008DF814208DF815506278022A0CBF012027
:10A89C0018469DF8102002F07F028DF8102042EA35
:10A8AC00C0128DF810204FF0060209924FF00102F1
:10A8BC008DF82C20A28AADF82E200C938DF81C302C
:10A8CC000891226A0D928DF82830E36A0F9319D003
:10A8DC00E389ADF82A30A37DF3B98DF838306FF0E9
:10A8EC00010107A8FFF758FF11B030BD0F4BD3F88B
:10A8FC0004350F4A009240F263220E49042004F002
:10A90C00B1FE99E70DF10E0103A810F067FCBDF83C
:10A91C000C30ADF82A30DEE7074B5B7D8DF8383014
:10A92C00DDE700BF403000203C300020001001402B
:10A93C00F0AF0400CFAE0400DC37002090F84830B4
:10A94C00022B00D0704710B5044690F86830022BEB
:10A95C0000D010BDC16CFFF75DFF0028F9D10023BA
:10A96C0084F86830F5E7000010B5002407E0C4EB6C
:10A97C00C402130103481844FFF7E0FF0134032C11
:10A98C00F5D910BDF437002008B5FFF751F9FFF7E2
:10A99C00EBFF012008BD10B50C4691F84830022B96
:10A9AC0006D1022384F868302046FFF7C7FF10BD9C
:10A9BC007846FEF78DFDF4E7F0B583B00446C16927
:10A9CC008369C2880E0A0906C3F30C0082422FD990
:10A9DC00121A1A44A2F500528D1846F100062A46A6
:10A9EC003346A08AFEF714FE002840F0A2802046D1
:10A9FC00FEF7EEFE074630B3C2698069F988130A88
:10AA0C001206C0F30C0C8C4515D2A1EB0C010144C1
:10AA1C00A1F50051521843F10003AA4273EB060151
:10AA2C000DD3954276EB030339D3384603B0F0BD12
:10AA3C00121A1A44D0E7A1EB0C010144EAE70521F4
:10AA4C003846FFF7C7FBE388E269A169A08A06F0E4
:10AA5C002FFA30BB2A463346A08A1EF0D9FA0028BA
:10AA6C003AD1627A0132E37D002B45D0082101FBFB
:10AA7C0002F2002B42D04FF48073934241D3022157
:10AA8C002046FFF7BFF907460028CED1002120460B
:10AA9C00FFF7C0FE02210020FEF7FEFEC5E70027EF
:10AAAC00C3E7E388E269A169A08A06F079FA08B9DC
:10AABC000027BAE723785BB1637A0133012199400F
:10AACC0001392046FFF7A6FE2046FFF77DF9EFE798
:10AADC007846FEF7FDFCEFE723784BB1637A013340
:10AAEC000121994001392046FFF794FE00279CE78D
:10AAFC007846FEF7EDFCF1E70C21B8E74FF4C07394
:10AB0C00BBE70D4B1B6813F0040F03D00B4B1B68FA
:10AB1C00002B01DC002788E7094BD3F804350192A0
:10AB2C00084A009240F27F320749012004F09AFD56
:10AB3C00F0E7002779E700BF403000203C300020D0
:10AB4C000010014000B00400CFAE04002DE9F04726
:10AB5C0082B007460E46154698461046FFF72CFF66
:10AB6C0000284ED004464D4B1B6813F0040F03D045
:10AB7C004B4B1B68032B47DC2046FFF77FF8237BEE
:10AB8C00012B4FD0E16C2B7A01229A40114238D123
:10AB9C001143E164A6F1040A2B7AEA7D002A49D01C
:10ABAC004FF0080C0CFB03FC617A8B4245D0002A59
:10ABBC0048D00823534547D1A269AB699A420BD2BE
:10ABCC0004F10C0E05F10C09B9E80F00AEE80F000A
:10ABDC0099E803008EE80300E06E5246391D60448C
:10ABEC001FF0D2F86B7813F0020F32D1E66C237899
:10ABFC00002B35D0627A013201239340013B9E42F7
:10AC0C0032D002B0BDE8F087264BD3F804352A7A4F
:10AC1C000192254A009240F2A3322449042004F008
:10AC2C0021FDA9E794F86830002BABD12046FFF743
:10AC3C003BF8A7E74FF00C0CB4E70CEB0A03A4F8B5
:10AC4C004A30B9E70C23B5E704212046FFF7C2FAD6
:10AC5C00D7E701232A46F1B238461EF0CFF8C5E7F4
:10AC6C007846FEF735FCC5E7E16C2046FFF7D2FDD0
:10AC7C006B7813F0020F0AD143462246B4F84A10FF
:10AC8C00E06EFFF700FD2046FFF76EFAB9E70122F0
:10AC9C00E988A88A1EF09AF9EEE700BF4030002040
:10ACAC003C3000200010014014B00400CFAE040072
:10ACBC002DE9F04190B0002856D00F4614461E46A0
:10ACCC008046002A52D004AB00933346FEF710FEA8
:10ACDC00054618B1284610B0BDE8F08104A8FFF76E
:10ACEC003DF805460028F5D104A81EF015F928B149
:10ACFC009DF8113043F002038DF8113000230293BC
:10AD0C00039302A9608810F04DFA28B19DF8113018
:10AD1C0043F001038DF811302269E168208906F0B7
:10AD2C007FF838B19DF8113003F0FE038DF8113027
:10AD3C00002BCFD09DF81130002BCBD013F0010F8E
:10AD4C0001D0039B08939DF8103033B1334604AA0D
:10AD5C0039464046FFF7FAFEBCE7334604AA3946AB
:10AD6C004046FFF79FFCB5E70E25B3E70E25B1E78C
:10AD7C0038B3F8B50E460546174B1F68012F22D87D
:10AD8C00002400E00134B44210D205EBC4035B682C
:10AD9C00DBB115F8340015F93430002B17DBC0B1DA
:10ADAC00FEF73CFD0028EDD00F200DE00B4B43F8D7
:10ADBC00375003EBC7035E600137074B1F60002061
:10ADCC0002E00E2070470420F8BD0E20FCE70B209B
:10ADDC00FAE70F20F8E700BFC4370020C83700207F
:10ADEC00084B196861B110B501E021463CB10C6803
:10ADFC000B79002BF9D0034804F09FFBF5E710BD4D
:10AE0C00704700BFB839002038B5054630B1104B3B
:10AE1C001C68C4B10F4B01221A7004E07846FEF78F
:10AE2C0057FBF4E724683CB12379002BFAD154F892
:10AE3C00043C28469847F5E7064B1B78022B03D0B9
:10AE4C00044B00221A7038BDFFF7CAFFF8E700BFA9
:10AE5C00B8390020B439002010B5044630B10023B5
:10AE6C002372211D034804F03DFB10BD7846FEF70C
:10AE7C002FFBF4E7B839002010B5044658B10A4B43
:10AE8C001B78013BDBB2012B09D8074B02221A704D
:10AE9C000123237210BD7846FEF71AFBEFE7211D44
:10AEAC00024804F04AFBF5E7B4390020B839002019
:10AEBC000A8883689B5A07339BB223F0030313441D
:10AECC009BB20288043A934200D900230B8070474E
:10AEDC0010B582B004468368C91AADF806100DF19E
:10AEEC000601FFF7E5FFBDF80630A068184402B074
:10AEFC0010BD0088043880B2704743888268D0182F
:10AF0C00D152012383707047826800239370438071
:10AF1C008380704708B5073189B221F0030189B2EB
:10AF2C00428883889A4204D29B1A994220DC0020E2
:10AF3C0008BD9A4212D9B0F800C0ACEB020C6145C6
:10AF4C0018D98B4218D3BCF1030F03D9836813446F
:10AF5C0004229A70002343801846E9E782681A4459
:10AF6C0093780BB10420E3E7FFF7CEFF0020DFE777
:10AF7C000420DDE70020DBE70420D9E738B50446E0
:10AF8C000D468368828813448B4202D07846FEF7C4
:10AF9C009FFA0023AB70211D2046FFF789FFA28882
:10AFAC00A36813449B78042B00D038BD0023A380E6
:10AFBC00FBE710B50C468368428813448B4202D0E1
:10AFCC007846FEF785FA0023A37010BD70B50546D0
:10AFDC0014460E46002944D0002D46D0B6F1005F31
:10AFEC0008D94FF08053D3F80C3103F50023B6EB9E
:10AFFC00832F0ED3B6F5000F08D94FF08053D3F83A
:10B00C000C3103F50053B6EB832F02D37846FEF7D1
:10B01C005FFA631E3344B3F1005F08D94FF08052DE
:10B02C00D2F80C2102F50022B3EB822F0ED3B3F52C
:10B03C00000F08D94FF08052D2F80C2102F50052C3
:10B04C00B3EB822F02D37846FEF742FA042C10D9C8
:10B05C002C8000236B80AB80AE60043C3480B370DA
:10B06C0070BD7846FEF734FAB6E77846FEF730FA4C
:10B07C00B4E77846FEF72CFAEAE738B50446A0B1F7
:10B08C006288A36813449B78012B12D0EFF31085D0
:10B09C0072B6A388A16819448B78032B0DD0204677
:10B0AC00FFF732FF05B962B638BD7846FEF710FAE5
:10B0BC00E6E77846FEF70CFAE8E72046FFF708FFCC
:10B0CC00A368C31A638000238370EBE72DE9F0417A
:10B0DC000E4614460546D0B1EEB16A88AB681344EF
:10B0EC009B78012B1BD024B32846FFF702FFA0420C
:10B0FC0021D3EFF3108872B621462846FFF70AFFDA
:10B10C00074680B1B8F1000F16D162B614E078464C
:10B11C00FEF7DEF9E0E77846FEF7DAF9DDE7784688
:10B12C00FEF7D6F9DFE721462846FFF7E6FE30604A
:10B13C00E8E7092700E009273846BDE8F081F8B5B3
:10B14C000C4615460646E0B1FCB1A378012B20D184
:10B15C002388AB4221D325B3EFF3108772B6258039
:10B16C000223A370F1183046FFF7A2FE7388B28851
:10B17C00934203D0B268134400229A7007B962B6A6
:10B18C00F8BD7846FEF7A4F9DEE77846FEF7A0F99D
:10B19C00DBE77846FEF79CF9DAE77846FEF798F994
:10B1AC00D9E77846FEF794F9D6E770B50C46054614
:10B1BC0090B1ACB1EFF3108672B6AA88AB681344A9
:10B1CC009A78042A10D09A78022A15D0032A18D01B
:10B1DC00052006B962B670BD7846FEF779F9E8E746
:10B1EC007846FEF775F9E5E7291D2846FFF760FE5E
:10B1FC00AA88AB681344E6E703229A702360002008
:10B20C00E7E77846FEF764F90020E2E738B5044634
:10B21C0080B1EFF3108572B6A388A16819448B78BE
:10B22C00042B0BD08878022814BF0020012005B90C
:10B23C0062B638BD7846FEF74BF9EAE72046FFF7D1
:10B24C0047FE0146EEE738B5054630B1EFF3108402
:10B25C0072B6AB88A968194407E07846FEF738F94E
:10B26C00F4E72846FFF734FE01468878C31EDBB2AC
:10B27C00012BF6D9022814BF0020012004B962B6B4
:10B28C0038BD70B50C46064678B194B1EFF3108515
:10B29C0072B6A378012B10D0032B13D12146304664
:10B2AC00FFF76CFE05B962B670BD7846FEF710F973
:10B2BC00EBE77846FEF70CF9E8E721463046FFF756
:10B2CC0078FEEFE77846FEF703F9EBE710B5EFF3FE
:10B2DC00108472B68388816819448B78042B06D04D
:10B2EC008878B0FA80F0400904B962B610BDFFF757
:10B2FC00EFFD0146F4E70000024B00221A769A603B
:10B30C0002207047BC39002008B5064B9868002213
:10B31C001A605A609A60DA601A615A619A6105F093
:10B32C0069F908BDBC39002000B585B00A4BDB6853
:10B33C0002228DF8002001934FF480530293074AA8
:10B34C006946012001F0FAFA18B9012005B05DF840
:10B35C0004FB0020FAE700BFBC390020DA390020DA
:10B36C0000B585B00A4B1B6802228DF800200193B2
:10B37C004FF480530293074A6946012001F0DEFA2C
:10B38C0018B9012005B05DF804FB0020FAE700BFF6
:10B39C00DC390020DA390020164BDA681379517940
:10B3AC005B1A03F57F2303F6FF7302EB03339A4218
:10B3BC0005D002F580520F4BDA600320704700B5C0
:10B3CC0085B00D4B1B6801208DF8000001930B4BD1
:10B3DC000393042302930A4A694601F0AFFA18B1A9
:10B3EC00002005B05DF804FB024B01221A76022006
:10B3FC00F7E700BFBC390020DC390020E039002021
:10B40C00DA39002000B585B00C4BDA680C4B1B68A0
:10B41C00043301208DF800000192039340F6FC7375
:10B42C000293084A694601F089FA28B90120034BB6
:10B43C00187605B05DF804FB0020FAE7BC39002053
:10B44C00DC390020DA39002000B585B00A4B1B68C6
:10B45C0001208DF800000193084B03930423029301
:10B46C00074A694601F06AFA18B9012005B05DF87F
:10B47C0004FB0020FAE700BFDC390020C8390020AB
:10B48C00DA39002010B584B0104BDA681478104B00
:10B49C001B68043301208DF8000001930392029481
:10B4AC000C4A694601F04AFA70B9094B1B6804F062
:10B4BC00FC0423440433054A5361D1680B780B44D4
:10B4CC001361012004B010BD0020FBE7BC39002043
:10B4DC00DC390020DA39002008B500230A2B09D802
:10B4EC00064A52F82320824201D00133F6E7044A7F
:10B4FC00536002E07846FDF7EBFF08BDACB00400EA
:10B50C00BC39002010B5214BDB6853B11F4B1B7E9F
:10B51C005BB91E4B5B680A2B26D97846FDF7D8FF22
:10B52C0022E07846FDF7D4FFF0E77846FDF7D0FF30
:10B53C00EFE7164A5368013353600A2B21D978463A
:10B54C00FDF7C6FF1DE0114B00225A6019E00F4BAE
:10B55C001B7E1BB10D4B02221A7012E0FFF7D4FEBA
:10B56C000FE00A4B1B7E83B9084B5A68084B53F803
:10B57C002230984704460228E9D00328E3D001285A
:10B58C00D7D0012CEDD0032CEBD010BDBC39002052
:10B59C00ACB00400104B1B681B685A1E12F1030F51
:10B5AC0018D8C3F30B020AB10020704710B50B4A30
:10B5BC00D3600023137653760124147093600848EB
:10B5CC00FFF78AFF0749204601F0A6F9FFF79AFF1B
:10B5DC00204610BD00207047DC390020BC3900200B
:10B5EC0035B30200F5B5020008B50B78032B06D075
:10B5FC000B4B1B78012B06D0022B0BD008BD084B34
:10B60C0000221A76F4E7064B1B7E002BF6D1FFF7CF
:10B61C0079FFF3E70B78032BF0D1FFF775FEEDE71D
:10B62C00BC39002000B585B0174BDB6818784FF695
:10B63C00FF7203F58051184405F0E6FDE0B10246B7
:10B64C00114BD9680B780B44984217D00E4B5B7E8C
:10B65C0083B10E4B01208DF800000192039304235B
:10B66C0002930B4A694601F069F948B90120064B6F
:10B67C00187606E0074BEDE7012002E0012000E020
:10B68C00002005B05DF804FBBC39002000B30400B9
:10B69C00DA390020FCB2040008B5104BDB681878CE
:10B6AC00002203F58051184405F0AEFD08B10120CD
:10B6BC0008BD0A4BDA68137951795B1A03F57F23BD
:10B6CC0003F6FF7302EB03339A4205D002F5805266
:10B6DC00024BDA600320EBE70220E9E7BC390020DB
:10B6EC00F0B585B0514BDE6872793379591E8A42B8
:10B6FC0014D006F580510D780D444D490968081D8C
:10B70C000F7907449B1A06EB03366B88013B9BB2FF
:10B71C0047F6FE62934260D92C461AE00120434B57
:10B72C0058767EE07846FDF7D3FE15E024F47F646E
:10B73C0024F00F0404F5805423781C44A6421CD931
:10B74C00A5421CD26388013B9BB247F6FE62934232
:10B75C0011D92388002BE5D0238804EB830323F431
:10B76C007F6222F00F029342E0D06288B2F5FE4F66
:10B77C00DCD01C46E2E725462FE000252DE0002515
:10B78C002BE07846FDF7A4FE15E024F47F6424F04A
:10B79C000F0404F5805423781C44A6421CD9A542FE
:10B7AC0037D26388013B9BB247F6FE62934211D9B4
:10B7BC002388002BE5D0238804EB830323F47F62DA
:10B7CC0022F00F029342E0D06288B2F5FE4FDCD03B
:10B7DC001C46E2E7254600E00025E5B1144B19684C
:10B7EC006A8801F58051384605F00EFD074690B188
:10B7FC0001200E4B18768DF8000001950D4B03932C
:10B80C00042302930C4A694601F098F858B92C4667
:10B81C00CEE70025E1E7B5FA85F56D09034B5D76BA
:10B82C00012005B0F0BD0020FBE700BFBC390020B3
:10B83C00DC390020F8B20400DA3900202DE9F0419F
:10B84C0086B0654B1B6923B1634B5B692BB1002739
:10B85C0048E07846FDF73CFEF6E77846FDF738FE03
:10B86C00F5E7A04618E07846FDF732FE18E028F41C
:10B87C007F6828F00F0808F5805898F80030984435
:10B88C00454520D944454AD2B8F80230013B9BB219
:10B89C0047F6FE62934214D9B8F80030002BE2D080
:10B8AC00B8F8003008EB830323F47F6222F00F0218
:10B8BC009342DCD0B8F80220B2F5FE4FD7D09846B0
:10B8CC00DEE7444600E000243CBB00230093019BD0
:10B8DC00002B5CD10127002C78D0628847F6FF73CF
:10B8EC009A4273D0002F75D13B4B5A6922F47F6674
:10B8FC0026F00F06B61A06F580561C69DD682B7902
:10B90C006A799B1A05EB0335002301936388013B8D
:10B91C009BB247F6FE629342A3D800940EE000243B
:10B92C00D2E77846FDF7D4FD23E024F47F6323F0BF
:10B93C000F0303F580531A7813441C46A542C6D94D
:10B94C002388019A02EB83029642C0D9009B634084
:10B95C0023F47F6323F00F03002BB8D16388013BE2
:10B96C009BB247F6FE618B42B1D801922388002B23
:10B97C00D7D0238804EB830323F47F6222F00F02D9
:10B98C009342D2D06288B2F5FE4FD6D1CDE7124A9F
:10B99C00526901208DF808000392009A05920493D5
:10B9AC000E4A02A900F0CAFF70B90B49019B23F0A3
:10B9BC0003024B6913444B6114B1074B1C618AE7BA
:10B9CC007846FDF785FDF8E7002000E0012006B081
:10B9DC00BDE8F0810120FAE7BC390020DA390020FB
:10B9EC0000B585B00023294A1370D3F8F83FB3F1A2
:10B9FC00FF3F09D0B3F1FF3F0DD08BB1B3F1FF3F47
:10BA0C0039D0A3F5805211E04FF010225269B2F1F7
:10BA1C00FF3FEFD104E04FF010225269002AEDD124
:10BA2C004FF080535A691B6903FB02F2A2F5805256
:10BA3C00174B1A60174B1B6813F4801F16D0164B4C
:10BA4C001B68062B12DD154BD3F804350021D1F8F9
:10BA5C00F81FB1F1FF3F14D002920191104A0092ED
:10BA6C0040F276220F49072003F0FCFDFFF792FD10
:10BA7C0005B05DF804FB4FF010235A69A2F5805213
:10BA8C00D4E74FF010214969E6E700BFD839002010
:10BA9C00DC390020403000203C30002000100140F8
:10BAAC0078B004005FB0040010B50446B0B1104B80
:10BABC001B78BBB10E4BD968E3685879A3EB003205
:10BACC00914211D31A79121A02F57F2202F6FF72F3
:10BADC0003EB0233994209D8012004E07846FDF7C4
:10BAEC00F7FCE4E7002010BD0020FCE70020FAE79B
:10BAFC00BC390020024B1878003818BF0120704761
:10BB0C00BC39002010B50446124B1B78BBB9237806
:10BB1C00032B18D10F4B9C60E268DA600E4B1B783C
:10BB2C00ABB10A220B4B5A6000221A760120187016
:10BB3C005A760A4900F0F0FEFFF7E4FC10BD784697
:10BB4C00FDF7C6FCE3E77846FDF7C2FCE2E700220E
:10BB5C00E8E700BFBC390020D8390020F5B5020059
:10BB6C00014B1868704700BFDC39002010B5044643
:10BB7C0080B163681BB123680BB1A36813B9784615
:10BB8C00FDF7A6FCA3685A1E134207D10023E360FD
:10BB9C00236110BD7846FDF79BFCEAE77846FDF77C
:10BBAC0097FCF3E770B508B30E4604468368FBB107
:10BBBC00EFF3108572B60369C268934212D0016824
:10BBCC004268806800F1FF3C03EA0C0303FB02119E
:10BBDC0016B130461EF0D8F82369013323614DB9F4
:10BBEC0062B608E005B962B6052504E00E2502E050
:10BBFC00092500E00025284670BD00000246C0F370
:10BC0C000B0030BB39B301F6FF714FEA113C134BFB
:10BC1C000221C3F80415114BD3F80034002BFAD0D1
:10BC2C0001460AE00D4BC3F808250C4BD3F8003441
:10BC3C00002BFAD002F5805201316145F2D3074B4B
:10BC4C000022C3F80425054BD3F80034002BFAD09E
:10BC5C007047102070470920704700BF00E001407A
:10BC6C00844610F0030F2DD111F0030F2CD16AB3C1
:10BC7C0012F0030F2CD19008164B0122C3F80425A7
:10BC8C00144BD3F80034002BFAD003E00CF1040C65
:10BC9C0004311046421E58B10B68B3F1FF3FF5D08A
:10BCAC00CCF800300B4BD3F80034002BFAD0EDE776
:10BCBC00084B0022C3F80425064BD3F80034002BA4
:10BCCC00FAD0704710207047102070470920704739
:10BCDC000920704700E00140094B1B7813F0040F5A
:10BCEC0002D00378122B00D07047064B1A68064B13
:10BCFC005A60034B1A786FF382021A70F4E700BF94
:10BD0C00883A0020783A0020143A002010B582B00E
:10BD1C0001900C46BDF80630012B11D123680A495D
:10BD2C000B600A4B1A7842F001021A70D3B25B080E
:10BD3C0083F0010303F001030B71002002B010BD6E
:10BD4C007846FDF7C5FBE9E7783A0020883A0020F1
:10BD5C0010B582B001900C46BDF80630022B0FD105
:10BD6C002268094B1A6022791A7100205871987157
:10BD7C00D871064A137843F00203137002B010BD59
:10BD8C007846FDF7A5FBEBE7703A0020883A0020D7
:10BD9C0010B582B001900C46BDF80630032B06D1CD
:10BDAC00054B186820601B79237102B010BD7846D2
:10BDBC00FDF78EFBF4E700BF783A002010B582B097
:10BDCC0001900C46BDF80630032B0CD1084B2068B3
:10BDDC00186022791A71074A137843F00103137023
:10BDEC00002002B010BD7846FDF772FBEEE700BFF5
:10BDFC00783A0020883A002010B582B001900C46A9
:10BE0C00BDF80630042B05D1044B03CB20606160D8
:10BE1C0002B010BD7846FDF75BFBF5E7703A0020E9
:10BE2C0010B582B001900C46BDF80630042B0BD136
:10BE3C00074B2068616803C3064A137843F002037A
:10BE4C001370002002B010BD7846FDF741FBEFE700
:10BE5C00703A0020883A002000B583B00190BDF8FC
:10BE6C000630032B06D1054B00221A601A7103B061
:10BE7C005DF804FB7846FDF72BFBF4E7783A0020DD
:10BE8C0000B583B00190BDF80630042B06D1054BEC
:10BE9C0000221A605A6003B05DF804FB7846FDF787
:10BEAC0017FBF4E7703A002000B585B01A4B1B78ED
:10BEBC0013F0400F13D0184B1B7813F0040F0BD159
:10BECC00002301938DF80830144B5B6803F5005385
:10BEDC000193B3F1807F06D905B05DF804FB784679
:10BEEC00FDF7F6FAE7E70E4B1B788DF808300A4A97
:10BEFC00137843F0040313700023ADF80C300323C4
:10BF0C00ADF80E3001A9039806F06CFB0028E3D0C5
:10BF1C007846FDF7DDFADFE7883A0020143A002076
:10BF2C00893A002000B585B00022019202920F4B95
:10BF3C00996801911B7B8DF808300D490B78013302
:10BF4C00DBB20B708DF80B30ADF80C200423ADF880
:10BF5C000E300DEB0301039806F044FB10B905B04D
:10BF6C005DF804FB7846FDF7B3FAF8E7143A0020C5
:10BF7C00893A002000B585B00023019302930F4A43
:10BF8C0091680191117B8DF80810128AADF8092087
:10BF9C000B4A12788DF80B20ADF80C300423ADF859
:10BFAC000E300DEB0301039806F01CFB10B905B025
:10BFBC005DF804FB7846FDF78BFAF8E7143A00209D
:10BFCC00893A002000B58DB00B4B1B7B012B0ED09A
:10BFDC00094A926804928DF80830039002238DF878
:10BFEC00043001A8FEF710FF0DB05DF804FB024A07
:10BFFC009268013A0492EEE7143A002008B51D4805
:10C00C001D4B036000F038FF1C4B1B7813F0200F06
:10C01C002AD103F00303032B14D1194B1968194AC5
:10C02C00916019791173B3F805001082DB79164A07
:10C03C001370164A1279934217D0B1B9114B0022E2
:10C04C001A6007E00F4B00221A609A601A731A826A
:10C05C00FFF768FF0B4B1A685A60084A137843F0D5
:10C06C0040031370FFF720FF08BD084B1A68054BFF
:10C07C001A60EFE7643A0020E5BC0200883A002021
:10C08C00703A0020143A0020893A0020783A0020B7
:10C09C0010B582B00024ADF800400123ADF8023099
:10C0AC00009806F0D0FAADF804400223ADF8063043
:10C0BC00019806F0C8FA02B010BD000008B50020C7
:10C0CC0006F0E8FA094A0023136053609360D360CA
:10C0DC001361074A117863F345111170CBB243F029
:10C0EC0040031370FFF7E0FE08BD00BF143A0020B8
:10C0FC00883A002038B50C4D00242C606C60AC6084
:10C10C00EC602C6101F010FA084B5860084A9A60F8
:10C11C00084ADA601C615C61074B1A7864F3C3024D
:10C12C001A706C6038BD00BF143A0020F039002042
:10C13C00A1C2020000879303883A002008B50C4B7B
:10C14C001B7813F0100F00D008BD0A480A4B03608F
:10C15C0000F092FEFFF752FFFFF79AFF074801F03D
:10C16C0067F9034A137843F010031370ECE700BF30
:10C17C00883A0020083A0020F9C30200F039002068
:10C18C00034B1878800880F0010000F00100704724
:10C19C00883A002010B501F0B7FF174B1B7B1BBB77
:10C1AC00154B9B7B2BBB144B1A8A41F282639A4230
:10C1BC0006D8124B1B7813F0080F05D0012300E0B2
:10C1CC0001231BB9082410E00023FAE70A4B0122D3
:10C1DC001A7300241C829A6801329A60FFF7A2FE3F
:10C1EC002046FFF7EFFE00E0082401F0D3FF2046C5
:10C1FC0010BD0824F9E700BF143A0020883A00204B
:10C20C0010B501F081FF214B5B7BABB11F4B9B7BCE
:10C21C0003BB1E4B1A8A41F282639A4206D81C4B0E
:10C22C001B7813F0080F05D0012300E001239BB10C
:10C23C00012302E00023FAE700231C460BB3134B47
:10C24C0000225A731B7B4BB1012B0ED07846FDF7A5
:10C25C003FF916E00023F0E70023EEE7FFF79AFF23
:10C26C0078B17846FDF734F90BE0084B00201860E4
:10C27C00586018731882FFF7A5FEFFF753FEFFF7FF
:10C28C0013FE01F087FF204610BD00BF143A0020BA
:10C29C00883A002008B52C4B1B7BDBB1012B2ED030
:10C2AC007846FDF715F9284A138A01339BB213829D
:10C2BC00264AA2FB03121209C2EB0212A3EB4203A1
:10C2CC009BB2002B3DD0204B5B8A13B1013B1E4A25
:10C2DC00538208BD1C4B1A8A41F282639A4206D8DB
:10C2EC001B4B1B7813F0080F07D0012300E0012330
:10C2FC00002BD8D0FFF784FFE5E70023F8E7124BBB
:10C30C001B8A41F28262934206D8114A127812F0CB
:10C31C00080F14D0012200E00122002AC3D042F2FF
:10C32C00B012934202D9084B01225A73FFF768FFEF
:10C33C000028C8D1044B5B7B012BB4D1C3E700228E
:10C34C00EBE7FFF717FEBEE7143A002089888888D0
:10C35C00883A002010B5244B1B7B002B35D10446AA
:10C36C00214B5B8A2BBB1AB91F4B9B688B4205D3A5
:10C37C00FAB11D4B9B6801338B421AD21A4B9B6846
:10C38C002A338B4223D3184B9B7B03BB164B9960F0
:10C39C0000221A605A601A8242F6065159825A7368
:10C3AC001A73FFF7BFFDFFF77FFD2046FFF70AFE6C
:10C3BC000DE062B10C4B9B6801338B4207D10A4BE9
:10C3CC0001225A73FFF71CFF01E0012B00D010BDB6
:10C3DC00002AFCD1044B9B688B42F8D1024B012202
:10C3EC005A73FFF70DFFF2E7143A00200378042B81
:10C3FC0000D0704743681B78002BFAD010B58468C6
:10C40C00027E437E012A14BF00220122416904F1FD
:10C41C001000FFF79FFF10BD08B538B10D4B01227E
:10C42C009A730D4A13680133136008BD0A4B1B68DD
:10C43C005BB1094A1368013B1360002BF5D1054B26
:10C44C0000229A73FFF7DCFEEFE77846FDF740F821
:10C45C00EFE700BF143A0020E439002000B58DB09E
:10C46C00ADF808008DF81020039103238DF80430EB
:10C47C0001A8FEF7C9FC0DB05DF804FB014B9868F0
:10C48C00704700BF143A0020054B1B7B012B02D0D8
:10C49C00034B98687047024B98680138704700BF8F
:10C4AC00143A00201D4B1B7813F0400F34D070B59C
:10C4BC0004460D461A4B1A685B689A4228D2184BF0
:10C4CC001B7B012B17D0174B9A4216D2144B1A68B0
:10C4DC005B68403B9A4218D2EFF3108672B6104A52
:10C4EC001368591C11602B60FFF7CEFF206006B952
:10C4FC0062B6002070BD0C4BE6E7094B01225A7363
:10C50C00FFF77EFE0028E7D1E0E7FFF7CDFCE3E77D
:10C51C00FFF7CAFC0F20EDE70F207047883A002088
:10C52C00143A0020FFFF7F0000E0FF00044B9B68E3
:10C53C00584010F0010F00D0013B1846704700BF67
:10C54C00143A0020014B187B704700BF143A0020AE
:10C55C00F8B5104B1B7813F0200F01D00820F8BD54
:10C56C0017460C4E43F0200333700B4DA860297313
:10C57C0000242C82FFF7D6FC2046FFF723FD2F600A
:10C58C006F60337843F040033370FFF78DFC204627
:10C59C00E5E700BF883A0020143A002008B50022D5
:10C5AC00FFF7D6FF08BD00002DE9F041002625E07D
:10C5BC00134604FB03F3244AD25A3046C04722499F
:10C5CC00BC2304FB03F3CA5A0132CA520221284687
:10C5DC0002F0C8FD01370221284602F093FD014606
:10C5EC0049B1194BBC2202FB0433D3F80880B8F1D3
:10C5FC00000FDDD1E3E797B90136F6B2022E1FD852
:10C60C003446BC2306FB03F308330F4D1D4404359D
:10C61C000221284602F076FD01460027E0E7284675
:10C62C0002F008FE0828E7D1074BBC2202FB0433BA
:10C63C009B68002BE0D00022044930469847DBE78A
:10C64C000120BDE8F08100BF943A0020E8B004005E
:10C65C0008B5082383731023437300F11C03436153
:10C66C000323037300F1180303610C3002F0B4FDD3
:10C67C0008BD000008B50378012B06D0022B06D0AC
:10C68C007846FCF725FF002002E0292000E0014855
:10C69C0008BD00BF084C010008B50378012B07D07A
:10C6AC00022B15D07846FCF713FF4FF4FA730AE00F
:10C6BC008268521A22F0030303EB9203DB0003EBB4
:10C6CC00920303F5FA730748984228BF184608BD31
:10C6DC0083685B1A1B0B044A02FB03F303F5FA7322
:10C6EC00F1E700BF60850100084C010038B5044635
:10C6FC0001210C3002F006FD054678B1084BC4F858
:10C70C009C300023C4F8A0306168FFF7C5FFC4F863
:10C71C00A800C4F8AC40012384F8B830284638BDD2
:10C72C004DC8020010B50446FFF7E0FF20B104F13C
:10C73C009C000FF063FC00B910BD7846FCF7C8FEF6
:10C74C00FAE70000F8B505460C461646176803785C
:10C75C00012B19D1124BA3FB043149098B00AC6896
:10C76C00E41BB4EB810F00D31C468CB1686827F036
:10C77C000307E968224639443844FFF771FA58B97F
:10C78C00336823443360F8BD7846FCF7A1FEE1E73B
:10C79C007846FCF79DFEE9E77846FCF799FEEFE753
:10C7AC007D0CCEC7F8B506460C46154617680378BF
:10C7BC00022B17D1114BA3FB04231B0C1A03B468D7
:10C7CC00E41BB4EB033F00D314467CB1706827F034
:10C7DC00030721463844FFF711FA58B92B68234454
:10C7EC002B60F8BD7846FCF773FEE3E77846FCF760
:10C7FC006FFEEBE77846FCF76BFEEFE7EB0661C5E7
:10C80C0038B505460C4611462378012B06D0022B71
:10C81C000FD07846FCF75CFE002004E0021D204699
:10C82C00FFF790FFA0686B68834214BF00200120C3
:10C83C0038BD021D2046FFF7B5FFA068F3E70000E6
:10C84C002DE9F8430F46D1F8A850254B1B786BB94E
:10C85C000446A5F5FA7501F10C080121404602F0D9
:10C86C0051FC064648B14FF0000922E00FF002FCE3
:10C87C00002387F8B830BDE8F8837846FCF728FE2B
:10C88C00F1E70FF0F7FB0121404602F06BFC0023AF
:10C89C007B6087F8B830134B186801F0D3FC38462E
:10C8AC00FFF740FFE7E73046FFF7E4FE4844A842B5
:10C8BC000FD8A5EB090231463846FFF7A1FF002837
:10C8CC00DFD101F0EDFAB0EB0409ECD5A4EB0009D3
:10C8DC00E9E70FF0CFFB3846FFF724FFCBE700BFAB
:10C8EC00903A00208C3A002010B5084801F08AFCE0
:10C8FC00074B1860002406E0064BBC2000FB0430FC
:10C90C00FFF7A6FE0134022CF6D910BDB5C5020006
:10C91C008C3A0020943A002038B504460D46022883
:10C92C0005D8054BBC2202FB04339D6038BD78460C
:10C93C00FCF7CEFDF5E700BF943A00202DE9F84353
:10C94C0005460C461746022816D8CCB12378012B85
:10C95C001AD0022B3ED16368C3F30B03002B31D1E9
:10C96C00A368C3F30B03002B30D1A368002B34D185
:10C97C007846FCF7ADFD30E07846FCF7A9FDE4E71E
:10C98C007846FCF7A5FDE1E7636813F0030F0DD1C2
:10C99C00E36813F0030F0DD1A36813F0030F0DD14F
:10C9AC00A368D3B97846FCF793FD16E07846FCF7FC
:10C9BC008FFDEDE77846FCF78BFDEDE77846FCF74D
:10C9CC0087FDEDE77846FCF783FDC9E77846FCF771
:10C9DC007FFDCAE77846FCF77BFDEFF3108872B653
:10C9EC00BC2305FB03F308332A4E1E4404360021F6
:10C9FC00304602F087FB814678B30021304602F0C6
:10CA0C00B1FB20686168A268E368C9F80000C9F846
:10CA1C000410C9F80820C9F80C302FB11D4BBC22EA
:10CA2C0002FB05335B883B801A4BBC2202FB0533AF
:10CA3C005A8801325A8093F8B83083B9164B1B7858
:10CA4C0013B10024A1460CE0124BBC2000FB0530B6
:10CA5C00FFF74CFE8146002403E0042401E000248F
:10CA6C00A146B8F1000F00D162B6B9F1000F09D0A0
:10CA7C00BC2303FB05F598350648284404300FF019
:10CA8C00BDFA10B92046BDE8F8837846FCF720FDC6
:10CA9C00F8E700BF943A0020903A002038B50446DD
:10CAAC00EFF3108572B610B9164B1B6873B18CB1CD
:10CABC00144A136801331360124B1B68003B18BFF8
:10CACC000123114A137005B962B638BD7846FCF7DC
