:020000021000EC
:10C0000000F0012069C3010051C3010053C30100C6
:10C0100055C3010057C3010059C3010000000000CF
:10C020000000000000000000000000005BC30100F1
:10C030005DC30100000000005FC3010061C3010097
:10C0400063C3010063C3010063C3010063C3010054
:10C0500063C3010063C3010099D2030063C30100FD
:10C0600063C3010063C30100054E020063C3010006
:10C0700063C3010063C3010063C3010063C3010024
:10C0800063C30100FD5D0300E193020063C301008F
:10C09000615E030063C3010051CB030063C3010071
:10C0A00063C3010063C3010063C3010063C30100F4
:10C0B00063C3010063C30100000000000000000032
:10C0C00063C3010063C3010063C3010063C30100D4
:10C0D00063C3010063C3010063C3010063C30100C4
:10C0E00063C3010000000000000000000000000029
:10C0F0000000000063C301000000000063C30100F2
:10C10000000000000000000000000000000000002F
:10C11000000000000000000000000000000000001F
:10C12000000000000000000000000000000000000F
:10C1300000000000000000000000000000000000FF
:10C1400000000000000000000000000000000000EF
:10C1500000000000000000000000000000000000DF
:10C1600000000000000000000000000000000000CF
:10C1700000000000000000000000000000000000BF
:10C1800000000000000000000000000000000000AF
:10C19000000000000000000000000000000000009F
:10C1A000000000000000000000000000000000008F
:10C1B000000000000000000000000000000000007F
:10C1C000000000000000000000000000000000006F
:10C1D000000000000000000000000000000000005F
:10C1E000000000000000000000000000000000004F
:10C1F000000000000000000000000000000000003F
:10C20000334934480A1A02D0072291438D463249F5
:10C2100032480A1A06D00722914381F30988022284
:10C2200082F314882E482F492F4A00F03FF82F48F8
:10C230002F49304A00F03AF82F483049304A00F090
:10C2400035F830483049314A00F030F8304831494B
:10C25000314A00F02BF831483149324A00F026F8D3
:10C2600031483249324A00F021F83248324900223E
:10C2700000F027F831483249002200F022F8314816
:10C280003149091A22F00EFE1F482049884205D084
:10C290000268043003B4904703BCF7E700208646E9
:10C2A000EC4600200021294A9047FEE7884207D04B
:10C2B000521A05D0037801300B700131013AF9D1DF
:10C2C0007047884202D002700130FAE770470000E0
:10C2D00000F0012000E8012000F0012000F0012022
:10C2E00018190400601F0020002200209CC30100D8
:10C2F0009CC301000CEF030018190400601F00200C
:10C30000601F002080F3030080F3030080F303002C
:10C3100080F3030080F3030080F3030080F3030045
:10C3200080F3030018190400B81B04000022002049
:10C330000022002000220020B8650020B8650020FF
:10C34000B8650020B8650020B8690020393B0200BC
:10C35000FEE7FEE7FEE7FEE7FEE7FEE7FEE7FEE7B5
:10C36000FEE7FEE700F002B8FFF7FCBF08484FF019
:10C37000070188438546074880470748016841F41C
:10C3800070010160BFF34F8FBFF36F8FFFF738BFAE
:0CC3900000F0012011D4030088ED00E053
:10C39C004FF6FF7399420CD00C4B00EB400203EBB1
:10C3AC004202D27800EB400003EB40030132DA701A
:10C3BC007047064B00EB400203EB4202927800EB15
:10C3CC00400003EB400301329A7070474422002076
:10C3DC0000B583B001911B4B00EB400103EB410115
:10C3EC00897800EB400C03EB4C03DB78D94201D08D
:10C3FC00002303E0002022E001339BB2072B1DD861
:10C40C009E46C3EBC30C104901EBCC0189898142D8
:10C41C00F2D10D4901EBCC01B1F802C0BDF8061008
:10C42C008C45E9D1C3EBC30E074931F83EC0BDF8CA
:10C43C0004108C45E0D11380012000E0002003B0F3
:10C44C005DF804FB442200206822002082B0002307
:10C45C000093027802F0C003802B21D015D80BB1C9
:10C46C00402B05D1ADF800204FF6FF73ADF802302C
:10C47C00009B01930020BDF8043063F30F00BDF85E
:10C48C00063063F31F4002B07047C02BF0D1ADF8FB
:10C49C0000204378827843EA0223ADF80230E7E7C4
:10C4AC00437843EA0223ADF800304FF6FF73ADF842
:10C4BC000230DDE782B00190BDF806304FF6FF7216
:10C4CC00934207D0BDF804200A704B701B0A8B7086
:10C4DC0002B07047BDF8043013F47F4F03D01A0A32
:10C4EC000A704B70F4E70B70F2E782B00190BDF864
:10C4FC0006204FF6FF739A4218D1BDF8040010F4D1
:10C50C007F4F07D000F44040B0F5004F14BF00201F
:10C51C00012014E020F07F039BB22BB97F2801D0BF
:10C52C0001200CE000200AE0002008E0BDF8040027
:10C53C0020F03F0080B2C02814BF0020012002B0C0
:10C54C00704770B506460D46002400E00134AC423D
:10C55C0007D256F83400FFF7C8FF03460028F5D180
:10C56C0000E00123184670BD00B583B00191002393
:10C57C0000E00133818D994211D9816A01EBC30E20
:10C58C0031F833C0BDF804108C45F2D1BEF802C0AE
:10C59C00BDF806108C45ECD11360012000E00020A2
:10C5AC0003B05DF804FB0000C289072A0ED8094BC2
:10C5BC0003EBC20304334A0953F8222001F01F0194
:10C5CC0001238B401A4203D0012070470020704792
:10C5DC00002070473424002010B483B00190BDF8C3
:10C5EC000630A3F540539BB2072B24D8134A12787C
:10C5FC0012F0040F0FD0002003B05DF8044B70470D
:10C60C0051F82200C44302EB430C0D4800EB8C00A4
:10C61C004460013200E00022002AF1D0084911F8F0
:10C62C00332002F0FB0201F8332022F0020201F861
:10C63C0033200020E0E70520DEE700BF3024002097
:10C64C003424002082B00190BDF80630A3F580534D
:10C65C009BB2022B1AD8114A127812F0040F17D180
:10C66C00098803EB43020E4830F81220914212D194
:10C67C00014603EB430001EB4000427902F0FB0260
:10C68C00427122F002024271002002E0052000E01B
:10C69C00002002B070470B20FBE700BF30240020C5
:10C6AC004422002082B00190BDF80630B3F5804FD3
:10C6BC0005D10A78034B1A70002002B07047052090
:10C6CC00FBE700BF601F002010B582B001900C4644
:10C6DC00BDF80630012B06D1032363800823A38009
:10C6EC00238002B010BD784606F022FDF4E700006E
:10C6FC0010B582B001900C46BDF80630012B0FD15D
:10C70C006388032B10D1A388082B10D12388082B06
:10C71C000FD1094A137843F001031370002004E091
:10C72C00784606F005FDEBE70B2002B010BD0B20A0
:10C73C00FBE70B20F9E700BF3024002030B583B0B5
:10C74C0001900D46BDF80640A4F54054A4B2072C48
:10C75C0003D800232BB103B030BD784606F0E8FCBB
:10C76C00F7E703EB4401044A02EB81025268D2431F
:10C77C0045F823200133EDE73424002030B583B095
:10C78C0001900D46BDF80640A4F58054A4B2022CCD
:10C79C0007D804EB4404054B33F814302B8003B05A
:10C7AC0030BD784606F0C4FCF3E700BF44220020FD
:10C7BC0010B582B001900C46BDF80630B3F5804F31
:10C7CC0004D1044B1B78237002B010BD784606F0E0
:10C7DC00AFFCF6E7601F0020F8B504460D46164680
:10C7EC001F4653B12B89B3F5BE7F0AD309233B6097
:10C7FC003868B0FA80F04009F8BD784606F098FC2D
:10C80C00F0E7072C0BD8C4EBC4021C4B03EBC203A0
:10C81C0093F8343013F0010F0ED1002300E0002305
:10C82C003BB1C4EBC402154B03EBC2039B89022B37
:10C83C0004D905233B60DBE70123F1E736B1286817
:10C84C00FFF753FEB8B907233B60D1E7C4EBC40232
:10C85C000A4B03EBC2039A884FF6FF739A42F2D04D
:10C86C00C4EBC404054B03EBC403DA884FF6FF7327
:10C87C009A42E4D1E7E700233B60B9E76822002045
:10C88C00F8B50E4617461D460C4603281AD8DFE8A5
:10C89C0000F00502101401EB81004400BDF81830C3
:10C8AC00B4FBF3F03F2816D800233B7076B92B70FD
:10C8BC00F8BD642000FB01F4F0E741F2707000FB5E
:10C8CC0001F4EBE7784606F033FCE7E7012838BFC4
:10C8DC0001202870ECE740F27623984208D8012317
:10C8EC003B7003F1CC33A3FB0030C0082870DFE7AA
:10C8FC0041F69C03984207D802233B70064BA3FBDE
:10C90C00003040092870D3E703233B70034BA3FB93
:10C91C000030C0092870CBE71F85EB51F119760563
:10C92C0010B5044607280BD8C0EBC002154B03EB1F
:10C93C00C20393F8343013F0010F0BD1002300E045
:10C94C0000234BB1C4EBC4020E4B03EBC203D889DA
:10C95C00002306E00123F4E7784606F0E9FBF1E753
:10C96C000133072B0BD8C3EBC301064A02EBC10200
:10C97C00D2898242F4D19C42F2D0012000E0002006
:10C98C0010BD00BF6822002030B583B001900D4669
:10C99C00BDF80640A4F50054A4B2072C11D80B4ADC
:10C9AC00C4EBC40402EBC40352F834205C689868EE
:10C9BC00D9682A606C60A860E9601A692A6103B0C2
:10C9CC0030BD784606F0B4FBE9E700BF68220020D2
:10C9DC0070B582B00190BDF80630A3F500539BB240
:10C9EC00072B45D8284A127812F0040F42D1B1F81F
:10C9FC000CC0C3EBC300254A02EBC00292899445DC
:10CA0C003BD10888C3EBC302204C34F8322090424F
:10CA1C0035D14C88C3EBC3001C4A02EBC0025288D0
:10CA2C0094422ED1CC89194A02EBC002D28994428D
:10CA3C0001D00B201FE0154C844604EBC0000A68A3
:10CA4C004E688D68D1F80CE044F83C204660856057
:10CA5C00C0F80CE00A69026190F8342002F0FB0285
:10CA6C0080F8342022F0020280F83420002002E00A
:10CA7C00052000E0002002B070BD0B20FBE70B206E
:10CA8C00F9E70B20F7E700BF3024002068220020D4
:10CA9C000D4B1B7813F0040F07D10C4A12F83030F1
:10CAAC0043F0040302F83030704700B583B0084BF4
:10CABC001B68019300F54050ADF80600019810F08A
:10CACC0022FA03B05DF804FB30240020342400204B
:10CADC0050F40300184B1B7813F0040F12D000B560
:10CAEC0083B0164B1B68009300F54053ADF8023031
:10CAFC0000237BB101A9009810F0D4F9C0B903B0A0
:10CB0C005DF804FB0E4A12F8303043F0020302F8D1
:10CB1C003030704703EB4001094A02EB8102526846
:10CB2C00D24302A901EB830141F8042C0133E0E765
:10CB3C00784606F0FDFAE2E73024002050F40300BA
:10CB4C0034240020134B1B7813F0040F09D1124B23
:10CB5C0000EB400203EB4202537943F002035371A2
:10CB6C00704700B583B00D4B5B68019300F58053A3
:10CB7C00ADF8063000EB4000074901EB400101988D
:10CB8C0010F090F910B903B05DF804FB784606F08C
:10CB9C00CFFAF8E7302400204422002050F40300A0
:10CBAC00144B1B7813F0040F0BD1134BC0EBC002CA
:10CBBC0003EBC20292F8343043F0020382F83430B3
:10CBCC00704700B583B00D4B9B68019300F5005383
:10CBDC00ADF80630C0EBC000074901EBC00101986D
:10CBEC0010F060F910B903B05DF804FB784606F05C
:10CBFC009FFAF8E7302400206822002050F403004C
:10CC0C0038B500240FE02046FFF742FF2D4A12F8FA
:10CC1C00353003F0FB0302F8353023F0020302F841
:10CC2C0035300134A4B2072C0DD82546254B13F80A
:10CC3C00343013F0040FE6D113F0020FE6D0204687
:10CC4C00FFF748FFE2E700240AE01F4A05EB450125
:10CC5C004B0013445A7922F002025A710134A4B2E7
:10CC6C00022C0DD8254604EB44035A00164B1344F2
:10CC7C005B7913F0020FE8D02046FFF763FFE4E77F
:10CC8C0000240CE0114AC5EBC501CB00134493F80A
:10CC9C00342022F0020283F834200134A4B2072C91
:10CCAC000ED82546C4EBC403DA00084B134493F8A2
:10CCBC00343013F0020FE5D02046FFF771FFE1E7A7
:10CCCC0038BD00BF342400204422002068220020FC
:10CCDC0000B585B00A4BDA680392103393E8030071
:10CCEC000190ADF8081001A9104610F0DBF810B94E
:10CCFC0005B05DF804FB784606F01AFAF8E700BFB9
:10CD0C0050F4030030B583B004460D460378012B74
:10CD1C0007D042884FF6FB739A420CD8002003B020
:10CD2C0030BD01A803F03AFF6388BDF804209B1ABC
:10CD3C002B800120F3E700230B800120EFE700009C
:10CD4C0010B54FF4E0720021154821F0D7FF154BB8
:10CD5C0000241C605C609C60DC601C8240222146CC
:10CD6C00114821F0CBFF214613E00D4AC1EBC10065
:10CD7C00C30013444FF6FF70D88098800824DC81E0
:10CD8C009881C1EBC100C3001A4401239384194458
:10CD9C0089B20729E9D9054B04221A7010BD00BFCE
:10CDAC00682200204422002034240020601F002030
:10CDBC002DE9F04FD3B004460F4693461E46BDF8FE
:10CDCC00708151A803F0EAFEC4EBC402684B03EB7C
:10CDDC00C2039D89BDF846319D4280F0C280BDF8EA
:10CDEC0044311D44ADB2BBF1000F30D0BBF81E90E6
:10CDFC00BBF824A04FAB0BF10C0292E8030083E8C4
:10CE0C000300BBF1000F04D09BF81CB0BBF1000F6A
:10CE1C0009D0C4EBC404564B03EBC40393F811B014
:10CE2C00BBF1FF0F27D056B3B8F1000F2BD0242243
:10CE3C00002146A821F062FF4CAA4946504604F056
:10CE4C0007FF044618B3204653B0BDE8F08FC4EB7F
:10CE5C00C402474B03EBC203B3F804904FA9D88824
:10CE6C0003F0A2FF00287ED1BDF83E31002B7CD010
:10CE7C004FF6FF7AC5E73F4B93F800B0D3E77846FF
:10CE8C0006F056F9D0E7784606F052F9CFE746ABF4
:10CE9C004FAA92E8030083E80300ADF820518DF807
:10CEAC0022B1BA7A8DF82321FA7A8DF824214A9688
:10CEBC00ADF82C81FA684E920021184612F0B6FD9E
:10CECC0004460028BFD12C4B1B6813F4005F03D021
:10CEDC002A4B1B68042B0FDC274B1B6813F4005FD9
:10CEEC00B1D0264B1B68042BADDDB8F1800F28BFE9
:10CEFC004FF0800823461CE0214BD3F804353A88C8
:10CF0C000192204A009240F2A9121F4905200FF00D
:10CF1C00CDFCE1E7F25C1D490D68100959002F5C4E
:10CF2C0005A800F8137002F00F020131AA5C4254FC
:10CF3C0001334345EED305AA002302F8183003F160
:10CF4C00804303F58833D3F804350292104A0192DA
:10CF5C00104A00924FF4D5720B4905200FF0A6FC35
:10CF6C0071E710246FE705246DE710246BE700BF11
:10CF7C0068220020601F0020A4210020A021002096
:10CF8C0000100140B8F30300ADF30300A82100200A
:10CF9C00CCF30300D4F3030008B5064B1A786FF3F7
:10CFAC0000021A70D2B26FF341021A7002200FF015
:10CFBC00D1FF08BD302400202DE9F04784B006468F
:10CFCC0090461F460C46002933D003AB42462146FF
:10CFDC003046FFF701FC80B323680293BDF80A20AA
:10CFEC004FF6FF739A422CD04FF0030A2589554413
:10CFFC00ADB2284610F001FE814688B30146206888
:10D00C00FFF758FA2289616809EB0A0021F040FE0B
:10D01C0000954B46424621463046FFF7C9FE039029
:10D02C00C8B9C7B10C9BB3B1C7F800900C9B1D805D
:10D03C0004E0784606F07CF8C7E7039804B0BDE836
:10D04C00F087BDF80830FF2B02D94FF0020ACDE76C
:10D05C004FF0010ACAE7484610F0D3FD0398EDE7FC
:10D06C000420EBE738B50446C0884FF6FF739842AE
:10D07C000AD1E289082A3CD01F4B03EBC2031D1DC9
:10D08C005B683BB9042416E003F09CFD03460028C2
:10D09C00EFD02FE093FAA3F3B3FA83F303F01F045A
:10D0AC0009E092FAA2F2B2FA82F202F01F0202EB4B
:10D0BC00431400E00424042C19D0A0B203F026FE83
:10D0CC000346B8B90134032CF4D8630955F823206E
:10D0DC0004F01F040121A14049420A40002AE0D17A
:10D0EC00013302D155F82320F8E70424E3E70023A9
:10D0FC0000E00023184638BD3424002038B5224BFC
:10D10C001A7842F004021A70D3B213F0020F36D11F
:10D11C0013F0010F26D0002401E00134A4B2072C37
:10D12C0020D8C4EBC402194B03EBC2039A894FF607
:10D13C00FF739A42F1D0C4EBC400144B03EBC00054
:10D14C00FFF790FFE8B9114BC4EBC40203EBC2022A
:10D15C00917C6FF3010191741346CAB26FF387028D
:10D16C009A74DAE7FFF74CFD074B1B7813F0010FAD
:10D17C0001D0002038BDFFF7ABFD0520FAE70B20EE
:10D18C00F8E70B20F6E700BF3024002068220020CF
:10D19C002DE9F04F8DB0814600F11404204605F0C6
:10D1AC005BF810B90DB0BDE8F08F4FF6FF73ADF81A
:10D1BC002A300AA92046FFF7A5FD099008B10024E2
:10D1CC003DE00DF12A01204603F0A6FE0028F6D022
:10D1DC00784605F0ADFFF2E7BDF82A102846FFF7B8
:10D1EC00E3F980463EE0424BD3F80435414AC4EBA8
:10D1FC00C40102EBC10032F8312041880695CDF80C
:10D20C0014B0CDF81080CDF80CA0029101923A4ADE
:10D21C0000924FF48662394907200FF047FB4EE02D
:10D22C00C4EBC402334B03EBC2039A6A0B9902EBB7
:10D23C00C10255681A6B4946A0B2A8470134072CA5
:10D24C00B0DCC4EBC4032B4D05EBC305099B002BD1
:10D25C00C2D0AB89BDF82880984514BF4FF00008A8
:10D26C004FF00108234AC4EBC40302EBC30393F849
:10D27C00347007F0010AC4EBC403DB0008331A4412
:10D28C00B9F81E30590952F8216003F01F0201232E
:10D29C0093401E4014BF4FF0010B4FF0000B0BAA34
:10D2AC00D9F800102846FFF75FF90546144B1B68A8
:10D2BC0013F4005F03D0134B1B68062B93DCBAF1FD
:10D2CC00000FBBD0B8F1000FB8D0002EB6D0002D97
:10D2DC00B4D099F81430012BA2D1C4EBC402054B85
:10D2EC0003EBC2031A6B4946A0B201F041FF97E76A
:10D2FC000010014068220020DCF30300ADF30300B2
:10D30C00A4210020A0210020F0B5D1B004460028B3
:10D31C005BD02068FFF79AF84F90BDF83C617F2EE8
:10D32C0000F099804D4B1B6813F4005F03D04C4BFD
:10D33C001B68042B4DDCE06903F077FE0746A069FF
:10D34C0003F04EFE4F9B459325680493BDF81220C5
:10D35C004FF6FF739A4248D003231D444695A38889
:10D36C004F9A0492BDF812104FF6FF72914242D0C0
:10D37C0003229B1A9EB2ADF81C61237A8DF82031E2
:10D38C006389ADF82231E3684993237C8DF8283109
:10D39C00638AADF82A3163694B9394F820308DF889
:10D3AC003031ADF83271636A4D93ADF838012B4BC7
:10D3BC001B6813F4005F4BD0294B1B68042B47DD13
:10D3CC00802E28BF802600232BE0784605F0B0FE87
:10D3DC009FE7244BD3F804350196234A0092FD2293
:10D3EC00224905200FF062FAA5E7FF2E01D902238E
:10D3FC00B3E70123B1E7FF2E01D90222B9E70122DD
:10D40C00B7E7EA5C1A490C681009590014F800C017
:10D41C0004A800F813C002F00F020131A25C4254C0
:10D42C000133B342EDD304AA002302F8163003F102
:10D43C00804303F58833D3F8043502920D4A0192E8
:10D44C000D4A00924FF48A72084905200FF02EFA0B
:10D45C0045A8FFF79DFE51B0F0BD00BFA4210020F0
:10D46C00A02100200010014034F40300ADF30300B0
:10D47C00A821002048F40300D4F3030008B5037876
:10D48C0013B1142B04D008BD0430FFF73DFFFAE7AD
:10D49C00C388022BF7D1034A137843F002031370AD
:10D4AC00F1E700BF30240020B1B1F0B585B00646DD
:10D4BC0014461D460F468AB193B103AB0022FFF709
:10D4CC008BF908B903980CE00095234600223946E5
:10D4DC003046FFF76DFC04E00E2070470E2000E094
:10D4EC000E2005B0F0BD08B501F0AAFE01F0D6F98A
:10D4FC00FFF726FCFFF750FD08BD000008B5FFF74D
:10D50C001FFC0C480C4B036012F094FA01F084FEE3
:10D51C0001F0A8F901F04AFB084B1A786FF30002EE
:10D52C001A70D2B26FF341021A70D2B26FF3820248
:10D53C001A7008BD5C22002089D401003024002020
:10D54C00002800F0B08070B50C460546002900F0AC
:10D55C00AC80C3681BB18368002B00F0A8804FF629
:10D56C00FF732380EB681BB9AB68002B40F0A180E4
:10D57C00AB88022B00F29F8004F094FE002841D16E
:10D58C0022462968A888FEF723FF50B12388C3EBF5
:10D59C00C3034C4A02EBC30393F8343013F0010F6E
:10D5AC0030D1E968A868FEF7CCFF002800F0858030
:10D5BC0020884FF6FF73984273D022882969414B1B
:10D5CC00C2EBC20203EBC20211632288A968C2EB50
:10D5DC00C20203EBC2029162E9682288C2EBC2026A
:10D5EC0003EBC202918522886969C2EBC20203EB8C
:10D5FC00C20291612288C2EBC20103EBC1039A8281
:10D60C00002059E00F2057E00133072B0AD8C3EB59
:10D61C00C3012C4A02EBC10292F8342012F0010F24
:10D62C00F2D198B220804FF6FF73984247D0254E26
:10D63C00C0EBC00006EBC0001A46C3802388C3EBC6
:10D64C00C30306EBC3039A802388A988C3EBC303E7
:10D65C0006EBC303998123886988C3EBC30306EBEC
:10D66C00C303598023882988C3EBC30326F83310DE
:10D67C002388C3EBC30306EBC3035A742988A88819
:10D68C00FEF786FE2388C3EBC30206EBC20292F8B8
:10D69C00343043F0010382F834302088FFF780FAED
:10D6AC008BE70023B1E70E2070470E2004E00E201C
:10D6BC0002E0092000E0052070BD0720FCE70420F3
:10D6CC00FAE700BF6822002070B584B049B3044665
:10D6DC000D460022ADF80E200DF10E03009302ABA7
:10D6EC00FFF76AFC0646A8B9C4EBC4020E4B03EB69
:10D6FC00C203DB7C13F0070F0FD0D30010330A49A1
:10D70C001944BDF80E300093029B2A460331204683
:10D71C0001F060FA304604B070BD029810F071FA56
:10D72C00F8E70E26F6E700BF6822002059B110B5C5
:10D73C0082B014460A4644B1002300932146FFF7F9
:10D74C003BFC02B010BD0E2070470E20F9E7000024
:10D75C008C46D9B107280BD8C0EBC0020D4B03EB9C
:10D76C00C20393F8343013F0010F0DD1002300E005
:10D77C0000236BB1C0EBC000064B03EBC0039B89CD
:10D78C00ACF80030002070470123F2E70E20704700
:10D79C00052070476822002008B507280BD8C0EB7D
:10D7AC00C002134B03EBC20393F8343013F0010F98
:10D7BC000FD1002300E00023ABB1032915D8C0EB37
:10D7CC00C0020B4B03EBC203DB888B4203D100205E
:10D7DC0008BD0123F0E7064B03EBC203D980FFF72A
:10D7EC00DFF90020F4E70520F2E70720F0E700BF9F
:10D7FC00682200208C46D9B107280BD8C0EBC00298
:10D80C000D4B03EBC20393F8343013F0010F0DD121
:10D81C00002300E000236BB1C0EBC000064B03EB10
:10D82C00C003DB88ACF80030002070470123F2E71E
:10D83C000E2070470520704768220020072829D841
:10D84C0008B5C0EBC002164B03EBC20393F834309F
:10D85C0013F0010F20D0124B03EBC203DB7C03F05F
:10D86C00070301F0070293420AD1C0EBC0020C4B34
:10D87C0003EBC203DA7CC1F3C403B3EBD20F0DD0BC
:10D88C00C0EBC002064B03EBC203D974FFF788F957
:10D89C00002008BD052070470520FAE70020F8E7B6
:10D8AC006822002091B1072812D8C0EBC0020A4BA5
:10D8BC0003EBC20393F8343013F0010F0AD0064B7C
:10D8CC0003EBC203DB7C0B70002070470E2070470B
:10D8DC000520704705207047682200208C4659B3FC
:10D8EC0062B307280BD8C0EBC001174B03EBC10385
:10D8FC0093F8343013F0010F1CD1002300E0002307
:10D90C00F3B1C0EBC001104B03EBC1039B69CBB16E
:10D91C000D4B03EBC101897CC1F301018CF80010A4
:10D92C00C0EBC00003EBC0039B7CC3F385031370F7
:10D93C00002070470123E3E70E2070470E2070474C
:10D94C0005207047062070476822002070B584B00F
:10D95C00054600238DF80F308DF80D300DF10D02BA
:10D96C000DF10F01FFF7BAFFE8B9114EEC00C5EB52
:10D97C00C50306EBC3039B8C009303AB0DF10E02A6
:10D98C009DF80D109DF80F00FEF77AFF641BE40064
:10D99C00103430199DF80C209DF80E10043000F056
:10D9AC008DFF04B070BD784605F0C2FBDDE700BF0B
:10D9BC0068220020072818D808B5C0EBC0020F4B0E
:10D9CC0003EBC20393F8343013F0010F0FD00B4B61
:10D9DC0003EBC2039B6963B169B1084B03EBC20350
:10D9EC009984FFF7B3FF002008BD05207047052080
:10D9FC00FAE70620F8E70720F6E700BF68220020C8
:10DA0C0007283BD810B50446C0EBC000214B03EBF4
:10DA1C00C00393F8343013F0010F31D01D4B03EBDE
:10DA2C00C0039B6973B33F2A2ED803292ED8194BF8
:10DA3C0003EBC0039B7CB2EB930F07D1154B03EBAD
:10DA4C00C0039B7C03F003038B4221D0114BC4EB2E
:10DA5C00C40003EBC00090F812C062F3870C80F88E
:10DA6C0012C05FFA8CF261F3010282742046FFF758
:10DA7C006DFF2046FFF794F8002010BD052070477D
:10DA8C000520FAE70620F8E70720F6E70720F4E779
:10DA9C000020F2E76822002010B5044604F002FCD6
:10DAAC0000283DD1072C0BD8C4EBC4021F4B03EB51
:10DABC00C20393F8343013F0010F0DD1002300E0B2
:10DACC0000237BB3C4EBC402184B03EBC203DB890A
:10DADC00082B29D1002302E00123F2E70133072BA5
:10DAEC001CD8134A12F8332012F0010FF6D102F0B1
:10DAFC00FB020F4901F8332042F0010201F83320F8
:10DB0C0098B2C4EBC401094A02EBC102D081FEF702
:10DB1C00E1FF2046FFF744F8002006E0042004E073
:10DB2C000F2002E0052000E0002010BD682200203C
:10DB3C003424002038B5044607280BD8C0EBC002AB
:10DB4C001E4B03EBC20393F8343013F0010F12D1C8
:10DB5C00002300E000235BB3C4EBC402174B03EBC0
:10DB6C00C203DD89082D25D004F09CFB20BB072DBA
:10DB7C0003D908201FE00123EDE72046FEF7D0FE75
:10DB8C0058B1C4EBC4020D4B03EBC2030822DA817B
:10DB9C002046FFF705F800200DE0094A02EBC5010D
:10DBAC00002342F835304B602846FEF771FFE8E75A
:10DBBC00052000E0002038BD0F20FCE76822002083
:10DBCC003424002070B504460D4604F06BFB00288D
:10DBDC004CD1072C0BD8C4EBC4022A4B03EBC20369
:10DBEC0093F8343013F0010F12D1002300E000231E
:10DBFC00002B3ED0072D0DD8C5EBC502214B03EBF6
:10DC0C00C20393F8343013F0010F19D1002302E052
:10DC1C000123EDE7002373B3C4EBC402194B03EBF0
:10DC2C00C203DB89072B28D8C5EBC501154A02EBCB
:10DC3C00C102D289934222D0082A03D9082616E0C1
:10DC4C000123E8E72846FFF775FF064678B90D4B28
:10DC5C00C4EBC40403EBC404E289C5EBC50103EBBC
:10DC6C00C103DA812846FEF79BFF00E00F26304601
:10DC7C0070BD0526FBE70526F9E70826F7E7002621
:10DC8C00F5E700BF6822002038B507280BD8C0EB99
:10DC9C00C0021E4B03EBC20393F8343013F0010F98
:10DCAC001FD1002300E000234BB3C0EBC002174B85
:10DCBC0003EBC203DA89082A23D0032923D8144B97
:10DCCC0003EBC20304334FEA511C53F82C5001F000
:10DCDC001F0101228A4015EA020404D000242046C8
:10DCEC0038BD0123E0E7154343F82C50C0EBC000CE
:10DCFC00064B03EBC003D889FEF7ECFEEFE70524D7
:10DD0C00EDE70624EBE70724E9E700BF68220020D3
:10DD1C0034240020034607280BD8C0EBC0001F4A50
:10DD2C0002EBC00292F8342012F0010F1FD1002236
:10DD3C0000E000225AB3C3EBC300184A02EBC00246
:10DD4C00D089082825D0032925D810B5144A02EB10
:10DD5C00C00204324FEA511C52F82C4001F01F0152
:10DD6C00012000FA01F114EA010002D110BD0122D8
:10DD7C00E0E724EA010442F82C40C3EBC303074A52
:10DD8C0002EBC303D889FEF7A5FE0020EEE70520C1
:10DD9C007047062070470720704700BF682200209C
:10DDAC003424002000293FD02DE9F84305461646BF
:10DDBC008846002A3AD007280BD8C0EBC0021F4B6C
:10DDCC0003EBC20393F8343013F0010F10D100238E
:10DDDC0000E0002363B3C5EBC502184B03EBC20391
:10DDEC00DB89082B26D0B6F800900024348002E0A2
:10DDFC000123EFE70134032C13D8C5EBC500A7B200
:10DE0C0039460E4B03EBC000FEF7CEFB0028F1D0D9
:10DE1C003388994510D928F813703388013333802F
:10DE2C00E8E70020BDE8F8830E2070470E20F9E7E4
:10DE3C000520F7E70620F5E70920F3E76822002024
:10DE4C0038B507280BD8C0EBC002174B03EBC20345
:10DE5C0093F8343013F0010F19D1002300E00023A4
:10DE6C00EBB108291DD8C0EBC003DB0008330E4A08
:10DE7C001A444FEA511C52F82C4001F01F010123A7
:10DE8C008B4014EA030504D00025284638BD012335
:10DE9C00E6E71C4342F82C40FEF782FEF5E7052529
:10DEAC00F3E70725F1E700BF6822002003460728A7
:10DEBC000BD8C0EBC000184A02EBC00292F8342019
:10DECC0012F0010F19D1002200E0002202B3082940
:10DEDC0020D810B5C3EBC302D20008320E4800EBB9
:10DEEC00020C4FEA511E5CF82E4001F01F0101227A
:10DEFC008A4014EA020002D110BD0122E6E724EAAE
:10DF0C0002044CF82E401846FEF74AFE0020F3E7B8
:10DF1C00052070470720704768220020B1B330B548
:10DF2C008E46AAB307280BD8C0EBC0011B4B03EBE2
:10DF3C00C10393F8343013F0010F07D1002300E034
:10DF4C0000233BB315880023138002E00123F8E77C
:10DF5C000133072B18D8C0EBC001C90008310F4C96
:10DF6C0021445C0951F8244003F01F0C012101FAF3
:10DF7C000CF10C42ECD011888D420DD92EF81130D9
:10DF8C00118801311180E3E7002030BD0E2070476D
:10DF9C000E20FAE70520F8E70920F6E768220020B2
:10DFAC0008B507280BD8C0EBC002134B03EBC20318
:10DFBC0093F8343013F0010F0FD1002300E000234D
:10DFCC00ABB1082915D8C0EBC0020B4B03EBC20355
:10DFDC009B888B4203D1002008BD0123F0E7064B40
:10DFEC0003EBC2039980FEF7DBFD0020F4E705206C
:10DFFC00F2E70720F0E700BF682200208C46D9B179
:10E00C0007280BD8C0EBC0020D4B03EBC20393F8EF
:10E01C00343013F0010F0DD1002300E000236BB15D
:10E02C00C0EBC000064B03EBC0039B88ACF8003080
:10E03C00002070470123F2E70E207047052070473F
:10E04C006822002000B585B08DF8070043B2002B84
:10E05C000CDBC2B2012A0BD0064B986903900DF170
:10E06C0007010EF01FFF05B05DF804FB0720FAE76F
:10E07C000720F8E750F40300014B1878704700BFF5
:10E08C00601F00208C46D9B107280BD8C0EBC0020A
:10E09C000D4B03EBC20393F8343013F0010F0DD189
:10E0AC00002300E000236BB1C0EBC000064B03EB78
:10E0BC00C0031B7C8CF80030002070470123F2E772
:10E0CC000E207047052070476822002008B50728ED
:10E0DC000BD8C0EBC002144B03EBC20393F83430E3
:10E0EC0013F0010F11D1002300E00023BBB181F02C
:10E0FC0080037E2B15D9C0EBC0020B4B03EBC20384
:10E10C005B7C8B4203D1002008BD0123EEE7064B5C
:10E11C0003EBC2035974FEF743FD0020F4E705201E
:10E12C00F2E70720F0E700BF682200208C46D9B147
:10E13C0007280BD8C0EBC0020D4B03EBC20393F8BE
:10E14C00343013F0010F0DD1002300E000236BB12C
:10E15C00C0EBC000064B03EBC0035B7C8CF80030BB
:10E16C00002070470123F2E70E207047052070470E
:10E17C006822002049B1022809D800EB4000054A6A
:10E18C0032F810200A80002070470E2070470520BE
:10E19C00704700BF4422002051B102280AD800EB7E
:10E1AC004000054B03EB40039B780B70002070473D
:10E1BC000E207047052070474422002051B10228E0
:10E1CC000AD800EB4000054B03EB4003DB780B70E7
:10E1DC00002070470E207047052070474422002015
:10E1EC000A46F9B107280BD8C0EBC0010F4B03EB63
:10E1FC00C10393F8343013F0010F11D1002300E068
:10E20C0000238BB10949C0EBC00301EBC3035B884E
:10E21C005380C0EBC00031F83030138000207047C1
:10E22C000123EEE70E20704705207047682200207E
:10E23C0000B583B0019162B3964602282BD84FF6F5
:10E24C00FF731380002301E001339BB2072B1CD812
:10E25C00C3EBC301114A02EBC10292898242F3D192
:10E26C000E4A02EBC1025188BDF806209142EBD157
:10E27C00C3EBC30C094A32F83C10BDF804209142A0
:10E28C00E2D1AEF80030002000E0052003B05DF8CC
:10E29C0004FB0E20FAE70520F8E700BF68220020F7
:10E2AC0039B330B50D4632B3022826D81488002372
:10E2BC00138000E00133072B19D8B2F800E0A64513
:10E2CC001DD2C3EBC30C0F4901EBCC0191F83410F8
:10E2DC0011F0010FEED00B4901EBCC018989814281
:10E2EC00E8D125F81E30118801311180E2E70020B9
:10E2FC0030BD0E2070470E20FAE70520F8E7092004
:10E30C00F6E700BF682200208C46D9B107280BD84D
:10E31C00C0EBC0020D4B03EBC20393F8343013F087
:10E32C00010F0DD1002300E000236BB1C0EBC00046
:10E33C00064B03EBC0031B6BCCF80030002070477E
:10E34C000123F2E70E207047052070476822002059
:10E35C002DE9F041044607280BD8C0EBC002264B30
:10E36C0003EBC20393F8343013F0010F3FD10023B9
:10E37C0000E00023002B3CD01F4F4FEAC408C4EB35
:10E38C00C400C0001030384400221146043000F0A4
:10E39C0095FA204600F090FFA8EB040607EBC606A2
:10E3AC00F08802F063FC4FF6FF73F380B380F27CCD
:10E3BC006FF30202F274D2B26FF3C702F27400254B
:10E3CC007574B27C65F38702B274D2B265F3010244
:10E3DC00B274B27D65F38702B275B37D65F3010348
:10E3EC00B3752046FEF7DCFB2846BDE8F08101231F
:10E3FC00C0E70520F9E700BF6822002008281AD8DA
:10E40C0030B583B00546002401E00134A4B2072CDA
:10E41C000ED80DF106012046FFF7F0FD0028F4D1CF
:10E42C00BDF80630AB42F0D12046FFF791FFECE788
:10E43C00002003B030BD072070470000837803F044
:10E44C000303032B22D8DFE803F0020D141A8378A0
:10E45C009B0810B4194A116819448160184B1B6849
:10E46C00002416E0827802F0FC0303EB92035B00BD
:10E47C00EFE783789B08642202FB03F3E9E78378D8
:10E48C009B0841F2707202FB03F3E2E77B461C46E9
:10E49C00DB681BB19A688A1A002AF8DA2CB143B1EE
:10E4AC00E060C3605DF8044B7047C360044B1860B8
:10E4BC00F8E7E0600023C360F4E700BF9424002079
:10E4CC009C24002010B5714B19688B7803F0030362
:10E4DC006F4A1278934240F3B5808C686D4B1B6881
:10E4EC00E41A6D4B03FB04F4032A26D8DFE802F090
:10E4FC00022A2123684BB4FBF3F4644B1B689B7812
:10E50C0003F00303022B36D0032B57D0012B1BD067
:10E51C0000231846002B40F0AC8012F08FFA044612
:10E52C005B4B1B78032B00F28680DFE803F07D89C0
:10E53C0080825A4BDFE75A4BDDE7784604F0F8FD52
:10E54C000023D8E7574BD6E703F1CC33A3FB0423C6
:10E55C00DB0803EB8303B4EB430F02D00023184614
:10E56C00D8E712F06BFA00F5742000F51070012357
:10E57C00474A1370CEE7464B1A783AB94A4BA3FB7D
:10E58C0004135B09642101FB13436BB1012A02D014
:10E59C0000231846BEE7454BA3FB0423DB0803EB23
:10E5AC008303B4EB430F3CD112F048FA03463B48CB
:10E5BC001844374B02221A700123ABE7344B1A78FC
:10E5CC0042B93B4BA3FB0413DB0941F2707101FB15
:10E5DC00134383B1012A04D0022A16D00023184613
:10E5EC0098E7344BA3FB04139B094FF4167101FB02
:10E5FC001343002BF0D112F021FA0346284818449B
:10E60C00234B03221A70012384E72B4BA3FB042317
:10E61C005B09C3EB0313B4EB830FECD00023184658
:10E62C0078E70023184675E71B48204421E01B4877
:10E63C00FBE71B48F9E7784604F07AFD0020F4E785
:10E64C001848F2E712F0FAF90446104B1B689B7855
:10E65C0003F00303032B11D8DFE803F002150C0EB3
:10E66C000D482044094B1B689B78C3F30103084AEF
:10E67C00137010BD0948F4E70948F2E7784604F036
:10E68C0057FD0020EDE70748EBE700BF9C24002076
:10E69C009924002094240020A086010080969800E4
:10E6AC000046C32340420F001F85EB51CDCCCCCC90
:10E6BC00F1197605B5814E1B8988888838B5294BA8
:10E6CC001B7873B9284B1B68002B43D0FFF7FAFE5D
:10E6DC000146244B1B78002B34D0244812F0FAFB53
:10E6EC003BE0224B5D6812F0A9F90446204B1B78E5
:10E6FC00032B16D8DFE803F0021A11131D4B601B15
:10E70C0018441B4B1B789BB94CF2503398420FD9D1
:10E71C00194A136801331360D4E7184BEFE7184B11
:10E72C00EDE7784604F004FD0023E8E7154BE6E737
:10E73C004009154BA3FB00300F4A136803EBD013B1
:10E74C001360BFE7074B01221A700848416012F0B2
:10E75C0079FB02E0034B1B7803B938BD034812F078
:10E76C00A1FBFAE7982400209C2400207C240020A4
:10E77C0099240020A0860100942400208096980003
:10E78C000046C32340420F00C55A7C0A30B583B003
:10E79C0006E063680199284698472046FFF74EFE2D
:10E7AC00104B1C68CCB1A3680F4A1268934204D07A
:10E7BC000D4A12689B1A002B0FDA2588E268094B68
:10E7CC001A600023019301A92846FFF79DFD00283C
:10E7DC00DFD0784604F0ACFCDBE7FFF76FFF03B04B
:10E7EC0030BD00BF9C2400209424002008B5134B9E
:10E7FC001B78032B1ED8DFE803F0020C1116104A0D
:10E80C001368013313600F4B00221A70FFF7BEFF21
:10E81C0008BD0B4A13680A331360F4E7084A1368FF
:10E82C0064331360EFE7064A136803F5BB531033E8
:10E83C001360E8E7784604F07BFCE4E799240020B9
:10E84C00942400209824002010B50446FFF7F6FD10
:10E85C00034B1B68A34200D010BDFFF72FFFFBE753
:10E86C009C240020084A0023136053609360D360FB
:10E87C001361536105499160054A1360054A1360A1
:10E88C00054A1370704700BF7C240020F9E7010093
:10E89C00942400209C2400209824002008B5054BCB
:10E8AC001B7813B9FFF7DEFF08BD034812F0FAFA24
:10E8BC00F8E700BF982400207C24002070B50E4699
:10E8CC001546044628B10AF019FC154B1B680020AC
:10E8DC0005E0784604F02CFCF5E71846DB680BB134
:10E8EC00A342FAD1A27866F30102A270D2B265F308
:10E8FC008702A27013B138B1DA68C26045B903B1AE
:10E90C0050B10AF041FC70BDD968054A1160F5E7B9
:10E91C002046FFF799FFF4E7FFF7D0FEF1E700BFC1
:10E92C009C24002000234FF6FF70072B23D800B542
:10E93C0004E0184601339BB2072B1AD803EBC30231
:10E94C0091000D4A0A4492F83920002AF2D04FF671
:10E95C00FF729042EDD0084A1144096B00EBC00ED7
:10E96C004FEA8E0C6244126B8A1A002AE2DA1846BD
:10E97C00E0E75DF804FB7047A024002070B5044666
:10E98C0000EBC0021A4B03EB820393F8393033B31C
:10E99C00174BB3F8383133B3154A04EBC40302EB0D
:10E9AC008303002183F83910B2F83831013B9BB254
:10E9BC00A2F8383123B913464FF6FF72A3F83A2167
:10E9CC000B4DE60004EBC40305EB8303986A0FF0D0
:10E9DC0018F9264405EB86050023AB6270BD78461A
:10E9EC0004F0A6FBD4E7784604F0A2FBD4E700BF02
:10E9FC00A0240020F8B507463D4BB3F838311BB1C5
:10EA0C0007F57A7600241FE0784604F091FBF7E7CF
:10EA1C002046FFF7B3FF15E005EBC503344A02EBC4
:10EA2C00830292F83830013BDBB282F83830002B8D
:10EA3C0039D02F4A05EBC50302EB8303596B1A6BD4
:10EA4C000A441A630134A4B2072C30D8254604EBCF
:10EA5C00C402274B03EB820393F83930002BF1D01F
:10EA6C00234B03EB82031B6B9B1B002BEADA204826
:10EA7C009100183100EB8202938D926A014420467A
:10EA8C00FEF712FD102808D80123834048F211121A
:10EA9C001342C1D1174A1342BAD10028BCD07846D0
:10EAAC0004F046FBB8E72046FFF768FFCAE7FFF71C
:10EABC0039FF0F4BA3F83A01B3F83831A3B107284B
:10EACC000CD80B4BB3F83A2102EBC20203EB8203D6
:10EADC001B6BDA1B06D4064BDA60F8BD784604F0E3
:10EAEC0027FBEEE7FA1AF6E7014B0022DA60F4E7AF
:10EAFC00A0240020A00201002DE9F84304460F4693
:10EB0C001546994611F09AFF8046154E04EBC40C3D
:10EB1C0006EB8C0C0CF1180E95E80F008EE80F002C
:10EB2C00CCF82890BDF82030ACF82C303B78C3F3EF
:10EB3C0002038CF838303A78D2084CF2503302FB8E
:10EB4C000333CCF834304344CCF8303001238CF808
:10EB5C003930B6F838310133A6F83831BDE8F883CE
:10EB6C00A024002010B50446FFF7DCFE0E4BB3F8D2
:10EB7C003A31834211D00C4BA3F83A014FF6FF7394
:10EB8C0098420DD00848B0F83A3103EBC30300EBC0
:10EB9C008303196B12F09EF910BDA342FCD1EAE776
:10EBAC00784604F0C5FAEDE7A024002010B5074C18
:10EBBC004FF49E720021204620F0A0F8044BA36075
:10EBCC004FF6FF73A4F83A3110BD00BFA02400200B
:10EBDC0001EA01002DE9F04182B004460D461646CB
:10EBEC001F46BDF8208007281FD815B32EB32B78ED
:10EBFC0013F0070F25D047B3B8F1000F29D004EB61
:10EC0C00C402184B03EB820393F839302BBBCDF8BD
:10EC1C0000803B46324629462046FFF76DFF2046D2
:10EC2C00FFF7A0FF02B0BDE8F081784604F080FA4F
:10EC3C00DBE7784604F07CFAD8E7784604F078FAFB
:10EC4C00D5E7784604F074FAD5E7784604F070FA04
:10EC5C00D2E7784604F06CFAD1E72046FFF78EFE37
:10EC6C00D5E700BFA02400204FF6FF730B800023D4
:10EC7C0000E00133072B0FD80B4A4FF02C0C0CFB88
:10EC8C00032292F84020002AF3D0074A0CFB0322FF
:10EC9C00128B8242EDD10B8008884FF6FF73C01A9D
:10ECAC0018BF0120704700BFE02500200B4BB3F8C4
:10ECBC00783173B1094BB3F87A212C2101FB023264
:10ECCC00926B01FB00339B6BD31A002B03DB0120EF
:10ECDC007047012070470020704700BFE0250020DE
:10ECEC0010B4124B2C2202FB00339B6B104C1C44B7
:10ECFC0000234FF6FF7001E001339BB2072B11D8B4
:10ED0C000A4A2C2101FB032292F84020002AF3D05E
:10ED1C00064A01FB0322926B111B0029ECDA184600
:10ED2C001446E9E75DF8044B704700BFE02500206E
:10ED3C0000879303F8B507460D4616464FF6FF734A
:10ED4C000B80042313600AF0D9F9164BB3F8783111
:10ED5C00082B25D90AF018FA3068B0FA80F040096F
:10ED6C00F8BD104C2C2202FB0344218B3A889142B3
:10ED7C0013D00133072BEDD80A4C2C2202FB034C89
:10ED8C009CF84020002AECD129884FF6FF72914262
:10ED9C00EFD1002232602B80EBE708233360D9E7F8
:10EDAC000023E7E7E025002010B50446204B2C2279
:10EDBC0002FB003393F84030B3B11D4BB3F87831FC
:10EDCC00B3B11B4A2C2303FB0423002183F840100E
:10EDDC00B2F87831013B9BB2A2F8783123B3B2F888
:10EDEC007A31A34208D010BD784604F0A1F9E4E7CB
:10EDFC00784604F09DF9E4E72046FFF771FF0C4BD1
:10EE0C00A3F87A014FF6FF73984209D00848B0F87E
:10EE1C007A312C2202FB0303996B12F05BF8E2E7C8
:10EE2C00784604F085F9F1E7014812F03BF8DAE78F
:10EE3C00E0250020F0B585B006466C4BB3F8783170
:10EE4C005BB16B4B01221A7006F57A75674B4FF666
:10EE5C00FF72A3F87A21002492E0784604F068F956
:10EE6C00EFE7624A2C2303FB0423002183F84010B4
:10EE7C00B2F878110139A2F8781103A9188BFFF7B1
:10EE8C0043FA48B9594B2C2202FB04335F6B012225
:10EE9C000399188BB84772E0784604F049F9F1E70A
:10EEAC00524BA3F87A412C2204FB02F202F1180116
:10EEBC00194413440431188BFEF706FC074640B185
:10EECC004C4B1B6813F4005F03D04B4B1B68042B9B
:10EEDC000ADCAFB1082F13D0042F2AD00F2F28D063
:10EEEC00784604F025F915E0444BD3F8043501902D
:10EEFC00434A00928322434905200DF0D7FCE8E7F2
:10EF0C003A4B2C2202FB0433DA6B996B1144996354
:10EF1C005200DA63354B2C2202FB04331A6B9B6BC9
:10EF2C00D31A002B2BDA314B2C2101FB04339A63BF
:10EF3C0025E02E4A2C2303FB0422936B03F51C4380
:10EF4C0040339363294BB3F87831002B49D0274BCE
:10EF5C00B3F87A31072B3ED8244BB3F87A212C2105
:10EF6C0001FB02339B6B9A1B39D4204BDA60204B8C
:10EF7C0000221A7005B0F0BD1C4BA3F87A41013485
:10EF8C00072CDFD8194B2C2202FB043393F84030AA
:10EF9C00002BF4D0154B02FB04331B6B5B1B002BBB
:10EFAC00FFF65FAF114B2C2202FB04339B6B5A1BF9
:10EFBC00002AFFF675AF0D4AB2F87A214FF6FF71B1
:10EFCC008A42D9D009492C2000FB0212926B9B1A61
:10EFDC00002BD4DAD0E7784604F0AAF8BCE7F21A92
:10EFEC00C3E7024B0022DA60C1E700BFE025002036
:10EFFC00DC250020A4210020A021002000100140CD
:10F00C00C0F40300ADF4030010B582B004460DF15A
:10F01C0007010088FFF78AF850BB9DF80730FF2BDB
:10F02C002AD063680093BDF802204FF6FF739A4212
:10F03C0027D00322A38913449BB29DF8072044F6E2
:10F04C00206101FB02F202F5433202F5A0720B2B98
:10F05C0008D90B330F4981FB03135B1044F6206175
:10F06C0001FB0322A069904228BF104602B010BDDC
:10F07C00784604F05DF8D0E7FEF7FEFF8DF8070048
:10F08C00CFE7BDF80030FF2B01D90222D2E70122D5
:10F09C00D0E700BFABAAAA2A2DE9F04105460C46E1
:10F0AC00314B2C2202FB003393F84030002B49D11A
:10F0BC0011F0C4FC07462C4E4FF02C0808FB05F849
:10F0CC0008F1180E06EB0E03D4F800C06068A168B6
:10F0DC00E26846F80EC058609960DA60D4F810C047
:10F0EC006069A169E269C3F810C058619961DA617D
:10F0FC002046FFF789FF06EB0803D8631A6B3A44E6
:10F10C001A633844986309F0F9FF184B1B782BB13C
:10F11C00B6F87A214FF6FF739A4217D02846FFF7BC
:10F12C00C5FDB0B9104B2C2202FB0535012285F828
:10F13C004020B3F878210132A3F878210AF024F8A2
:10F14C00BDE8F081784603F0F3FFB1E7A6F87A51F9
:10F15C00E8E7054C2C2303FB0543996B204611F083
:10F16C00B9FEA4F87A51DDE7E0250020DC2500206B
:10F17C0070B582B004460E461546072815D809F01E
:10F18C00BDFF0DF106012046FFF76EFD48B1BDF83D
:10F19C000600134B2C2202FB00339A8D33889A42C3
:10F1AC0007D009F0F1FF02B070BD784603F0C0FF44
:10F1BC00E5E70B4B2C2202FB0033DA8D73889A4265
:10F1CC00EFD1FFF7F1FDBDF80620054B2C2101FB1B
:10F1DC0002335B6B0022294620469847E1E700BFCB
:10F1EC00E0250020002300E00133072B0FD8094A4B
:10F1FC002C2101FB032292F84020002AF4D0054A6E
:10F20C0001FB0322128B8242EED1002070470120B9
:10F21C00704700BFE025002010B5064C4FF4BE72BD
:10F22C00002120461FF06AFD034BA360034B002214
:10F23C001A7010BDE025002041EE0100DC250020F5
:10F24C0070B582B009F05AFF1A4BB3F878310BB98C
:10F25C0000240BE017480023A0F8783111F022FEAF
:10F26C00F6E7022201992846B0470134072C1CD836
:10F27C00104B2C2202FB043393F84030002BF4D0BB
:10F28C000C4802FB04F3C1180D8B4E6B1833002194
:10F29C0018441FF033FD01A92846FFF735F8002864
:10F2AC00DFD0784603F044FFDBE709F06DFF02B0D6
:10F2BC0070BD00BFE025002010B582B0072803D92F
:10F2CC000524204602B010BD044609F017FF0DF1CD
:10F2DC0002012046FFF7C8FC18B9052409F054FFB9
:10F2EC00EFE7BDF80200FFF75FFD01A92046FFF72D
:10F2FC000BF860B9BDF80220074B2C2101FB02333F
:10F30C005B6B02220199204698470024E6E7784679
:10F31C0003F00EFFEEE700BFE025002048B310B568
:10F32C0082B00446C36933B30388072B25D883699D
:10F33C00A3F5F413A3F59063124A93421FD801AAC4
:10F34C000DF10201FFF7F6FC08B9019818E021460F
:10F35C0031F8040BFEF7B8F9019018B1042801D06C
:10F36C0008280DD12146BDF80200FFF795FE0020BC
:10F37C0006E00E2070470E2002E0052000E007207A
:10F38C0002B010BD8002750303460F4A126812F0DA
:10F39C00010F0AD00D4A128890420AD30B484088BC
:10F3AC000244934207DB002200E00022104622B9FF
:10F3BC0070470022FAE70122F8E74B8001230B701B
:10F3CC0000234B60F4E700BF60270020F0290020E9
:10F3DC000B8833B901334FF6FF720A8003BB10B4AC
:10F3EC000AE00023F7E703EB83020E4C34F82220EB
:10F3FC0082420ED001337BB95A090B4C54F822408F
:10F40C0003F01F0C012202FA0CF21442EBD10B8018
:10F41C00F0E70B80012000E000205DF8044B704702
:10F42C0000207047382D0020642700204FF6FF7312
:10F43C000B800023022B22D810B407E00C884FF667
:10F44C00FF72944215D00133022B14D85A090D4C7B
:10F45C0054F8224003F01F0C012202FA0CF2144261
:10F46C00ECD0094A32F823208242ECD10B800120E7
:10F47C0002E00B80E7E700205DF8044B70470020AA
:10F48C00704700BF5C270020682700204FF6FF73F1
:10F49C000B80002373B10020704708330B800120D0
:10F4AC001FE00C884FF6FF72944216D103F108024C
:10F4BC000A8012E010B45A090B4C54F8224003F0A5
:10F4CC001F0C012202FA0CF21442EAD0162203FBA2
:10F4DC0002F2064CA25A8242DFD00133002BEAD052
:10F4EC0000205DF8044B7047C8280020CC28002071
:10F4FC004FF6FF730B800023072B24D810B407E0C2
:10F50C000C884FF6FF72944217D00133072B16D894
:10F51C005A090E4C54F8224003F01F0C012202FA37
:10F52C000CF21442ECD02A2203FB02F2084CA25A31
:10F53C008242EAD10B80012002E00B80E5E700203B
:10F54C005DF8044B70470020704700BF7427002003
:10F55C0078270020F0B515680023136000E0013314
:10F56C00072B24D84FEA531C134C54F82C4003F0AF
:10F57C001F0E4FF0010C0CFA0EFC14EA0C0FEED01F
:10F58C000E4C4FF02A0C0CFB034CBCF8024084428E
:10F59C00E5D11668AE420CD02A2403FB04F4074FC5
:10F5AC003C5B21F81640146801341460D7E7012045
:10F5BC00F0BD0020FCE700BF742700207827002056
:10F5CC0070B40D6800230B6000E00133032B18D8D6
:10F5DC005A090E4C54F8224003F01F0C012202FA77
:10F5EC000CF21442F1D00C68AC420DD0CC2203FBCF
:10F5FC0002F2074EB25A20F814200A6801320A604F
:10F60C00E3E7012070BC70470020FBE7042A0020D0
:10F61C00082A00200146002000E00130012823D8F0
:10F62C004C2300FB03F3114A32F803C04FF6FF736F
:10F63C009C45F2D04C2200FB02F208320B4B1344D7
:10F64C0002338B4210D04C2200FB02F22832074BC3
:10F65C00134403338B42E0D1054BCC2202FB0C3319
:10F66C0093F86430002BD8D0704700BF5429002089
:10F67C00082A002010B54FEA501C1C4C54F82C40A2
:10F68C0000F01F0E4FF0010C0CFA0EFC14EA0C0FDC
:10F69C002AD0174C4FF0CC0C0CFB004090F86400B7
:10F6AC0010B114788C4208D010B1187888420DD063
:10F6BC0013788B4211D0002010BD1C788C42F3D1F2
:10F6CC0002990A60039A13600120F5E7029A13600D
:10F6DC000023039A13600120EEE7029B1A600023BB
:10F6EC00039A13600120E7E70020E5E7042A0020D5
:10F6FC00082A0020014688B100230BB10020704776
:10F70C00162203FB02F20648825A8A4201D00133C8
:10F71C00F3E7162202FB0300043070470020704709
:10F72C00CC280020082869D810B4072834D8374CC6
:10F73C00072833D803464FEA531C54F82C4003F0E7
:10F74C001F034FF0010C0CFA03F31C4258D00C8829
:10F75C004FF6FF739C4224D00B88032B52D85909C7
:10F76C002B4C54F8214003F01F0C012101FA0CF131
:10F77C000C4249D0072836D82649CC2404FB031365
:10F78C0093F86430022B1ED0234B2A2101FB00334B
:10F79C000433136000202EE0204CC9E7A0F10803CD
:10F7AC00C9E7072806D81C4B2A2404FB00335B88C6
:10F7BC000B80D1E7A0F10804194B4FF0160C0CFB91
:10F7CC0004335B88F4E7144B2A2101FB00339B7D47
:10F7DC00002BD9D000FB01F110310F4B0B44073338
:10F7EC001360002007E008380D4B162101FB003395
:10F7FC000433136000205DF8044B704705207047FC
:10F80C000520F8E70820F6E70820F4E77427002025
:10F81C00042A0020082A002078270020C82800206D
:10F82C00CC2800200A4B23F8210003EB8103002293
:10F83C00DA709A704FEA511C064801F01F01012240
:10F84C008A4050F82C30134340F82C30704700BFDE
:10F85C00682700205C27002010B582B001900A4672
:10F86C00BDF80630A3F5805399B2022911D84B0983
:10F87C00094850F8234001F01F00012383401C402D
:10F88C0003D00024204602B010BD1088FFF7CAFF39
:10F89C00F8E70524F6E700BF5C27002010B582B01E
:10F8AC0001900C46BDF80630012B0AD104232380AD
:10F8BC000123A3800822628023810323E38002B00A
:10F8CC0010BD784603F034FCF0E7000010B582B0B0
:10F8DC0001900C46BDF80630012B15D12388042B62
:10F8EC0016D1A388012B16D16388082B15D1238937
:10F8FC00012B14D1E388032B13D10B4A137843F05B
:10F90C0001031370002004E0784603F011FCE5E7D6
:10F91C000B2002B010BD0B20FBE70B20F9E70B20EE
:10F92C00F7E70B20F5E700BF002A002010B582B0E6
:10F93C0001900C46BDF80630022B09D1084B1B6810
:10F94C0013F0010F08D0074B1B68236002B010BDE9
:10F95C00784603F0EDFBF1E7784603F0E9FBF2E7BC
:10F96C0060270020F029002030B583B001900D46AF
:10F97C00BDF80640A4F58054A4B2022C0FD863093C
:10F98C000B4A52F8232004F01F0101238B401A422A
:10F99C0009D0084B33F824302B8003B030BD7846A7
:10F9AC0003F0C6FBEBE7784603F0C2FBF1E700BFC0
:10F9BC005C2700206827002010B5044648B10D4B89
:10F9CC009C4213D303F519739C4206D94FF6FF7072
:10F9DC000EE0784603F0ACFBF1E7A3F51970201AA2
:10F9EC00054BA3FB0030C0F3CF1001E04FF6FF70C6
:10F9FC0010BD00BF7C2A0020A1A0A0A010B5044619
:10FA0C0008B100200EE0784603F092FBF9E7CC2217
:10FA1C0000FB02F22032134B13440233A34220D0DA
:10FA2C00013080B203281AD802460E4BCC2101FBC0
:10FA3C00003393F86430002BE9D000FB01F1203146
:10FA4C00084B0B440233A3420BD0CC2303FB02F232
:10FA5C004032044B13440333A342E1D101E04FF68F
:10FA6C00FF7010BD082A002010B5044698B1002084
:10FA7C00072816D8144B2A2202FB00330433A34266
:10FA8C000DD000FB02F210320F4B13440733A3428C
:10FA9C0005D00130ECE7784603F04AFBE7E780B28B
:10FAAC0010BD0A4B9C420BD302D94FF6FF70F7E7FF
:10FABC00E31A074AA2FB03231B09083398B2EFE7AA
:10FACC004FF6FF70ECE700BF78270020D02800200D
:10FADC00A38B2EBAF8B504460D4616461F46106881
:10FAEC00002872D0FFF7C0FF00F1010C19E06BB1D8
:10FAFC00394B2A2202FB0C339B7D3BB1364B02FB6C
:10FB0C000C331B7E6B4013F03F0F4CD0324B2A2230
:10FB1C0002FB0C335B796B4013F03F0F4DD00CF1B3
:10FB2C00010CBCF1070F53D84FEA5C1E2B4B53F85A
:10FB3C002E300CF01F024FF0010E0EFA02FE13EAEB
:10FB4C000E0FECD0244B2A2202FB0C335B88A34211
:10FB5C00E5D1234BCC2202FB043393F86430002B09
:10FB6C00C5D01D4A2A2101FB0C22927D002ABED051
:10FB7C00194A01FB0C2252796A4012F03F0FB6D1A0
:10FB8C00154A01FB0C22127E6A4012F03F0FAED1D7
:10FB9C00114B01FB0CF299180431316010321344F3
:10FBAC0007333B6017E002FB0CF210320A4B134494
:10FBBC000733336000233B600DE0074B02FB0C3333
:10FBCC000433336000233B6005E04FF0000CA8E7E2
:10FBDC00002333603B60F8BD782700207427002099
:10FBEC00082A002030B583B001900D46BDF80630D0
:10FBFC00022B08D10E4B1C6814F0010407D0002412
:10FC0C00204603B030BD784603F092FAF2E728881C
:10FC1C0010F034F8012808D12A68064B1A60044AFF
:10FC2C00136843F001031360EAE70B24E8E700BF15
:10FC3C0060270020F029002070B505460C461646BA
:10FC4C004FF6FF730B8010F019F83070022822D099
:10FC5C00032841D0012841D0002042E021884FF6F2
:10FC6C00FF72914208D003EB83021E4931F8222027
:10FC7C00AA420DD001330FE05A091B4951F822104A
:10FC8C0003F01F00012282401142ECD12380F1E7E6
:10FC9C002380012025E00023002BDFD0002020E072
:10FCAC00124A32F82320AA4213D00133022B17D860
:10FCBC0021884FF6FF729142F2D15A090C4951F842
:10FCCC00221003F01F00012282401142E8D1238050
:10FCDC00EBE72380012004E00023E7E70023E5E7BE
:10FCEC00002070BD382D00206427002068270020DC
:10FCFC005C27002030B583B001900D46BDF806405E
:10FD0C00B4F5005F1DD1A4F500539CB2C3F34A11A6
:10FD1C00104A52F8211003F01F03012202FA03F3D8
:10FD2C00194212D004EB84040B4B03EB8403586888
:10FD3C009968DA681B6928606960AA60EB6003B097
:10FD4C0030BD784603F0F4F9DDE7784603F0F0F9BE
:10FD5C00E8E700BF64270020382D002030B583B0C1
:10FD6C0001900C46BDF80650B5F5A04F27D1A5F56E
:10FD7C00A0439DB2C3F34A11154A52F8211003F067
:10FD8C001F03012202FA03F319421CD01149162356
:10FD9C0003FB05F28B18D3F806E0D3F80AC0D3F8AE
:10FDAC000E50D3F81200C4F804E0C4F808C0E560A3
:10FDBC0020618A5A22805B88638003B030BD78460C
:10FDCC0003F0B6F9D3E7784603F0B2F9DEE700BFEB
:10FDDC00C8280020CC280020F0B5083B134C4FF06D
:10FDEC00160E0EFB03FE04EB0E0C17685668956896
:10FDFC00D268CCF80670CCF80A60CCF80E50CCF86F
:10FE0C00122000228CF8052001228CF80420ACF87A
:10FE1C00021024F80E005809054903F01F039A40FC
:10FE2C0051F82030134341F82030F0BDCC2800208D
:10FE3C00C828002010B582B00190BDF80630B3F58B
:10FE4C00A04F19D10846A3F5A042C2F34A140C499D
:10FE5C0051F8244002F01F0101228A40144001D0C5
:10FE6C0000240AE0A3F59F43783B9BB2021D418816
:10FE7C000088FFF7B1FF00E00524204602B010BD5A
:10FE8C00C828002010B5CC1E04EB8402104901EBED
:10FE9C008201D0F800E0D0F804C08268C368C1F8D1
:10FEAC0004E0C1F808C0CA600B610FF0BDFE58B980
:10FEBC006009084904F01F040122A24051F82030C7
:10FECC00134341F8203010BD784603F031F9EFE7C9
:10FEDC00382D00206427002010B582B00190BDF8A9
:10FEEC000630B3F5005F16D10846A3F50052C2F3F5
:10FEFC004A140B4951F8244002F01F0101228A4098
:10FF0C00144001D0002407E0A3F5FF531D3B99B228
:10FF1C00FFF7B8FF00E00524204602B010BD00BF7B
:10FF2C006427002030B583B001900C46BDF8065014
:10FF3C00A5F54055ADB2032D2DD824220021204625
:10FF4C001EF0DCFE6B09234A52F8232005F01F013A
:10FF5C0001238B401A4222D01F49CC2205FB02F20E
:10FF6C008B188A5A228093F86420A270D3F802C0AE
:10FF7C00D3F80600D3F80A10D3F80E20C4F803C047
:10FF8C00C4F80700C4F80B10C4F80F2093F86430C1
:10FF9C004BB903B030BD784603F0CAF8CDE77846CC
:10FFAC0003F0C6F8D8E7CC2303FB05F510350A4B54
:10FFBC002B44D3F80200D3F80610D3F80A20D3F858
:10FFCC000E30C4F81300C4F81710C4F81B20C4F882
:10FFDC001F30DEE7042A0020082A002070B582B00A
:10FFEC0001900C46BDF80650A5F58045ADB2072D25
:04FFFC002CD82622B5
:020000022000DC
:10000000002120461EF080FE6B09234A52F823206F
:1000100005F01F0101238B401A4221D01F492A22DB
:1000200005FB02F28B18D3F80660D3F80AE0D3F888
:100030000EC0D3F81200C4F80560C4F809E0C4F893
:100040000DC0C4F811008A5A22805A8862809B7DB4
:1000500023714BB902B070BD784603F06FF8CEE75C
:10006000784603F06BF8D9E72A2303FB05F5103532
:100070000B462B44D3F80900D3F80D10D3F8112008
:10008000D3F81530C4F81500C4F81910C4F81D20B1
:10009000C4F82130DEE700BF742700207827002055
:1000A00038B504464FF6FF7320F80A3B21252A464F
:1000B00000211EF029FE2A46002104F12B001EF02B
:1000C00023FE38BD38B50546002400E00134012C7C
:1000D00016D80C4B4C2202FB04339A88AB889A4208
:1000E000F4D1084B4C2202FB04335A886B889A42A5
:1000F000ECD1044B4C2000FB0430FFF7D1FFE5E7C7
:1001000038BD00BF54290020F8B50D461446354BC4
:10011000CC2204FB02F202F16801194413449967EE
:10012000064610B9304B01221A70CC2304FB03F3AE
:1001300020332C491944023128460FF0E2FC0028F4
:1001400044D1CC2304FB03F378332649194404310A
:1001500028460FF01DFD00283CD1CC2304FB03F3FF
:10016000903320491944043128460FF03BFDA8BBC9
:100170001C4FCC2004FB00F03A18D5F800E0D5F86D
:1001800004C0A968EB68C2F802E0C2F806C0C2F871
:100190000A10C2F80E3000F110033B440021C3F8EE
:1001A0000210C3F80610C3F80A10C3F80E103E522E
:1001B00082F8641060090D4904F01F040122A24076
:1001C00051F82030134341F82030F8BD784602F052
:1001D000B5FFB6E7784602F0B1FFBEE7784602F019
:1001E000ADFFC5E7082A0020EC290020042A0020E2
:1001F00070B582B00190BDF80640A4F54054A4B299
:10020000032C41D80E466309204A52F8235004F0CB
:100210001F02012393401D4003D00025284602B051
:1002200070BD31F8030B2246FFF76EFFB278184B12
:10023000CC2101FB043383F86420002AEED014495A
:10024000CC2303FB04F404F110030B44D6F813E0B1
:10025000D6F817C0D6F81B00D6F81F20C3F802E066
:10026000C3F806C0C3F80A00C3F80E204034214486
:10027000033106F113000FF044FC08B90546CDE741
:10028000784602F05BFFC9E70525C7E7042A00208E
:10029000082A002030B583B001900D46BDF8064015
:1002A00004F54054A4B231F8030B2246FFF72CFFAB
:1002B000AA78074BCC2101FB043383F86420054A5C
:1002C000137843F004031370002003B030BD00BF67
:1002D000082A0020002A00202DE9F04106460D469C
:1002E00010461C461E4B2A2204FB02F29918D0F835
:1002F00000804768D0F808E0D0F80CC0C1F806804C
:10030000C1F80A70C1F80EE0C1F812C010321344EF
:100310000022C3F80920C3F80D20C3F81120C3F848
:10032000152005310FF0E2FBB0B90D492A2304FB7B
:1003300003F3CA18002010719075CE5255806009E1
:10034000084904F01F040122A24051F82030134351
:1003500041F82030BDE8F081784602F0EFFEE4E796
:10036000782700207427002070B582B00190BDF876
:100370000640A4F58044A4B2072C43D80E46630976
:10038000214A52F8235004F01F02012393401D40DC
:1003900003D00025284602B070BD23464A1D498877
:1003A0003088FFF799FF3279184B2A2101FB04337B
:1003B0009A75002AEED00B4604FB03F31033134961
:1003C0001944D6F815C0D6F81900D6F81D20D6F86D
:1003D0002130C1F809C0C1F80D00C1F81120C1F8E1
:1003E0001530083106F115000FF080FB30B9074BCE
:1003F0002A2202FB04331A79DA75CBE7784602F039
:100400009DFEF4E70525C5E7742700207827002026
:10041000F0B583B001900D46BDF8063003F50054E9
:10042000A4B2072C1AD903F580539CB2072C3AD8F2
:1004300001261E4A137843F00403137023462A1D35
:1004400069882888FFF748FF2746194B2A2202FBB4
:1004500004339E7526B9002003B0F0BD0026E8E7FE
:1004600002FB04F41034124921446C69A869EA695A
:100470002B6AC1F80940C1F80D00C1F81120C1F87C
:100480001530083105F114000FF030FB38B9084B76
:100490002A2202FB07331A79DA750020DCE7784656
:1004A00002F04CFEF3E70520D6E700BF002A00204B
:1004B0007827002010B584B0094A52F8044B039401
:1004C0006B4607CA03C31A80694620460CF0F0FC4D
:1004D00008B904B010BD784602F030FEF9E700BF5D
:1004E00058F5030030B583B005460C460023ADF83F
:1004F00000304B0952F8232001F01F0101238B40EB
:100500001A420CD00123ADF804302C44ADF806405B
:10051000694601980CF0CCFC28B903B030BD784690
:1005200002F00CFEEEE7784602F008FEF5E7000068
:10053000002940D070B582B0054614460E460DF134
:10054000070201A9FFF77EFB2CB99DF80730032BAA
:1005500001D010201DE0012C1DD078B9BDF8041089
:100560004FF6FF73994228D02846FFF761F9144AE5
:10057000BDF804104FF48050FFF7B4FFBDF804300D
:10058000338084B90F4A02EB8303DA780132DA70E0
:10059000002002B070BD9DF80730032BDDD0012B89
:1005A000DBD01020F5E7074A02EB83039A7801328B
:1005B0009A700020EDE70E2070470420E9E700BFA5
:1005C0005C27002068270020284B1B7813F0040FBD
:1005D0004AD030B583B0254B1A786FF382021A7077
:1005E000234B1B690193002400E00134032C18D82D
:1005F0006309204A52F8232004F01F0101238B4095
:100600001A42F2D0A5B205F54053ADF80630019874
:100610000CF07FFC174A29464FF44050FFF762FF69
:10062000E3E7134B5B690193002400E00134072CDE
:1006300018D86309104A52F8232004F01F0101233F
:100640008B401A42F2D0A5B205F58043ADF80630D2
:1006500001980CF05EFC084A29464FF48040FFF7F1
:1006600041FFE3E703B030BD704700BF002A002020
:1006700058F50300042A0020742700202DE9F041DA
:1006800082B080460C4615464F0952F8273001F0DB
:100690001F0201269640334212D00123ADF80430E8
:1006A0004444ADF8064001980CF033FC60B955F8AD
:1006B000273023EA060345F8273002B0BDE8F08171
:1006C000784602F03BFDE8E7784602F037FDEEE7BA
:1006D00010B502280BD84309294A52F8232000F00C
:1006E0001F0101238B401A4224D1002200E0002286
:1006F00012BBC31E9BB25BB95C09224951F824406E
:1007000003F01F03012101FA03F31C4200D00A4643
:10071000002A32D0033881B201EB81021A4B03EB7D
:1007200082039B7823B9184B03EB8203DB78D3B1A8
:10073000002010BD0122DBE7144B03EB80039B7804
:1007400023B9124B03EB8003DB780BB10020F0E7F9
:100750000E4B002223F82020094A01464FF4805016
:10076000FFF78CFFF2E79300074A0020D052054ABA
:100770004FF40050FFF782FFDAE70520D9E700BF0A
:100780005C27002064270020382D002068270020E7
:1007900008B5064B1A786FF300021A70D2B26FF3E5
:1007A00041021A7001200CF0DBFB08BD002A00207A
:1007B00070B506460D464FF6FF730B8000240CB152
:1007C000002070BD6309104A52F8232004F01F0175
:1007D00001238B401A4206D12A884FF6FF739A42B2
:1007E0000CD12C800AE004EB8403084800EB830062
:1007F0001022314604301EF0B7FA08B10134DEE7AA
:100800002C800120DDE700BF64270020382D002068
:10081000F0B583B04FF6FF73ADF8063000283FD037
:100820000C461646074600293CD00DF10601FFF79D
:10083000BFFFBDF80630DD1CADB270B94FF6FF72D8
:10084000934231D029463846FFF722FB174ABDF8BC
:1008500006104FF40050FFF745FE258086B9BDF81D
:100860000630134A03EB830102EB8101C97803EBE5
:10087000830302EB83024B1CD370002003B0F0BD56
:10088000BDF806300A4A03EB830102EB8101897847
:1008900003EB830302EB83024B1C93700020EDE714
:1008A0000E20EBE70E20E9E70420E7E764270020AD
:1008B000382D002030B583B005460C46486820B17D
:1008C0000DF10601FFF774FF18B94FF6FF73ADF88D
:1008D00006300DF106012846FEF780FDB0B1BDF8E7
:1008E000063003EB83030A4A02EB8303DB7863B130
:1008F000658002232370BDF8063003EB8302044BAE
:1009000003EB82030433636000E0002003B030BDDA
:10091000382D002010B504464FF6FF730B800023DE
:100920000CE05A09144850F8220003F01F0C012271
:1009300002FA0CF2104208D10B800133022B12D8BC
:1009400008884FF6FF729042EBD00C4A32F8232011
:10095000A242F2D1094A02EB8302D278002AECD0FB
:100960000B80012006E00BF0C5FE4088A04214BFBA
:100970000020012010BD00BF5C2700206827002058
:1009800000B583B0488003230B7000234B60A0F5B3
:100990007F43FC3B032B1DD8DFE803F0020510204A
:1009A00013F014FE1BE001A816F0D4FF10B99DF857
:1009B000040014E0784602F0C1FBF8E701A9012029
:1009C00009F074FA10B99DF8040008E0784602F0C6
:1009D000B5FBF8E701A9FFF79DFF00E0012003B098
:1009E0005DF804FB0388012B02D0012B0ED0704769
:1009F000B0F802C0ACF5405292B2032AF5D81429DF
:100A0000F3D1ACF5C04CA0F802C070474288A2F503
:100A100080439BB2072BEAD8242905D01429E6D1BC
:100A2000A2F5C0424280E2E7A2F5A04242807047B0
:100A300008B5094B1B7813F0020F0AD113F0010F10
:100A400003D0FFF7C1FD002008BDFFF733FD0520EF
:100A5000FAE70B20F8E700BF002A002010B50022BB
:100A600006E01A4B03EB82030021D9709970013222
:100A7000022AF6D900236BB10024154B1C60154BDC
:100A80001C60154B1C60154B1C60154B1C60154BF6
:100A90001C6010E003EB83029100134A0A4400211A
:100AA000D17091700133E6E7104B4C2000FB04300D
:100AB000FFF7F6FA0134012CF6D90D4A0023138012
:100AC00053800C4A1370FFF763FE10BD68270020A7
:100AD000602700205C27002064270020042A0020D3
:100AE00074270020C8280020382D00205429002019
:100AF000F0290020EC29002010B50D480D4B0360B3
:100B00000EF09EFF0C4B1A786FF341021A70D2B2AE
:100B10006FF300021A70002406E0084B4C2000FB23
:100B20000430FFF7BDFA0134012CF6D910BD00BF27
:100B3000F42900202D170200002A0020542900204B
:100B400038B5054670B1164B1C6814F0010424D169
:100B50006B8823B128880FF097F8012806D00B2462
:100B6000204638BD784602F0E9FAECE728886B8821
:100B7000184480B2013880B20FF086F80128EED117
:100B8000074A136843F0010313602968054B196095
:100B900000210220FFF7A6FCE2E70F24E0E700BFF8
:100BA00060270020F029002010B5044618B1044B3E
:100BB0001B68236010BD784602F0C0FAF7E700BF5B
:100BC000F029002008B50122FFF7B2FC08BD0000A3
:100BD00010B402280BD84309204A52F8232000F011
:100BE0001F0101238B401A4215D1002200E0002290
:100BF0009AB9C31E9BB25BB95C09194951F82440EC
:100C000003F01F03012101FA03F31C4200D00A463E
:100C1000C2B9002302E00122EAE70123DBB1022886
:100C200012D903380F4B00EB800203EB820292785B
:100C300000EB800003EB800301329A7000205DF826
:100C4000044B70470123E9E7074B03EB80039A78D5
:100C500001329A70F2E70520F1E700BF5C2700201F
:100C600064270020382D00206827002008B50122C5
:100C7000FFF7CEFD08BD000010B502280BD84309D0
:100C80001C4A52F8232000F01F0101238B401A4216
:100C900015D1002200E000229AB9C31E9BB25BB9B5
:100CA0005C09154951F8244003F01F03012101FAA2
:100CB00003F31C4200D00A4662B9052010BD012290
:100CC000EAE70E4B03EB80039A78013A9A70FFF73C
:100CD000FFFCF3E7C31E0A4A03EB830102EB810129
:100CE000897803EB830302EB83024B1E9370FFF7BB
:100CF000EFFCE3E75C270020642700206827002042
:100D0000382D002008B50022FFF712FC08BD08B5F9
:100D10000022FFF77DFD08BD10B402280BD843095F
:100D2000204A52F8232000F01F0101238B401A4271
:100D300015D1002200E000229AB9C31E9BB25BB914
:100D40005C09194951F8244003F01F03012101FAFD
:100D500003F31C4200D00A46C2B9002302E001227C
:100D6000EAE70123DBB1022812D903380F4B00EB6D
:100D7000800203EB8202D27800EB800003EB800359
:100D80000132DA7000205DF8044B70470123E9E777
:100D9000074B03EB8003DA780132DA70F2E70520C3
:100DA000F1E700BF5C27002064270020382D0020D9
:100DB0006827002000293ED038B50C4602280BD801
:100DC00043091F4A52F8232000F01F0101238B40E2
:100DD0001A4224D1002200E0002212BBC31E9BB2A3
:100DE0005BB95D09174951F8255003F01F03012134
:100DF00001FA03F31D4200D00A46F2B10338124B48
:100E000000EB800233F82220628000EB800003EBCD
:100E100080030433636002232370002038BD012265
:100E2000DBE70A4B33F8200060800EF02DFF2070C6
:100E300000206060F2E70E2070470520EEE700BF5B
:100E40005C27002064270020382D00206827002020
:100E500010B582B0044602280BD843092D4A52F837
:100E6000232000F01F0101238B401A4215D10022DC
:100E700000E000229AB9E31E9BB25BB958092649EB
:100E800051F8200003F01F03012101FA03F3184277
:100E900000D00A46D2B9002302E00122EAE701238A
:100EA000A3B369462046FFF785FF58BB9DF8003085
:100EB000032B0DD0022B27D1E31E03EB8301174A2E
:100EC00002EB8102D2789AB9052020E00123E7E7FE
:100ED000134B03EB8403DB780BB9052017E0104AB2
:100EE00002EB8402013BD3702046FFF7F1FB0EE0DA
:100EF0000B460A4901EB8303013ADA702046FFF7FB
:100F0000E7FB04E0002002E00F2000E0052002B033
:100F100010BD00BF5C27002064270020382D002072
:100F20006827002070B330B583B00C46054659B32E
:100F300040880EF0A9FE02280FD0032804D0012813
:100F400002D0102003B030BD21466888FEF774FA45
:100F500008B10020F6E70520F4E74FF6FF73ADF87F
:100F60000630686850B10DF10601FFF721FC38B179
:100F7000BDF80630033323800020E3E70E20E1E7CD
:100F80000520DFE70E2070470E20DBE700B5864620
:100F90004FF6FF70002304E04FF6FF72904217D027
:100FA0000133032B16D85A090E4951F8221003F0C9
:100FB0001F0C012202FA0CF21142EDD0CC2203FBED
:100FC00002F209498A5A9645EAD198B2012302E011
:100FD00098B2E5E700230BB15DF804FB4FF6FF7014
:100FE000FAE700BF042A0020082A002078B110B5D3
:100FF0000446FEF715FB012803D92046FEF704FD41
:1010000010BD4C2303FB00F0024B185AF8E74FF6D3
:10101000FF7070475429002000B583B00DF1060120
:10102000FEF76CFA20B1BDF8060003B05DF804FBD2
:101030004FF6FF70F9E718B108B5FEF71BFD08BDC4
:101040004FF6FF70704700000A46A1B1072814D878
:1010500043090C4951F8231000F01F0C012303FA37
:101060000CF319420BD02A2303FB00F0064B1B5A4A
:101070001380002070470E20704705207047052020
:10108000704700BF742700207827002008286AD8FE
:1010900038B504460D46002967D0072830D84309E3
:1010A000354A52F8232000F01F0101238B401A42D9
:1010B0005DD0324B2A2202FB00335B88032B17D80A
:1010C0002E4B2A2202FB04335B8859092C4A52F822
:1010D000211003F01F03012202FA03F319420BD07F
:1010E000264B2A2202FB04335B882B80002038BD6C
:1010F000784602F023F8E3E7784602F01FF8EFE7BE
:10110000A0F1080462091F4B53F8222004F01F01CC
:1011100001238B401A422CD01B4B162202FB0433B6
:101120005B88032B17D8184B162202FB04335B880D
:101130005909134A52F8211003F01F03012202FA41
:1011400003F319420BD0104B162202FB04335B88C9
:101150002B800020CBE7784601F0F0FFE3E77846EC
:1011600001F0ECFFEFE7052070470E20BFE70520F8
:10117000BDE70520BBE700BF7427002078270020CB
:10118000042A0020C8280020CC280020002900F0D4
:101190008D8070B5C6B0054614460E46002A00F094
:1011A0008780B0F5805F80F085804FF6FF731380F5
:1011B000002305E021884FF6FF72914216D00133DB
:1011C000032B15D859093F4A52F8212003F01F007C
:1011D000012181400A42EDD0CC2203FB02F23A49C0
:1011E0008A5A9542EBD12380012302E02380E6E76F
:1011F00000236BB123883448CC2202FB0300102269
:10120000314602301DF0B0FD002856D1032052E0D7
:1012100022884FF6FF739A4251D031462846FEF796
:1012200073FF284A21884FF44050FFF75BF9238869
:10123000CC2202FB03F388332349194404312846A6
:101240000EF00BFC214B1B6813F4802F03D0204BB6
:101250001B68062B28DC00202DE0F25C1D490C6881
:1012600010095900255C05A800F8135002F00F0280
:101270000131A25C425401330F2BEED905AA0023A1
:101280008DF8343003F1804303F58833D3F8043507
:101290000292114A0192114A009240F62712104917
:1012A00007200BF009FBD6E70023E5E70E20704787
:1012B0000E2000E0072046B070BD0F20FBE70420A1
:1012C000F9E700BF042A0020082A0020A4210020FA
:1012D000A0210020A821002028F50300D4F303005A
:1012E00011F50300032813D843090B4A52F82320B1
:1012F00000F01F0C012303FA0CF31A420AD0074B2B
:10130000CC2202FB003393F864300B70002070474E
:101310000520704705207047042A0020082A002075
:10132000002900F09D80F8B504460D46032800F220
:10133000998043094E4A52F8232000F01F010123EF
:101340008B401A4200F090804A4BCC2202FB0033C3
:1013500093F864308BB1012B40F08880134600FB7A
:1013600003F31033434818441022294602301DF07D
:10137000FBFC002877D0082075E03E49CC2200FB1A
:1013800002F202F110030B449E1C2F68D5F804E012
:10139000D5F808C0E868C3F80270C3F806E0C3F8DF
:1013A0000AC0C3F80E0040321144033128460EF043
:1013B000A8FBB8B9CC2304FB03F3A0332D4919448F
:1013C000043130460EF0E4FB80B9CC2304FB03F378
:1013D000B83328491944043128460EF003FC48B9B3
:1013E00000260CE0784601F0A9FEE3E7784601F01C
:1013F000A5FEEAE7784601F0A1FEF1E70136012EED
:1014000017D84C2306FB03F31B4AD35AA342F5D14A
:101410004C2306FB03F3D11828331A44033202315C
:1014200028460EF082FB0028E8D0784601F086FEC0
:10143000E4E71048CC2304FB03F3C118012281F830
:10144000642003F1B00101440431C05A0DF0D2FD13
:10145000074A21464FF44050FFF744F8002002E0CD
:101460000E2070470520F8BD0520FCE70820FAE7AC
:10147000042A0020082A00205429002003282CD800
:1014800010B504464309174A52F8232000F01F0103
:1014900001238B401A4222D0134BCC2202FB003393
:1014A00093F86430012B01D0082010BD0E4813467C
:1014B00004FB03F3C118022281F8642003F1B00198
:1014C00001440431C05A0DF095FD064A21464FF4FF
:1014D0004050FFF707F80020E7E705207047052098
:1014E000E3E700BF042A0020082A0020032800F2B6
:1014F000E68070B505464309734A52F8232000F090
:101500001F0101238B401A4200F0DB806F4BCC227D
:1015100002FB003393F864300BB9082070BD6B4AAE
:10152000CC2100FB01F1501801F110031344D3F852
:1015300002C0D3F80660D3F80A40D3F80E30C0F8E2
:1015400002C0C0F80660C0F80A40C0F80E3001F1D1
:101550002003134440311144CA1C02332331D2F812
:1015600000E0D2F804C09468D068C3F800E0C3F883
:1015700004C09C60D860103210338A42EFD11278D8
:101580001A705249CC2205FB02F202F178030B4497
:10159000A03211440A1D04332431D2F800E0D2F8FD
:1015A00004C09468D068C3F800E0C3F804C09C602D
:1015B000D860103210338A42EFD111685268196036
:1015C0005A60002312E00E68D1F804E0D1F808C098
:1015D000CC681660C2F804E0C2F808C0D4601031CC
:1015E00010328142EFD1097811700133012B13D8E9
:1015F0004C2203FB02F236498A5AAA42F5D1084628
:101600004C2103FB01F101F1080202442831084496
:10161000C11C02322330D6E72C48CC2305FB03F350
:10162000C218002482F8644003F188010144224674
:101630000431C05A0DF0DEFC00E00134072C36D82E
:101640006309244A52F8232004F01F0101238B4030
:101650001A42F2D0204B2A2202FB04335B88AB42B1
:10166000EBD11D4B02FB04339B7D002BE5D01A4BC5
:10167000114604FB01F15A1810310B44D3F807C08E
:10168000D3F80B60D3F80F00D3F81310C2F804C0DE
:101690009660D0601161B3F8173093820023937580
:1016A0000C4AA1B24FF48040FEF71CFFC5E7064A82
:1016B00029464FF44050FEF715FF00202EE7052085
:1016C000704705202AE700BF042A0020082A0020CE
:1016D00054290020742700207827002070B5044684
:1016E0000D469DF81060FEF76DF94FF6FF739842B6
:1016F00002D03034AC4200D070BD56B10A4BCC227F
:1017000002FB003393F86430012BF5D1FFF7B6FEEE
:10171000F2E7054BCC2202FB003393F86430002B38
:10172000EAD0FFF7E3FEE7E7082A00200378142B4E
:1017300018D000B583B01A2B10D0042B02D003B000
:101740005DF804FB037E427E0092003B18BF01233C
:10175000426981684068FFF7C1FFF0E70430FEF797
:10176000B1FCECE7C388012B00D07047024A137824
:1017700043F0020313707047002A002040B108B5FF
:1017800041B1FDF723FF08B1002008BD0920FCE7A7
:101790000E2070470E20F8E7002A67D0F0B5C7B0DA
:1017A00007460C461D461646002B61D00EF06CFA1B
:1017B00001285FD1032C60D86309344A52F82320F2
:1017C00004F01F0101238B401A4258D00DF58B7194
:1017D0003846FDF761FE002853D1BDF816314FF6AB
:1017E000FF7293424FD0324621463846FEF7FAFA4E
:1017F000BDF816110839264A89B24FF4A040FEF709
:1018000071FEBDF816312B80224B186810F4802031
:1018100031D0214B1B68062B26DC00202BE0F25C2C
:101820001E490C6810095900255C05A800F81350E2
:1018300002F00F020131A25C425401330F2BEED9AA
:1018400005AA00248DF83440154BD3F804350292D4
:10185000144A0192144A009240F6272213490720A5
:101860000BF02AF8204606E00023E7E70E20704739
:101870000E2000E0102047B0F0BD0520FBE705205A
:10188000F9E70F20F7E70420F5E700BF042A00205E
:10189000C8280020A4210020A0210020A821002089
:1018A0000010014038F50300D4F3030011F50300E4
:1018B000002A6AD0F0B5C7B006460C461D4617464A
:1018C000002B64D0032964D84B09374A52F82320EF
:1018D00001F01F0101238B401A425CD0B0F5805FFC
:1018E0005BD22946FDF70AFE68B12B882F482A22D1
:1018F00002FB03001022394606301DF035FA00289D
:101900004ED103204AE02B884FF6FF72934249D014
:101910003A4621463046FEF7DFFC254A29884FF437
:101920008040FEF7DFFD234B186810F4802035D08F
:10193000214B1B68062B01DC00202FE000230F2B1E
:101940000FD8FA5C1D490C6810095900255C05A8E0
:1019500000F8135002F00F020131A25C425401332F
:10196000EDE705AA00248DF83440154BD3F8043573
:101970000292144A0192144A009240F676221349C8
:1019800007200AF099FF204608E00E2070470E203D
:1019900004E0052002E0052000E0072047B0F0BD8C
:1019A0000F20FBE70420F9E7042A00207827002015
:1019B00074270020A4210020A0210020A8210020BD
:1019C0000010014048F50300D4F3030011F50300B3
:1019D00000295FD010B504460846072C5CD863097F
:1019E000304A52F8232004F01F0101238B401A4291
:1019F00054D02D4B2A2202FB04335A882B4BCC2186
:101A000001FB023393F86430012B49D1264B2A2283
:101A100002FB04339B7D73B1134604FB03F31033C5
:101A2000214A13441022014603F109001DF09CF9DC
:101A300098B3082031E01C492A2304FB03F3CA1899
:101A40004FF0010C82F816C010331944D0F800E0B2
:101A5000D0F804C08268C368C1F809E0C1F80DC0BD
:101A6000C1F81120C1F8153008310EF03FF868B9FF
:101A70000D4B2A2202FB04331A79DA75094A2146F2
:101A80004FF48040FEF72EFD002006E0784601F07E
:101A900055FBEDE70E207047052010BD0520FCE743
:101AA0000820FAE77427002078270020082A002061
:101AB000072814D808B5014643090A4A52F82320DA
:101AC00000F01F00012383401A4201D1052008BD08
