:020000021000EC
:10C0000000F0012069C3010051C3010053C30100C6
:10C0100055C3010057C3010059C3010000000000CF
:10C020000000000000000000000000005BC30100F1
:10C030005DC30100000000005FC3010061C3010097
:10C0400063C3010063C3010063C3010063C3010054
:10C0500063C3010063C301009123030063C30100B4
:10C0600063C3010063C3010045F7020063C301001D
:10C0700063C3010063C3010063C3010063C3010024
:10C0800063C30100519903000124020063C301004E
:10C09000B599030063C30100852E030063C301004B
:10C0A00063C3010063C3010063C3010063C30100F4
:10C0B00063C3010063C30100000000000000000032
:10C0C00063C3010063C3010063C3010063C30100D4
:10C0D00063C3010063C3010063C3010063C30100C4
:10C0E00063C3010000000000000000000000000029
:10C0F0000000000063C301000000000063C30100F2
:10C10000000000000000000000000000000000002F
:10C11000000000000000000000000000000000001F
:10C12000000000000000000000000000000000000F
:10C1300000000000000000000000000000000000FF
:10C1400000000000000000000000000000000000EF
:10C1500000000000000000000000000000000000DF
:10C1600000000000000000000000000000000000CF
:10C1700000000000000000000000000000000000BF
:10C1800000000000000000000000000000000000AF
:10C19000000000000000000000000000000000009F
:10C1A000000000000000000000000000000000008F
:10C1B000000000000000000000000000000000007F
:10C1C000000000000000000000000000000000006F
:10C1D000000000000000000000000000000000005F
:10C1E000000000000000000000000000000000004F
:10C1F000000000000000000000000000000000003F
:10C20000334934480A1A02D0072291438D463249F5
:10C2100032480A1A06D00722914381F30988022284
:10C2200082F314882E482F492F4A00F03FF82F48F8
:10C230002F49304A00F03AF82F483049304A00F090
:10C2400035F830483049314A00F030F8304831494B
:10C25000314A00F02BF831483149324A00F026F8D3
:10C2600031483249324A00F021F83248324900223E
:10C2700000F027F831483249002200F022F8314816
:10C280003149091A1DF018FE1F482049884205D07F
:10C290000268043003B4904703BCF7E700208646E9
:10C2A000EC4600200021294A9047FEE7884207D04B
:10C2B000521A05D0037801300B700131013AF9D1DF
:10C2C0007047884202D002700130FAE770470000E0
:10C2D00000F0012000E8012000F0012000F0012022
:10C2E00084BE0300601F00200C2000209CC30100BE
:10C2F0009CC30100209F030084BE0300601F002038
:10C30000601F0020F0A20300F0A20300F0A20300CF
:10C31000F0A20300F0A20300F0A20300F0A20300C9
:10C32000F0A2030084BE030030BF03000C200020F5
:10C330000C2000200C200020305000203050002025
:10C340003050002030500020305400203DCB010000
:10C35000FEE7FEE7FEE7FEE7FEE7FEE7FEE7FEE7B5
:10C36000FEE7FEE700F002B8FFF7FCBF08484FF019
:10C37000070188438546074880470748016841F41C
:10C3800070010160BFF34F8FBFF36F8FFFF738BFAE
:0CC3900000F001206D32030088ED00E099
:10C39C0041DF70470C4B1B6813F4804F03D00B4BE1
:10C3AC001B68012B00DC704700B583B0084BD3F839
:10C3BC000435084A00929C220749022007F01EF916
:10C3CC0003B05DF804FB00BFA81F0020A41F0020D1
:10C3DC000010014028A303001EA3030010B586B073
:10C3EC005068E0B11A4B1B6813F4804F03D0194B03
:10C3FC001B68032B01DC06B010BD174BD3F80435BA
:10C40C004988147852780490039202940191134A4B
:10C41C000092C3221249042007F0F0F8EBE70C4B12
:10C42C001B6813F4804FE6D00A4B1B68032BE2DD2C
:10C43C00094BD3F804354988127802920191094AC4
:10C44C000092C8220649042007F0D8F8D3E700BFB1
:10C45C00A81F0020A41F00200010014048A30300C7
:10C46C001EA303009CA3030000B583B0012A1ED0B9
:10C47C00022A35D03AB1244AB721032016F0B0FF76
:10C48C0003B05DF804FB214B1B6813F4804FF7D00D
:10C49C001F4B1B68032BF3DD1E4BD3F804351E4AD0
:10C4AC000092AA221D49042007F0A8F8E8E706220A
:10C4BC0032210F2000F0CCFD144B1B6813F4804F7D
:10C4CC00DED0134B1B68032BDADD124BD3F804358B
:10C4DC00134A0092AF221149042007F08FF8CFE7DE
:10C4EC000A4B1B6813F4804FCAD0094B1B68032BF3
:10C4FC00C6DD084BD3F804350A4A0092B32207492B
:10C50C00042007F07BF8BBE7F0A20300A81F002073
:10C51C00A41F002000100140C8A303001EA30300A9
:10C52C00E8A3030008A4030030B587B0441C624B99
:10C53C001B6813F4804F03D0604B1B68032B06DC85
:10C54C00631E032B12D8DFE803F00E360E365C4B5D
:10C55C00D3F8043501945B4A0092EC225A4904202A
:10C56C0007F04CF8ECE701238DF81430574A137898
:10C57C00591C11708DF815303223049364230393E6
:10C58C004D4B1B6813F4804F03D04C4B1B68032B93
:10C59C0015DC022C22D9E31E012B20D8022303AA7E
:10C5AC0005A94B481CF05CFE05469DF814100E20A6
:10C5BC0000F0E2FC37E000238DF81430D6E7404B56
:10C5CC00D3F804359DF814200192424A009240F2AF
:10C5DC0003123D49042007F011F8DAE7A4B9364BF1
:10C5EC001B6813F4804F39D0344B1B68032B35DD9B
:10C5FC00334BD3F80435384A00924FF48C723249DD
:10C60C00042006F0FBFF29E0344D28880FF012FEC1
:10C61C0003AA05A928461CF0E5FD05469DF8141053
:10C62C000D2000F0A9FC112D3DD8DFE805F0173CDA
:10C63C003C3C093C3C26093C3C3C3C3C3C3C3C09DD
:10C64C001D4B1B6813F4804F03D01C4B1B68032B32
:10C65C0006DC062232210F2000F0FAFC07B030BDB8
:10C66C00174BD3F8043501941D4A00924FF4927283
:10C67C001549042006F0C2FFEBE70F4B1B6813F4BF
:10C68C00804FEBD00D4B1B68032BE7DD0C4BD3F825
:10C69C0004350194134A00924FF498720A4904200D
:10C6AC0006F0ACFFDAE7002DD8D00F4A4FF49A71A0
:10C6BC00284616F095FED1E7A81F0020A41F0020E5
:10C6CC00001001402CA403001EA3030075200020C1
:10C6DC004020002040A4030010A603000C200020E2
:10C6EC005CA4030074A40300F0A2030000B583B0A3
:10C6FC003138032814D90D4B1B6813F4804F11D01B
:10C70C000B4B1B68032B0DDD0A4BD3F804350A4A7F
:10C71C0000924FF4A1720949042006F06FFF01E06A
:10C72C00FFF702FF03B05DF804FB00BFA81F002059
:10C73C00A41F00200010014010A603001EA303003C
:10C74C0000B58DB02422002103A81DF0E1FA0123CD
:10C75C008DF80C3007238DF80F3006238DF814302C
:10C76C001F4B07931F4B0B931F4903A80AF0AAFFFB
:10C77C0060B30B2829D11D4B1B6813F4804F03D0D9
:10C78C001B4B1B68032B14DC184B1B6813F4804FDA
:10C79C001CD0174B1B68032B18DD164BD3F8043534
:10C7AC00154A009240F265121449042006F026FF47
:10C7BC000CE0104BD3F80435114A00924FF4B272CE
:10C7CC000E49042006F01AFFDEE710B90DB05DF833
:10C7DC0004FB0C4A4FF4B57116F002FEF6E700BFED
:10C7EC0091C90100B1C8010074200020A81F0020CD
:10C7FC00A41F002000100140F0A403001EA303009E
:10C80C00A0A40300F0A2030000B583B01D4A0421CC
:10C81C0046F2010006F0D6FE1B4B1B6813F4804F4A
:10C82C0003D01A4B1B68032B13DC1DF0C1F8E0B9C5
:10C83C0000F050FC164800F081FCE0B900F03CFE22
:10C84C0000F078FE00F0A6FEFFF77AFF03B05DF86B
:10C85C0004FB104BD3F804350F4A009240F27112CE
:10C86C000E49042006F0CAFEDFE70D4A40F27311B0
:10C87C0016F0B6FDDCE70A4A40F2771116F0B0FD6F
:10C88C00DCE700BFA5350200A81F0020A41F002074
:10C89C0035C50100001001402CA503001EA30300A8
:10C8AC00F0A2030010B582B0194B1B6813F4804F33
:10C8BC0003D0184B1B68032B01DC00240CE0164B37
:10C8CC00D3F80435154A00924FF4A472144904208D
:10C8DC0006F094FEF1E70134012C17D811483423EB
:10C8EC0003FB0400104B03630023836280F82C309D
:10C8FC0080F82D30611CC9B21CF03EFC0028EAD037
:10C90C000A4A40F2511116F06BFDE4E702B010BD7B
:10C91C00A81F0020A41F0020001001405CA50300EC
:10C92C001EA303000C20002004A60300F0A20300A9
:10C93C0000B583B00E4B1B6813F4804F03D00D4B26
:10C94C001B68032B09DC0322C8210F2000F080FB9D
:10C95C000AF018FF03B05DF804FB074BD3F804355D
:10C96C00064A0092CF220649042006F047FEEAE769
:10C97C00A81F0020A41F0020001001407CA503006C
:10C98C001EA3030008B50378232B00D008BDFFF7C6
:10C99C00CFFFFBE710B5044600210F2000F042FB4F
:10C9AC0004EB840462003221032000F051FB10BD23
:10C9BC0008B500F081FB08BD00B585B003A811F0E7
:10C9CC0025F80D4B1B6813F4804F03D00B4B1B68E1
:10C9DC00032B02DC05B05DF804FB094BD3F80435DE
:10C9EC00BDF80C200192074A0092852206490420CA
:10C9FC0006F004FEEEE700BFA81F0020A41F0020D5
:10CA0C000010014098A503001EA3030010B58AB0C6
:10CA1C006421244800F028FA234B1B789BB90DF1B4
:10CA2C000C0C224C0FCCACE80F0094E807008CE8FF
:10CA3C00070003A800F0AEF938B11D4A40F2951179
:10CA4C0016F0CEFC01E0FFF7B7FF00F0C9FE00F0D6
:10CA5C00ADFB0AF089FE98B9164B1B6813F4804F96
:10CA6C0003D0154B1B68032B10DC00210F2000F0AA
:10CA7C00D9FA0222C8210F2000F0EAFA0AB010BD40
:10CA8C000B4A4FF4CF7116F0ABFCE5E70B4BD3F828
:10CA9C0004350B4A00924FF4D0720A49042006F078
:10CAAC00ADFDE2E7F9C6010074200020E8A5030003
:10CABC00F0A20300A81F0020A41F002000100140BA
:10CACC0010A603001EA3030000B583B0134B1B6814
:10CADC0013F4804F03D0124B1B68032B13DC00F0B4
:10CAEC0029FD00F057FDFFF767FF00F0E5FA002184
:10CAFC000F2000F097FA0422C8210F2000F0A8FAAA
:10CB0C0003B05DF804FB074BD3F80435064A0092DA
:10CB1C008A220649042006F071FDE0E7A81F0020D8
:10CB2C00A41F002000100140B0A503001EA30300A9
:10CB3C0008B5FFF769FEFFF769FFFFF729FCFCE773
:10CB4C0069DF704703781F2B00D07047014B01221F
:10CB5C001A70FAE7792000203F4B1B78002B79D014
:10CB6C0000B587B0012804D003286CD007B05DF85D
:10CB7C0004FB0023019301A9012016F01DF80028E5
:10CB8C004BD100230393049305939DF80C200123B0
:10CB9C0063F303028DF80C20D2B263F307128DF805
:10CBAC000C209DF80D2063F301028DF80D2011234C
:10CBBC00ADF81630019A03A94120FFF7C1FF78BBED
:10CBCC0001A816F053F870BB244B1B6803B19847AF
:10CBDC000123029302A90DF1020011F09FFC28BB66
:10CBEC00BDF8020011F004F90DF1010111F09EFAEB
:10CBFC00F8B90CF0A7F89DF8011000200CF09EFB82
:10CC0C00D0B904F09DF9D8B9134B00221A70134B0C
:10CC1C005B68002BAAD09847A8E716F0D3FBB0E7C7
:10CC2C0016F0D0FBCCE716F0CDFBCDE716F0CAFB27
:10CC3C00D6E716F0C7FBDCE7784600F091FDE0E79D
:10CC4C0016F0C0FBE0E716F08BF800288ED016F03B
:10CC5C00B9FB8BE7704700BF782000207C200020B8
:10CC6C0008B5064B01221A70054804F0D7F904F0F8
:10CC7C00B9F900B908BD16F0A5FBFBE77820002038
:10CC8C00601F002008B503781C2B00D008BD074B93
:10CC9C001B78002BFAD016F0A7F818B9044804F04A
:10CCAC00C1F9F3E716F08EFBF8E700BF78200020FF
:10CCBC00601F002008B5094B1B7863B90849094867
:10CCCC0017F048F840B9032300220749496907487F
:10CCDC0017F05CF800E0082008BD00BF79200020A8
:10CCEC0098200020042400207C200020D02200204A
:10CCFC0008B50378023B082B3FD8DFE803F01C058E
:10CD0C00113E3E2C3E3E36001E4B9B68002B34D011
:10CD1C00007A002831D01C4A0121117098472CE070
:10CD2C00184BDB684BB3184A127832B3164A002101
:10CD3C001170984721E0154B1B784BB9114B1B69AF
:10CD4C001BB1114A002111709847FFF7B3FF14E093
:10CD5C00FFF786FF11E010220A4B99690C4817F077
:10CD6C0098F850B116F02EFB07E08168C0680AF005
:10CD7C0029FC18B9054B01221A7008BD16F022FBCC
:10CD8C00F8E700BF7C2000207620002077200020D0
:10CD9C00D022002010B586B08446224A03AB07CAC5
:10CDAC0003C323F8022B120C1A701F4CA646BCE8C6
:10CDBC000F00AEE80F009CE807008EE80700A3699F
:10CDCC00002B2DD0194B009303AB194A19491A4863
:10CDDC0016F07EFF034610B1184606B010BD17487A
:10CDEC0018F026FD0146144816F09EFF0346002855
:10CDFC00F2D1134818F09CFE03460028ECD11048E1
:10CE0C0018F0CEFE01460C4816F08EFF03460028A3
:10CE1C00E2D10C4804F002F9FFF74CFF0346DBE7C4
:10CE2C000723D9E728A803007C200020FDCC0100B3
:10CE3C009820002004240020D0220020B8200020BC
:10CE4C00802200206C1F002008B5064B1B681BB904
:10CE5C0006E0044B1B68984713F0EEFD0028F8DA47
:10CE6C0008BD00BF4424002010B50C46134B1860BD
:10CE7C00134A012113481CF0D5FD98B9610CE0034D
:10CE8C0041F27073984271F1000310D34FF47A722F
:10CE9C0000231CF03FFE014600220B481CF0D8FD7D
:10CEAC0038B910BD094A4A2116F09AFAE6E705216D
:10CEBC00F2E7064A4B2116F093FAF2E744240020DD
:10CECC0055CE010060A803004824002034A80300BC
:10CEDC0070B50546002403E00D4A93420ED8013488
:10CEEC00032C14D80B4B1B5DAB42F8D10A4B1E68BC
:10CEFC0004F08AFB331AEFD5831BEDE704F084FBB7
:10CF0C00054B1860054B1B6820469847E7E770BD3A
:10CF1C00801A06006CA803009424002090240020A2
:10CF2C001F280BD900F01F00064BD3F80435C34063
:10CF3C0013F0010F0CBF0120002070474FF0A043ED
:10CF4C00F3E700BF0003005070B5054600242646E9
:10CF5C0000E00134032C0AD80123A3402B42F8D063
:10CF6C00044B185DFFF7DCFFA0400643F1E73046A9
:10CF7C0070BD00BF70A8030008B511B115F00CF915
:10CF8C0008BD15F0F9F8FBE770B50546002400E084
:10CF9C000134032C0FD80123A3402B42F8D0064BAD
:10CFAC001E5D3046FFF7BCFF80F00101C9B2304670
:10CFBC00FFF7E2FFECE770BD70A8030010B5144B4F
:10CFCC001B684BB1134B1868FFF7DEFF104B1C6846
:10CFDC00013C1C6024B110BD002016F0F3F9F1E700
:10CFEC000D481CF057FD00E00134032CF3D801234D
:10CFFC00A340084A12681342F6D0084B1968E14066
:10D00C0001F00101064B185DFFF7B6FFECE700BF1E
:10D01C00682400206C240020702400209824002018
:10D02C0070A8030070B505460E46002400E00134DC
:10D03C00032C09D80123A3402B42F8D03146034BD3
:10D04C00185DFFF799FFF2E770BD00BF70A80300F1
:10D05C0042B310B50C461346132900D810BD124A22
:10D06C0010605B00013B114A1360FFF76DFF104B22
:10D07C001860610CE40314F5FA704FF47A724FF0F7
:10D08C00000341F100011CF045FD01460022094856
:10D09C001CF0DEFC0028E1D10121034B1868FFF7DE
:10D0AC00C1FFDBE7704700BF6C2400206824002020
:10D0BC00982400207024002008B504481CF0EAFCD9
:10D0CC000021034B1868FFF7ADFF08BD702400204A
:10D0DC006C24002010B582B014F0C8FF40B10024BD
:10D0EC00ADF804408DF8064001238DF8053007E0BB
:10D0FC0014F06CFF0028F2D016F064F9EFE701345D
:10D10C00032C09D801A90A4B185D14F0B9FF0028AB
:10D11C00F5D016F057F9F2E7064A012106481CF043
:10D12C0081FC08B902B010BD16F04CF9FAE700BF4B
:10D13C0070A80300C9CF010068A8030060B310B544
:10D14C0082B0164A106014F091FF40B1144B1B686A
:10D15C00ADF804301B0C8DF8063000240CE014F0F4
:10D16C0035FF0028F2D016F02DF9EFE701210D4B19
:10D17C00185D15F09BF80134032C0AD80A4A01A952
:10D18C00084B185D15F018F80028EFD016F01AF9B6
:10D19C00ECE7002002B010BD0E2070479024002058
:10D1AC0064A803006CA80300DDCE0100002800F089
:10D1BC0082802DE9F04FD1B004463F4B1B6813F42D
:10D1CC00804F03D03D4B1B68032B31DC3A4B1B6863
:10D1DC0013F4804F03D0394B1B68032B2ADC51B05E
:10D1EC00BDE8F08FE25C36490D68100959002E5CE1
:10D1FC000FA800F8136002F00F020131AA5C425430
:10D20C0001330F2BEED90FAA00238DF85C3003F1FC
:10D21C00804303F58833D3F804350292294A0192EE
:10D22C00294A009242222949042006F0E7F9CDE769
:10D23C000023E6E7264BD3F804350D932068020251
:10D24C0002F47F0242EA0062010A01F47F4142EAE1
:10D25C000108B4F804C04FEA0C2292B2B4F806E00C
:10D26C004FEA0E2189B2257A667AA77AE37A94F886
:10D27C000C9094F80DA094F80EB0E47B0B94CDF8C0
:10D28C0028B0CDF824A0CDF82090079306970596EA
:10D29C00049541EA1E21039142EA1C22029248EABB
:10D2AC00106001900B4A00920D9B43220749042009
:10D2BC0006F0A4F993E77047A81F0020A41F0020D4
:10D2CC00AC1F0020A8A80300BCA8030094A803006E
:10D2DC0000100140C4A8030072DF704773DF704771
:10D2EC0074DF70472DE9F047A2B007468846914697
:10D2FC00324C002525606560A560E56030490B78EF
:10D30C00C3EB43102F4E064426602F4A0244A26002
:10D31C001F22A280A281013303F001030B704FF096
:10D32C003C0A5246294613A81CF0F2FC06238DF841
:10D33C004F30ADF8487001238DF84A30ADF85C30B1
:10D34C0012AA1892ADF83C70ADF84090CDF844801C
:10D35C000DEB0A021D928DF878305246294668462C
:10D36C001CF0D6FC02238DF80030221D314613A888
:10D37C0015F015FB90B9114B03F10C029968684636
:10D38C0015F00DFB68B9114A0C491148FFF7A4FFC1
:10D39C00082809D070B922B0BDE8F08716F012F851
:10D3AC00E9E716F00FF8EEE7002204490848FFF70A
:10D3BC0093FFEFE716F006F8EDE700BFE02400203E
:10D3CC009C240020A0240020F02400207C1F00209E
:10D3DC00781F0020B0F5202F0AD2074BA3FB0023A7
:10D3EC00DB0808B103B90123044A938191607047AB
:10D3FC004FF6FF73F5E700BFCDCCCCCC7C1F0020E3
:10D40C0008B50121054B1878FFF768FF18B9002003
:10D41C0004F0E6FC08BD15F0D5FFF8E7781F0020F6
:10D42C0008B5044B1878FFF75BFF00B908BD15F081
:10D43C00C9FFFBE7781F002076DF70477ADF704763
:10D44C007CDF704769DF704708B515F0BBFF08BD7E
:10D45C0008B503F0EBFD08BD00B583B0037823B12C
:10D46C00012B0BD003B05DF804FB3B214088FFF788
:10D47C00E3FF0028F6D015F0A5FFF3E7094B1B6876
:10D48C0013F4804FEED0084B1B68032BEADD074BDF
:10D49C00D3F80435064A009268220649042006F0A7
:10D4AC00ADF8DFE7A81F0020A41F002000100140EA
:10D4BC0040A9030024A9030000B585B015F050FC69
:10D4CC0060BB0023039303A9012015F075FB40BB3F
:10D4DC0000230093019302939DF80020012363F332
:10D4EC0003028DF80020D2B263F307128DF80020EE
:10D4FC009DF8012063F301028DF801201123ADF892
:10D50C000A30039A69464120FFF79CFF60B903A8D3
:10D51C0015F0ACFB58B905B05DF804FB15F052FFE3
:10D52C00CFE715F04FFFD3E715F04CFFEFE715F001
:10D53C0049FFF0E700B585B09DF80C30012262F38D
:10D54C0003038DF80C30DBB262F307138DF80C304B
:10D55C0011220F4903A8FFF773FF98B90023019319
:10D56C0002937823ADF80430C823ADF806304FF49D
:10D57C00C873ADF80A3001A8FFF760FF28B905B0F1
:10D58C005DF804FB15F01EFFE8E715F01BFFF6E74E
:10D59C006CA9030000B58BB001AA00230193029380
:10D5AC007821ADF80410C821ADF806104FF4C871FD
:10D5BC00ADF80A100393049305930693079308930D
:10D5CC000993039240F6CD4304934FF480330593B3
:10D5DC0003238DF81830074B0893074B099303A8C6
:10D5EC0015F0AAFD10B90BB05DF804FB15F0EAFEBE
:10D5FC00F9E700BF65D4010055D40100062070473F
:10D60C0000B587B044F2010398425DD01BD80128C5
:10D61C0036D041F20103984271D1474B1B6813F489
:10D62C00804F36D0454B1B68002B32DD444BD3F872
:10D63C00043502920191434A00926322424901202F
:10D64C0005F0DCFF25E044F20203984257D13A4B37
:10D65C001B6813F4804F1CD0384B1B68002B18DD53
:10D66C00374BD3F80435106803905268029201913D
:10D67C00364A009269223449012005F0BFFF08E0C8
:10D68C002D4B1B6813F4804F03D02C4B1B68002BC5
:10D69C000DDC4FF0A0434FF4F032C3F81825C3F85B
:10D6AC000C25EFF3108372B64DF6AD6C3DE0244BB8
:10D6BC00D3F8043502920191254A00926022224946
:10D6CC00012005F09BFFE4E71B4B1B6813F4804F14
:10D6DC00DFD01A4B1B68002BDBDD194BD3F804355C
:10D6EC001068049050680390029192680192194A54
:10D6FC00009273221449012005F080FFC9E70E4BFC
:10D70C001B6813F4804FC4D00C4B1B68002BC0DD7E
:10D71C000B4BD3F8043501910F4A00927B220A4936
:10D72C00012005F06BFFB4E730BF0C4B1B78002BCE
:10D73C00FAD107B05DF804FBA81F0020A41F00203D
:10D74C0000100140D0A90300A0A90300F4A9030014
:10D75C00B4A9030014AA030038AA0300941F0020E4
:10D76C0000B583B0014600230093054B01936A4634
:10D77C0044F20200FFF744FF03B05DF804FB00BF66
:10D78C0034AA030010B40346044C006859689A6824
:10D79C00DB680FC45DF8044B704700BF30250020D8
:10D7AC000E4B4FF0805202F1600103C983E8030075
:10D7BC0003F1080CA43292E803008CE8030093F9FF
:10D7CC00062002F00F0242F040029A7193F90820F1
:10D7DC0002F03F0242F080021A727047302500209E
:10D7EC000048704730250020002308E0074901EB72
:10D7FC00C30000224280426001F8332001331F2B0A
:10D80C00F4D9034B00221A60704700BF402500205A
:10D81C004026002000B58646114B1B684FF0000CCB
:10D82C000BE01F230F4A12F83300B0B102EBC30216
:10D83C005288724509D00CF1010CBCF11F0F0BD8AA
:10D84C005A1E002BEDD01346ECE7064A02EBC3023E
:10D85C0052688A42EFD100E000205DF804FB00BF63
:10D86C00402600204025002010B40B4A13680B4CB6
:10D87C0004EBC30CACF80200CCF80410012104F842
:10D88C0033100B441360202B02D05DF8044B70470F
:10D89C00134600221A60F8E740260020402500209D
:10D8AC000021072918D830B402E00131072910D81B
:10D8BC004FEA011C094C34F80CC08445F5D104EB3B
:10D8CC000114A568E4689C4208BF9542EDD1012083
:10D8DC0000E0002030BC7047002070474826002034
:10D8EC0030B4C3698469C288190A1B06C4F30C0CD2
:10D8FC00944519D2A2EB0C022244A2F500529A18BC
:10D90C0041F100010A4C23685D1C256003F00703FC
:10D91C00B0F814C007481C0100EB031320F804C036
:10D92C009A60D96030BC7047A2EB0C022244E6E747
:10D93C00C826002048260020C37D9BB1C2780B78F6
:10D94C0003F080030B7002F07F0213430B7002781C
:10D95C000B7803F07F030B7043EAC2130B70037850
:10D96C009BB97047C2780B7803F0BF030B70920120
:10D97C0002F0400213430B70027903F0C0030B70EA
:10D98C0002F03F0213430B70E1E78278082A14BFC0
:10D99C00002201224B7803F07F034B7043EAC21341
:10D9AC004B70C288DBB203F080034B70C2F3861C51
:10D9BC0043EA0C034B708B7803F003038B7043EA40
:10D9CC0082038B70027ADBB203F0FC038B70C2F320
:10D9DC00C10C43EA0C038B70CB7803F01F03CB70A4
:10D9EC0043EA4213CB70427ADBB203F0E003CB7014
:10D9FC0002F01F021343CB70B3E70000002300E0DA
:10DA0C000133032B28D8C3EBC30C144A02EB0C12C2
:10DA1C0092F84820012AF3D1104A02EB0C12B2F80A
:10DA2C0014C0C2899445EBD1C3EBC30C0B4A02EB77
:10DA3C000C12D2888A42E3D1084A02EB0C12B2F8DB
:10DA4C0058201AB1B0F814C06245D9D1C3EBC30346
:10DA5C00024800EB0310704700207047F4260020AA
:10DA6C00002300E00133032B15D8C3EBC3010B4A91
:10DA7C0002EB011292F84820022AF3D1074A02EB7A
:10DA8C000112918A828A9142ECD1C3EBC303034801
:10DA9C0000EB031070470020704700BFF4260020F5
:10DAAC0008B9042070470820704700B503468C461F
:10DABC000978C17000214162DCF808100B2904D8E8
:10DACC009CF80C1029B3012100E0012119700020F1
:10DADC00987031B1DCF808100731C9080139597256
:10DAEC0018720121D97503F10C0E0CF1100103C948
:10DAFC008EE80300BCF80E109982DCF8181019623D
:10DB0C009CF81C109975DCF82010D9629A625DF8AB
:10DB1C0004FB0021DAE7000000210E4B1B688B424E
:10DB2C0016D9002300E001330B4A02EBC102526804
:10DB3C009A420BD9084A52F8312002EBC30C12F866
:10DB4C0033208242EFD1DCF8040070470131E4E766
:10DB5C0000207047CC260020D026002070B58CB059
:10DB6C0006460D4614462C22002101A81CF0D0F8C4
:10DB7C000F238DF80430ADF808609DF80A3065F37A
:10DB8C0000038DF80A308DF80B4001A801F012FA51
:10DB9C000CB070BD30B58DB005460C462C22002162
:10DBAC0001A81CF0B5F810238DF8043002958DF8FF
:10DBBC000C4001A801F0FEF90DB030BD00B58DB0E0
:10DBCC0010B913F1020F06D1074B186804F044FB8F
:10DBDC000DB05DF804FB01218DF804100293039243
:10DBEC0001A801F0E7F9EFE7D826002070B5049CF6
:10DBFC00002962D01D468E46D2F800C05168966846
:10DC0C00D368C4F80CC021616661A361D2F810C05E
:10DC1C005169C4F81CC02162002363700278D209D8
:10DC2C0022705AB30423734549D8E17D41B303787C
:10DC3C0003F07F03E3700023A3709AB143789B0138
:10DC4C0003F4FE53827843EA9203E3808378DB008B
:10DC5C0003F01803C27843EA52132372C37803F01B
:10DC6C001F036372002363622B78032B21D82A785D
:10DC7C00144B53F82230E362002070BD0123D2E72D
:10DC8C000178C1F38011E170017801F03F0121713D
:10DC9C0042B190F90130002B02DB0423A370CCE7D6
:10DCAC000823FBE70421A1700B447345C5D9092057
:10DCBC00E3E77846FFF754FDD9E70920DDE70920B3
:10DCCC00DBE700BFC4AB030070B50C461D46037800
:10DCDC009BB104263244A26000F10C032360836ADA
:10DCEC006360C36AE36000232374204604F030FEB3
:10DCFC0010B9636933442B6070BD0126EAE72DE946
:10DD0C00F0418EB00D4616461C46804600282DD09C
:10DD1C00002D2FD0002C31D0636A0233059304F10F
:10DD2C000C00E378002B2DD00121A27801AF3B46EB
:10DD3C00082A14BF0022012204F0D9FB0697CDF863
:10DD4C001C80B2B2ADF820200B9515440C95A3782D
:10DD5C008DF83430237B022B16D00023ADF82830FD
:10DD6C0005A804F0BCFB0EB0BDE8F0817846FFF7C7
:10DD7C00F7FCCDE77846FFF7F3FCCBE77846FFF7E7
:10DD8C00EFFCC9E70221D0E723692BB12369099382
:10DD9C001023ADF82830E3E77846FFF7E1FCF5E710
:10DDAC002DE9F04188B004460D46C37D002B3CD0D4
:10DDBC00082605FB06F8637AAB4238D0257201AB16
:10DDCC00324602A92046FFF77FFF074648BB4DB9F4
:10DDDC0094F8533033B9A369C3F30C03E3800123E4
:10DDEC0084F85330E37D7BB994F8523063B91DBB92
:10DDFC00E06EB4F84A10A27823468A1A0146FFF75F
:10DE0C007EFF012384F8523007992046FFF794FDDA
:10DE1C00E16E3246414401981BF044FF02A804F025
:10DE2C00BDFD384608B0BDE8F0810C26C1E7B4F85A
:10DE3C004A60A6EB0806C1E77846FFF791FCD7E7E6
:10DE4C0070B505460E4609B100230B6095F850409D
:10DE5C00002104E0631C85F850300134E4B26B7A85
:10DE6C00A34210D3EA6C0123A3401A42F5D12146F8
:10DE7C002846FFF795FF014628B9002EEAD03368F3
:10DE8C0001333360E6E7084670BDF0B589B004464F
:10DE9C000E46154683789A18C37D63B10B239A42BC
:10DEAC0021D801AB02A92046FFF70EFF074620B18F
:10DEBC00384609B0F0BD0F23F1E707992046FFF76C
:10DECC003BFDE37D43B12A46314601981BF0EAFE47
:10DEDC0002A804F063FDEBE723462A46019930467D
:10DEEC00FFF70DFFF4E70927E2E7000010B5044641
:10DEFC0090F84830012B0CD103F086FB237B012BCF
:10DF0C000BD0094BD968014404F1300003F048FBF5
:10DF1C0010BD7846FFF724FCEEE7A27D024BD968D2
:10DF2C001B6903FB0211EEE7DC26002030B583B041
:10DF3C00002403E02846FFF7D9FF0134032C17D83F
:10DF4C00C4EBC4020B4B03EB021393F84830012BC8
:10DF5C00F3D100230193074D05EB021501A92846C7
:10DF6C00FFF76EFF0428E5D0019B002BE5D0E1E71D
:10DF7C0003B030BDF426002038B5044690F8483084
:10DF8C00022B09D1064B1D6803F03EFB411904F12D
:10DF9C00300003F005FB38BD7846FFF7E1FBF1E7F5
:10DFAC00DC26002038B5044690F84830022B10D1FE
:10DFBC000A4B5A7D5D689B6803FB025503F024FBFA
:10DFCC00411904F1500003F0EBFA012384F8683096
:10DFDC0038BD7846FFF7C4FBEAE700BFDC2600201B
:10DFEC0010B50446808A02F065FE01281CD1237B03
:10DFFC00E3B194F91620002A1ADBE27D4AB1022B18
:10E00C0018D094F90330002B16DBA378B3B9002099
:10E01C000BE0E2780AB9012B12D1237893B9A378DB
:10E02C00042B11D1002000E0102010BD1020FCE7C3
:10E03C000720FAE71020F8E70720F6E70720F4E7B7
:10E04C000720F2E70020F0E70720EEE738B504469A
:10E05C0003784BB1C388C2698169808A06F020FEBF
:10E06C00054645B9284638BDC2698169808A06F0E3
:10E07C0011FE0546F5E7E169002201F00101A08AD5
:10E08C00FFF76CFDEEE700002DE9F04780460E46E9
:10E09C0017464B1EDBB2012B0FD8B7F5C07F10D83B
:10E0AC000024032C1AD8C4EBC402314B03EB02132B
:10E0BC0093F848304BB10134F3E77846FFF750FB47
:10E0CC00EBE77846FFF74CFBEAE7DFF8A49009EBA7
:10E0DC000215384609F04DFAE86600E000255DB3FC
:10E0EC00EB6E002B42D043462C4608F1300ED3F891
:10E0FC0000C058689968DA68C4F800C06060A16014
:10E10C00E260103310347345F1D10023EB64A5F8B1
:10E11C004A70012E13D06FF00103AB62002385F817
:10E12C006830144BAB652D66134BAB632D6401202B
:10E13C0002F048FA85F848602846BDE8F0870F4B96
:10E14C001B7D85F85130002385F8523085F853300B
:10E15C0085F85030D8F828206A65A5F858306FF04B
:10E16C000103AB62064BAB632D64E0E71D46E3E7AE
:10E17C00F4260020CFEB0100E1E40100DC260020B6
:10E18C002DE5010000B585B000228DF80F20A0B15F
:10E19C000B46024602320A600DF10F01184604F0DC
:10E1AC00A2F99DF80F3043B10C4B1B6813F0040F10
:10E1BC0003D00B4B1B68032B04DC9DF80F0005B040
:10E1CC005DF804FB074BD3F80435074A009240F284
:10E1DC0015420649042005F011FAEEE7A81F0020AD
:10E1EC00A41F0020001001407CAA03006EAA0300AB
:10E1FC002DE9F04391B005460E4614461F46D0F863
:10E20C00188003784BB1C388C8F30C029A4230D201
:10E21C009B1A4344A3F50053AB6105F10C00EB785A
:10E22C0053B30121AA780DF130094B46082A14BFCB
:10E23C000022012204F05BF9C5F81880CDF810908B
:10E24C000596AB78E21A92B2ADF8182016440A96ED
:10E25C0009978DF82C300023ADF82030EB78002B8B
:10E26C0041D02B7B022B09D000236B6201930293CC
:10E27C0016E09B1A4344CFE70221D3E71023ADF8F5
:10E28C0020302B690793EFE710AB03EB840454F8B1
:10E29C003C3C6B62002011B0BDE8F083019BB3B134
:10E2AC0002AB01AA2979286A10F04AFC0024012C3F
:10E2BC00F4D810AB03EB840353F83C0C0028EDD0DE
:10E2CC0003A9FFF75FFF0028DED10134EFE72B7BBA
:10E2DC00022B2CD105F10C01E88910F0EBFC002885
:10E2EC00BFD10520D7E72B7B012B01D00520D2E72E
:10E2FC00EB89ADF80430AB8AADF806300024012C64
:10E30C0013D82946002341F8243F10AB03EB4403F8
:10E31C0033F83C0C10F039FC03A9686AFFF732FFA4
:10E32C0008B90134EBE70020B5E70520B3E7052079
:10E33C00B1E7000070B5F0B00E4614461D4610ABA8
:10E34C000A4601462046FFF753FF50B1224B1B688B
:10E35C0013F0040F03D0214B1B68052B2FDC70B07E
:10E36C0070BD2046FFF772FE0028F8D103AB0122E6
:10E37C008DF80C20A28AADF80E20002204928DF8A4
:10E38C00142010AA0692A278B11AADF81C1008AA93
:10E39C0093E8030082E803000AAB04F10C0292E854
:10E3AC00030083E80300A37D8DF83830236A0C93B7
:10E3BC00636A0D930F9505A800F0FCFDCFE7084BA1
:10E3CC00D3F80435074A009240F20372064906203E
:10E3DC0005F014F9C3E700BFA81F0020A41F0020FC
:10E3EC000010014090AA03006EAA030010B5044669
:10E3FC00C06E09F0C2F804F1300003F0B9F894F8DB
:10E40C004830022B08D07022002120461BF080FCE3
:10E41C00002002F0D7F810BD04F1500003F0A8F86A
:10E42C00F1E710B58CB0044690F84830012B0FD1B1
:10E43C0001238DF80430636D029303F0E5F803902B
:10E44C0001A800F0B7FD2046FFF7D0FF0CB010BDBF
:10E45C007846FFF785F9EBE730B585B00D460446F5
:10E46C00A8B194F84830022B15D02946606DFFF7FF
:10E47C0091FB2046FFF7BAFF114B1B6813F0040FFA
:10E48C0003D0104B1B68032B09DC05B030BD78465C
:10E49C00FFF766F9E5E72046FFF722FAE5E70A4BB6
:10E4AC00D3F8043594F8482002950192074A00925B
:10E4BC0040F2F3120649042005F0A0F8E5E700BF8E
:10E4CC00A81F0020A41F002000100140BCAA0300BC
:10E4DC006EAA030008B508460021FFF7BDFF08BD72
:10E4EC0008B5037B012B02D0FFF79BFF08BD012170
:10E4FC00FFF7B2FFFAE7000008B590F8513053B1BE
:10E50C00013B80F85130002380F85030034B1868E1
:10E51C0003F0A2FE08BDFFF7E3FFFBE7D8260020BF
:10E52C0010B50C4691F84830012B03D12046FFF76B
:10E53C00E3FF10BD7846FFF713F9F7E770B5C6B0E7
:10E54C000E46154682782A44C37D2BB14FF4807356
:10E55C00934278D3002303E04FF4C073F8E7013300
:10E56C00032B14D8C3EBC30C394C04EB0C1C9CF8D8
:10E57C0048100129F3D1BCF81440818A8C42EED1A9
:10E58C00BCF80E40C1898C42E9D1082554E0012128
:10E59C00FFF77AFD0446002857D02A463146C06E54
:10E5AC001BF080FB0023459345A92046FFF748FC50
:10E5BC00054608B1042842D1459B8BB9254B1B68F5
:10E5CC0013F0040F37D0244B1B68032B33DDB4F846
:10E5DC004AC0BCF1800F28BF4FF0800C002313E021
:10E5EC002046FFF783FCE9E7E26ED25C1B490D681D
:10E5FC00100959002E5C04A800F8136002F00F02F9
:10E60C000131AA5C425401336345EDD304AA0023C3
:10E61C0002F81C3003F1804303F58833D3F804353A
:10E62C0002920F4A01920F4A00924FF4AC620E49CB
:10E63C00042004F0E3FF0025284646B070BD2046B8
:10E64C00FFF7D4FEF8E70925F6E70425F4E700BF49
:10E65C00F4260020A81F0020A41F0020AC1F0020BF
:10E66C00E0AA0300BCA803006EAA030070B5044620
:10E67C000D461646FFF7B4FC30B923782BB1324661
:10E68C0029462046FFF75AFF70BD324629462046E0
:10E69C00FFF7FBFBF8E7000038B504460D46CB69E5
:10E6AC005B780371CB691B7883F00103C370CB6972
:10E6BC0043628B8A0B2B07D8CB7A002B35D10B7B83
:10E6CC00012B02D0002300E001232370002B31D05A
:10E6DC00287B02282BD0FFF7E3F9A070AB8A034408
:10E6EC000B33174A82FB03235B10013B637200233D
:10E6FC0023720023E37504F10C0395E8030083E80F
:10E70C000300AB6923622B89A382AB7AA3752B6AB6
:10E71C00A362DF23E362284610F0FAFA20B12B78CB
:10E72C00012B0AD0FF23E36238BD0123CDE7054B53
:10E73C00987DD0E70423A370DBE72023F3E700BF29
:10E74C00ABAAAA2ADC26002006297AD1F0B585B01E
:10E75C00154690F800C04FEA8C1202F4FE52417834
:10E76C008478C3781B0443EA0463047943EA0423E2
:10E77C00407943EA00044FFA8CF642EA91012846AC
:10E78C00FFF73CF90746E0B1002E2FDBC289A98ABE
:10E79C008A422BD02B4B1B6813F0040F30D02A4B22
:10E7AC001B68012B2CDD294BD3F804350291019207
:10E7BC00274A009240F27D622649022004F01EFF97
:10E7CC001EE0204B1B6813F0040F19D01E4B1B6866
:10E7DC00012B15DD1D4BD3F804351F4A009240F276
:10E7EC0079621C49022004F009FF09E0002E09DBC4
:10E7FC00FD6C2543FD644CB903213846FFF72CFE14
:10E80C0005B0F0BDAB8AA7F85830F1E73B7883B17F
:10E81C007A7A013201239340013B9D420DD00021B5
:10E82C0087F850103846FFF70BFB3846FFF75EFBB6
:10E83C00E6E77846FEF794FFEAE73846FFF7F1FD86
:10E84C00DEE77047A81F0020A41F00200010014025
:10E85C0020AB03006EAA0300F0AA03002DE9F043DD
:10E86C008BB007460E4614461D461046FFF7EEFBCE
:10E87C0050B994F80380B8F1000F08D12B4622460A
:10E88C0031463846FFF760FF0BB0BDE8F0834046D9
:10E89C00FFF742F981460028F6D08DF80480236AF0
:10E8AC000793A38AADF8123005AB04F10C0292E881
:10E8BC00030083E80300A37D8DF8203002970396B4
:10E8CC0023788DF81030E36A0993294601A8C847CC
:10E8DC00DAE792F801C01CF0010F08D010B5D47D16
:10E8EC0014B1FFF7BBFF10BDFFF724FDFBE770472A
:10E8FC0008B501390130FFF7ECFF08BD10B54FF436
:10E90C00E072002113481BF003FA06F095F900247D
:10E91C00114B1C608022214610481BF0F9F9104B5A
:10E92C00104A1A60104A5A604CF250329A600F49E1
:10E93C00D9601A6104221A759C7508225A750C4804
:10E94C0003F06AFC0B4B18600B4B1C600B4806F079
:10E95C0071FC10BDF4260020C8260020482600209B
:10E96C00DC26002080969800F049020020A10700C8
:10E97C00C1EB0100D8260020CC260020C9DB010009
:10E98C0008B506F079F908BD98B110B58CB00446FD
:10E99C00036983B1C36983B1836983B10146684656
:10E9AC00FFF77AFEA28A21696846FFF75FFE0CB07A
:10E9BC0010BD0E2070470E20F9E70E20F7E70E2051
:10E9CC00F5E7000058B310B590B00A46044643680A
:10E9DC003BB383693BB3014604A8FFF766F8134BBE
:10E9EC001B6813F0040F03D0114B1B68062B06DCBD
:10E9FC00A268616804A8FFF739FE10B010BD0D4B7A
:10EA0C00D3F804352278A169029101920A4A009246
:10EA1C0040F605020949072004F0F0FDE8E70E2056
:10EA2C0070470E20E9E70E20E7E700BFA81F002083
:10EA3C00A41F00200010014064AB03006EAA030069
:10EA4C00037B012B01D00020704730B591B00446F8
:10EA5C000D463F4B1B6813F0040F03D03D4B1B6856
:10EA6C00032B59DC04A9002304930593CDF817302C
:10EA7C00E0889DF8102002F080028DF81020C0F381
:10EA8C00861C42EA0C028DF810209DF8112002F031
:10EA9C0003028DF8112042EA80028DF811202A0E13
:10EAAC008DF812202A0C8DF813202A0A8DF81420C8
:10EABC008DF815506278022A0CBF012018469DF87B
:10EACC00102002F07F028DF8102042EAC0128DF85F
:10EADC0010204FF0060209924FF001028DF82C2005
:10EAEC00A28AADF82E200C938DF81C300891226A66
:10EAFC000D928DF82830E36A0F9319D0E389ADF8A5
:10EB0C002A30A37DF3B98DF838306FF0010107A8D6
:10EB1C00FFF758FF11B030BD0F4BD3F804350F4A37
:10EB2C00009240F263220E49042004F067FD99E73D
:10EB3C000DF10E0103A810F0D9F8BDF80C30ADF8AA
:10EB4C002A30DEE7074B5B7D8DF83830DDE700BF00
:10EB5C00A81F0020A41F00200010014090AB030050
:10EB6C006EAA0300DC26002090F84830022B00D05F
:10EB7C00704710B5044690F86830022B00D010BDD9
:10EB8C00C16CFFF75DFF0028F9D1002384F86830D1
:10EB9C00F5E7000010B5002407E0C4EBC402130134
:10EBAC0003481844FFF7E0FF0134032CF5D910BDDE
:10EBBC00F426002008B5FFF7B9F9FFF7EBFF0120A9
:10EBCC0008BD10B50C4691F84830022B06D1022333
:10EBDC0084F868302046FFF7C7FF10BD7846FEF773
:10EBEC00BFFDF4E7F0B583B00446C1698369C28800
:10EBFC000E0A0906C3F30C0082422FD9121A1A44CA
:10EC0C00A2F500528D1846F100062A463346A08A1A
:10EC1C00FEF746FE002840F089802046FEF720FFD4
:10EC2C00074630B3C2698069F988130A1206C0F32B
:10EC3C000C0C8C4515D2A1EB0C010144A1F5005133
:10EC4C00521843F10003AA4273EB06010DD395420F
:10EC5C0076EB030330D3384603B0F0BD121A1A44D6
:10EC6C00D0E7A1EB0C010144EAE705213846FFF798
:10EC7C00F3FBE388E269A169A08A06F0E5F8E8B93C
:10EC8C00627A0132E37DA3B3082101FB02F293B354
:10EC9C004FF48073934231D302212046FFF7F4F9ED
:10ECAC0007460028D7D100212046FFF7C9FE0221D4
:10ECBC000020FEF76FFFCEE70027CCE7E388E26980
:10ECCC00A169A08A06F038F908B90027C3E72378B0
:10ECDC005BB1637A01330121994001392046FFF77A
:10ECEC00AFFE2046FFF7B2F9EFE77846FEF738FDA6
:10ECFC00EFE70C21C9E74FF4C073CBE70C4B1B6853
:10ED0C0013F0040F03D00B4B1B68002B01DC002706
:10ED1C00A1E7094BD3F804350192084A009240F25E
:10ED2C007F320749012004F069FCF0E7002792E7E5
:10ED3C00A81F0020A41F002000100140A0AB03005E
:10ED4C006EAA03002DE9F04182B007460E46144628
:10ED5C0098461046FFF746FF002846D00546404B24
:10ED6C001B6813F0040F03D03E4B1B68032B3FDCD6
:10ED7C002846FFF701F92B7B012B47D0EB6C217A4E
:10ED8C0001228A40134230D11343EB64043E237AB0
:10ED9C00E27D002A42D04FF0080C0CFB03FC697A90
:10EDAC008B423ED0002A41D00823B34240D1AA69FD
:10EDBC00A3699A4209D205F10C0E0C340FCCAEE8C3
:10EDCC000F0094E803008EE80300E86E3246391D0C
:10EDDC0060441AF067FFEC6C2B7873B36A7A0132DB
:10EDEC0001239340013B9C422BD002B0BDE8F08143
:10EDFC001D4BD3F80435227A01921C4A009240F242
:10EE0C00A3321B49042004F0F9FBB1E795F86830F4
:10EE1C00002BB3D12846FFF7C5F8AFE74FF00C0C29
:10EE2C00BBE70CEB0603A5F84A30C0E70C23BCE7A4
:10EE3C0004212846FFF710FBD7E77846FEF790FC35
:10EE4C00CCE7E96C2846FFF7FBFD43462A46B5F8AC
:10EE5C004A10E86EFFF73DFD2846FFF7C7FAC4E7F6
:10EE6C00A81F0020A41F002000100140B4AB030019
:10EE7C006EAA03002DE9F04190B000284CD00F464B
:10EE8C0014461E468046002A48D004AB00933346F5
:10EE9C00FEF7ACFE054618B1284610B0BDE8F0816F
:10EEAC0004A8FFF79DF805460028F5D1002302932E
:10EEBC00039302A960880FF0FDFE28B19DF8113074
:10EECC0043F001038DF811302269E168208905F0C7
:10EEDC0073FF38B19DF8113003F0FE038DF811303B
:10EEEC00002BD9D09DF81130002BD5D013F0010F89
:10EEFC0001D0039B08939DF8103033B1334604AA1C
:10EF0C0039464046FFF71EFFC6E7334604AA39468A
:10EF1C004046FFF7EDFCBFE70E25BDE70E25BBE72E
:10EF2C00F8B508B30E460546164B1F68F7B93C46B4
:10EF3C00B4420FD205EBC4035B68D3B115F83400AF
:10EF4C0015F93430002B16DBB8B1FEF7E5FDB0B97E
:10EF5C000134EDE70C4B43F8375003EBC7035E600D
:10EF6C007B1C084A136002E00E2700E00427384699
:10EF7C00F8BD0E27FBE70B27F9E70F27F7E70F275D
:10EF8C00F5E700BFCC260020D0260020084B1968DE
:10EF9C0061B110B501E021463CB10C680B79002B36
:10EFAC00F9D0034804F095FAF5E710BD704700BF9F
:10EFBC00B828002038B5054630B1104B1C68C4B1D8
:10EFCC000F4B01221A7004E07846FEF7C9FBF4E7F8
:10EFDC0024683CB12379002BFAD154F8043C284620
:10EFEC009847F5E7064B1B78022B03D0044B002205
:10EFFC001A7038BDFFF7CAFFF8E700BFB828002029
:10F00C00B428002010B5044630B100232372211D12
:10F01C00034804F033FA10BD7846FEF7A1FBF4E781
:10F02C00B828002010B5044658B10A4B1B78013B98
:10F03C00DBB2012B09D8074B02221A700123237271
:10F04C0010BD7846FEF78CFBEFE7211D024804F05B
:10F05C0040FAF5E7B4280020B82800200A88836815
:10F06C009B5A07339BB223F0030313449BB20288D1
:10F07C00043A934200D900230B80704710B582B03C
:10F08C0004468368C91AADF806100DF10601FFF7A6
:10F09C00E5FFBDF80630A068184402B010BD00882A
:10F0AC00043880B2704743888268D018D15201234B
:10F0BC00837070478268002393704380838070470D
:10F0CC0008B5073189B221F0030189B242888388DF
:10F0DC009A4204D29B1A994220DC002008BD9A4225
:10F0EC0012D9B0F800C0ACEB020C614518D98B42B8
:10F0FC0018D3BCF1030F03D98368134404229A700C
:10F10C00002343801846E9E782681A4493780BB1D0
:10F11C000420E3E7FFF7CEFF0020DFE70420DDE764
:10F12C000020DBE70420D9E738B504460D46836898
:10F13C00828813448B4202D07846FEF711FB0023E1
:10F14C00AB70211D2046FFF789FFA288A3681344EA
:10F15C009B78042B00D038BD0023A380FBE710B5AF
:10F16C000C468368428813448B4202D07846FEF7E3
:10F17C00F7FA0023A37010BD70B5054614460E4671
:10F18C00002944D0002D46D0B6F1005F08D94FF0CD
:10F19C008053D3F80C3103F50023B6EB832F0ED339
:10F1AC00B6F5000F08D94FF08053D3F80C3103F5A6
:10F1BC000053B6EB832F02D37846FEF7D1FA631EC9
:10F1CC003344B3F1005F08D94FF08052D2F80C21D0
:10F1DC0002F50022B3EB822F0ED3B3F5000F08D942
:10F1EC004FF08052D2F80C2102F50052B3EB822F73
:10F1FC0002D37846FEF7B4FA042C10D92C800023E5
:10F20C006B80AB80AE60043C3480B37070BD7846CC
:10F21C00FEF7A6FAB6E77846FEF7A2FAB4E7784608
:10F22C00FEF79EFAEAE738B50446A0B16288A368F7
:10F23C0013449B78012B12D0EFF3108572B6A38880
:10F24C00A16819448B78032B0DD02046FFF732FFB1
:10F25C0005B962B638BD7846FEF782FAE6E778461D
:10F26C00FEF77EFAE8E72046FFF708FFA368C31A0B
:10F27C00638000238370EBE72DE9F0410E461446C2
:10F28C000546D0B1EEB16A88AB6813449B78012B6C
:10F29C001BD024B32846FFF702FFA04221D3EFF383
:10F2AC00108872B621462846FFF70AFF074680B140
:10F2BC00B8F1000F16D162B614E07846FEF750FA9A
:10F2CC00E0E77846FEF74CFADDE77846FEF748FAB9
:10F2DC00DFE721462846FFF7E6FE3060E8E709271E
:10F2EC0000E009273846BDE8F081F8B50C46154614
:10F2FC000646E0B1FCB1A378012B20D12388AB42A8
:10F30C0021D325B3EFF3108772B625800223A370A7
:10F31C00F1183046FFF7A2FE7388B288934203D0EF
:10F32C00B268134400229A7007B962B6F8BD7846E9
:10F33C00FEF716FADEE77846FEF712FADBE77846B8
:10F34C00FEF70EFADAE77846FEF70AFAD9E77846BE
:10F35C00FEF706FAD6E770B50C46054690B1ACB18F
:10F36C00EFF3108672B6AA88AB6813449A78042A15
:10F37C0010D09A78022A15D0032A18D0052006B985
:10F38C0062B670BD7846FEF7EBF9E8E77846FEF713
:10F39C00E7F9E5E7291D2846FFF760FEAA88AB6868
:10F3AC001344E6E703229A7023600020E7E77846CF
:10F3BC00FEF7D6F90020E2E738B5044680B1EFF34A
:10F3CC00108572B6A388A16819448B78042B0BD0D6
:10F3DC008878022814BF0020012005B962B638BD18
:10F3EC007846FEF7BDF9EAE72046FFF747FE0146EF
:10F3FC00EEE738B5054630B1EFF3108472B6AB8842
:10F40C00A968194407E07846FEF7AAF9F4E72846FC
:10F41C00FFF734FE01468878C31EDBB2012BF6D908
:10F42C00022814BF0020012004B962B638BD70B5A3
:10F43C000C46064678B194B1EFF3108572B6A378FA
:10F44C00012B10D0032B13D121463046FFF76CFE55
:10F45C0005B962B670BD7846FEF782F9EBE77846DF
:10F46C00FEF77EF9E8E721463046FFF778FEEFE736
:10F47C007846FEF775F9EBE710B5EFF3108472B62A
:10F48C008388816819448B78042B06D08878B0FA6D
:10F49C0080F0400904B962B610BDFFF7EFFD0146DC
:10F4AC00F4E70000024B00221A769A6002207047A3
:10F4BC00BC28002008B5064B986800221A605A60D8
:10F4CC009A60DA601A615A619A6105F05FF808BDBA
:10F4DC00BC28002000B585B00A4BDB6802228DF8F1
:10F4EC00002001934FF480530293074A6946012090
:10F4FC0001F0F6FA18B9012005B05DF804FB002004
:10F50C00FAE700BFBC280020DA28002000B585B03F
:10F51C000A4B1B6802228DF8002001934FF4805394
:10F52C000293074A6946012001F0DAFA18B9012062
:10F53C0005B05DF804FB0020FAE700BFDC280020D2
:10F54C00DA280020164BDA68137951795B1A03F527
:10F55C007F2303F6FF7302EB03339A4205D002F5C7
:10F56C0080520F4BDA600320704700B585B00D4B0D
:10F57C001B6801208DF8000001930B4B03930423AF
:10F58C0002930A4A694601F0ABFA18B1002005B0A3
:10F59C005DF804FB024B01221A760220F7E700BF4C
:10F5AC00BC280020DC280020E0280020DA280020DD
:10F5BC0000B585B00C4BDA680C4B1B68043301208A
:10F5CC008DF800000192039340F6FC730293084AF5
:10F5DC00694601F085FA28B90120034B187605B06D
:10F5EC005DF804FB0020FAE7BC280020DC28002092
:10F5FC00DA28002000B585B00A4B1B6801208DF875
:10F60C0000000193084B039304230293074A6946B5
:10F61C0001F066FA18B9012005B05DF804FB002072
:10F62C00FAE700BFDC280020C8280020DA280020D8
:10F63C0010B584B0104BDA681478104B1B68043387
:10F64C0001208DF800000193039202940C4A694644
:10F65C0001F046FA70B9094B1B6804F0FC04234412
:10F66C000433054A5361D1680B780B4413610120B4
:10F67C0004B010BD0020FBE7BC280020DC280020D3
:10F68C00DA28002008B500230A2B09D8064A52F8BC
:10F69C002320824201D00133F6E7044A536002E092
:10F6AC007846FEF75DF808BD3CAC0300BC28002092
:10F6BC0010B5214BDB6853B11F4B1B7E5BB91E4B46
:10F6CC005B680A2B26D97846FEF74AF822E0784682
:10F6DC00FEF746F8F0E77846FEF742F8EFE7164AF1
:10F6EC005368013353600A2B21D97846FEF738F85A
:10F6FC001DE0114B00225A6019E00F4B1B7E1BB111
:10F70C000D4B02221A7012E0FFF7D4FE0FE00A4BE9
:10F71C001B7E83B9084B5A68084B53F82230984724
:10F72C0004460228E9D00328E3D00128D7D0012CC5
:10F73C00EDD0032CEBD010BDBC2800203CAC03005A
:10F74C00104B1B681B685A1E12F1030F18D8C3F319
:10F75C000B020AB10020704710B50B4AD36000238E
:10F76C00137653760124147093600848FFF78AFFD0
:10F77C000749204601F0A2F9FFF79AFF204610BD79
:10F78C0000207047DC280020BC280020E1F4010098
:10F79C00A1F7010008B50B78032B06D00B4B1B7897
:10F7AC00012B06D0022B0BD008BD084B00221A7679
:10F7BC00F4E7064B1B7E002BF6D1FFF779FFF3E73E
:10F7CC000B78032BF0D1FFF775FEEDE7BC2800207A
:10F7DC0000B585B0174BDB6818784FF6FF7203F550
:10F7EC008051184405F0DCFCE0B10246114BD9689D
:10F7FC000B780B44984217D00E4B5B7E83B10E4BAB
:10F80C0001208DF8000001920393042302930B4A0C
:10F81C00694601F065F948B90120064B187606E0F7
:10F82C00074BEDE7012002E0012000E0002005B0CD
:10F83C005DF804FBBC2800204CAE0300DA28002045
:10F84C0048AE030008B5104BDB681878002203F5AE
:10F85C008051184405F0A4FC08B1012008BD0A4BE6
:10F86C00DA68137951795B1A03F57F2303F6FF737A
:10F87C0002EB03339A4205D002F58052024BDA6058
:10F88C000320EBE70220E9E7BC280020F0B585B0A7
:10F89C00514BDE6872793379591E8A4214D006F5C1
:10F8AC0080510D780D444D490968081D0F790744A6
:10F8BC009B1A06EB03366B88013B9BB247F6FE6244
:10F8CC00934260D92C461AE00120434B58767EE0D7
:10F8DC007846FDF745FF15E024F47F6424F00F040F
:10F8EC0004F5805423781C44A6421CD9A5421CD292
:10F8FC006388013B9BB247F6FE62934211D9238881
:10F90C00002BE5D0238804EB830323F47F6222F0E1
:10F91C000F029342E0D06288B2F5FE4FDCD01C4659
:10F92C00E2E725462FE000252DE000252BE0784668
:10F93C00FDF716FF15E024F47F6424F00F0404F5A2
:10F94C00805423781C44A6421CD9A54237D2638824
:10F95C00013B9BB247F6FE62934211D92388002BE0
:10F96C00E5D0238804EB830323F47F6222F00F029B
:10F97C009342E0D06288B2F5FE4FDCD01C46E2E741
:10F98C00254600E00025E5B1144B19686A8801F59D
:10F99C008051384605F004FC074690B101200E4B0F
:10F9AC0018768DF8000001950D4B039304230293F8
:10F9BC000C4A694601F094F858B92C46CEE700255C
:10F9CC00E1E7B5FA85F56D09034B5D76012005B0CD
:10F9DC00F0BD0020FBE700BFBC280020DC28002085
:10F9EC0044AE0300DA2800202DE9F04186B0654BC7
:10F9FC001B6923B1634B5B692BB1002748E0784648
:10FA0C00FDF7AEFEF6E77846FDF7AAFEF5E7A04651
:10FA1C0018E07846FDF7A4FE18E028F47F6828F07B
:10FA2C000F0808F5805898F800309844454520D9BF
:10FA3C0044454AD2B8F80230013B9BB247F6FE620D
:10FA4C00934214D9B8F80030002BE2D0B8F800304B
:10FA5C0008EB830323F47F6222F00F029342DCD085
:10FA6C00B8F80220B2F5FE4FD7D09846DEE74446F0
:10FA7C0000E000243CBB00230093019B002B5CD1D5
:10FA8C000127002C78D0628847F6FF739A4273D016
:10FA9C00002F75D13B4B5A6922F47F6626F00F0676
:10FAAC00B61A06F580561C69DD682B796A799B1AA3
:10FABC0005EB0335002301936388013B9BB247F6AA
:10FACC00FE629342A3D800940EE00024D2E778465D
:10FADC00FDF746FE23E024F47F6323F00F0303F5C8
:10FAEC0080531A7813441C46A542C6D92388019A20
:10FAFC0002EB83029642C0D9009B634023F47F63E0
:10FB0C0023F00F03002BB8D16388013B9BB247F65F
:10FB1C00FE618B42B1D801922388002BD7D0238869
:10FB2C0004EB830323F47F6222F00F029342D2D0C2
:10FB3C006288B2F5FE4FD6D1CDE7124A5269012048
:10FB4C008DF808000392009A059204930E4A02A9BC
:10FB5C0000F0C6FF70B90B49019B23F003024B69FF
:10FB6C0013444B6114B1074B1C618AE77846FDF7CF
:10FB7C00F7FDF8E7002000E0012006B0BDE8F081B9
:10FB8C000120FAE7BC280020DA28002000B585B057
:10FB9C000023294A1370D3F8F83FB3F1FF3F09D083
:10FBAC00B3F1FF3F0DD08BB1B3F1FF3F39D0A3F5CB
:10FBBC00805211E04FF010225269B2F1FF3FEFD1A9
:10FBCC0004E04FF010225269002AEDD14FF080531F
:10FBDC005A691B6903FB02F2A2F58052174B1A609B
:10FBEC00174B1B6813F4801F16D0164B1B68062B83
:10FBFC0012DD154BD3F804350021D1F8F81FB1F103
:10FC0C00FF3F14D002920191104A009240F27622EA
:10FC1C000F49072003F0F2FCFFF792FD05B05DF8E9
:10FC2C0004FB4FF010235A69A2F58052D4E74FF031
:10FC3C0010214969E6E700BFD8280020DC28002005
:10FC4C00A81F0020A41F00200010014008AC0300D6
:10FC5C00EEAB030010B50446B0B1104B1B78BBB132
:10FC6C000E4BD968E3685879A3EB0032914211D35B
:10FC7C001A79121A02F57F2202F6FF7203EB023395
:10FC8C00994209D8012004E07846FDF769FDE4E7C4
:10FC9C00002010BD0020FCE70020FAE7BC28002063
:10FCAC00024B1878003818BF01207047BC28002080
:10FCBC0010B50446124B1B78BBB92378032B18D113
:10FCCC000F4B9C60E268DA600E4B1B78ABB10A22DA
:10FCDC000B4B5A6000221A76012018705A760A498A
:10FCEC0000F0ECFEFFF7E4FC10BD7846FDF738FDA4
:10FCFC00E3E77846FDF734FDE2E70022E8E700BFD2
:10FD0C00BC280020D8280020A1F70100014B18685E
:10FD1C00704700BFDC28002010B5044680B1636832
:10FD2C001BB123680BB1A36813B97846FDF718FD16
:10FD3C00A3685A1E134207D10023E360236110BD50
:10FD4C007846FDF70DFDEAE77846FDF709FDF3E788
:10FD5C0070B508B30E4604468368FBB1EFF310850B
:10FD6C0072B60369C268934212D001684268806817
:10FD7C0000F1FF3C03EA0C0303FB021116B1304601
:10FD8C0019F090FF2369013323614DB962B608E085
:10FD9C0005B962B6052504E00E2502E0092500E050
:10FDAC000025284670BD00000246C0F30B0030BB96
:10FDBC0039B301F6FF714FEA113C134B0221C3F822
:10FDCC000415114BD3F80034002BFAD001460AE08D
:10FDDC000D4BC3F808250C4BD3F80034002BFAD08C
:10FDEC0002F5805201316145F2D3074B0022C3F872
:10FDFC000425054BD3F80034002BFAD070471020A3
:10FE0C0070470920704700BF00E00140844610F0A5
:10FE1C00030F2DD111F0030F2CD16AB312F0030F85
:10FE2C002CD19008164B0122C3F80425144BD3F89F
:10FE3C000034002BFAD003E00CF1040C0431104612
:10FE4C00421E58B10B68B3F1FF3FF5D0CCF800302F
:10FE5C000B4BD3F80034002BFAD0EDE7084B002203
:10FE6C00C3F80425064BD3F80034002BFAD07047A6
:10FE7C0010207047102070470920704709207047E8
:10FE8C0000E00140094B1B7813F0040F02D00378FB
:10FE9C00122B00D07047064B1A68064B5A60034B66
:10FEAC001A786FF382021A70F4E700BF88290020D9
:10FEBC00782900201429002010B582B001900C463E
:10FECC00BDF80630012B11D123680A490B600A4B8F
:10FEDC001A7842F001021A70D3B25B0883F0010366
:10FEEC0003F001030B71002002B010BD7846FDF742
:10FEFC0037FCE9E7782900208829002010B582B06A
:10FF0C0001900C46BDF80630022B0FD12268094B2C
:10FF1C001A6022791A71002058719871D871064AAA
:10FF2C00137843F00203137002B010BD7846FDF74E
:10FF3C0017FCEBE7702900208829002010B582B04F
:10FF4C0001900C46BDF80630032B06D1054B186802
:10FF5C0020601B79237102B010BD7846FDF700FCC0
:10FF6C00F4E700BF7829002010B582B001900C4650
:10FF7C00BDF80630032B0CD1084B20681860227991
:10FF8C001A71074A137843F001031370002002B072
:10FF9C0010BD7846FDF7E4FBEEE700BF78290020A2
:10FFAC008829002010B582B001900C46BDF80630AF
:10FFBC00042B05D1044B03CB2060616002B010BD53
:10FFCC007846FDF7CDFBF5E77029002010B582B01F
:10FFDC0001900C46BDF80630042B0BD1074B206862
:10FFEC00616803C3064A137843F0020313700020C0
:04FFFC0002B010BD82
:020000022000DC
:100000007846FDF7B3FBEFE7702900208829002030
:1000100000B583B00190BDF80630032B06D1054B27
:1000200000221A601A7103B05DF804FB7846FDF7F0
:100030009DFBF4E77829002000B583B00190BDF85E
:100040000630042B06D1054B00221A605A6003B01B
:100050005DF804FB7846FDF789FBF4E77029002082
:1000600000B585B01A4B1B7813F0400F13D0184B16
:100070001B7813F0040F0BD1002301938DF8083087
:10008000144B5B6803F500530193B3F1807F06D9ED
:1000900005B05DF804FB7846FDF768FBE7E70E4B1B
:1000A0001B788DF808300A4A137843F00403137064
:1000B0000023ADF80C300323ADF80E3001A90398EE
:1000C00006F056FA0028E3D07846FDF74FFBDFE74D
:1000D00088290020142900208929002000B585B036
:1000E0000022019202920F4B996801911B7B8DF8BF
:1000F00008300D490B780133DBB20B708DF80B30F3
:10010000ADF80C200423ADF80E300DEB030103987D
:1001100006F02EFA10B905B05DF804FB7846FDF73D
:1001200025FBF8E7142900208929002000B585B0B7
:100130000023019302930F4A91680191117B8DF87E
:100140000810128AADF809200B4A12788DF80B209E
:10015000ADF80C300423ADF80E300DEB030103981D
:1001600006F006FA10B905B05DF804FB7846FDF715
:10017000FDFAF8E7142900208929002000B58DB088
:100180000B4B1B7B012B0ED0094A926804928DF811
:100190000830039002238DF8043001A8FEF710FF09
:1001A0000DB05DF804FB024A9268013A0492EEE752
:1001B0001429002008B51D481D4B036000F034FFD2
:1001C0001C4B1B7813F0200F2AD103F00303032BE1
:1001D00014D1194B1968194A916019791173B3F840
:1001E00005001082DB79164A1370164A1279934281
:1001F00017D0B1B9114B00221A6007E00F4B002253
:100200001A609A601A731A82FFF768FF0B4B1A681C
:100210005A60084A137843F040031370FFF720FF39
:1002200008BD084B1A68054B1A60EFE764290020E7
:1002300091FE010088290020702900201429002047
:10024000892900207829002010B582B00024ADF85B
:1002500000400123ADF80230009806F0BAF9ADF87D
:1002600004400223ADF80630019806F0B2F902B05E
:1002700010BD000008B5002006F0D2F9094A00239D
:10028000136053609360D3601361074A117863F37E
:1002900045111170CBB243F040031370FFF7E0FE3D
:1002A00008BD00BF142900208829002038B50C4D56
:1002B00000242C606C60AC60EC602C6101F0AAF949
:1002C000084B5860084A9A60084ADA601C615C6111
:1002D000074B1A7864F3C3021A706C6038BD00BF14
:1002E00014290020F02800204D0402000087930309
:1002F0008829002008B50C4B1B7813F0100F00D094
:1003000008BD0A480A4B036000F08EFEFFF752FF5B
:10031000FFF79AFF074801F001F9034A137843F009
:1003200010031370ECE700BF882900200829002083
:10033000A5050200F0280020034B1878800880F003
:10034000010000F0010070478829002010B501F07D
:10035000EBFE174B1B7B1BBB154B9B7B2BBB144B2B
:100360001A8A41F282639A4206D8124B1B7813F024
:10037000080F05D0012300E001231BB9082410E079
:100380000023FAE70A4B01221A7300241C829A68A0
:1003900001329A60FFF7A2FE2046FFF7EFFE00E071
:1003A000082401F007FF204610BD0824F9E700BF2C
:1003B000142900208829002010B501F0B5FE214B3A
:1003C0005B7BABB11F4B9B7B03BB1E4B1A8A41F27D
:1003D00082639A4206D81C4B1B7813F0080F05D095
:1003E000012300E001239BB1012302E00023FAE78F
:1003F00000231C460BB3134B00225A731B7B4BB1DB
:10040000012B0ED07846FDF7B1F916E00023F0E796
:100410000023EEE7FFF79AFF78B17846FDF7A6F9DB
:100420000BE0084B00201860586018731882FFF723
:10043000A5FEFFF753FEFFF713FE01F0BBFE2046BB
:1004400010BD00BF142900208829002008B52C4BBE
:100450001B7BDBB1012B2ED07846FDF787F9284AAC
:10046000138A01339BB21382264AA2FB031212099C
:10047000C2EB0212A3EB42039BB2002B3DD0204BF8
:100480005B8A13B1013B1E4A538208BD1C4B1A8A7A
:1004900041F282639A4206D81B4B1B7813F0080F77
:1004A00007D0012300E00123002BD8D0FFF784FF01
:1004B000E5E70023F8E7124B1B8A41F28262934280
:1004C00006D8114A127812F0080F14D0012200E069
:1004D0000122002AC3D042F2B012934202D9084B43
:1004E00001225A73FFF768FF0028C8D1044B5B7BD9
:1004F000012BB4D1C3E70022EBE7FFF717FEBEE7FD
:1005000014290020898888888829002010B5244B68
:100510001B7B002B35D10446214B5B8A2BBB1AB9C0
:100520001F4B9B688B4205D3FAB11D4B9B6801336F
:100530008B421AD21A4B9B682A338B4223D3184B17
:100540009B7B03BB164B996000221A605A601A828B
:1005500042F6065159825A731A73FFF7BFFDFFF72F
:100560007FFD2046FFF70AFE0DE062B10C4B9B6851
:1005700001338B4207D10A4B01225A73FFF71CFF4C
:1005800001E0012B00D010BD002AFCD1044B9B6878
:100590008B42F8D1024B01225A73FFF70DFFF2E7AD
:1005A000142900200378042B00D0704743681B787F
:1005B000002BFAD010B58468027E437E012A14BF56
:1005C00000220122416904F11000FFF79FFF10BDD6
:1005D00008B538B10D4B01229A730D4A13680133E7
:1005E000136008BD0A4B1B685BB1094A1368013BE5
:1005F0001360002BF5D1054B00229A73FFF7DCFE48
:10060000EFE77846FDF7B2F8EFE700BF14290020C6
:10061000E428002000B58DB0ADF808008DF810205A
:10062000039103238DF8043001A8FEF7C9FC0DB037
:100630005DF804FB014B9868704700BF1429002047
:10064000054B1B7B012B02D0034B98687047024B74
:1006500098680138704700BF142900201D4B1B7893
:1006600013F0400F34D070B504460D461A4B1A688B
:100670005B689A4228D2184B1B7B012B17D0174B73
:100680009A4216D2144B1A685B68403B9A4218D2C1
:10069000EFF3108672B6104A1368591C11602B6074
:1006A000FFF7CEFF206006B962B6002070BD0C4B8C
:1006B000E6E7094B01225A73FFF77EFE0028E7D1D7
:1006C000E0E7FFF7CDFCE3E7FFF7CAFC0F20EDE71B
:1006D0000F2070478829002014290020FFFF7F0089
:1006E00000E0FF00044B9B68584010F0010F00D061
:1006F000013B1846704700BF14290020014B187BAE
:10070000704700BF14290020F8B5104B1B7813F078
:10071000200F01D00820F8BD17460C4E43F02003EF
:1007200033700B4DA860297300242C82FFF7D6FC90
:100730002046FFF723FD2F606F60337843F04003BE
:100740003370FFF78DFC2046E5E700BF88290020C5
:100750001429002008B50022FFF7D6FF08BD0000CD
:100760002DE9F041002625E0134604FB03F3244A5B
:10077000D25A3046C0472249BC2304FB03F3CA5A6D
:100780000132CA520221284602F0F0FC0137022150
:10079000284602F0BBFC014649B1194BBC2202FBC2
:1007A0000433D3F80880B8F1000FDDD1E3E797B93F
:1007B0000136F6B2022E1FD83446BC2306FB03F3E3
:1007C00008330F4D1D4404350221284602F09EFCDB
:1007D00001460027E0E7284602F030FD0828E7D16F
:1007E000074BBC2202FB04339B68002BE0D00022A5
:1007F000044930469847DBE70120BDE8F08100BF9F
:100800009429002078AC030008B5082383731023D3
:10081000437300F11C0343610323037300F11803C6
:1008200003610C3002F0DCFC08BD000008B5037861
:10083000012B06D0022B06D07846FCF797FF00204C
:1008400002E02B2000E0014808BD00BFCC550100AC
:1008500008B50378012B07D0022B12D07846FCF79D
:1008600085FF4FF4FA7307E083685B1A9B082B221D
:1008700002FB03F303F5FA730648984228BF1846B3
:1008800008BD83685B1A1B0B034A02FB03F303F5E5
:10089000FA73F1E760850100CC55010038B50446D4
:1008A00001210C3002F032FC054678B1084BC4F847
:1008B0009C300023C4F8A0306168FFF7C9FFC4F87A
:1008C000A800C4F8AC40012384F8B830284638BDED
:1008D000F109020010B50446FFF7E0FF20B104F172
:1008E0009C000EF0DBFF00B910BD7846FCF73EFF20
:1008F000FAE70000F8B505460C4616461768037877
:10090000012B19D1124BA3FB0431C9088B00AC6831
:10091000E41BB4EB810F00D31C468CB1686827F050
:100920000307E968224639443844FFF775FA58B995
:10093000336823443360F8BD7846FCF717FFE1E7DE
:100940007846FCF713FFE9E77846FCF70FFFEFE77F
:1009500083BEA02FF8B506460C46154617680378E7
:10096000022B17D1114BA3FB04231B0C1A03B468F1
:10097000E41BB4EB033F00D314467CB1706827F04E
:10098000030721463844FFF715FA58B92B6823446A
:100990002B60F8BD7846FCF7E9FEE3E77846FCF704
:1009A000E5FEEBE77846FCF7E1FEEFE72D57BDBF2C
:1009B00038B505460C4611462378012B06D0022B8C
:1009C0000FD07846FCF7D2FE002004E0021D20463E
:1009D000FFF790FFA0686B68834214BF00200120DE
:1009E00038BD021D2046FFF7B5FFA068F3E7000001
:1009F0002DE9F8430F46D1F8A850254B1B786BB969
:100A00000446A5F5FA7501F10C080121404602F0F3
:100A10007DFB064648B14FF0000922E00EF07AFF58
:100A2000002387F8B830BDE8F8837846FCF79EFECF
:100A3000F1E70EF06FFF0121404602F097FB002323
:100A40007B6087F8B830134B186801F00BFC384610
:100A5000FFF740FFE7E73046FFF7E8FE4844A842CB
:100A60000FD8A5EB090231463846FFF7A1FF002851
:100A7000DFD101F025FAB0EB0409ECD5A4EB0009B5
:100A8000E9E70EF047FF3846FFF724FFCBE700BF4A
:100A9000902900208C29002010B5084801F0C2FBE5
:100AA000074B1860002406E0064BBC2000FB043016
:100AB000FFF7AAFE0134022CF6D910BD610702002F
:100AC0008C2900209429002038B504460D460228C0
:100AD00005D8054BBC2202FB04339D6038BD784627
:100AE000FCF744FEF5E700BF942900202DE9F84308
:100AF00005460C461746022816D8CCB12378012BA0
:100B00001AD0022B3ED16368C3F30B03002B31D103
:100B1000A368C3F30B03002B30D1A368002B34D19F
:100B20007846FCF723FE30E07846FCF71FFEE4E74A
:100B30007846FCF71BFEE1E7636813F0030F0DD165
:100B4000E36813F0030F0DD1A36813F0030F0DD169
:100B5000A368D3B97846FCF709FE16E07846FCF79F
:100B600005FEEDE77846FCF701FEEDE77846FCF779
:100B7000FDFDEDE77846FCF7F9FDC9E77846FCF79F
:100B8000F5FDCAE77846FCF7F1FDEFF3108872B681
:100B9000BC2305FB03F308332A4E1E440436002110
:100BA000304602F0B3FA814678B30021304602F0B5
:100BB000DDFA20686168A268E368C9F80000C9F836
:100BC0000410C9F80820C9F80C302FB11D4BBC2205
:100BD00002FB05335B883B801A4BBC2202FB0533CA
:100BE0005A8801325A8093F8B83083B9164B1B7873
:100BF00013B10024A1460CE0124BBC2000FB0530D1
:100C0000FFF74CFE8146002403E0042401E00024A9
:100C1000A146B8F1000F00D162B6B9F1000F09D0BA
:100C2000BC2303FB05F598350648284404300EF034
:100C300035FE10B92046BDE8F8837846FCF796FDEE
:100C4000F8E700BF942900209029002038B5044619
:100C5000EFF3108572B610B9164B1B6873B18CB1E7
:100C6000144A136801331360124B1B68003B18BF12
:100C70000123114A137005B962B638BD7846FCF7F6
:100C800075FDECE70B4B1C68013C1C600CB1EBE7FD
:100C90000134022CE8D8094BBC2202FB043393F840
:100CA000B830002BF4D1054B02FB0430FFF712FEE5
:100CB000EEE700BFC82B00209029002094290020D7
:100CC00018B1830B024AD05C70470020704700BF08
:100CD00088AC030012DF704700B583B001F020FF3D
:100CE00040B10C4B1B6813F0400F03D00A4B1B683C
:100CF000012B02DC03B05DF804FB084BD3F804358C
:100D00000190074A009275220649022002F07CFCFD
:100D1000F0E700BFA81F0020A41F00200010014022
:100D2000B4AC0300A6AC030000B58DB0114B1B782A
:100D3000022B06D07846FCF719FD01200DB05DF8B6
:100D400004FBFFF7F9FA18B90B48FEF761F9F4E76D
:100D50000FF01EFB074B03221A702C22002101A862
:100D600018F0DCFF1D238DF8043001A8FEF728F9E8
:100D7000E3E700BFD02B0020981F00200B4B1B780F
:100D8000042B00D0704700B58DB0084B05221A70B7
:100D90002C22002101A818F0C1FF1C238DF804307B
:100DA00001A8FEF70DF90DB05DF804FBD02B002073
:100DB00008B50378122B00D008BD0448FEF738F9B7
:100DC000034B186801F04EFAF6E700BF981F0020A9
:100DD000CC2B002010B58AB00FF01EFB70B3044678
:100DE00000238DF810300DF1140C8646BEE80F007C
:100DF000ACE80F00DEF80030CCF80030627D052A48
:100E000004D9237D03F00F03072B1ED1164B1A685C
:100E10008AB104AB0393237DC3F303038DF804303D
:100E2000637D062B1BD9063B8DF8053004F11D03AD
:100E3000029301A8904720460FF0CCFA0FF008FB70
:100E400080F00100C0B20AB010BD207D04AB063AAC
:100E500004F11D0100F00F000DF0D2FFD6E70023D2
:100E60008DF805300293E4E7D42B002070B582B0F2
:100E7000314B1B78002B54D10446002855D0067AFC
:100E80000F2E01D0062E52D106F078FBE06870B12B
:100E9000FCF77EFC0DF10700FFF71CFF054600285C
:100EA00040D19DF80730012B04D002253AE0FCF731
:100EB0007DFCEFE7FCF79EFC00F018FB304601F0EC
:100EC000D1F8E07800F032F900F0C4FE0EF068FCD2
:100ED0001A480FF059FB0EF03FF90DF073FFFFF7C2
:100EE000DBFD05F009FB00F011FD06F007FB06F045
:100EF000A3F8204601F01CFDFDF706FD04F006FDF9
:100F0000FCF782FB08B1062813D10D4801F08AF9DD
:100F10000C4B18600C4B00221A60074B01221A7010
:100F200000E00825284602B070BD0E25FAE7072527
:100F3000F8E70546F6E700BFD02B0020D50D0200EC
:100F4000290D0200CC2B0020D42B002010B582B03C
:100F5000204B1B78012B0DD05AB2002A35D0043B10
:100F6000DBB2012B33D80EF089FC044628B32046AF
:100F700002B010BD01F0ECFCFDF708FDFCF744FBEE
:100F80000446B8B1062815D0134B1B6813F4804FE4
:100F9000EDD0124B1B68012BE9DD114BD3F8043562
:100FA0000190104A00924FF4C2720F49022002F0E1
:100FB0002BFBDCE701F08CF8D5E7064B02221A7018
:100FC0000A4B186801F04EF9D1E70824CFE708244E
:100FD000CDE700BFD02B0020A81F0020A41F0020B9
:100FE00000100140E0AC0300A6AC0300CC2B0020B5
:100FF00008B5094B1B78032B01D0082008BD064B10
:1010000004221A7005480EF0EDFB0028F6D0784651
:10101000FCF7ACFB0020F1E7D02B00207D0D020097
:1010200008B5FDF7B7FC08BD08B5FDF7F1FF08BD31
:1010300008B5FDF7FDFF08BD08B500F0D1FD0020A3
:1010400008BD08B507F018FF08BD0000074A13687F
:1010500001331360B3F1704F02D0044B186870472E
:10106000134600221A6001221A60F6E7D82B0020EE
:1010700010B5044618B100232360636010BD7846A4
:10108000FCF774FBF7E738B50C46054668B184B148
:1010900000236360EFF3108372B62A686AB16A684E
:1010A00054606C6003B962B638BD7846FCF75EFBED
:1010B000EDE77846FCF75AFBEAE72C60F1E710B55C
:1010C000044658B1EFF3108372B6206808B1426845
:1010D0002260226832B103B962B610BD7846FCF7CF
:1010E00045FBEFE76260F6E710B5044608B12068FB
:1010F00010BD7846FCF73AFBF9E735DF7047000092
:1011000008B54FF0FF30FFF7F8FFBFF34F8F0549E9
:10111000CA6802F4E062044B1343CB60BFF34F8F05
:1011200000BFFDE700ED00E00400FA05072814D831
:10113000DFE800F0080C1504110F0A066420704760
:1011400014207047FA2070471E2070474FF4FA7041
:101150007047322070474B207047FA207047962026
:1011600070470000024B5868103840B2704700BF0B
:1011700000ED00E0034600280FDB5B11084A52F83F
:101180002330424200F01F0002F01F0258BF5042BD
:1011900023FA00F000F00100704700F11F03ECE7B4
:1011A00000E100E046DF704738B504460D464B1EAF
:1011B000DBB2012B0AD8002323616361A361E361E1
:1011C0002046FFF7EFFF4FF0010C1AE07846FCF7DE
:1011D000CDFAF0E7CA5CC8185200D2B2CA544078BF
:1011E00042EAD012CA5401339BB20E2BF2D9CB7B08
:1011F0005B00CB73BEF1000F0ADB0CF1010C5FFA50
:101200008CFCAC450BD8214611F920EF0023ECE70C
:1012100094F82F3083F0870384F82F30EDE738BD42
:101220002DE9F04190B084460C4696461F4602F1E7
:101230000F084FEA281604AD0068DCF80410DCF84B
:101240000820DCF80C300FC50EF00F055FEA181807
:1012500002D07DB1002300E00023984663B1012154
:1012600004A8FFF7A1FFB8F1000F1BD0701E00010A
:1012700010230FE00123F0E70221F1E7013B9BB2CD
:101280002218D25C03F14001694411F8101C4A4055
:101290000DF80320002BF1D100250C950D950E952E
:1012A0000F9535E0711EADB22A4604EB0111684678
:1012B00018F0FEFC80230DF805306B1C03E00022C3
:1012C0000DF8032001330F2BF9DD10230BE0013B58
:1012D0009BB21DF8032003F14001694411F8101C72
:1012E0004A400DF80320002BF1D1D5E7013A92B224
:1012F00002F140036B4413F8100C63189B5C5840D8
:1013000008AB9854002AF1D104A8FFF74BFF013530
:10131000731EAB4202DD29011022F3E710230CE01B
:10132000013B9BB203F140020DEB020111F8402C8E
:1013300011F8101C4A4008A9CA54002BF0D104A887
:10134000FFF730FF0CAC0FCC38607960BA60FB60FF
:1013500010B0BDE8F081000010B50446134B1B68C7
:1013600093B14168114B1B685B68CB1A002B0BDBF8
:101370000E4B1B6818465B691BB15A68521A002A4B
:10138000F8DB6361446103E0084B1A6862611C602A
:10139000064A93889BB201339BB2938013B1012319
:1013A000237010BD7846FCF7E1F9F8E7E42B002044
:1013B00038B5054619E06369214A1360002363616B
:1013C00093889BB2591E89B291800BB3A3681BB35B
:1013D00002232370A36821692846984700F01AF970
:1013E00005462378DBB2022B1AD0154B1B6833B3AA
:1013F000134B1B685B685B1B642B20D5104B1C6870
:101400002378DBB2012BD6D07846FCF7AFF9D2E7D0
:101410007846FCF7ABF9D9E77846FCF7A7F9D7E7A8
:10142000E26812B900232370DFE763681344636046
:101430005B1B642BF9D42046FFF78EFFD5E738BD40
:10144000E42B002010B50446144B1B68834207D0E0
:10145000124B1B68D3B15A69A2420ED01346F9E76A
:1014600043690E4A136093889BB2591E89B29180DA
:1014700063B97846FCF77AF908E062695A6107496E
:101480008B889BB25A1E92B28A8013B100232370BC
:1014900010BD7846FCF76AF9F8E700BFE42B00209E
:1014A00008B5064B1B6833B1044B1B6804495868E8
:1014B00000F05CF908BD00F0B7F9FBE7E42B002071
:1014C000DD14020008B500F0A5F8FFF771FF00F089
:1014D000A1F8FFF7E5FF012008BD000008B5024BA9
:1014E000186800F0BFFE08BDDC2B002008B5002303
:1014F000064A1370064A13605360064800F092FED5
:10150000054B186000F078F808BD00BFE02B002004
:10151000E42B0020C5140200DC2B002010B504468B
:10152000154B1B789BB900F06FFFA0B1BCB1A3684D
:10153000CBB12378DBB2012B19D0002363612046A5
:10154000FFF70AFF00F066F8FFF7AAFF10BD784624
:10155000FCF70CF9E7E77846FCF708F9E6E7784688
:10156000FCF704F9E3E77846FCF700F9E1E7784691
:10157000FCF7FCF8E1E700BFE02B002010B50446C3
:1015800000F042FF50B16CB12046FFF75BFF002333
:10159000636100F03FF8FFF783FF10BD7846FCF76A
:1015A000E5F8F0E77846FCF7E1F8EDE738B50446F2
:1015B0000D46104B1B788BB900F026FF90B1ACB1F3
:1015C0002046FFF73FFF0023636165602046FFF779
:1015D000C3FE00F01FF8FFF763FF38BD7846FCF745
:1015E000C5F8E9E77846FCF7C1F8E8E77846FCF784
:1015F000BDF8E5E7E02B002008B518F067FA00B168
:1016000008BD18F0DBF90028FAD07846FCF7AEF8F0
:10161000F6E70000EFF3108072B6194B1968194B0A
:10162000D3F80425D3F80431012B24D000B962B6D5
:1016300042EA01624FEAD26C5001801A6CF1000C50
:101640004FEA4C2343EAD0534102891843F1000C7E
:101650004FEA8C1040EA91608B015B1A60EB0C0042
:101660009B1840F1000013F5804340F10000DB0BB4
:1016700043EA40407047034BD3F804250131D5E7D6
:10168000EC2B00200010014010B50A4B4FF4003243
:10169000C3F84823C3F80823074B1B682BB1064B3C
:1016A0001C68FFF7B7FFA04710BD7846FCF75EF84F
:1016B000F5E700BF00100140F82B0020EFF3108188
:1016C00072B6254B0022C3F80421244A1368013363
:1016D000136001B962B6224B1B68002B3AD0204B35
:1016E0001A68013A1A601B68002B33D103F180435A
:1016F00003F58833D3F804251A4B1B689A421BD292
:10170000EFF3108272B6144BD3F80435981C1549C8
:10171000096888420DD303330F49C1F8443502B933
:1017200062B60D4B4FF40032C3F84423C3F80423D0
:1017300070470C4B1B68EFE710B50B4B1B682BB1C8
:10174000094B1C68FFF766FFA04710BD7846FCF701
:101750000DF8F5E7704700BF00100140EC2B0020AA
:10176000F02B0020F42B0020F82B002030B583B0A4
:101770000446002301930D46002936D0244B1D60FA
:10178000FFF748FF031B002B33DB0020410CC00395
:10179000204BC018204A4FF0000341F1000118F01F
:1017A000BFF9EFF31083019372B61C4BD3F80435E5
:1017B000032838BF0320C3F1FF1202F57F428242A3
:1017C00019D30344154AC2F844354FF40033C2F824
:1017D0004433C2F804330023114A1360114A1360E2
:1017E000019B03B962B603B030BD7846FBF7BEFF7C
:1017F000C4E7201ACAE7034403F17F4301331A0EFA
:10180000013207490A6023F07F43064A1360E7E785
:10181000F82B002020A1070040420F0000100140DB
:10182000F02B0020F42B0020074B4FF40032C3F8BC
:101830004823C3F808230023044A1360044A1360B2
:10184000044A1360704700BF00100140F02B0020D5
:10185000F42B0020F82B002030DF704731DF704779
:1018600010B4034602684068A2EB70129C6880EADC
:10187000F4301860D9680C445C60114499601044DD
:10188000D8605DF8044B704770B582B00D460646CF
:1018900008B100240BE07846FBF768FFF9E79DF8F4
:1018A00007103019FFF7DAFF9DF807301C44A542F6
:1018B0000DD90DF10700FFF7CFFF9DF80730002B82
:1018C000F7D02A1B9342EAD98DF80720E7E702B048
:1018D00070BD000030B583B005460024019404219A
:1018E0000DEB0100FFF7D0FF074B2B60019B6B60F6
:1018F000AB60EB6003E02846FFF7B2FF0134132C26
:10190000F9D903B030BD00BFED5EEAF1704708B50C
:10191000032004F085FE08BD48DF704749DF7047AB
:101920004ADF7047044B01225A7143F2B0629A6059
:1019300043F69822DA607047582C0020094B0322A6
:101940001A74094A5A611A6840F6D8639A4204D94F
:10195000054B43F2B0629A607047034B40F6D86281
:101960009A607047382C0020582C002008B50F4B87
:101970001B78022B12D0032B08D0012B03D0784602
:10198000FBF7F4FE0EE0022303740BE0084B002289
:101990005A71084999600849D96082710323037418
:1019A000034B4361014B00221A7008BD692C0020D3
:1019B000582C0020A0860100FF1FA10738B504465F
:1019C00000250574012343710E4A13680133136027
:1019D00000F0D0FA0EF018F821680B4B1B68283382
:1019E00001FB03F3094AA2FB0323A1EB9341084A3D
:1019F0007839284600F03EFA00B938BD7846FBF742
:101A0000B5FEFAE76C2C0020542C002083DE1B432B
:101A10003D19020010B5044600238360C3600368CB
:101A20000D4A92680260817991B10121017403B974
:101A30000A4B991A6161B1F57A7F01D39A4202D9B2
:101A40004FF47A736361FFF76DFF0123A37110BD3B
:101A5000FFF7B4FFF7E700BF582C002080969800EE
:101A600010B50C4631B1C3680133C36042690368E5
:101A70001344036083680133836001220274426966
:101A800052084261012B0DD0022B19D04269036824
:101A9000134417498B4222D840F6D7639A4221D883
:101AA00000231DE0B2F5FA7F05D040F6D8639A42D4
:101AB000ECD84361EAE7002CF7D100234361E5E766
:101AC000C368022B06D0012BE0D1002CDED100230D
