:020000021000EC
:10C0000000F0012069C3010051C3010053C30100C6
:10C0100055C3010057C3010059C3010000000000CF
:10C020000000000000000000000000005BC30100F1
:10C030005DC30100000000005FC3010061C3010097
:10C0400063C3010063C301005947030063C30100D8
:10C0500063C3010063C30100214E030063C30100F9
:10C0600063C3010063C30100D52E020063C3010056
:10C0700063C3010063C3010063C3010063C3010024
:10C0800063C3010069F50200BD73020063C30100D0
:10C09000CDF5020063C301008949030063C30100B9
:10C0A00063C3010063C3010063C3010063C30100F4
:10C0B00063C3010063C30100000000000000000032
:10C0C00063C3010063C3010063C3010063C30100D4
:10C0D00063C3010063C3010063C3010063C30100C4
:10C0E00063C3010000000000000000000000000029
:10C0F0000000000063C301000000000063C30100F2
:10C10000000000000000000000000000000000002F
:10C11000000000000000000000000000000000001F
:10C12000000000000000000000000000000000000F
:10C1300000000000000000000000000000000000FF
:10C1400000000000000000000000000000000000EF
:10C1500000000000000000000000000000000000DF
:10C1600000000000000000000000000000000000CF
:10C1700000000000000000000000000000000000BF
:10C1800000000000000000000000000000000000AF
:10C19000000000000000000000000000000000009F
:10C1A000000000000000000000000000000000008F
:10C1B000000000000000000000000000000000007F
:10C1C000000000000000000000000000000000006F
:10C1D000000000000000000000000000000000005F
:10C1E000000000000000000000000000000000004F
:10C1F000000000000000000000000000000000003F
:10C20000334934480A1A02D0072291438D463249F5
:10C2100032480A1A06D00722914381F30988022284
:10C2200082F314882E482F492F4A00F03FF82F48F8
:10C230002F49304A00F03AF82F483049304A00F090
:10C2400035F830483049314A00F030F8304831494B
:10C25000314A00F02BF831483149324A00F026F8D3
:10C2600031483249324A00F021F83248324900223E
:10C2700000F027F831483249002200F022F8314816
:10C280003149091A1AF0C6F81F482049884205D0DA
:10C290000268043003B4904703BCF7E700208646E9
:10C2A000EC4600200021294A9047FEE7884207D04B
:10C2B000521A05D0037801300B700131013AF9D1DF
:10C2C0007047884202D002700130FAE770470000E0
:10C2D00000F0012000E8012000F0012000F0012022
:10C2E00018810300601F0020C01F00209CC30100B4
:10C2F0009CC301007C64030018810300601F0020C0
:10C30000601F0020206803002068030020680300ED
:10C3100020680300206803002068030020680300F1
:10C32000206803001881030078810300C01F0020EB
:10C33000C01F0020C01F00207C5900207C59002015
:10C340007C5900207C5900207C5D0020B91F020030
:10C35000FEE7FEE7FEE7FEE7FEE7FEE7FEE7FEE7B5
:10C36000FEE7FEE700F002B8FFF7FCBF08484FF019
:10C37000070188438546074880470748016841F41C
:10C3800070010160BFF34F8FBFF36F8FFFF738BFAE
:0CC3900000F00120994F030088ED00E050
:10C39C004FF6FF7399420CD00C4B00EB400203EBB1
:10C3AC004202D27800EB400003EB40030132DA701A
:10C3BC007047064B00EB400203EB4202927800EB15
:10C3CC00400003EB400301329A70704704200020B8
:10C3DC0000B583B001911B4B00EB400103EB410115
:10C3EC00897800EB400C03EB4C03DB78D94201D08D
:10C3FC00002303E0002022E001339BB2012B1DD867
:10C40C009E46C3EBC30C104901EBCC0189898142D8
:10C41C00F2D10D4901EBCC01B1F802C0BDF8061008
:10C42C008C45E9D1C3EBC30E074931F83EC0BDF8CA
:10C43C0004108C45E0D11380012000E0002003B0F3
:10C44C005DF804FB042000201C20002082B0002397
:10C45C000093027802F0C003802B21D015D80BB1C9
:10C46C00402B05D1ADF800204FF6FF73ADF802302C
:10C47C00009B01930020BDF8043063F30F00BDF85E
:10C48C00063063F31F4002B07047C02BF0D1ADF8FB
:10C49C0000204378827843EA0223ADF80230E7E7C4
:10C4AC00437843EA0223ADF800304FF6FF73ADF842
:10C4BC000230DDE782B00190BDF806304FF6FF7216
:10C4CC00934207D0BDF804200A704B701B0A8B7086
:10C4DC0002B07047BDF8043013F47F4F03D01A0A32
:10C4EC000A704B70F4E70B70F2E782B00190BDF864
:10C4FC0006204FF6FF739A4218D1BDF8040010F4D1
:10C50C007F4F07D000F44040B0F5004F14BF00201F
:10C51C00012014E020F07F039BB22BB97F2801D0BF
:10C52C0001200CE000200AE0002008E0BDF8040027
:10C53C0020F03F0080B2C02814BF0020012002B0C0
:10C54C00704770B506460D46002400E00134AC423D
:10C55C0007D256F83400FFF7C8FF03460028F5D180
:10C56C0000E00123184670BD00B583B00191002393
:10C57C0000E00133818D994211D9816A01EBC30E20
:10C58C0031F833C0BDF804108C45F2D1BEF802C0AE
:10C59C00BDF806108C45ECD11360012000E00020A2
:10C5AC0003B05DF804FB0000C389012B01D9002006
:10C5BC00704703EB4303084A02EB830304334A0935
:10C5CC0053F8222001F01F0101238B401A4201D0A5
:10C5DC0001207047002070479420002010B483B0D5
:10C5EC000190BDF80630A3F540539BB2012B27D820
:10C5FC00144A127812F0040F20D0002003B05DF81A
:10C60C00044B704751F82200C44303EB430C944491
:10C61C000D4800EB8C0044600132012AF2D90A4922
:10C62C0003EB430011F8202002F0FB0201F820205C
:10C63C0022F0020201F820200020DFE70022ECE7C4
:10C64C000520DBE7902000209420002082B0019090
:10C65C00BDF80630B3F5805F1BD1114A127812F089
:10C66C00040F19D1A3F580539BB2098803EB430047
:10C67C000C4A32F81020914210D10A4901EB4000CB
:10C68C00427902F0FB02427122F002024271002058
:10C69C0000E0052002B070470020FBE70B20F9E713
:10C6AC00902000200420002082B00190BDF80630BC
:10C6BC00B3F5804F05D10A78034B1A70002002B0F5
:10C6CC0070470520FBE700BF601F002010B582B04B
:10C6DC0001900C46BDF80630012B06D10123638076
:10C6EC000223A380238002B010BD784605F038FAEF
:10C6FC00F4E7000010B582B001900C46BDF806308E
:10C70C00012B0FD16388012B10D1A388022B10D1E0
:10C71C002388022B0FD1094A137843F001031370BD
:10C72C00002004E0784605F01BFAEBE70B2002B082
:10C73C0010BD0B20FBE70B20F9E700BF9020002079
:10C74C0030B583B001900D46BDF80640A4F54054B9
:10C75C00A4B2012C01D800230EE0784605F000FAB3
:10C76C00F9E704EB44001844054A02EB80025268D6
:10C77C00D24345F823200133012BF2D903B030BD4D
:10C78C009420002030B583B001900D46BDF80640D2
:10C79C00B4F5805F0AD1A4F58054A4B204EB440430
:10C7AC00044B33F814302B8003B030BD784605F0C1
:10C7BC00D7F9F0E70420002010B582B001900C46A8
:10C7CC00BDF80630B3F5804F04D1044B1B782370B1
:10C7DC0002B010BD784605F0C3F9F6E7601F0020E3
:10C7EC00F8B504460D4616461F4653B12B89B3F5D2
:10C7FC00BE7F0AD309233B603868B0FA80F0400949
:10C80C00F8BD784605F0ACF9F0E7012C0BD9002304
:10C81C0033B1C4EBC4021B4B03EBC2039B8983B142
:10C82C0005233B60E8E7C4EBC402164B03EBC203E1
:10C83C0093F8343013F0010F01D10023E8E7012302
:10C84C00E6E736B12868FFF750FEB8B907233B601E
:10C85C00D2E7C4EBC4020B4B03EBC2039A884FF62E
:10C86C00FF739A42F2D0C4EBC404064B03EBC4032F
:10C87C00DA884FF6FF739A42E4D1E7E700233B6076
:10C88C00BAE700BF1C200020F8B50E4617461D461F
:10C89C000C4603281AD8DFE800F00502101401EB4F
:10C8AC0081004400BDF81830B4FBF3F03F2816D8D3
:10C8BC0000233B7076B92B70F8BD642000FB01F4AB
:10C8CC00F0E741F2707000FB01F4EBE7784605F0FD
:10C8DC0047F9E7E7012838BF01202870ECE740F260
:10C8EC007623984208D801233B7003F1CC33A3FB89
:10C8FC000030C0082870DFE741F69C03984207D847
:10C90C0002233B70064BA3FB003040092870D3E791
:10C91C0003233B70034BA3FB0030C0092870CBE70B
:10C92C001F85EB51F119760530B583B001900D469A
:10C93C00BDF80640A4F50054A4B2012C11D80B4A42
:10C94C00C4EBC40402EBC40352F834205C6898684E
:10C95C00D9682A606C60A860E9601A692A6103B022
:10C96C0030BD784605F0FCF8E9E700BF1C2000203C
:10C97C0070B582B00190BDF80630A3F500539BB2A0
:10C98C00012B45D8284A127812F0040F42D1B1F885
:10C99C000CC0C3EBC300254A02EBC002928994453C
:10C9AC003BD10888C3EBC302204C34F832209042B0
:10C9BC0035D14C88C3EBC3001C4A02EBC002528831
:10C9CC0094422ED1CC89194A02EBC002D2899442EE
:10C9DC0001D00B201FE0154C844604EBC0000A6804
:10C9EC004E688D68D1F80CE044F83C2046608560B8
:10C9FC00C0F80CE00A69026190F8342002F0FB02E6
:10CA0C0080F8342022F0020280F83420002002E06A
:10CA1C00052000E0002002B070BD0B20FBE70B20CE
:10CA2C00F9E70B20F7E700BF902000201C20002026
:10CA3C000E4B1B7813F0040F09D10D4A00EB40018B
:10CA4C0012F8213043F0040302F82130704700B58E
:10CA5C0083B0084B1B68019300F54050ADF80600FD
:10CA6C0001980CF007FC03B05DF804FB902000204B
:10CA7C0094200020F06803001A4B1B7813F0040F6D
:10CA8C000AD000B585B0184B1B68019300F54053D4
:10CA9C00ADF80630002317E0144A00EB400112F801
:10CAAC00213043F0020302F82130704700EB4001C3
:10CABC0019440E4A02EB81025268D24304A901EBDD
:10CACC00830141F8082C0133012BEFD902A90198FD
:10CADC000CF09EFB10B905B05DF804FB784605F030
:10CAEC003FF8F8E790200020F06803009420002025
:10CAFC00134B1B7813F0040F09D1124B00EB4002BF
:10CB0C0003EB4202537943F002035371704700B5B3
:10CB1C0083B00D4B5B68019300F58053ADF8063084
:10CB2C0000EB4000074901EB400101980CF070FB51
:10CB3C0010B903B05DF804FB784605F011F8F8E77E
:10CB4C009020002004200020F0680300144B1B7878
:10CB5C0013F0040F0BD1134BC0EBC00203EBC2025A
:10CB6C0092F8343043F0020382F83430704700B549
:10CB7C0083B00D4B9B68019300F50053ADF8063064
:10CB8C00C0EBC000074901EBC00101980CF040FB61
:10CB9C0010B903B05DF804FB784604F0E1FFF8E748
:10CBAC00902000201C200020F068030038B50024E1
:10CBBC000FE02046FFF73CFF2D4A05EB450399009B
:10CBCC00535C03F0FB03535423F00203535401341E
:10CBDC00A4B2012C0FD8254604EB44029300244A3E
:10CBEC00D35C13F0040FE4D113F0020FE4D0204611
:10CBFC00FFF742FFE0E700240CB1002426E02546B5
:10CC0C0004EB44035A001B4B13445B7913F0020FE3
:10CC1C000BD1184A05EB45014B0013445A7922F00D
:10CC2C0002025A710134A4B2E6E72046FFF760FF16
:10CC3C00EFE7114AC5EBC501CB00134493F8342040
:10CC4C0022F0020283F834200134A4B2012C0ED855
:10CC5C002546C4EBC403DA00074B134493F8343075
:10CC6C0013F0020FE5D02046FFF770FFE1E738BD67
:10CC7C0094200020042000201C20002000B585B04A
:10CC8C000A4BDA680392103393E803000190ADF875
:10CC9C00081001A910460CF0BBFA10B905B05DF8EC
:10CCAC0004FB784604F05CFFF8E700BFF068030073
:10CCBC0030B583B004460D460378012B07D042886B
:10CCCC004FF6FB739A420CD8002003B030BD01A87C
:10CCDC0003F0ACFC6388BDF804209B1A2B80012068
:10CCEC00F3E700230B800120EFE7000008B570226A
:10CCFC000021154819F0BAFA144A002313609380E6
:10CD0C00134A136053609360D3601361536115E051
:10CD1C000D49C3EBC300C2000A444FF6FF70D0802C
:10CD2C0090804FF0020CA2F80EC09081C3EBC300B0
:10CD3C00C200114401228A8413449BB2012BE7D90F
:10CD4C00044B04221A7008BD1C2000200420002073
:10CD5C0094200020601F00202DE9F04FD3B0044632
:10CD6C000F4693461E46BDF8708151A803F05EFC39
:10CD7C00C4EBC402684B03EBC2039D89BDF846317A
:10CD8C009D4280F0C280BDF844311D44ADB2BBF170
:10CD9C00000F30D0BBF81E90BBF824A04FAB0BF1AA
:10CDAC000C0292E8030083E80300BBF1000F04D0EF
:10CDBC009BF81CB0BBF1000F09D0C4EBC404564B5C
:10CDCC0003EBC40393F811B0BBF1FF0F27D056B39C
:10CDDC00B8F1000F2BD02422002146A819F046FAF6
:10CDEC004CAA4946504604F05DFC044618B3204654
:10CDFC0053B0BDE8F08FC4EBC402474B03EBC20346
:10CE0C00B3F804904FA9D88803F01EFD00287ED1FA
:10CE1C00BDF83E31002B7CD04FF6FF7AC5E73F4B77
:10CE2C0093F800B0D3E7784604F09AFED0E7784642
:10CE3C0004F096FECFE746AB4FAA92E8030083E8D6
:10CE4C000300ADF820518DF822B1BA7A8DF8232168
:10CE5C00FA7A8DF824214A96ADF82C81FA684E9214
:10CE6C00002118460EF0A0FB04460028BFD12C4B25
:10CE7C001B6813F4005F03D02A4B1B68042B0FDCD8
:10CE8C00274B1B6813F4005FB1D0264B1B68042B97
:10CE9C00ADDDB8F1800F28BF4FF0800823461CE0B1
:10CEAC00214BD3F804353A880192204A009240F283
:10CEBC00A9121F4905200CF04DF8E1E7F25C1D4961
:10CECC000D68100959002F5C05A800F8137002F0CA
:10CEDC000F020131AA5C425401334345EED305AA3B
:10CEEC00002302F8183003F1804303F58833D3F89C
:10CEFC0004350292104A0192104A00924FF4D572F6
:10CF0C000B4905200CF026F871E710246FE7052477
:10CF1C006DE710246BE700BF1C200020601F002071
:10CF2C00841F0020801F002000100140586803005F
:10CF3C004D680300881F00206C68030074680300B0
:10CF4C0008B5064B1A786FF300021A70D2B26FF361
:10CF5C0041021A7002200CF0B9F908BD9020002093
:10CF6C002DE9F04784B0064690461F460C46002932
:10CF7C0033D003AB424621463046FFF731FC80B339
:10CF8C0023680293BDF80A204FF6FF739A422CD007
:10CF9C004FF0030A25895544ADB228460CF057FCD6
:10CFAC00814688B301462068FFF784FA22896168BC
:10CFBC0009EB0A0019F024F900954B46424621462C
:10CFCC003046FFF7C9FE0390C8B9C7B10C9BB3B18B
:10CFDC00C7F800900C9B1D8004E0784604F0C0FD5F
:10CFEC00C7E7039804B0BDE8F087BDF80830FF2B05
:10CFFC0002D94FF0020ACDE74FF0010ACAE74846C2
:10D00C000CF029FC0398EDE70420EBE738B5044657
:10D01C00C0884FF6FF7398420BD1E389022B48D09E
:10D02C0003EB4303244A02EB83031D1D5C680022BF
:10D03C0007E003F00FFB03460028EED03AE055F86A
:10D04C00224024B90132012AF9D9282412E094FA99
:10D05C00A4F4B4FA84F404F01F0404EB421409E0C1
:10D06C0092FAA2F2B2FA82F202F01F0202EB43141D
:10D07C0000E02824282C1AD0A0B203F095FB03461C
:10D08C00C0B90134272CF4D8630955F8232004F0D7
:10D09C001F040121A14049420A40002AE0D101337A
:10D0AC00012B02D855F82320F7E72824E2E70023C8
:10D0BC0000E00023184638BD9420002038B5224BE0
:10D0CC001A7842F004021A70D3B213F0020F36D160
:10D0DC0013F0010F26D0002401E00134A4B2012C7E
:10D0EC0020D8C4EBC402194B03EBC2039A894FF648
:10D0FC00FF739A42F1D0C4EBC400144B03EBC00095
:10D10C00FFF784FFE8B9114BC4EBC40203EBC20276
:10D11C00917C6FF3010191741346CAB26FF38702CD
:10D12C009A74DAE7FFF742FD074B1B7813F0010FF7
:10D13C0001D0002038BDFFF7A1FD0020FAE70B203D
:10D14C00F8E70B20F6E700BF902000201C20002001
:10D15C002DE9F04F8DB0054600F11404204604F083
:10D16C001BFC10B90DB0BDE8F08F4FF6FF73ADF896
:10D17C002A300AA92046FFF79BFD099008B100242C
:10D18C003DE00DF12A01204603F05EFC0028F6D0AC
:10D19C00784604F0E5FCF2E7BDF82A103046FFF7BC
:10D1AC0003FA81463EE0414BD3F80435404AC4EBC8
:10D1BC00C40102EBC10032F8312041880696CDF84B
:10D1CC0014B0CDF81090CDF80CA002910192394A10
:10D1DC0000924FF48662384907200BF0BBFE4CE0FE
:10D1EC00C4EBC402324B03EBC2039A6A0B9902EBF9
:10D1FC00C10256681A6B2946A0B2B0470134012C03
:10D20C00B0DCC4EBC4032A4E06EBC306099B002B0F
:10D21C00C2D0B389BDF82890994514BF4FF00009CE
:10D22C004FF00109224AC4EBC40302EBC30393F889
:10D23C00348008F0010AC4EBC403DB0008331A4441
:10D24C00EB8B590952F8217003F01F020123934014
:10D25C001F4014BF4FF0010B4FF0000B0BAA2968B5
:10D26C003046FFF781F90646144B1B6813F4005F38
:10D27C0003D0134B1B68062B95DCBAF1000FBDD005
:10D28C00B9F1000FBAD0002FB8D0002EB6D02B7D3C
:10D29C00012BA5D1C4EBC402054B03EBC2031A6BE3
:10D2AC002946A0B201F08EFD9AE700BF00100140A4
:10D2BC001C2000207C6803004D680300841F0020A4
:10D2CC00801F0020F0B5D1B0044600285BD0206848
:10D2DC00FFF7BCF84F90BDF83C617F2E00F09980B1
:10D2EC004D4B1B6813F4005F03D04C4B1B68042B95
:10D2FC004DDCE06903F023FC0746A06903F008FC51
:10D30C004F9B459325680493BDF812204FF6FF738D
:10D31C009A4248D003231D444695A3884F9A049201
:10D32C00BDF812104FF6FF72914242D003229B1AA5
:10D33C009EB2ADF81C61237A8DF820316389ADF86B
:10D34C002231E3684993237C8DF82831638AADF848
:10D35C002A3163694B9394F820308DF83031ADF855
:10D36C003271636A4D93ADF838012B4B1B6813F483
:10D37C00005F4BD0294B1B68042B47DD802E28BF48
:10D38C00802600232BE0784604F0EAFB9FE7244B31
:10D39C00D3F804350196234A0092FD222249052038
:10D3AC000BF0D8FDA5E7FF2E01D90223B3E701232B
:10D3BC00B1E7FF2E01D90222B9E70122B7E7EA5CF7
:10D3CC001A490C681009590014F800C004A800F898
:10D3DC0013C002F00F020131A25C42540133B3427C
:10D3EC00EDD304AA002302F8163003F1804303F5B1
:10D3FC008833D3F8043502920D4A01920D4A0092FB
:10D40C004FF48A72084905200BF0A4FD45A8FFF7DC
:10D41C009FFE51B0F0BD00BF841F0020801F002074
:10D42C0000100140D46803004D680300881F0020E1
:10D43C00E86803007468030008B5037813B1142B73
:10D44C0004D008BD0430FFF73DFFFAE7C388022B78
:10D45C00F7D1034A137843F002031370F1E700BFCE
:10D46C0090200020B1B1F0B585B0064614461D469B
:10D47C000F468AB193B103AB0022FFF7B1F908B99B
:10D48C0003980CE000952346002239463046FFF7FE
:10D49C0063FC04E00E2070470E2000E00E2005B067
:10D4AC00F0BD08B501F0DCFC01F02CF9FFF71EFC17
:10D4BC00FFF746FD08BD000008B5FFF717FC0C4848
:10D4CC000C4B03600EF074F801F0B6FC01F0FEF8A2
:10D4DC0001F0A0FA084B1A786FF300021A70D2B25E
:10D4EC006FF341021A70D2B26FF382021A7008BD48
:10D4FC001020002045D4010090200020002800F0CE
:10D50C00AF8070B50C460546002900F0AB80C368AF
:10D51C001BB18368002B00F0A7804FF6FF732380AC
:10D52C00EB681BB9AB68002B40F0A080AB88002BDC
:10D53C0040F09E8004F056FA002841D1224629681A
:10D54C00A888FEF745FF50B12388C3EBC3034B4AB1
:10D55C0002EBC30393F8343013F0010F30D1E968B8
:10D56C00A868FEF7EEFF002800F0848023884FF6B1
:10D57C00FF72934265D022882969404BC2EBC202EC
:10D58C0003EBC20211632288A968C2EBC20203EB4F
:10D59C00C2029162E9682288C2EBC20203EBC202AA
:10D5AC00918522886969C2EBC20203EBC2029161C8
:10D5BC002288C2EBC20103EBC1039A82002058E01F
:10D5CC000F2056E093B223804FF6FF72934253D054
:10D5DC002A4EC3EBC30306EBC303DA802388C3EBE9
:10D5EC00C30306EBC3039A802388A988C3EBC30348
:10D5FC0006EBC303998123886988C3EBC30306EB4D
:10D60C00C303598023882988C3EBC30326F833103E
:10D61C002388C3EBC30306EBC3035A742988A88879
:10D62C00FEF7B6FE2388C3EBC30206EBC20292F8E8
:10D63C00343043F0010382F834302088FFF786FA47
:10D64C0099E70022012ABED8C2EBC2000B4901EBBC
:10D65C00C00191F8341011F0010FB3D00132F1E791
:10D66C000E2070470E2004E00E2002E0092000E09E
:10D67C00052070BD0720FCE70420FAE71C200020E1
:10D68C0070B584B049B304460D460022ADF80E20A7
:10D69C000DF10E03009302ABFFF762FC0646A8B92E
:10D6AC00C4EBC4020E4B03EBC203DB7C13F0070F7D
:10D6BC000FD0D30010330A491944BDF80E30009333
:10D6CC00029B2A460331204601F0B6F9304604B0DD
:10D6DC0070BD02980CF0BFF8F8E70E26F6E700BF15
:10D6EC001C20002059B110B582B014460A4644B132
:10D6FC00002300932146FFF733FC02B010BD0E202F
:10D70C0070470E20F9E7000008B501280DD9002359
:10D71C000BB3272921D8C0EBC002114B03EBC2037A
:10D72C00DB888B420FD1002008BDC0EBC0020C4B34
:10D73C0003EBC20393F8343013F0010F01D1002333
:10D74C00E6E70123E4E7064B03EBC203D980FFF7BE
:10D75C00FDF90020E8E70520E6E70720E4E700BF35
:10D76C001C2000200A46D1B101280AD90023C3B1DC
:10D77C00C0EBC0000C4B03EBC003DB881380002014
:10D78C007047C0EBC001084B03EBC10393F8343076
:10D79C0013F0010F01D10023E9E70123E7E70E2085
:10D7AC0070470520704700BF1C200020012829D895
:10D7BC0008B5C0EBC002164B03EBC20393F8343030
:10D7CC0013F0010F20D0124B03EBC203DB7C03F0F0
:10D7DC00070301F0070293420AD1C0EBC0020C4BC5
:10D7EC0003EBC203DA7CC1F3C403B3EBD20F0DD04D
:10D7FC00C0EBC002064B03EBC203D974FFF7A6F9CA
:10D80C00002008BD052070470520FAE70020F8E746
:10D81C001C20002091B1012812D8C0EBC0020A4B89
:10D82C0003EBC20393F8343013F0010F0AD0064B0C
:10D83C0003EBC203DB7C0B70002070470E2070479B
:10D84C0005207047052070471C2000208C4659B3DA
:10D85C0062B301281AD9002353B3C0EBC001164B95
:10D86C0003EBC1039B692BB3134B03EBC101897C05
:10D87C00C1F301018CF80010C0EBC00003EBC00336
:10D88C009B7CC3F38503137000207047C0EBC00171
:10D89C00094B03EBC10393F8343013F0010F01D1A2
:10D8AC000023D9E70123D7E70E2070470E207047DD
:10D8BC0005207047062070471C20002070B584B0EE
:10D8CC00054600238DF80F308DF80D300DF10D024B
:10D8DC000DF10F01FFF7BAFFE8B9114EEC00C5EBE3
:10D8EC00C50306EBC3039B8C009303AB0DF10E0237
:10D8FC009DF80D109DF80F00FEF7C6FF641BE400A9
:10D90C00103430199DF80C209DF80E10043000F0E6
:10D91C0009FF04B070BD784604F022F9DDE700BFC2
:10D92C001C200020012818D808B5C0EBC0020F4BF2
:10D93C0003EBC20393F8343013F0010F0FD00B4BF1
:10D94C0003EBC2039B6963B169B1084B03EBC203E0
:10D95C009984FFF7B3FF002008BD05207047052010
:10D96C00FAE70620F8E70720F6E700BF1C200020A6
:10D97C0001283BD810B50446C0EBC000214B03EB8B
:10D98C00C00393F8343013F0010F31D01D4B03EB6F
:10D99C00C0039B6973B33F2A2ED803292ED8194B89
:10D9AC0003EBC0039B7CB2EB930F07D1154B03EB3E
:10D9BC00C0039B7C03F003038B4221D0114BC4EBBF
:10D9CC00C40003EBC00090F812C062F3870C80F81F
:10D9DC0012C05FFA8CF261F3010282742046FFF7E9
:10D9EC006DFF2046FFF7B2F8002010BD05207047F0
:10D9FC000520FAE70620F8E70720F6E70720F4E70A
:10DA0C000020F2E71C20002010B5044603F0EAFFCA
:10DA1C00002841D1012C17D90023002B3ED0C4EB98
:10DA2C00C402204B03EBC203DB89022B38D100204C
:10DA3C0001282FD800EB40031B4A12F8233013F0B7
:10DA4C00010F0FD00130F3E7C4EBC402154B03EB0D
:10DA5C00C20393F8343013F0010F01D10023DCE73B
:10DA6C000123DAE703F0FB03114600EB40029200BE
:10DA7C008B5443F001038B5480B2C4EBC402094BAA
:10DA8C0003EBC203D881FEF7F7FF2046FFF75EF8E1
:10DA9C00002006E0042004E00F2002E0052000E056
:10DAAC00002010BD1C2000209420002038B5012837
:10DABC001FD90023BBB3C0EBC0021E4B03EBC20348
:10DACC00DB89022B31D0272931D803EB43031A4AC7
:10DADC0002EB830304334FEA511C53F82C5001F032
:10DAEC001F0101228A4015EA020410D000242046AE
:10DAFC0038BDC0EBC0020F4B03EBC20393F83430BC
:10DB0C0013F0010F01D10023D4E70123D2E7154311
:10DB1C0043F82C50C0EBC000064B03EBC003D88974
:10DB2C00FEF7AAFFE3E70524E1E70624DFE7072475
:10DB3C00DDE700BF1C2000209420002003460128B4
:10DB4C001FD90022CAB3C3EBC3001F4A02EBC002A9
:10DB5C00D289022A33D0272933D810B502EB4202DE
:10DB6C001A4800EB820204324FEA511C52F82C4046
:10DB7C0001F01F01012000FA01F114EA01000ED19D
:10DB8C0010BDC0EBC000104A02EBC00292F834206A
:10DB9C0012F0010F01D10022D4E70122D2E724EACE
:10DBAC00010442F82C40C3EBC303074A02EBC30346
:10DBBC00D889FEF761FF0020E2E7052070470620B8
:10DBCC0070470720704700BF1C20002094200020C5
:10DBDC0000293FD02DE9F843054617468846002A10
:10DBEC003AD001280FD90023002B37D0C5EBC50242
:10DBFC001E4B03EBC203DB89022B31D0B7F800902C
:10DC0C0000243C800EE0C0EBC002184B03EBC203B7
:10DC1C0093F8343013F0010F01D10023E4E7012312
:10DC2C00E2E70134272C13D8C5EBC500A6B2314668
:10DC3C000E4B03EBC000FEF7B7FC0028F1D03B887D
:10DC4C0099450FD928F813603B8801333B80E8E7EE
:10DC5C00002008E00E2070470E2004E0052002E0B2
:10DC6C00062000E00920BDE8F88300BF1C2000203E
:10DC7C0038B5012817D900234BB3112929D8C0EB8B
:10DC8C00C003DB000833144A1A444FEA511C52F803
:10DC9C002C4001F01F0101238B4014EA030510D026
:10DCAC000025284638BDC0EBC0020B4B03EBC2036A
:10DCBC0093F8343013F0010F01D10023DCE701237A
:10DCCC00DAE71C4342F82C40FEF740FFE9E7052554
:10DCDC00E7E70725E5E700BF1C20002003460128E5
:10DCEC0017D9002262B311292CD810B5C3EBC3028B
:10DCFC00D2000832144800EB020C4FEA511E5CF8BB
:10DD0C002E4001F01F0101228A4014EA02000ED1BC
:10DD1C0010BDC0EBC0000C4A02EBC00292F83420DC
:10DD2C0012F0010F01D10022DCE70122DAE724EA2C
:10DD3C0002044CF82E401846FEF708FF0020E7E7D7
:10DD4C0005207047072070471C200020B1B330B568
:10DD5C008E46AAB3012805D900239BB3158800234E
:10DD6C0013800EE0C0EBC001184B03EBC10393F81A
:10DD7C00343013F0010F01D10023EEE70123ECE75F
:10DD8C000133072B18D8C0EBC001C90008310F4C68
:10DD9C0021445C0951F8244003F01F0C012101FAC5
:10DDAC000CF10C42ECD011888D420DD92EF81130AB
:10DDBC00118801311180E3E7002030BD0E2070473F
:10DDCC000E20FAE70520F8E70920F6E71C200020D2
:10DDDC0008B501280DD900230BB3112921D8C0EBAC
:10DDEC00C002114B03EBC2039B888B420FD1002066
:10DDFC0008BDC0EBC0020C4B03EBC20393F83430EC
:10DE0C0013F0010F01D10023E6E70123E4E7064BF1
:10DE1C0003EBC2039980FEF799FE0020E8E705208A
:10DE2C00E6E70720E4E700BF1C2000200A46D1B13A
:10DE3C0001280AD90023C3B1C0EBC0000C4B03EB83
:10DE4C00C0039B88138000207047C0EBC001084BB7
:10DE5C0003EBC10393F8343013F0010F01D100230D
:10DE6C00E9E70123E7E70E2070470520704700BF64
:10DE7C001C20002000B585B08DF8070043B2002BA4
:10DE8C000CDBC2B2012A0BD0064B986903900DF142
:10DE9C0007010BF0BDF905B05DF804FB0720FAE7AC
:10DEAC000720F8E7F0680300014B1878704700BFB3
:10DEBC00601F00200A46D1B101280AD90023C3B142
:10DECC00C0EBC0000C4B03EBC0031B7C1370002099
:10DEDC007047C0EBC001084B03EBC10393F834301F
:10DEEC0013F0010F01D10023E9E70123E7E70E202E
:10DEFC0070470520704700BF1C20002008B5012882
:10DF0C000FD900231BB381F080037E2B21D9C0EBEA
:10DF1C00C002114B03EBC2035B7C8B420FD1002080
:10DF2C0008BDC0EBC0020C4B03EBC20393F83430BA
:10DF3C0013F0010F01D10023E4E70123E2E7064BC4
:10DF4C0003EBC2035974FEF701FE0020E8E705203D
:10DF5C00E6E70720E4E700BF1C2000200A46D1B109
:10DF6C0001280AD90023C3B1C0EBC0000C4B03EB52
:10DF7C00C0035B7C137000207047C0EBC001084BE2
:10DF8C0003EBC10393F8343013F0010F01D10023DC
:10DF9C00E9E70123E7E70E2070470520704700BF33
:10DFAC001C200020E0B908B5034600EB40020D48E8
:10DFBC0030F812208A4201D1002008BD024603EB42
:10DFCC00430002EB400C22F810109CF8052042F0A4
:10DFDC0001028CF805201846FEF78AFD0020ECE7BC
:10DFEC00052070470420002041B148B900EB4000E7
:10DFFC00044A32F810200A80002070470E20704727
:10E00C00052070470420002049B150B900EB4000B6
:10E01C00054B03EB40039B780B70002070470E20E0
:10E02C0070470520704700BF0420002049B150B94B
:10E03C0000EB4000054B03EB4003DB780B7000203A
:10E04C0070470E2070470520704700BF0420002049
:10E05C000A46F9B101280FD90023EBB10F49C0EBE7
:10E06C00C00301EBC3035B885380C0EBC00031F8E5
:10E07C003030138000207047C0EBC001074B03EB1E
:10E08C00C10393F8343013F0010F01D10023E4E7FE
:10E09C000123E2E70E207047052070471C2000206A
:10E0AC0000B583B001915AB3964658BB4FF6FF7337
:10E0BC001380034601E001339BB2012B1CD8C3EB48
:10E0CC00C301114A02EBC10292898242F3D10E4A7A
:10E0DC0002EBC1025188BDF806209142EBD1C3EB93
:10E0EC00C30C094A32F83C10BDF804209142E2D12D
:10E0FC00AEF80030002000E0052003B05DF804FB12
:10E10C000E20FAE70520F8E71C20002031B330B5CB
:10E11C000C462AB330BB15880023138000E0013372
:10E12C00012B19D8B2F800E0AE451DD2C3EBC30CDD
:10E13C000E4901EBCC0191F8341011F0010FEED027
:10E14C000A4901EBCC0189898142E8D124F81E30BF
:10E15C00118801311180E2E7002030BD0E2070479C
:10E16C000E20FAE70520F8E70920F6E71C2000202E
:10E17C000A46D1B101280AD90023C3B1C0EBC000B3
:10E18C000C4B03EBC0031B6B136000207047C0EB00
:10E19C00C001084B03EBC10393F8343013F0010FAB
:10E1AC0001D10023E9E70123E7E70E2070470520A2
:10E1BC00704700BF1C2000202DE9F04104460128C7
:10E1CC003DD90023002B48D0254F4FEAC408C4EB9F
:10E1DC00C400C0001030384400221146043000F056
:10E1EC00A1FA204600F078FEA8EB040607EBC60661
:10E1FC00F08802F085FA4FF6FF73F380B380F27C5F
:10E20C006FF30202F274D2B26FF3C702F2740025FC
:10E21C007574B27C65F38702B274D2B265F30102F5
:10E22C00B274B27D65F38702B275B37D65F30103F9
:10E23C00B3752046FEF78AFC2846BDE8F081C0EB9A
:10E24C00C002074B03EBC20393F8343013F0010FF9
:10E25C0001D10023B6E70123B4E70520EDE700BFA9
:10E26C001C20002011281AD830B583B00546002494
:10E27C0001E00134A4B2012C0ED80DF106012046A8
:10E28C00FFF7D4FD0028F4D1BDF80630AB42F0D135
:10E29C002046FFF791FFECE7002003B030BD0720CC
:10E2AC0070470000837803F00303032B22D8DFE8C8
:10E2BC0003F0020D141A83789B0810B4194A1168E4
:10E2CC0019448160184B1B68002416E0827802F018
:10E2DC00FC0303EB92035B00EFE783789B0864225B
:10E2EC0002FB03F3E9E783789B0841F2707202FBAF
:10E2FC0003F3E2E77B461C46DB681BB19A688A1A7B
:10E30C00002AF8DA2CB143B1E060C3605DF8044B2D
:10E31C007047C360044B1860F8E7E0600023C360EB
:10E32C00F4E700BFC8200020D020002010B5714BAE
:10E33C0019688B7803F003036F4A1278934240F309
:10E34C00B5808C686D4B1B68E41A6D4B03FB04F4B1
:10E35C00032A26D8DFE802F0022A2123684BB4FBFB
:10E36C00F3F4644B1B689B7803F00303022B36D049
:10E37C00032B57D0012B1BD000231846002B40F049
:10E38C00AC800EF06BF804465B4B1B78032B00F251
:10E39C008680DFE803F07D8980825A4BDFE75A4B99
:10E3AC00DDE7784603F0DCFB0023D8E7574BD6E7D4
:10E3BC0003F1CC33A3FB0423DB0803EB8303B4EBA3
:10E3CC00430F02D000231846D8E70EF047F800F5AB
:10E3DC00742000F510700123474A1370CEE7464BAA
:10E3EC001A783AB94A4BA3FB04135B09642101FB6D
:10E3FC0013436BB1012A02D000231846BEE7454BEC
:10E40C00A3FB0423DB0803EB8303B4EB430F3CD1E6
:10E41C000EF024F803463B481844374B02221A707E
:10E42C000123ABE7344B1A7842B93B4BA3FB0413E3
:10E43C00DB0941F2707101FB134383B1012A04D053
:10E44C00022A16D00023184698E7344BA3FB04137A
:10E45C009B094FF4167101FB1343002BF0D10DF007
:10E46C00FDFF034628481844234B03221A7001234E
:10E47C0084E72B4BA3FB04235B09C3EB0313B4EB23
:10E48C00830FECD00023184678E70023184675E775
:10E49C001B48204421E01B48FBE71B48F9E7784662
:10E4AC0003F05EFB0020F4E71848F2E70DF0D6FF0E
:10E4BC000446104B1B689B7803F00303032B11D805
:10E4CC00DFE803F002150C0E0D482044094B1B68C5
:10E4DC009B78C3F30103084A137010BD0948F4E795
:10E4EC000948F2E7784603F03BFB0020EDE70748CC
:10E4FC00EBE700BFD0200020CD200020C82000205A
:10E50C00A0860100809698000046C32340420F006D
:10E51C001F85EB51CDCCCCCCF1197605B5814E1BBA
:10E52C008988888838B5294B1B7873B9284B1B68A8
:10E53C00002B43D0FFF7FAFE0146244B1B78002B2F
:10E54C0034D024480EF0D6F93BE0224B5D680DF038
:10E55C0085FF0446204B1B78032B16D8DFE803F00D
:10E56C00021A11131D4B601B18441B4B1B789BB9D3
:10E57C004CF2503398420FD9194A13680133136087
:10E58C00D4E7184BEFE7184BEDE7784603F0E8FAC1
:10E59C000023E8E7154BE6E74009154BA3FB0030D9
:10E5AC000F4A136803EBD0131360BFE7074B01222C
:10E5BC001A70084841600EF055F902E0034B1B78C5
:10E5CC0003B938BD03480EF07DF9FAE7CC200020E2
:10E5DC00D0200020B0200020CD200020A0860100FB
:10E5EC00C8200020809698000046C32340420F00AC
:10E5FC00C55A7C0A30B583B006E063680199284699
:10E60C0098472046FFF74EFE104B1C68CCB1A36810
:10E61C000F4A1268934204D00D4A12689B1A002BC1
:10E62C000FDA2588E268094B1A600023019301A9CF
:10E63C002846FFF79DFD0028DFD0784603F090FABE
:10E64C00DBE7FFF76FFF03B030BD00BFD020002029
:10E65C00C820002008B5134B1B78032B1ED8DFE80D
:10E66C0003F0020C1116104A1368013313600F4BA0
:10E67C0000221A70FFF7BEFF08BD0B4A13680A335D
:10E68C001360F4E7084A136864331360EFE7064A33
:10E69C00136803F5BB5310331360E8E7784603F0B7
:10E6AC005FFAE4E7CD200020C8200020CC20002019
:10E6BC0010B50446FFF7F6FD034B1B68A34200D0D0
:10E6CC0010BDFFF72FFFFBE7D0200020084A0023E6
:10E6DC00136053609360D36013615361054991607B
:10E6EC00054A1360054A1360054A1370704700BF52
:10E6FC00B020002061E60100C8200020D0200020BE
:10E70C00CC20002008B5054B1B7813B9FFF7DEFFB2
:10E71C0008BD03480EF0D6F8F8E700BFCC20002067
:10E72C00B020002070B50E461546044628B108F0FE
:10E73C00D3FC154B1B68002005E0784603F010FA5B
:10E74C00F5E71846DB680BB1A342FAD1A27866F361
:10E75C000102A270D2B265F38702A27013B138B174
:10E76C00DA68C26045B903B150B108F0FBFC70BD6A
:10E77C00D968054A1160F5E72046FFF799FFF4E7E1
:10E78C00FFF7D0FEF1E700BFD020002000234FF6AA
:10E79C00FF70012B23D800B504E0184601339BB25F
:10E7AC00012B1AD803EBC30291000D4A0A4492F8CC
:10E7BC003920002AF2D04FF6FF729042EDD0084A71
:10E7CC001144096B00EBC00E4FEA8E0C6244126BC5
:10E7DC008A1A002AE2DA1846E0E75DF804FB704773
:10E7EC00D420002070B5044600EBC0021A4B03EB9A
:10E7FC00820393F8393033B3174BB3F8603033B32B
:10E80C00154A04EBC40302EB8303002183F839108F
:10E81C00B2F86030013B9BB2A2F8603023B91346CA
:10E82C004FF6FF72A3F862200B4DE60004EBC40315
:10E83C0005EB8303986A0BF00EF8264405EB86056E
:10E84C000023AB6270BD784603F08AF9D4E77846B2
:10E85C0003F086F9D4E700BFD4200020F8B50546B4
:10E86C003D4BB3F860301BB105F57A7700241FE0FF
:10E87C00784603F075F9F7E72046FFF7B3FF15E08C
:10E88C0006EBC603344A02EB830292F83830013BA4
:10E89C00DBB282F83830002B39D02F4A06EBC60396
:10E8AC0002EB8303596B1A6B0A441A630134A4B24A
:10E8BC00012C30D8264604EBC402274B03EB820311
:10E8CC0093F83930002BF1D0234B03EB82031B6BF5
:10E8DC00DB1B002BEADA20489100183100EB820296
:10E8EC00938D926A01442046FEF7BCFD102808D88F
:10E8FC000123834048F211121342C1D1174A13422B
:10E90C00BAD10028BCD0784603F02AF9B8E72046E3
:10E91C00FFF768FFCAE7FFF739FF0F4BA3F8620058
:10E92C00B3F86030A3B101280CD80B4BB3F86220BC
:10E93C0002EBC20203EB82031B6B5A1B06D4064B81
:10E94C00DA60F8BD784603F00BF9EEE7EA1AF6E761
:10E95C00014B0022DA60F4E7D4200020A002010071
:10E96C002DE9F84304460F46154699460DF076FD01
:10E97C008046154E04EBC40C06EB8C0C0CF1180EF7
:10E98C0095E80F008EE80F00CCF82890BDF82030E9
:10E99C00ACF82C303B78C3F302038CF838303A785F
:10E9AC00D2084CF2503302FB0333CCF834304344DE
:10E9BC00CCF8303001238CF83930B6F860300133A4
:10E9CC00A6F86030BDE8F883D420002010B50446CA
:10E9DC00FFF7DCFE0E4BB3F86230834211D00C4BC8
:10E9EC00A3F862004FF6FF7398420DD00848B0F8B8
:10E9FC00623003EBC30300EB8303196B0DF07AFF5A
:10EA0C0010BDA342FCD1EAE7784603F0A9F8EDE784
:10EA1C00D420002010B5064C64220021204617F0AB
:10EA2C0025FC044BA3604FF6FF73A4F8623010BDB5
:10EA3C00D420002069E801002DE9F04182B00446A1
:10EA4C000D4616461F46BDF8208001281FD815B369
:10EA5C002EB32B7813F0070F25D047B3B8F1000F66
:10EA6C0029D004EBC402184B03EB820393F8393022
:10EA7C002BBBCDF800803B46324629462046FFF79B
:10EA8C006FFF2046FFF7A2FF02B0BDE8F081784689
:10EA9C0003F066F8DBE7784603F062F8D8E77846CF
:10EAAC0003F05EF8D5E7784603F05AF8D5E77846D8
:10EABC0003F056F8D2E7784603F052F8D1E7204637
:10EACC00FFF790FED5E700BFD42000204FF6FF7370
:10EADC000B80002300E00133012B0FD80B4A4FF0C1
:10EAEC002C0C0CFB032292F84020002AF3D0074A8E
:10EAFC000CFB0322128B8242EDD10B8008884FF65F
:10EB0C00FF73C01A18BF0120704700BF3C210020C2
:10EB1C00124B2C2202FB00339B6B1149194400232E
:10EB2C004FF6FF7001E001339BB2012B14D80B4A56
:10EB3C004FF02C0C0CFB032292F84020002AF2D050
:10EB4C00064A0CFB0322926BA2EB010CBCF1000FEA
:10EB5C00E9DA18461146E6E7704700BF3C21002071
:10EB6C000087930310B50446204B2C2202FB003384
:10EB7C0093F84030B3B11D4BB3F87030B3B11B4AAE
:10EB8C002C2303FB0423002183F84010B2F87030CF
:10EB9C00013B9BB2A2F8703023B3B2F87230A3429F
:10EBAC0008D010BD784602F0DBFFE4E7784602F0AF
:10EBBC00D7FFE4E72046FFF7ABFF0C4BA3F872003E
:10EBCC004FF6FF73984209D00848B0F872302C22E7
:10EBDC0002FB0303996B0DF08DFEE2E7784602F021
:10EBEC00BFFFF1E701480DF06DFEDAE73C21002094
:10EBFC00F0B585B005466C4BB3F870305BB16B4B20
:10EC0C0001221A7005F57A76674B4FF6FF72A3F85E
:10EC1C007220002492E0784602F0A2FFEFE7624AED
:10EC2C002C2303FB0423002183F84010B2F870104E
:10EC3C000139A2F8701003A9188BFFF799FA48B99B
:10EC4C00594B2C2202FB04335F6B01220399188B66
:10EC5C00B84772E0784602F083FFF1E7524BA3F815
:10EC6C0072402C2204FB02F202F1180119441344E5
:10EC7C000431188BFEF704FD074640B14C4B1B6862
:10EC8C0013F4005F03D04B4B1B68042B0ADCAFB1B1
:10EC9C00082F13D0042F2AD00F2F28D0784602F03B
:10ECAC005FFF15E0444BD3F804350190434A0092C2
:10ECBC008322434905200AF04DF9E8E73A4B2C2210
:10ECCC0002FB0433DA6B996B114499635200DA63DB
:10ECDC00354B2C2202FB04331A6B9B6BD31A002B83
:10ECEC002BDA314B2C2101FB04339A6325E02E4A9D
:10ECFC002C2303FB0422936B03F51C4340339363D7
:10ED0C00294BB3F87030002B49D0274BB3F8723035
:10ED1C00012B3ED8244BB3F872202C2101FB02337B
:10ED2C009B6B5A1B39D4204BDA60204B00221A7093
:10ED3C0005B0F0BD1C4BA3F872400134012CDFD898
:10ED4C00194B2C2202FB043393F84030002BF4D0E7
:10ED5C00154B02FB04331B6B9B1B002BFFF65FAFA9
:10ED6C00114B2C2202FB04339B6B9A1B002AFFF6DF
:10ED7C0075AF0D4AB2F872204FF6FF718A42D9D0A6
:10ED8C0009492C2000FB0212926B9B1A002BD4DA3F
:10ED9C00D0E7784602F0E4FEBCE7EA1AC3E7024B80
:10EDAC000022DA60C1E700BF3C210020382100209E
:10EDBC00841F0020801F00200010014060690300A8
:10EDCC004D69030070B582B004460E461546012805
:10EDDC0015D808F081F90DF106012046FFF776FEF3
:10EDEC0048B1BDF80600134B2C2202FB00339A8D60
:10EDFC0033889A4207D008F0B5F902B070BD784656
:10EE0C0002F0AEFEE5E70B4B2C2202FB0033DA8D51
:10EE1C0073889A42EFD1FFF7A5FEBDF80620054B8B
:10EE2C002C2101FB02335B6B0022294620469847BC
:10EE3C00E1E700BF3C21002010B5064C74220021F4
:10EE4C00204617F013FA044BA360044B00221A70EF
:10EE5C0010BD00BF3C210020FDEB0100382100203B
:10EE6C0070B582B008F038F91A4BB3F870300BB9A2
:10EE7C0000240BE017480023A0F870300DF022FDA1
:10EE8C00F6E7022201992846B0470134012C1CD820
:10EE9C00104B2C2202FB043393F84030002BF4D09F
:10EEAC000C4802FB04F3C1180D8B4E6B1833002178
:10EEBC00184417F0DBF901A92846FFF759F9002887
:10EECC00DFD0784602F04CFEDBE708F04BF902B0DD
:10EEDC0070BD00BF3C21002010B582B0012803D9C1
:10EEEC000524204602B010BD044608F0F5F80DF1DB
:10EEFC0002012046FFF7EAFD18B9052408F032F9A3
:10EF0C00EFE7BDF80200FFF72DFE01A92046FFF741
:10EF1C002FF960B9BDF80220074B2C2101FB0233FD
:10EF2C005B6B02220199204698470024E6E778465D
:10EF3C0002F016FEEEE700BF3C21002003460F4A0C
:10EF4C00126812F0010F0AD00D4A128890420AD3AF
:10EF5C000B4840880244934207DB002200E0002269
:10EF6C00104622B970470022FAE70122F8E74B80DD
:10EF7C0001230B7000234B60F4E700BFB421002089
:10EF8C00142500200B88072B07D801334FF6FF728E
:10EF9C000A80072B21D810B40BE00023F6E703EB13
:10EFAC0083020F4C34F8222082420FD00133072BFE
:10EFBC000FD85A090B4C54F8224003F01F0C0122B5
:10EFCC0002FA0CF21442EAD10B80EFE70B8001201D
:10EFDC0000E000205DF8044B70470020704700BF34
:10EFEC008C2A0020B82100204FF6FF730B800023E1
:10EFFC001F2B22D810B407E00C884FF6FF729442F6
:10F00C0015D001331F2B14D85A090D4C54F822403B
:10F01C0003F01F0C012202FA0CF21442ECD0094A44
:10F02C0032F823208242ECD10B80012002E00B80CD
:10F03C00E7E700205DF8044B70470020704700BFE5
:10F04C00B0210020BC2100204FF6FF730B80002361
:10F05C00092B27D810B407E00C884FF6FF729442A6
:10F06C0018D00133092B19D85A090F4C54F82240E7
:10F07C0003F01F0C012202FA0CF21442ECD01622FF
:10F08C0003FB02F2094CA25A8242EAD108330B80EC
:10F09C00012004E003F108020A80E2E700205DF899
:10F0AC00044B7047002070479023002094230020CD
:10F0BC004FF6FF730B800023072B24D810B407E006
:10F0CC000C884FF6FF72944217D00133072B16D8D9
:10F0DC005A090E4C54F8224003F01F0C012202FA7C
:10F0EC000CF21442ECD02A2203FB02F2084CA25A76
:10F0FC008242EAD10B80012002E00B80E5E7002080
:10F10C005DF8044B70470020704700BF3C22002084
:10F11C0040220020F0B515680023136000E0013395
:10F12C00072B24D84FEA531C134C54F82C4003F0F3
:10F13C001F0E4FF0010C0CFA0EFC14EA0C0FEED063
:10F14C000E4C4FF02A0C0CFB034CBCF802408442D2
:10F15C00E5D11668AE420CD02A2403FB04F4074F09
:10F16C003C5B21F81640146801341460D7E7012089
:10F17C00F0BD0020FCE700BF3C2200204022002014
:10F18C0070B40D6800230B6000E00133072B18D816
:10F19C005A090E4C54F8224003F01F0C012202FABB
:10F1AC000CF21442F1D00C68AC420DD0AC2203FB33
:10F1BC0002F2074EB25A20F814200A6801320A6093
:10F1CC00E3E7012070BC70470020FBE728250020F6
:10F1DC002C25002010B54FEA501C1C4C54F82C4028
:10F1EC0000F01F0E4FF0010C0CFA0EFC14EA0C0F81
:10F1FC002AD0174C4FF0AC0C0CFB004090F864007C
:10F20C0010B114788C4208D010B1187888420DD007
:10F21C0013788B4211D0002010BD1C788C42F3D196
:10F22C0002990A60039A13600120F5E7029A1360B1
:10F23C000023039A13600120EEE7029B1A6000235F
:10F24C00039A13600120E7E70020E5E7282500205A
:10F25C002C250020844690B10023092B0DD81622B2
:10F26C0003FB02F207498A5A624501D00133F4E7E5
:10F27C00162202FB03100430704700207047002058
:10F28C00704700BF94230020112869D810B40728B8
:10F29C0034D8374C072833D803464FEA531C54F85C
:10F2AC002C4003F01F034FF0010C0CFA03F31C422B
:10F2BC0058D00C884FF6FF739C4224D00B88072B38
:10F2CC0052D859092B4C54F8214003F01F0C012142
:10F2DC0001FA0CF10C4249D0072836D82649AC2447
:10F2EC0004FB031393F86430022B1ED0234B2A210A
:10F2FC0001FB00330433136000202EE0204CC9E7DF
:10F30C00A0F10803C9E7072806D81C4B2A2404FBE4
:10F31C0000335B880B80D1E7A0F10804194B4FF048
:10F32C00160C0CFB04335B88F4E7144B2A2101FB0D
:10F33C0000339B7D002BD9D000FB01F110310F4B1A
:10F34C000B4407331360002007E008380D4B1621DF
:10F35C0001FB00330433136000205DF8044B70474D
:10F36C00052070470520F8E70820F6E70820F4E7A9
:10F37C003C220020282500202C25002040220020A3
:10F38C0090230020942300200A4B23F8210003EB48
:10F39C0081030022DA709A704FEA511C064801F082
:10F3AC001F0101228A4050F82C30134340F82C30B6
:10F3BC00704700BFBC210020B021002010B582B0E6
:10F3CC0001900A46BDF80630A3F5805399B21F2967
:10F3DC0011D84B09094850F8234001F01F000123B4
:10F3EC0083401C4003D00024204602B010BD10887E
:10F3FC00FFF7CAFFF8E70524F6E700BFB0210020AD
:10F40C0010B582B001900C46BDF80630012B09D125
:10F41C00082323800A22A280638023812023E38097
:10F42C0002B010BD784602F09BFBF1E710B582B03C
:10F43C0001900C46BDF80630012B15D12388082B02
:10F44C0016D1A3880A2B16D16388082B15D12389D2
:10F45C00082B14D1E388202B13D10B4A137843F0DB
:10F46C0001031370002004E0784602F079FBE5E715
:10F47C000B2002B010BD0B20FBE70B20F9E70B2093
:10F48C00F7E70B20F5E700BF2425002010B582B06C
:10F49C0001900C46BDF80630022B09D1084B1B68B5
:10F4AC0013F0010F08D0074B1B68236002B010BD8E
:10F4BC00784602F055FBF1E7784602F051FBF2E793
:10F4CC00B42100201425002030B583B001900D46E6
:10F4DC00BDF80640A4F58054A4B21F2C0FD86309C4
:10F4EC000B4A52F8232004F01F0101238B401A42CF
:10F4FC0009D0084B33F824302B8003B030BD78464C
:10F50C0002F02EFBEBE7784602F02AFBF1E700BF96
:10F51C00B0210020BC21002010B5044648B10D4B91
:10F52C009C4213D303F2B4439C4206D94FF6FF70AE
:10F53C000EE0784602F014FBF1E7A3F2B440201A77
:10F54C00054BA3FB0030C0F34F1001E04FF6FF70EA
:10F55C0010BD00BFA025002083BEA02F10B504460F
:10F56C0008B100200EE0784602F0FAFAF9E7AC2276
:10F57C0000FB02F22032134B13440233A34220D07F
:10F58C00013080B207281AD802460E4BAC2101FB81
:10F59C00003393F86430002BE9D000FB01F12031EB
:10F5AC00084B0B440233A3420BD0AC2303FB02F2F7
:10F5BC004032044B13440333A342E1D101E04FF634
:10F5CC00FF7010BD2C25002010B5044698B100200A
:10F5DC00072816D8154B2A2202FB00330433A3420A
:10F5EC000DD000FB02F21032104B13440733A34230
:10F5FC0005D00130ECE7784602F0B2FAE7E780B2CA
:10F60C0010BD0B4B9C420ED3C6339C4202D94FF615
:10F61C00FF70F5E7C63BE31A064AA2FB03231B095E
:10F62C00083398B2ECE74FF6FF70E9E74022002070
:10F63C0098230020A38B2EBAF8B504460D46164627
:10F64C001F461068002872D0FFF7BEFF00F1010CB6
:10F65C0019E06BB1394B2A2202FB0C339B7D3BB179
:10F66C00364B02FB0C331B7E6B4013F03F0F4CD020
:10F67C00324B2A2202FB0C335B796B4013F03F0FA9
:10F68C004DD00CF1010CBCF1070F53D84FEA5C1EA6
:10F69C002B4B53F82E300CF01F024FF0010E0EFACC
:10F6AC0002FE13EA0E0FECD0244B2A2202FB0C3381
:10F6BC005B88A342E5D1234BAC2202FB043393F8C5
:10F6CC006430002BC5D01D4A2A2101FB0C22927DEF
:10F6DC00002ABED0194A01FB0C2252796A4012F062
:10F6EC003F0FB6D1154A01FB0C22127E6A4012F074
:10F6FC003F0FAED1114B01FB0CF299180431316064
:10F70C001032134407333B6017E002FB0CF210324B
:10F71C000A4B13440733336000233B600DE0074B67
:10F72C0002FB0C330433336000233B6005E04FF0E5
:10F73C00000CA8E7002333603B60F8BD402200209A
:10F74C003C2200202C25002030B583B001900D46C2
:10F75C00BDF80630022B08D10E4B1C6814F00104C6
:10F76C0007D00024204603B030BD784602F0F8F9EB
:10F77C00F2E728880BF0E2FF012808D12A68064B33
:10F78C001A60044A136843F001031360EAE70B2480
:10F79C00E8E700BFB42100201425002070B5054611
:10F7AC000C4616464FF6FF730B800BF0C7FF3070FC
:10F7BC00022823D0032841D0012841D0002070BD5D
:10F7CC0003EB8302204931F82220AA4213D00133E3
:10F7DC00072B15D821884FF6FF729142F0D15A09A8
:10F7EC001A4951F8221003F01F00012282401142E5
:10F7FC00E6D12380EBE723800120E0E70023E7E755
:10F80C000020DCE7124A32F82320AA4213D001333D
:10F81C001F2B17D821884FF6FF729142F2D15A094B
:10F82C000C4951F8221003F01F00012282401142B2
:10F83C00E8D12380EBE723800120C0E70023E7E732
:10F84C000023E5E70020BAE78C2A0020B82100202D
:10F85C00BC210020B021002030B583B001900D46B2
:10F86C00BDF80640A4F50054A4B2072C18D86309BF
:10F87C000F4A52F8232004F01F0101238B401A4237
:10F88C0012D004EB84040B4B03EB84035868996887
:10F89C00DA681B6928606960AA60EB6003B030BD50
:10F8AC00784602F05DF9E2E7784602F059F9E8E7AC
:10F8BC00B82100208C2A002030B583B001900D4671
:10F8CC00BDF80640A4F5A044A4B2092C22D86309C3
:10F8DC00144A52F8232004F01F0101238B401A42D2
:10F8EC001CD0114A162303FB04F41319D3F806E0B9
:10F8FC00D3F80AC0D3F80E00D3F81210C5F804E000
:10F90C00C5F808C0E8602961125B2A805B886B80AF
:10F91C0003B030BD784602F023F9D8E7784602F000
:10F92C001FF9DEE79023002094230020F0B5083B5C
:10F93C00134C4FF0160E0EFB03FE04EB0E0C176867
:10F94C0056689568D268CCF80670CCF80A60CCF88A
:10F95C000E50CCF8122000228CF8052001228CF8D5
:10F96C000420ACF8021024F80E005809054903F0E5
:10F97C001F039A4051F82030134341F82030F0BD5A
:10F98C00942300209023002010B582B00190BDF884
:10F99C000630A3F5A04292B2092A19D80846540998
:10F9AC000C4951F8244002F01F02012101FA02F225
:10F9BC00144003D00024204602B010BDA3F59F4391
:10F9CC00783B9BB2021D41880088FFF7AFFFF2E73E
:10F9DC000524F0E79023002010B5A1F1200404EBDE
:10F9EC008402114901EB8201D0F800E0D0F804C088
:10F9FC008268C368C1F804E0C1F808C0CA600B6132
:10FA0C000BF072FE58B96009084904F01F0401227A
:10FA1C00A24051F82030134341F8203010BD7846F5
:10FA2C0002F09EF8EFE700BF8C2A0020B8210020DE
:10FA3C0010B582B001900846BDF80610A1F5005330
:10FA4C009BB2072B14D85C090A4A52F8244003F0E5
:10FA5C001F03012202FA03F31C4003D000242046AA
:10FA6C0002B010BDA1F5FF5189B2FFF7B5FFF6E763
:10FA7C000524F4E7B821002030B583B001900C4682
:10FA8C00BDF80650A5F54055ADB2072D2DD8242252
:10FA9C000021204616F0EAFB6B09234A52F823207A
:10FAAC0005F01F0101238B401A4222D01F49AC22C2
:10FABC0005FB02F28B188A5A228093F86420A270FC
:10FACC00D3F802C0D3F80600D3F80A10D3F80E20EE
:10FADC00C4F803C0C4F80700C4F80B10C4F80F2016
:10FAEC0093F864304BB903B030BD784602F038F867
:10FAFC00CDE7784602F034F8D8E7AC2303FB05F5E4
:10FB0C0010350A4B2B44D3F80200D3F80610D3F867
:10FB1C000A20D3F80E30C4F81300C4F81710C4F838
:10FB2C001B20C4F81F30DEE7282500202C250020E0
:10FB3C0070B582B001900C46BDF80650A5F5804515
:10FB4C00ADB2072D2CD826220021204616F08EFBB4
:10FB5C006B09234A52F8232005F01F0101238B4027
:10FB6C001A4221D01F492A2205FB02F28B18D3F826
:10FB7C000660D3F80AE0D3F80EC0D3F81200C4F82C
:10FB8C000560C4F809E0C4F80DC0C4F811008A5A25
:10FB9C0022805A8862809B7D23714BB902B070BD64
:10FBAC00784601F0DDFFCEE7784601F0D9FFD9E7C2
:10FBBC002A2303FB05F510350B462B44D3F809001B
:10FBCC00D3F80D10D3F81120D3F81530C4F8150064
:10FBDC00C4F81910C4F81D20C4F82130DEE700BFAA
:10FBEC003C22002040220020F8B50D4614462D4B37
:10FBFC00AC2204FB02F202F1680119441344996728
:10FC0C00064610B9284B01221A70AC2304FB03F3EF
:10FC1C00203324491944023128460BF026FDC0BB81
:10FC2C00AC2304FB03F378331E49194404312846F2
:10FC3C000BF030FD88BB1B4FAC2004FB00F03A18D6
:10FC4C00D5F800E0D5F804C0A968EB68C2F802E06A
:10FC5C00C2F806C0C2F80A10C2F80E3000F1100348
:10FC6C003B440021C3F80210C3F80610C3F80A1075
:10FC7C00C3F80E103E5282F8641060090B4904F070
:10FC8C001F040122A24051F82030134341F82030C8
:10FC9C00F8BD784601F064FFC2E7784601F060FFDA
:10FCAC00C9E700BF2C2500201025002028250020A6
:10FCBC0070B582B00190BDF80640A4F54054A4B2D2
:10FCCC00072C41D80E466309204A52F8235004F001
:10FCDC001F02012393401D4003D00025284602B08B
:10FCEC0070BD31F8030B2246FFF77EFFB278184B3C
:10FCFC00AC2101FB043383F86420002AEED01449B4
:10FD0C00AC2303FB04F404F110030B44D6F813E00A
:10FD1C00D6F817C0D6F81B00D6F81F20C3F802E09F
:10FD2C00C3F806C0C3F80A00C3F80E2040342144BF
:10FD3C00033106F113000BF098FC08B90546CDE72A
:10FD4C00784601F00DFFC9E70525C7E728250020F7
:10FD5C002C25002030B583B001900D46BDF806402F
:10FD6C0004F54054A4B231F8030B2246FFF73CFFD4
:10FD7C00AA78074BAC2101FB043383F86420054AB5
:10FD8C00137843F004031370002003B030BD00BFA0
:10FD9C002C250020242500202DE9F04106460D4697
:10FDAC0010461C461E4B2A2204FB02F29918D0F86E
:10FDBC0000804768D0F808E0D0F80CC0C1F8068085
:10FDCC00C1F80A70C1F80EE0C1F812C01032134429
:10FDDC000022C3F80920C3F80D20C3F81120C3F882
:10FDEC00152005310BF036FCB0B90D492A2304FB64
:10FDFC0003F3CA18002010719075CE52558060091B
:10FE0C00084904F01F040122A24051F8203013438A
:10FE1C0041F82030BDE8F081784601F0A1FEE4E71E
:10FE2C00402200203C22002070B582B00190BDF829
:10FE3C000640A4F58044A4B2072C43D80E466309AF
:10FE4C00214A52F8235004F01F02012393401D4015
:10FE5C0003D00025284602B070BD23464A1D4988B0
:10FE6C003088FFF799FF3279184B2A2101FB0433B4
:10FE7C009A75002AEED00B4604FB03F3103313499A
:10FE8C001944D6F815C0D6F81900D6F81D20D6F8A6
:10FE9C002130C1F809C0C1F80D00C1F81120C1F81A
:10FEAC001530083106F115000BF0D4FB30B9074BB7
:10FEBC002A2202FB04331A79DA75CBE7784601F073
:10FECC004FFEF4E70525C5E73C2200204022002028
:10FEDC00F0B583B001900D46BDF8063003F5005423
:10FEEC00A4B2072C1AD903F580539CB2072C3AD82C
:10FEFC0001261E4A137843F00403137023462A1D6F
:10FF0C0069882888FFF748FF2746194B2A2202FBED
:10FF1C0004339E7526B9002003B0F0BD0026E8E737
:10FF2C0002FB04F41034124921446C69A869EA6993
:10FF3C002B6AC1F80940C1F80D00C1F81120C1F8B5
:10FF4C001530083105F114000BF084FB38B9084B5F
:10FF5C002A2202FB07331A79DA750020DCE778468F
:10FF6C0001F0FEFDF3E70520D6E700BF24250020B5
:10FF7C004022002010B584B0094A52F8044B039477
:10FF8C006B4607CA03C31A806946204609F040F93C
:10FF9C0008B904B010BD784601F0E2FDF9E700BFE6
:10FFAC00F869030030B583B005460C460023ADF864
:10FFBC0000304B0952F8232001F01F0101238B4024
:10FFCC001A420CD00123ADF804302C44ADF8064095
:10FFDC006946019809F01CF928B903B030BD784680
:10FFEC0001F0BEFDEEE7784601F0BAFDF5E7000042
:04FFFC00002940D0C8
:020000022000DC
:1000000070B582B0054614460E460DF1070201A9EF
:10001000FFF7CAFB2CB99DF80730032B01D0102045
:100020001DE0012C1DD078B9BDF804104FF6FF7308
:10003000994228D02846FFF7ADF9144ABDF80410BC
:100040004FF48050FFF7B4FFBDF80430338084B91B
:100050000F4A02EB8303DA780132DA70002002B033
:1000600070BD9DF80730032BDDD0012BDBD01020B5
:10007000F5E7074A02EB83039A7801329A70002071
:10008000EDE70E2070470420E9E700BFB021002013
:10009000BC210020284B1B7813F0040F4AD030B548
:1000A00083B0254B1A786FF382021A70234B1B69B9
:1000B0000193002400E00134072C18D86309204A7A
:1000C00052F8232004F01F0101238B401A42F2D082
:1000D000A5B205F54053ADF80630019809F0D0F807
:1000E000174A29464FF44050FFF762FFE3E7134BEE
:1000F0005B690193002400E00134072C18D86309E0
:10010000104A52F8232004F01F0101238B401A42A9
:10011000F2D0A5B205F58043ADF80630019809F09C
:10012000AFF8084A29464FF48040FFF741FFE3E764
:1001300003B030BD704700BF24250020F8690300DC
:10014000282500203C2200202DE9F04182B0804685
:100150000C4615464F0952F8273001F01F020126C0
:100160009640334212D00123ADF804304444ADF838
:100170000640019809F084F860B955F8273023EA61
:10018000060345F8273002B0BDE8F081784601F05B
:10019000EDFCE8E7784601F0E9FCEEE710B51F2832
:1001A0000BD843092A4A52F8232000F01F010123EB
:1001B0008B401A4226D1002200E0002222BBA0F18F
:1001C00020039BB2072B0BD85C09224951F824402D
:1001D00003F01F03012101FA03F31C4200D00A4679
:1001E000002A32D0203881B201EB81021A4B03EB96
:1001F00082039B7823B9184B03EB8203DB78D3B1DE
:10020000002010BD0122D9E7144B03EB80039B783B
:1002100023B9124B03EB8003DB780BB10020F0E72E
:100220000E4B002223F82020094A01464FF480504B
:10023000FFF78AFFF2E79300074A0020D052054AF1
:100240004FF40050FFF780FFDAE70520D9E700BF41
:10025000B0210020B82100208C2A0020BC210020E1
:1002600008B5064B1A786FF300021A70D2B26FF31A
:1002700041021A70012009F02FF808BD2425002042
:1002800070B506460D464FF6FF730B8000240BE059
:1002900004EB8403104800EB830010223146043045
:1002A00016F01AF898B10134072C13D863090B4AD9
:1002B00052F8232004F01F0101238B401A42E7D19A
:1002C0002A884FF6FF739A42EDD12C80EBE72C8001
:1002D000012000E0002070BD8C2A0020B821002001
:1002E000F0B583B04FF6FF73ADF80630002840D06C
:1002F0000C461646074600293DD00DF10601FFF7D2
:10030000BFFFBDF8063003F12005ADB270B94FF65E
:10031000FF72934231D029463846FFF763FB184AF3
:10032000BDF806104FF40050FFF742FE258086B955
:10033000BDF80630134A03EB830102EB8101C97853
:1003400003EB830302EB83024B1CD370002003B04A
:10035000F0BDBDF806300B4A03EB830102EB8101CF
:10036000897803EB830302EB83024B1C937000201C
:10037000EDE70E20EBE70E20E9E70420E7E700BFFA
:10038000B82100208C2A002030B583B005460C46E9
:10039000486820B10DF10601FFF772FF18B94FF65A
:1003A000FF73ADF806300DF106012846FEF7F0FDAB
:1003B000B0B1BDF8063003EB83030A4A02EB8303B6
:1003C000DB7863B1658002232370BDF8063003EB50
:1003D0008302044B03EB82030433636000E00020DC
:1003E00003B030BD8C2A002010B504464FF6FF73D1
:1003F0000B8000230CE05A09144850F8220003F047
:100400001F0C012202FA0CF2104209D10B800133B9
:100410001F2B13D8B1F800C04FF6FF729445EAD0F5
:100420000B4A32F82320A242F1D1094A02EB83029F
:10043000D278002AEBD00B80012006E008F0AEFC59
:100440004088A04214BF0020012010BDB021002030
:10045000BC21002000B583B0488003230B7000232B
:100460004B604FF6FE7398420ED007D8031D9BB227
:10047000012B15D8002003B05DF804FB4FF6FF7385
:1004800098420DD10120F6E701A9012007F096FC62
:1004900010B99DF80400EEE7784601F067FBF8E735
:1004A00001A9FFF7A1FFE6E70388012B02D0012B8A
:1004B0000ED07047B0F802C0ACF5405292B2072A95
:1004C000F5D81429F3D1ACF5C04CA0F802C07047A0
:1004D0004288A2F580439BB2072BEAD8242905D095
:1004E0001429E6D1A2F5C0424280E2E7A2F5A0427B
:1004F0004280704708B5094B1B7813F0020F0AD1F0
:1005000013F0010F03D0FFF7C5FD002008BDFFF772
:1005100037FD0020FAE70B20F8E700BF2425002074
:1005200008B5002206E0154B03EB82030021D970C9
:10053000997001321F2AF6D9002308E003EB8302E9
:1005400091000F4A0A440021D17091700133072BAA
:10055000F4D900230B4A13600B4A13600B4A136053
:100560000B4A13600B4A13600B4A13600B4A13804B
:1005700053800B4A1370FFF773FE08BDBC210020A7
:100580008C2A0020B4210020B0210020B8210020B6
:10059000282500203C220020902300201425002044
:1005A0001025002008B50748074B03600BF006F83C
:1005B000064B1A786FF341021A70D2B26FF3000241
:1005C0001A7008BD1825002069110200242500209A
:1005D00038B5054670B1164B1C6814F0010424D1DF
:1005E0006B8823B128880BF0AFF8012806D00B24C4
:1005F000204638BD784601F0B9FAECE728886B88C8
:10060000184480B2013880B20BF09EF80128EED178
:10061000074A136843F0010313602968054B19600A
:1006200000210220FFF7C4FCE2E70F24E0E700BF4F
:10063000B42100201425002010B5044618B1044B45
:100640001B68236010BD784601F090FAF7E700BF01
:100650001425002008B50122FFF7D0FC08BD0000DA
:1006600010B41F280BD84309214A52F8232000F068
:100670001F0101238B401A4217D1002200E0002203
:10068000AAB9A0F120039BB2072B0BD85C0919492A
:1006900051F8244003F01F03012101FA03F31C4227
:1006A00000D00A46C2B9002302E00122E8E7012394
:1006B000DBB11F2812D920380F4B00EB800203EB6F
:1006C0008202927800EB800003EB800301329A7083
:1006D00000205DF8044B70470123E9E7074B03EB6B
:1006E00080039A7801329A70F2E70520F1E700BFA3
:1006F000B0210020B82100208C2A0020BC2100203D
:1007000008B50122FFF7ECFD08BD000010B51F2859
:100710000BD843091E4A52F8232000F01F01012381
:100720008B401A4217D1002200E00022AAB9A0F1A2
:1007300020039BB2072B0BD85C09164951F82440C3
:1007400003F01F03012101FA03F31C4200D00A4603
:1007500062B9052010BD0122E8E70F4B03EB8003CF
:100760009A78013A9A70FFF719FDF3E7A0F1200398
:100770000A4A03EB830102EB8101897803EB8303CF
:1007800002EB83024B1E9370FFF708FDE2E700BF08
:10079000B0210020B8210020BC2100208C2A00209C
:1007A00008B50022FFF72AFC08BD08B50022FFF7B4
:1007B00097FD08BD10B41F280BD84309214A52F8F1
:1007C000232000F01F0101238B401A4217D1002281
:1007D00000E00022AAB9A0F120039BB2072B0BD89E
:1007E0005C09194951F8244003F01F03012101FA63
:1007F00003F31C4200D00A46C2B9002302E00122E2
:10080000E8E70123DBB11F2812D920380F4B00EB9A
:10081000800203EB8202D27800EB800003EB8003BE
:100820000132DA7000205DF8044B70470123E9E7DC
:10083000074B03EB8003DA780132DA70F2E7052028
:10084000F1E700BFB0210020B82100208C2A002051
:10085000BC210020002940D038B50C461F280BD8F9
:100860004309204A52F8232000F01F0101238B4046
:100870001A4226D1002200E0002222BBA0F1200370
:100880009BB2072B0BD85D09174951F8255003F08F
:100890001F03012101FA03F31D4200D00A46F2B101
:1008A0002038124B00EB800233F82220628000EBEC
:1008B000800003EB80030433636002232370002075
:1008C00038BD0122D9E70A4B33F8200060800AF0D6
:1008D0003BFF207000206060F2E70E20704705208B
:1008E000EEE700BFB0210020B82100208C2A0020B4
:1008F000BC21002010B582B004461F280BD8430944
:100900002E4A52F8232000F01F0101238B401A4287
:1009100017D1002200E00022AAB9A4F120039BB263
:10092000072B0BD85809264951F8200003F01F0364
:10093000012101FA03F3184200D00A46DAB9002374
:1009400002E00122E8E70123ABB369462046FFF746
:1009500081FF60BB9DF80030032B0ED0022B28D105
:10096000A4F1200303EB8301164A02EB8102D27843
:100970009AB9052020E00123E6E7134B03EB84033B
:10098000DB780BB9052017E00F4A02EB8402013B2C
:10099000D3702046FFF702FC0EE00B46094901EB3D
:1009A0008303013ADA702046FFF7F8FB04E00020E9
:1009B00002E00F2000E0052002B010BDB0210020B1
:1009C000B82100208C2A0020BC210020B8B310B52B
:1009D0008646B1B30023184600E001331F2B11D81F
:1009E0005A091A4C54F8224003F01F0C012202FA53
:1009F0000CF21442F1D00A68824224D02EF8103052
:100A00000130EAE7002305E003F120022EF8102070
:100A100001300133072B0FD85A090D4C54F82240EE
:100A200003F01F0C012202FA0CF21442F1D00A6802
:100A30008242E9D1092007E00860002004E00E208E
:100A400070470E2000E0092010BD00BFB02100203B
:100A5000B821002070B330B583B00C46054659B3B9
:100A600040880AF071FE02280FD0032804D0012824
:100A700002D0102003B030BD21466888FEF7BAFAD4
:100A800008B10020F6E70520F4E74FF6FF73ADF854
:100A90000630686850B10DF10601FFF7F1FB38B17F
:100AA000BDF80630203323800020E3E70E20E1E785
:100AB0000520DFE70E2070470E20DBE700B58646F5
:100AC0004FF6FF70002304E04FF6FF72904217D0FC
:100AD0000133072B16D85A090E4951F8221003F09A
:100AE0001F0C012202FA0CF21142EDD0AC2203FBE2
:100AF00002F209498A5A9645EAD198B2012302E0E6
:100B000098B2E5E700230BB15DF804FB4FF6FF70E8
:100B1000FAE700BF282500202C25002018B108B5D1
:100B2000FEF722FD08BD4FF6FF70704700B583B099
:100B30000DF10601FEF7C2FA20B1BDF8060003B0C0
:100B40005DF804FB4FF6FF70F9E718B108B5FEF742
:100B500041FD08BD4FF6FF70704700000A46A1B185
:100B6000072814D843090C4951F8231000F01F0C32
:100B7000012303FA0CF319420BD02A2303FB00F0E4
:100B8000064B1B5A1380002070470E20704705202B
:100B900070470520704700BF3C2200204022002003
:100BA00011286AD838B504460D46002967D00728B1
:100BB00030D84309354A52F8232000F01F010123A1
:100BC0008B401A425DD0324B2A2202FB00335B88F5
:100BD000072B17D82E4B2A2202FB04335B885909B6
:100BE0002C4A52F8211003F01F03012202FA03F3EA
:100BF00019420BD0264B2A2202FB04335B882B8040
:100C0000002038BD784600F0B1FFE3E7784600F0F9
:100C1000ADFFEFE7A0F1080462091F4B53F8222053
:100C200004F01F0101238B401A422CD01B4B1622CB
:100C300002FB04335B88072B17D8184B162202FBE4
:100C400004335B885909134A52F8211003F01F033B
:100C5000012202FA03F319420BD0104B162202FBB9
:100C600004335B882B800020CBE7784600F07EFFC2
:100C7000E3E7784600F07AFFEFE7052070470E20A3
:100C8000BFE70520BDE70520BBE700BF3C220020F1
:100C900040220020282500209023002094230020BB
:100CA000002900F08D8070B5C6B0054614460E468A
:100CB000002A00F08780B0F5805F80F085804FF6D5
:100CC000FF731380002305E021884FF6FF729142E5
:100CD00016D00133072B15D859093F4A52F8212065
:100CE00003F01F00012181400A42EDD0AC2203FB3A
:100CF00002F23A498A5A9542EBD12380012302E05D
:100D00002380E6E700236BB123883448AC2202FB42
:100D1000030010223146023015F0DEFA002856D1C9
:100D2000032052E022884FF6FF739A4251D0314699
:100D30002846FEF75FFF284A21884FF44050FFF70E
:100D400037F92388AC2202FB03F388332349194483
:100D5000043128460AF03FFC214B1B6813F4802F16
:100D600003D0204B1B68062B28DC00202DE0F25C12
:100D70001D490C6810095900255C05A800F813509E
:100D800002F00F020131A25C425401330F2BEED965
:100D900005AA00238DF8343003F1804303F588332E
:100DA000D3F804350292114A0192114A009240F69A
:100DB00027121049072008F0D3F8D6E70023E5E70B
:100DC0000E2070470E2000E0072046B070BD0F20B7
:100DD000FBE70420F9E700BF282500202C25002090
:100DE000841F0020801F0020881F0020C869030086
:100DF00074680300B1690300072813D843090B4A3C
:100E000052F8232000F01F0C012303FA0CF31A42BE
:100E10000AD0074BAC2202FB003393F864300B700E
:100E200000207047052070470520704728250020C6
:100E30002C25002000296CD0F8B504460846072C64
:100E400069D86309374A52F8232004F01F010123AF
:100E50008B401A4261D0344BAC2202FB043393F82E
:100E6000643083B1012B5AD1134604FB03F31033D2
:100E70002D4A134410220146981C15F02DFA002823
:100E80004AD0082048E02849AC2204FB02F202F1D3
:100E900010030B449D1C07684668D0F808E0D0F8A2
:100EA0000CC0C3F80270C3F80660C3F80AE0C3F8C8
:100EB0000EC04032114403310AF0DDFB08BBAC2305
:100EC00004FB03F3903318491944043128460AF00F
:100ED000E7FBD0B91448AC2304FB03F3C11801228B
:100EE00081F8642003F1A00101440431C05A09F0E3
:100EF00065FE0C4A21464FF44050FFF759F8002098
:100F00000AE0784600F032FED9E7784600F02EFE7F
:100F1000E0E70E2070470520F8BD0520FCE708201B
:100F2000FAE700BF282500202C25002007282CD810
:100F300010B504464309174A52F8232000F01F0158
:100F400001238B401A4222D0134BAC2202FB003308
:100F500093F86430012B01D0082010BD0E481346D1
:100F600004FB03F3C118022281F8642003F1A001FD
:100F700001440431C05A09F021FE064A21464FF4CB
:100F80004050FFF715F80020E7E7052070470520DF
:100F9000E3E700BF282500202C250020072800F2C9
:100FA000AF8070B505464309574A52F8232000F038
:100FB0001F0101238B401A4200F0A480534BAC2246
:100FC00002FB003393F864300BB9082070BD4F4A20
:100FD000AC2100FB01F1501801F110031344D3F8C8
:100FE00002C0D3F80660D3F80A40D3F80E30C0F838
:100FF00002C0C0F80660C0F80A40C0F80E3001F127
:101000002003134440311144CA1C02332331D2F867
:1010100000C056689468D068C3F800C05E609C60E9
:10102000D860103210338A42F1D112781A70374EDC
:10103000AC2005FB00F000F17803334400F190028E
:10104000324454689168D2F80CE0D2F810C05C6069
:101050009960C3F80CE0C3F810C0546991695C61F1
:1010600099613318002483F8644000F18801314409
:1010700022460431305A09F0A1FD00E00134072C6A
:1010800036D86309224A52F8232004F01F010123B5
:101090008B401A42F2D01F4B2A2202FB04335B889A
:1010A000AB42EBD11B4B02FB04339B7D002BE5D005
:1010B000184B114604FB01F15A1810310B44D3F8B8
:1010C00007C0D3F80B60D3F80F00D3F81310C2F8A1
:1010D00004C09660D0601161B3F81730938200238A
:1010E00093750B4AA1B24FF48040FEF761FFC5E74C
:1010F000054A29464FF44050FEF75AFF002065E7A5
:1011000005207047052061E7282500202C250020B8
:101110003C2200204022002070B504460D469DF878
:101120001060FEF7FFF94FF6FF73984202D02034AB
:10113000AC4200D070BD56B10A4BAC2202FB00336A
:1011400093F86430012BF5D1FFF7F0FEF2E7054B81
:10115000AC2202FB003393F86430002BEAD0FFF797
:101160001DFFE7E72C2500200378042B02D0142B69
:1011700010D0704700B583B0037E427E0092003BE2
:1011800018BF0123426981684068FFF7C5FF03B0BB
:101190005DF804FBC388012B00D07047024A137826
:1011A00043F00203137070472425002040B108B5B6
:1011B00041B1FDF7EBFF08B1002008BD0920FCE7B5
:1011C0000E2070470E20F8E7002A67D0F0B5C7B0B0
:1011D00007460C461D461646002B61D00AF0B4FAAD
:1011E00001285FD1072C60D86309344A52F82320C4
:1011F00004F01F0101238B401A4258D00DF58B716A
:101200003846FDF727FF002853D1BDF816314FF6B9
:10121000FF7293424FD0324621463846FEF78CFB90
:10122000BDF816110839264A89B24FF4A040FEF7DE
:10123000BFFEBDF816312B80224B186810F48020B9
:1012400031D0214B1B68062B26DC00202BE0F25C02
:101250001E490C6810095900255C05A800F81350B8
:1012600002F00F020131A25C425401330F2BEED980
:1012700005AA00248DF83440154BD3F804350292AA
:10128000144A0192144A009240F62722134907207B
:1012900007F066FE204606E00023E7E70E207047D1
:1012A0000E2000E0102047B0F0BD0520FBE7052030
:1012B000F9E70F20F7E70420F5E700BF2825002015
:1012C00090230020841F0020801F0020881F002002
:1012D00000100140D869030074680300B16903007D
:1012E000A0F1080189B2092919D84B090D4A52F811
:1012F000232001F01F00012383401A4201D1052061
:10130000704710B5162301FB03F30024064AD4529C
:10131000044A4FF4A040FEF717FF204610BD0520F9
:10132000704700BF9023002094230020002A6AD039
:10133000F0B5C7B006460C461D461746002B64D0D4
:10134000072964D84B09374A52F8232001F01F01BE
:1013500001238B401A425CD0B0F5805F5BD22946F6
:10136000FDF7ACFE68B12B882F482A2202FB030050
:1013700010223946063014F0AFFF00284ED103206A
:101380004AE02B884FF6FF72934249D03A462146F5
:101390003046FEF707FD254A29884FF48040FEF7C6
:1013A00007FE234B186810F4802035D0214B1B68B2
:1013B000062B01DC00202FE000230F2B0FD8FA5C56
:1013C0001D490C6810095900255C05A800F8135048
:1013D00002F00F020131A25C42540133EDE705AA8D
:1013E00000248DF83440154BD3F804350292144A8A
:1013F0000192144A009240F676221349072007F022
:10140000AFFD204608E00E2070470E2004E00520C6
:1014100002E0052000E0072047B0F0BD0F20FBE709
:101420000420F9E728250020402200203C2200204B
:10143000841F0020801F0020881F00200010014012
:10144000E869030074680300B169030000295FD0F4
:1014500010B504460846072C5CD86309304A52F898
:10146000232004F01F0101238B401A4254D02D4B3E
:101470002A2202FB04335A882B4BAC2101FB023396
:1014800093F86430012B49D1264B2A2202FB043306
:101490009B7D73B1134604FB03F31033214A1344BD
:1014A0001022014603F1090014F016FF98B308203A
:1014B00031E01C492A2304FB03F3CA184FF0010C46
:1014C00082F816C010331944D0F800E0D0F804C0F8
:1014D0008268C368C1F809E0C1F80DC0C1F81120E5
:1014E000C1F8153008310AF0BBF868B90D4B2A2253
:1014F00002FB04331A79DA75094A21464FF4804019
:10150000FEF756FD002006E0784600F02FFBEDE7E1
:101510000E207047052010BD0520FCE70820FAE7E3
:101520003C220020402200202C250020072814D82F
:1015300008B5014643090A4A52F8232000F01F006B
:10154000012383401A4201D1052008BD044A4FF40B
:101550008040FEF7F9FD0020F7E70520704700BF47
:101560003C22002007286ED838B504464309394A82
:1015700052F8232000F01F0101238B401A4264D04F
:10158000344B196811B90821002518E091FAA1F12E
:10159000B1FA81F101F01F01F6E72E4A52F823203B
:1015A0001AB90133F9D0082109E092FAA2F2B2FA8D
:1015B00082F202F01F0202EB431100E00821082929
:1015C0000FD0013501310729F8D84B09214A52F8CB
:1015D000232001F01F01012000FA01F149420A40D5
:1015E000DEE7012D33D0002503E0784600F0BEFA97
:1015F0000135072D16D86B09174A52F8232005F03C
:101600001F0101238B401A42F2D0144B2A2202FB05
:1016100005335B88A342EBD1A8B2FFF787FF002810
:10162000E6D0E2E7AC2304FB03F30D4AD35A13B927
:101630000C4B00221A70074A21464FF44050FEF727
:1016400083FD002038BD052070470520FAE70F20F4
:10165000F8E700BF282500203C220020402200207F
:101660002C25002010250020B9B18C46BAB10728DE
:1016700017D808B543090D4951F8231000F01F0E83
:10168000012303FA0EF319420DD06146FDF748FD20
:1016900008B1002008BD0920FCE70E2070470E208D
:1016A0007047052070470520F4E700BF282500207B
:1016B00010B582B0ADF806001AB30B4614460432DA
:1016C0000DF106011846FDF7E5FD88B9BDF80630B5
:1016D0000D4AAC2101FB032292F86420022A09D0B2
:1016E000AC2202FB03F32033074A13440233236086
:1016F00002B010BD01FB03F34033034A134403332C
:10170000F5E70E20F4E700BF2C25002010B50C46AD
:10171000FFF7D4F9ACB1072815D843090C4A52F8A1
:10172000232000F01F0101238B401A420DD0AC236F
:1017300003FB00F02030074B0344023323600020FA
:1017400010BD0E20FCE70520FAE70520F8E700BFF2
:10175000282500202C250020F0B583B0064615462C
:101760000F4669B185B106F07F06386880B1FDF794
:10177000FBFE4FF6FF73984225D0013084B208E09B
:10178000784600F0F3F9EDE7784600F0EFF9EAE784
:10179000002400233B602B60072C16D80C4BAC2197
:1017A00004FB01F101F120021A4440310B44019580
:1017B00000970333023231462046FDF711FD20B970
:1017C0000134A4B2E8E70024E3E703B0F0BD00BFB2
:1017D0002C250020F8B504460E461D46174662B17A
:1017E0007DB194B12046FFF799F94FF6FF72904210
:1017F0000FD100233B602B60F8BD784600F0B6F9AE
:10180000EEE7784600F0B2F9EBE7784600F0AEF983
:10181000E8E72B463A463146FDF714FFECE738B5CA
:1018200004460D4621B12046FDF71AFD286038BD5B
:10183000784600F09BF9F6E7F8B5054616460F46E0
:1018400039B156B13868002873D0FDF76BFE441CDF
:101850000DE0784600F08AF9F3E7784600F086F963
:10186000F0E7012300E00023002B45D10134072CD1
:1018700061D86309314A52F8232004F01F01012383
:101880008B401A42F2D02E4BAC2202FB043393F869
:10189000643083B9002DE4D0134604FB03F388338E
:1018A0002749194408220431284614F015FD002860
:1018B000D9D10123D8E7CDB1AC2304FB03F388339E
:1018C0001F49194408220431284614F005FD78B157
:1018D000AC2304FB03F3A033194919440822043153
:1018E000284614F0F9FC28B90123BDE70123BBE722
:1018F0000123B9E70023B7E7124B1B783BB1AC23B8
:1019000004FB03F30E4AD35A8BB9012000E00120F7
:101910000B4BAC2204FB02F2991881F87400703270
:10192000134404333B6091F86430337005E00020C9
:10193000EEE700249BE700233B60F8BD282500204C
:101940002C2500201025002038B504460D4609F04E
:10195000FBFE02280FD0032808D0012801D0002068
:1019600038BD29462046FDF7EFFAF9E7294620461B
:10197000FEF770FDF4E729462046FEF705FDEFE788
:1019800038B50C46054630B129B1054B1A882A8076
:101990005B88238038BD784600F0E8F8F5E700BFA3
:1019A0001425002000B583B00378022B0CD0032B44
:1019B00005D0012B03D0002003B05DF804FB69467D
:1019C0004088FFF7C1FFF7E769464068FEF758FC1B
:1019D0000028F1D0BDF8003003EB8303034A02EB8B
:1019E0008303D878003818BF0120E5E78C2A00204F
:1019F00000B583B001A8FEF71FFEBDF80400003853
:101A000018BF012003B05DF804FB000000B587B0EB
:101A100044F2010398425DD01BD8012836D041F230
:101A20000103984271D1474B1B6813F4804F36D0A5
:101A3000454B1B68002B32DD444BD3F80435029232
:101A40000191434A009263224249012007F088FA3B
:101A500025E044F20203984257D13A4B1B6813F435
:101A6000804F1CD0384B1B68002B18DD374BD3F848
:101A7000043510680390526802920191364A009230
:101A800069223449012007F06BFA08E02D4B1B68EE
:101A900013F4804F03D02C4B1B68002B0DDC4FF050
:101AA000A0434FF4F032C3F81825C3F80C25EFF328
:101AB000108372B64DF6AD6C3DE0244BD3F804357F
:101AC00002920191254A009260222249012007F0EA
