:020000022000DC
:1060000000F0002069630200516302005363020044
:10601000556302005763020059630200000000004C
:106020000000000000000000000000005B630200B0
:106030005D630200000000005F6302006163020014
:106040006363020063630200636302006363020030
:10605000636302006363020045930300636302000D
:1060600063630200636302008D6A030063630200DE
:106070006363020063630200636302006363020000
:106080006363020089F90300A1BB0200636302009D
:10609000EDF9030063630200CD9603006363020021
:1060A00063630200636302006363020063630200D0
:1060B0006363020063630200000000000000000050
:1060C00063630200636302006363020063630200B0
:1060D0006363020063630200636302000000000068
:1060E00000000000000000000000000000000000B0
:1060F00000000000000000000000000000000000A0
:10610000000000000000000000000000000000008F
:10611000000000000000000000000000000000007F
:10612000000000000000000000000000000000006F
:10613000000000000000000000000000000000005F
:10614000000000000000000000000000000000004F
:10615000000000000000000000000000000000003F
:10616000000000000000000000000000000000002F
:10617000000000000000000000000000000000001F
:10618000000000000000000000000000000000000F
:1061900000000000000000000000000000000000FF
:1061A00000000000000000000000000000000000EF
:1061B00000000000000000000000000000000000DF
:1061C00000000000000000000000000000000000CF
:1061D00000000000000000000000000000000000BF
:1061E00000000000000000000000000000000000AF
:1061F000000000000000000000000000000000009F
:10620000334934480A1A02D0072291438D46324955
:1062100032480A1A06D00722914381F309880222E4
:1062200082F314882E482F492F4A00F03FF82F4858
:106230002F49304A00F03AF82F483049304A00F0F0
:1062400035F830483049314A00F030F830483149AB
:10625000314A00F02BF831483149324A00F026F833
:1062600031483249324A00F021F83248324900229E
:1062700000F027F831483249002200F022F8314876
:106280003149091A1AF0EEF91F482049884205D011
:106290000268043003B4904703BCF7E70020864649
:1062A000EC4600200021294A9047FEE7884207D0AB
:1062B000521A05D0037801300B700131013AF9D13F
:1062C0007047884202D002700130FAE77047000040
:1062D00000F0002000E8002000F0002000F0002086
:1062E000A0230400F02D0020782E00209C630200E3
:1062F0009C630200BC060400A0230400F02D0020D3
:10630000F02D0020500A0400500A0400500A040036
:10631000500A0400500A0400500A0400500A040005
:10632000500A04009D23040028240400782E002035
:10633000782E0020782E0020345A0020345A002075
:10634000345A0020345A0020345E00207168020064
:10635000FEE7FEE7FEE7FEE7FEE7FEE7FEE7FEE715
:10636000FEE7FEE700F002B8FFF7FCBF08484FF079
:10637000070188438546074880470748016841F47C
:1063800070010160BFF34F8FBFF36F8FFFF738BF0E
:0C63900000F000200199030088ED00E0FF
:10639C0041DF7047F0B5EBB004464FF0A0434FF42B
:1063AC000032C3F808250022C3F80C2581684A681E
:1063BC0091F90D300078CD7B0E7C4F7C91F812C09A
:1063CC0091F813E0097D0691CDF814E0CDF810C0DA
:1063DC00039702960195009023494AA819F0A1FD54
:1063EC00224B1B6813F4804F33D0214B1B68032BBB
:1063FC002FDD94F801E0BEF1800F28BF4FF0800E26
:10640C00002310E06268D25C1A490D68100959002B
:10641C0015F800C009A800F813C002F00F020131F2
:10642C00AA5C425401337345ECD309AA002302F849
:10643C001E3003F1804303F58833D3F80435029200
:10644C004AAA01920C4A009261220C49042006F0DF
:10645C00F5FB4FF0A0434FF40032C3F80C2500229B
:10646C00C3F808256BB0F0BD500A0400102E0020B4
:10647C000C2E0020142E0020D40A0400CC0A040098
:10648C0000B583B00E4B1B6813F4804F03D00D4B3B
:10649C001B68032B09DC0322C8210F2000F03EFBF4
:1064AC000AF074FB03B05DF804FB074BD3F804351A
:1064BC00064A009296220649042006F0BFFBEAE742
:1064CC00102E00200C2E002000100140DC0A0400CD
:1064DC00CC0A040008B50378232B00D008BDFFF7C5
:1064EC00CFFFFBE708B54023024A0021024810F019
:1064FC0057F908BD782E0020B82E002000B58DB0BD
:10650C002422002103A819F01FFC01238DF80C3064
:10651C0007238DF80F3006238DF814301F4B07938B
:10652C001F4903A80AF0E4FA50B30B2827D11D4BDE
:10653C001B6813F4804F03D01B4B1B68032B13DC1D
:10654C00184B1B6813F4804F1AD0174B1B68032B86
:10655C0016DD164BD3F80435154A0092D022154996
:10656C00042006F06BFB0BE0104BD3F80435124AF9
:10657C000092CF220F49042006F060FBE0E738B907
:10658C000E4804F025F9FFF7ADFF0DB05DF804FBE4
:10659C000B4AD52113F0D0FAF2E700BFE1640200F8
:1065AC00542F0020102E00200C2E00200010014033
:1065BC00480B0400CC0A0400F80A0400A163020092
:1065CC00980A040000B583B019F00EFA00BB00F075
:1065DC00E7FA1D4A04214FF4804006F013FB1B4BD5
:1065EC001B6813F4804F03D0194B1B68032B14DC6E
:1065FC0000F0A8FBFFF782FF144B1B6813F4804FCD
:10660C0003D0134B1B68032B12DC03B05DF804FBA7
:10661C00104AE52113F090FAD9E70F4BD3F8043563
:10662C000E4A0092E9220E49042006F007FBDFE730
:10663C00094BD3F804350B4A0092EF220849042089
:10664C0006F0FCFAE1E700BFE5CB0200102E0020BB
:10665C000C2E0020980A040000100140840B04004A
:10666C00CC0A0400B00B040010B5044600210F2026
:10667C0000F03EFA04EB840462003221032000F0A7
:10668C004DFA10BD08B500F07DFA08BD00B585B017
:10669C0003A80EF095FB0D4B1B6813F4804F03D031
:1066AC000B4B1B68032B02DC05B05DF804FB094B9C
:1066BC00D3F80435BDF80C200192074A0092B5229C
:1066CC000649042006F0BAFAEEE700BF102E0020AF
:1066DC000C2E002000100140CC0B0400CC0A04004E
:1066EC0000B583B0114B1B6813F4804F03D0104BD3
:1066FC001B68032B0FDCFFF7C9FF00F043FA0021E6
:10670C000F2000F0F5F90422C8210F2000F006FA42
:10671C0003B05DF804FB074BD3F80435064A00922E
:10672C00BA220649042006F089FAE4E7102E00206C
:10673C000C2E002000100140E40B0400CC0A0400D5
:10674C0010B509200FF078FD0F4C20460FF0AAFE73
:10675C00122120460FF0DFFEA0B184460B4C0FCC6B
:10676C00CCF81100CCF81510CCF81920CCF81D3051
:10677C002388ACF82130FF238CF8043061460248A2
:10678C000FF008FF10BD00BFB82E0020000C040055
:10679C0000B58BB0274B1B78D3B9039304930593A7
:1067AC000693079308930993234B0493234B059368
:1067BC00234B0793234B0893234B099303A800F017
:1067CC00D5F838B1214A4FF4807113F0B5F901E0D6
:1067DC00FFF75CFFFFF7B4FF00F0FEFB00F014FACC
:1067EC000AF001F9A0B91A4B1B6813F4804F03D0BF
:1067FC00184B1B68032B11DC00210F2000F078F9DB
:10680C000222C8210F2000F089F90BB05DF804FBBF
:10681C000E4A4FF4877113F08FF9E4E70E4BD3F85F
:10682C0004350E4A00924FF488720D49042006F08C
:10683C0005FAE1E7542F0020ED66020075660200B0
:10684C0091660200140C0400540C0400980A040015
:10685C00102E00200C2E0020001001402C0C0400E7
:10686C00CC0A040008B5FFF7ADFEFFF791FFFFF768
:10687C008FFDFCE703781F2B00D07047014B0122E2
:10688C001A70FAE7572F002008B5094B1B7863B92B
:10689C000849094813F00AFE40B9012300220749B0
:1068AC004969074813F01EFE00E0082008BD00BF30
:1068BC00572F0020742F002090320020582F0020DA
:1068CC005C31002008B50378023B082B41D8DFE887
:1068DC0003F01C051140402E404038001F4B9B68B4
:1068EC00002B36D0007A002833D01D4A01211170BC
:1068FC0098472EE0194BDB685BB3194A127842B308
:10690C00174A00211170984723E0164B1B784BB99E
:10691C00124B1B691BB1124A002111709847FFF7EB
:10692C00B3FF16E00D4B5B689BB1984711E010224A
:10693C000A4B99690C4813F058FE50B113F0EEF85D
:10694C0007E08168C0680AF053F818B9054B0122BA
:10695C001A7008BD13F0E2F8F8E700BF582F0020BA
:10696C00552F0020562F00205C31002010B586B02A
:10697C0084461A4A03AB07CA03C323F8022B120C32
:10698C001A70174CA646BCE80F00AEE80F009CE846
:10699C0007008EE80700A369EBB1124B009303AB21
:1069AC00114A1249124813F03FFD034610B1184624
:1069BC0006B010BD0F4815F0E7FA01460C4813F06D
:1069CC005FFD03460028F2D10B4803F0F3FEFFF7FE
:1069DC005BFF0346EBE70723E9E700BF640C040009
:1069EC00582F0020D1680200742F00209032002014
:1069FC005C310020942F0020F02D00204FF0A0439C
:106A0C00D3F80435C34013F0010F0CBF0120002054
:106A1C007047000070B505460024264600E001349E
:106A2C00032C0AD80123A3402B42F8D0044B185D49
:106A3C00FFF7E4FFA0400643F1E7304670BD00BF0E
:106A4C00740C040008B511B112F06FFC08BD12F003
:106A5C0065FCFBE770B50546002400E00134032C0F
:106A6C000FD80123A3402B42F8D0064B1E5D3046B5
:106A7C00FFF7C4FF80F00101C9B23046FFF7E2FF17
:106A8C00ECE770BD740C040010B5144B1B684BB1D3
:106A9C00134B1868FFF7DEFF104B1C68013C1C60A1
:106AAC0024B110BD002013F039F8F1E70D4819F0AE
:106ABC000DF800E00134032CF3D80123A340084A5D
:106ACC0012681342F6D0084B1968E14001F001013D
:106ADC00064B185DFFF7B6FFECE700BFD032002085
:106AEC00D4320020D8320020F8320020740C04007C
:106AFC0070B505460E46002400E00134032C09D87D
:106B0C000123A3402B42F8D03146034B185DFFF70D
:106B1C0099FFF2E770BD00BF740C040042B310B5CE
:106B2C000C461346132900D810BD124A10605B00A6
:106B3C00013B114A1360FFF76DFF104B1860610C9D
:106B4C00E40314F5FA704FF47A724FF0000341F13C
:106B5C00000118F0FBFF01460022094818F094FFD1
:106B6C000028E1D10121034B1868FFF7C1FFDBE7D7
:106B7C00704700BFD4320020D0320020F832002001
:106B8C00D832002008B5044818F0A0FF0021034BB0
:106B9C001868FFF7ADFF08BDD8320020D4320020B2
:106BAC0010B582B012F04CFB40B10024ADF804409B
:106BBC008DF8064001238DF8053007E012F0F8FA45
:106BCC000028F2D012F0AAFFEFE70134032C09D809
:106BDC0001A90A4B185D12F03DFB0028F5D012F00C
:106BEC009DFFF2E7064A0121064818F037FF08B965
:106BFC0002B010BD12F092FFFAE700BF740C040053
:106C0C00956A0200700C0400002800F082802DE9C7
:106C1C00F04FD1B004463F4B1B6813F4804F03D0A8
:106C2C003D4B1B68032B31DC3A4B1B6813F4804F34
:106C3C0003D0394B1B68032B2ADC51B0BDE8F08F15
:106C4C00E25C36490D68100959002E5C0FA800F85B
:106C5C00136002F00F020131AA5C425401330F2B76
:106C6C00EED90FAA00238DF85C3003F1804303F5B5
:106C7C008833D3F804350292294A0192294A0092AA
:106C8C0042222949042005F0D9FFCDE70023E6E78D
:106C9C00264BD3F804350D932068020202F47F02D0
:106CAC0042EA0062010A01F47F4142EA0108B4F8A9
:106CBC0004C04FEA0C2292B2B4F806E04FEA0E215F
:106CCC0089B2257A667AA77AE37A94F80C9094F8CC
:106CDC000DA094F80EB0E47B0B94CDF828B0CDF851
:106CEC0024A0CDF82090079306970596049541EAC9
:106CFC001E21039142EA1C22029248EA1060019084
:106D0C000B4A00920D9B43220749042005F096FF85
:106D1C0093E77047102E00200C2E0020142E00201C
:106D2C00BC0C0400D40A0400A90C0400001001409F
:106D3C00D00C040060DF704769DF704708B503F0C2
:106D4C0041FD08BD10B588B012F060FC00282CD1B4
:106D5C00224B0793079A06920023039304930593FF
:106D6C0003A90120FFF7E8FF10BB00230393049352
:106D7C000593F8230393069A03A9A120FFF7DCFFE0
:106D8C00C8B906A8FFF7D6FF0446069A079B9A4295
:106D9C0008D0134B1B6813F4804F03D0114B1B68A6
:106DAC00012B0BDCB4B908B010BD12F0B7FECFE765
:106DBC0012F0B4FED9E712F0B1FEE2E70A4BD3F8B9
:106DCC0004350192094A0092AB220949022005F0D0
:106DDC0035FFE7E7204612F0A1FEE4E7F02D002096
:106DEC00102E00200C2E0020001001405C0D040021
:106DFC00410D04000620704700B587B044F2010332
:106E0C0098425DD01BD8012836D041F2010398423C
:106E1C0071D1474B1B6813F4804F36D0454B1B6820
:106E2C00002B32DD444BD3F8043502920191434AD6
:106E3C00009263224249012005F000FF25E044F254
:106E4C000203984257D13A4B1B6813F4804F1CD065
:106E5C00384B1B68002B18DD374BD3F80435106802
:106E6C000390526802920191364A00926922344989
:106E7C00012005F0E3FE08E02D4B1B6813F4804F56
:106E8C0003D02C4B1B68002B0DDC4FF0A0434FF4B0
:106E9C00F012C3F81825C3F80C25EFF3108372B663
:106EAC004DF6AD6C3DE0244BD3F8043502920191C4
:106EBC00254A009260222249012005F0BFFEE4E73A
:106ECC001B4B1B6813F4804FDFD01A4B1B68002B35
:106EDC00DBDD194BD3F8043510680490506803902F
:106EEC00029192680192194A00927322144901206E
:106EFC0005F0A4FEC9E70E4B1B6813F4804FC4D0F9
:106F0C000C4B1B68002BC0DD0B4BD3F804350191E7
:106F1C000F4A00927B220A49012005F08FFEB4E74C
:106F2C0030BF0C4B1B78002BFAD107B05DF804FB7B
:106F3C00102E00200C2E002000100140F80D040033
:106F4C00C90D04001C0E0400DC0D04003C0E0400F2
:106F5C00600E0400FC2D002000B583B00146002318
:106F6C000093054B01936A4644F20200FFF744FF7D
:106F7C0003B05DF804FB00BF5C0E040010B40346C4
:106F8C00044C006859689A68DB680FC45DF8044BC0
:106F9C00704700BFFC3200200E4B4FF0805202F1C4
:106FAC00600103C983E8030003F1080CA43292E8E2
:106FBC0003008CE8030093F9062002F00F0242F064
:106FCC0040029A7193F9082002F03F0242F08002CD
:106FDC001A727047FC32002000487047FC320020C7
:106FEC00002308E0074901EBC30000224280426005
:106FFC0001F8332001331F2BF4D9034B00221A6004
:10700C00704700BF0C3300200C34002000B58646BE
:10701C00114B1B684FF0000C0BE01F230F4A12F8AA
:10702C003300B0B102EBC3025288724509D00CF1A7
:10703C00010CBCF11F0F0BD85A1E002BEDD01346C0
:10704C00ECE7064A02EBC30252688A42EFD100E039
:10705C0000205DF804FB00BF0C3400200C33002032
:10706C0010B40B4A13680B4C04EBC30CACF80200C5
:10707C00CCF80410012104F833100B441360202BBE
:10708C0002D05DF8044B7047134600221A60F8E7F3
:10709C000C3400200C3300200021072918D830B400
:1070AC0002E00131072910D84FEA011C094C34F8D1
:1070BC000CC08445F5D104EB0114A568E4689C422E
:1070CC0008BF9542EDD1012000E0002030BC704794
:1070DC00002070471034002030B4C3698469C28822
:1070EC00190A1B06C4F30C0C944519D2A2EB0C0222
:1070FC002244A2F500529A1841F100010A4C23686F
:10710C005D1C256003F00703B0F814C007481C0190
:10711C0000EB031320F804C09A60D96030BC7047B0
:10712C00A2EB0C022244E6E790340020103400203D
:10713C00C37D9BB1C2780B7803F080030B7002F017
:10714C007F0213430B7002780B7803F07F030B70F4
:10715C0043EAC2130B7003789BB97047C2780B7863
:10716C0003F0BF030B70920102F0400213430B704B
:10717C00027903F0C0030B7002F03F0213430B7053
:10718C00E1E78278082A14BF002201224B7803F031
:10719C007F034B7043EAC2134B70C288DBB203F01F
:1071AC0080034B70C2F3861C43EA0C034B708B7844
:1071BC0003F003038B7043EA82038B70027ADBB219
:1071CC0003F0FC038B70C2F3C10C43EA0C038B700D
:1071DC00CB7803F01F03CB7043EA4213CB70427A97
:1071EC00DBB203F0E003CB7002F01F021343CB7051
:1071FC00B3E70000002300E00133032B28D8C3EBD6
:10720C00C30C144A02EB0C1292F84820012AF3D159
:10721C00104A02EB0C12B2F814C0C2899445EBD19F
:10722C00C3EBC30C0B4A02EB0C12D2888A42E3D19B
:10723C00084A02EB0C12B2F858201AB1B0F814C07C
:10724C006245D9D1C3EBC303024800EB031070476E
:10725C0000207047BC340020002300E00133032BD6
:10726C0015D8C3EBC3010B4A02EB011292F848206C
:10727C00022AF3D1074A02EB0112918A828A9142C7
:10728C00ECD1C3EBC303034800EB031070470020A1
:10729C00704700BFBC34002008B904207047082098
:1072AC00704700B503468C460978C17000214162D5
:1072BC00DCF808100B2904D89CF80C1029B3012118
:1072CC0000E0012119700020987031B1DCF8081031
:1072DC000731C9080139597218720121D97503F1A6
:1072EC000C0E0CF1100103C98EE80300BCF80E1053
:1072FC009982DCF8181019629CF81C109975DCF84E
:10730C002010D9629A625DF804FB0021DAE70000D4
:10731C0000210E4B1B688B4216D9002300E0013371
:10732C000B4A02EBC10252689A420BD9084A52F836
:10733C00312002EBC30C12F833208242EFD1DCF87F
:10734C00040070470131E4E70020704794340020BA
:10735C009834002070B58CB006460D4614462C228D
:10736C00002101A818F0F0FC0F238DF80430ADF8C3
:10737C0008609DF80A3065F300038DF80A308DF82B
:10738C000B4001A801F012FA0CB070BD30B58DB0F5
:10739C0005460C462C22002101A818F0D5FC102320
:1073AC008DF8043002958DF80C4001A801F0FEF91F
:1073BC000DB030BD00B58DB010B913F1020F06D170
:1073CC00074B186804F018FB0DB05DF804FB0121A5
:1073DC008DF804100293039201A801F0E7F9EFE78E
:1073EC00A034002070B5049C002962D01D468E4646
:1073FC00D2F800C051689668D368C4F80CC02161FB
:10740C006661A361D2F810C05169C4F81CC0216236
:10741C00002363700278D20922705AB30423734597
:10742C0049D8E17D41B3037803F07F03E370002377
:10743C00A3709AB143789B0103F4FE53827843EA1C
:10744C009203E3808378DB0003F01803C27843EAED
:10745C0052132372C37803F01F0363720023636219
:10746C002B78032B21D82A78144B53F82230E36263
:10747C00002070BD0123D2E70178C1F38011E170C7
:10748C00017801F03F01217142B190F90130002BDC
:10749C0002DB0423A370CCE70823FBE70421A170D3
:1074AC000B447345C5D90920E3E77846FFF754FD33
:1074BC00D9E70920DDE70920DBE700BFFC0F04005A
:1074CC0070B50C461D4603789BB104263244A2606D
:1074DC0000F10C032360836A6360C36AE3600023DA
:1074EC002374204604F0FAFD10B9636933442B6011
:1074FC0070BD0126EAE72DE9F0418EB00D46164627
:10750C001C46804600282DD0002D2FD0002C31D0C9
:10751C00636A0233059304F10C00E378002B2DD041
:10752C000121A27801AF3B46082A14BF0022012298
:10753C0004F0ADFB0697CDF81C80B2B2ADF820205C
:10754C000B9515440C95A3788DF83430237B022BC6
:10755C0016D00023ADF8283005A804F090FB0EB02F
:10756C00BDE8F0817846FFF7F7FCCDE77846FFF7EA
:10757C00F3FCCBE77846FFF7EFFCC9E70221D0E735
:10758C0023692BB1236909931023ADF82830E3E765
:10759C007846FFF7E1FCF5E72DE9F04188B00446A9
:1075AC000D46C37D002B3CD0082605FB06F8637AFC
:1075BC00AB4238D0257201AB324602A92046FFF708
:1075CC007FFF074648BB4DB994F8533033B9A369D4
:1075DC00C3F30C03E380012384F85330E37D7BB9C0
:1075EC0094F8523063B91DBBE06EB4F84A10A2781F
:1075FC0023468A1A0146FFF77EFF012384F8523096
:10760C0007992046FFF794FDE16E324641440198FC
:10761C0018F064FB02A804F087FD384608B0BDE8FA
:10762C00F0810C26C1E7B4F84A60A6EB0806C1E766
:10763C007846FFF791FCD7E770B505460E4609B1C1
:10764C0000230B6095F85040002104E0631C85F882
:10765C0050300134E4B26B7AA34210D3EA6C0123AC
:10766C00A3401A42F5D121462846FFF795FF014663
:10767C0028B9002EEAD0336801333360E6E70846B8
:10768C0070BDF0B589B004460E46154683789A183D
:10769C00C37D63B10B239A4221D801AB02A92046CA
:1076AC00FFF70EFF074620B1384609B0F0BD0F2397
:1076BC00F1E707992046FFF73BFDE37D43B12A46EE
:1076CC003146019818F00AFB02A804F02DFDEBE7F7
:1076DC0023462A4601993046FFF70DFFF4E70927A8
:1076EC00E2E7000010B5044690F84830012B0CD1AD
:1076FC0003F068FB237B012B0BD0094BD9680144A9
:10770C0004F1300003F02AFB10BD7846FFF724FC8F
:10771C00EEE7A27D024BD9681B6903FB0211EEE771
:10772C00A434002030B583B0002403E02846FFF7D2
:10773C00D9FF0134032C17D8C4EBC4020B4B03EB59
:10774C00021393F84830012BF3D100230193074D1A
:10775C0005EB021501A92846FFF76EFF0428E5D0BA
:10776C00019B002BE5D0E1E703B030BDBC34002019
:10777C0038B5044690F84830022B09D1064B1D68E9
:10778C0003F020FB411904F1300003F0E7FA38BD97
:10779C007846FFF7E1FBF1E7A434002038B5044646
:1077AC0090F84830022B10D10A4B5A7D5D689B68CB
:1077BC0003FB025503F006FB411904F1500003F0E2
:1077CC00CDFA012384F8683038BD7846FFF7C4FB46
:1077DC00EAE700BFA434002010B50446808A02F00A
:1077EC0067FE01281CD1237BE3B194F91620002AF3
:1077FC001ADBE27D4AB1022B18D094F90330002B2E
:10780C0016DBA378B3B900200BE0E2780AB9012BA0
:10781C0012D1237893B9A378042B11D1002000E066
:10782C00102010BD1020FCE70720FAE71020F8E725
:10783C000720F6E70720F4E70720F2E70020F0E73F
:10784C000720EEE738B5044603784BB1C388C2690C
:10785C008169808A06F044FD054645B9284638BD45
:10786C00C2698169808A06F035FD0546F5E7E16954
:10787C00002201F00101A08AFFF76CFDEEE7000089
:10788C002DE9F04780460E4617464B1EDBB2012B06
:10789C000FD8B7F5C07F10D80024032C1AD8C4EB2E
:1078AC00C402314B03EB021393F848304BB1013453
:1078BC00F3E77846FFF750FBEBE77846FFF74CFB16
:1078CC00EAE7DFF8A49009EB0215384609F063F8F3
:1078DC00E86600E000255DB3EB6E002B42D043461A
:1078EC002C4608F1300ED3F800C058689968DA6855
:1078FC00C4F800C06060A160E260103310347345BE
:10790C00F1D10023EB64A5F84A70012E13D06FF06F
:10791C000103AB62002385F86830144BAB652D6610
:10792C00134BAB632D64012002F048FA85F84860D4
:10793C002846BDE8F0870F4B1B7D85F8513000239E
:10794C0085F8523085F8533085F85030D8F8282017
:10795C006A65A5F858306FF00103AB62064BAB6358
:10796C002D64E0E71D46E3E7BC340020C78302002A
:10797C00D97C0200A4340020257D020000B585B01E
:10798C0000228DF80F20A0B10B46024602320A608D
:10799C000DF10F01184604F076F99DF80F3043B144
:1079AC000C4B1B6813F0040F03D00B4B1B68032B01
:1079BC0004DC9DF80F0005B05DF804FB074BD3F811
:1079CC000435074A009240F215420649042005F09E
:1079DC0035F9EEE7102E00200C2E0020001001408F
:1079EC00B40E0400A70E04002DE9F04391B0054637
:1079FC000E4614461F46D0F8188003784BB1C38846
:107A0C00C8F30C029A4230D29B1A4344A3F500539C
:107A1C00AB6105F10C00EB7853B30121AA780DF1A1
:107A2C0030094B46082A14BF0022012204F02FF91A
:107A3C00C5F81880CDF810900596AB78E21A92B282
:107A4C00ADF8182016440A9609978DF82C300023AF
:107A5C00ADF82030EB78002B41D02B7B022B09D0DA
:107A6C0000236B620193029316E09B1A4344CFE709
:107A7C000221D3E71023ADF820302B690793EFE7F1
:107A8C0010AB03EB840454F83C3C6B62002011B047
:107A9C00BDE8F083019BB3B102AB01AA2979286A36
:107AAC000EF0F2F90024012CF4D810AB03EB840394
:107ABC0053F83C0C0028EDD003A9FFF75FFF00281A
:107ACC00DED10134EFE72B7B022B2CD105F10C011D
:107ADC00E8890EF093FA0028BFD10520D7E72B7B5D
:107AEC00012B01D00520D2E7EB89ADF80430AB8A2D
:107AFC00ADF806300024012C13D82946002341F898
:107B0C00243F10AB03EB440333F83C0C0EF0E1F9CB
:107B1C0003A9686AFFF732FF08B90134EBE70020CC
:107B2C00B5E70520B3E70520B1E7000070B5F0B06C
:107B3C000E4614461D4610AB0A4601462046FFF77A
:107B4C0053FF50B1224B1B6813F0040F03D0214B91
:107B5C001B68052B2FDC70B070BD2046FFF772FE42
:107B6C000028F8D103AB01228DF80C20A28AADF8C5
:107B7C000E20002204928DF8142010AA0692A278EE
:107B8C00B11AADF81C1008AA93E8030082E80300B0
:107B9C000AAB04F10C0292E8030083E80300A37D16
:107BAC008DF83830236A0C93636A0D930F9505A8F2
:107BBC0000F0FCFDCFE7084BD3F80435074A0092E0
:107BCC0040F203720649062005F038F8C3E700BFFF
:107BDC00102E00200C2E002000100140C80E0400B6
:107BEC00A70E040010B50446C06E08F0D8FE04F1D0
:107BFC00300003F09BF894F84830022B08D0702228
:107C0C000021204618F0A0F8002002F0D7F810BD93
:107C1C0004F1500003F08AF8F1E710B58CB004467B
:107C2C0090F84830012B0FD101238DF80430636D8F
:107C3C00029303F0C7F8039001A800F0B7FD2046AB
:107C4C00FFF7D0FF0CB010BD7846FFF785F9EBE7D6
:107C5C0030B585B00D460446A8B194F84830022BD7
:107C6C0015D02946606DFFF791FB2046FFF7BAFF50
:107C7C00114B1B6813F0040F03D0104B1B68032B24
:107C8C0009DC05B030BD7846FFF766F9E5E720461C
:107C9C00FFF722FAE5E70A4BD3F8043594F84820AD
:107CAC0002950192074A009240F2F3120649042011
:107CBC0004F0C4FFE5E700BF102E00200C2E0020BE
:107CCC0000100140F40E0400A70E040008B508468D
:107CDC000021FFF7BDFF08BD08B5037B012B02D0C7
:107CEC00FFF79BFF08BD0121FFF7B2FFFAE7000089
:107CFC0008B590F8513053B1013B80F85130002356
:107D0C0080F85030034B186803F076FE08BDFFF77F
:107D1C00E3FFFBE7A034002010B50C4691F8483087
:107D2C00012B03D12046FFF7E3FF10BD7846FFF788
:107D3C0013F9F7E770B5C6B00E46154682782A449B
:107D4C00C37D2BB14FF48073934278D3002303E0AF
:107D5C004FF4C073F8E70133032B14D8C3EBC30CF7
:107D6C00394C04EB0C1C9CF848100129F3D1BCF8DD
:107D7C001440818A8C42EED1BCF80E40C1898C42F1
:107D8C00E9D1082554E00121FFF77AFD04460028CB
:107D9C0057D02A463146C06E17F0A0FF00234593FA
:107DAC0045A92046FFF748FC054608B1042842D1F6
:107DBC00459B8BB9254B1B6813F0040F37D0244B14
:107DCC001B68032B33DDB4F84AC0BCF1800F28BF0D
:107DDC004FF0800C002313E02046FFF783FCE9E70B
:107DEC00E26ED25C1B490D68100959002E5C04A888
:107DFC0000F8136002F00F020131AA5C4254013307
:107E0C006345EDD304AA002302F81C3003F1804330
:107E1C0003F58833D3F8043502920F4A01920F4AC6
:107E2C0000924FF4AC620E49042004F007FF0025C9
:107E3C00284646B070BD2046FFF7D4FEF8E709256A
:107E4C00F6E70425F4E700BFBC340020102E002018
:107E5C000C2E0020142E0020180F0400D40A04004D
:107E6C00A70E040070B504460D461646FFF7B4FC89
:107E7C0030B923782BB1324629462046FFF75AFFFA
:107E8C0070BD324629462046FFF7FBFBF8E70000A1
:107E9C0038B504460D46CB695B780371CB691B780A
:107EAC0083F00103C370CB6943628B8A0B2B07D819
:107EBC00CB7A002B35D10B7B012B02D0002300E0B9
:107ECC0001232370002B31D0287B02282BD0FFF705
:107EDC00E3F9A070AB8A03440B33174A82FB0323EC
:107EEC005B10013B6372002323720023E37504F1E2
:107EFC000C0395E8030083E80300AB6923622B892C
:107F0C00A382AB7AA3752B6AA362DF23E3622846B4
:107F1C000EF0A2F820B12B78012B0AD0FF23E362DC
:107F2C0038BD0123CDE7054B987DD0E70423A37022
:107F3C00DBE72023F3E700BFABAAAA2AA434002076
:107F4C0006297AD1F0B585B0154690F800C04FEAF5
:107F5C008C1202F4FE5241788478C3781B0443EAF5
:107F6C000463047943EA0423407943EA00044FFA9A
:107F7C008CF642EA91012846FFF73CF90746E0B13E
:107F8C00002E2FDBC289A98A8A422BD02B4B1B686F
:107F9C0013F0040F30D02A4B1B68012B2CDD294B1E
:107FAC00D3F8043502910192274A009240F27D6287
:107FBC002649022004F042FE1EE0204B1B6813F001
:107FCC00040F19D01E4B1B68012B15DD1D4BD3F86C
:107FDC0004351F4A009240F279621C49022004F0D9
:107FEC002DFE09E0002E09DBFD6C2543FD644CB928
:107FFC0003213846FFF72CFE05B0F0BDAB8AA7F87D
:10800C005830F1E73B7883B17A7A013201239340FF
:10801C00013B9D420DD0002187F850103846FFF7E8
:10802C000BFB3846FFF75EFBE6E77846FEF794FF5E
:10803C00EAE73846FFF7F1FDDEE77047102E002027
:10804C000C2E002000100140580F0400A70E040055
:10805C00280F04002DE9F0438BB007460E4614465A
:10806C001D461046FFF7EEFB50B994F80380B8F1AB
:10807C00000F08D12B46224631463846FFF760FFE9
:10808C000BB0BDE8F0834046FFF742F9814600286B
:10809C00F6D08DF80480236A0793A38AADF81230CA
:1080AC0005AB04F10C0292E8030083E80300A37D06
:1080BC008DF820300297039623788DF81030E36A00
:1080CC000993294601A8C847DAE792F801C01CF0C9
:1080DC00010F08D010B5D47D14B1FFF7BBFF10BD54
:1080EC00FFF724FDFBE7704708B501390130FFF7B6
:1080FC00ECFF08BD10B54FF4E0720021134817F0E7
:10810C0023FE06F0B9F80024114B1C608022214696
:10811C00104817F019FE104B104A1A60104A5A609A
:10812C004CF250329A600F49D9601A6104221A75C8
:10813C009C7508225A750C4803F03EFC0B4B1860DA
:10814C000B4B1C600B4806F095FB10BDBC3400209B
:10815C009034002010340020A43400208096980025
:10816C00F049020020A10700B9830200A0340020CE
:10817C0094340020C173020008B506F09DF808BDC8
:10818C0098B110B58CB00446036983B1C36983B14F
:10819C00836983B101466846FFF77AFEA28A21699A
:1081AC006846FFF75FFE0CB010BD0E2070470E2026
:1081BC00F9E70E20F7E70E20F5E7000058B310B5ED
:1081CC0090B00A46044643683BB383693BB301460F
:1081DC0004A8FFF766F8134B1B6813F0040F03D0C9
:1081EC00114B1B68062B06DCA268616804A8FFF71C
:1081FC0039FE10B010BD0D4BD3F804352278A169AF
:10820C00029101920A4A009240F6050209490720A0
:10821C0004F014FDE8E70E2070470E20E9E70E206D
:10822C00E7E700BF102E00200C2E002000100140AC
:10823C009C0F0400A70E0400037B012B01D000202F
:10824C00704730B591B004460D463F4B1B6813F098
:10825C00040F03D03D4B1B68032B59DC04A90023EE
:10826C0004930593CDF81730E0889DF8102002F0A8
:10827C0080028DF81020C0F3861C42EA0C028DF8A7
:10828C0010209DF8112002F003028DF8112042EA13
:10829C0080028DF811202A0E8DF812202A0C8DF8F0
:1082AC0013202A0A8DF814208DF815506278022AB2
:1082BC000CBF012018469DF8102002F07F028DF8AB
:1082CC00102042EAC0128DF810204FF006020992DD
:1082DC004FF001028DF82C20A28AADF82E200C93C1
:1082EC008DF81C300891226A0D928DF82830E36AC3
:1082FC000F9319D0E389ADF82A30A37DF3B98DF82B
:10830C0038306FF0010107A8FFF758FF11B030BDEE
:10831C000F4BD3F804350F4A009240F263220E49FA
:10832C00042004F08BFC99E70DF10E0103A80DF06D
:10833C0081FEBDF80C30ADF82A30DEE7074B5B7DD3
:10834C008DF83830DDE700BF102E00200C2E0020F9
:10835C0000100140C80F0400A70E0400A434002034
:10836C0090F84830022B00D0704710B5044690F8B6
:10837C006830022B00D010BDC16CFFF75DFF0028E8
:10838C00F9D1002384F86830F5E7000010B500241B
:10839C0007E0C4EBC402130103481844FFF7E0FFE5
:1083AC000134032CF5D910BDBC34002008B5FFF7FF
:1083BC00B9F9FFF7EBFF012008BD10B50C4691F899
:1083CC004830022B06D1022384F868302046FFF790
:1083DC00C7FF10BD7846FEF7BFFDF4E7F0B583B0DC
:1083EC000446C1698369C2880E0A0906C3F30C00EE
:1083FC0082422FD9121A1A44A2F500528D1846F156
:10840C0000062A463346A08AFEF746FE002840F0B6
:10841C0089802046FEF720FF074630B3C269806989
:10842C00F988130A1206C0F30C0C8C4515D2A1EB7B
:10843C000C010144A1F50051521843F10003AA426A
:10844C0073EB06010DD3954276EB030330D338461C
:10845C0003B0F0BD121A1A44D0E7A1EB0C01014491
:10846C00EAE705213846FFF7F3FBE388E269A169E7
:10847C00A08A06F009F8E8B9627A0132E37DA3B369
:10848C00082101FB02F293B34FF48073934231D372
:10849C0002212046FFF7F4F907460028D7D1002126
:1084AC002046FFF7C9FE02210020FEF76FFFCEE742
:1084BC000027CCE7E388E269A169A08A06F05CF8A2
:1084CC0008B90027C3E723785BB1637A0133012134
:1084DC00994001392046FFF7AFFE2046FFF7B2F96D
:1084EC00EFE77846FEF738FDEFE70C21C9E74FF4CC
:1084FC00C073CBE70C4B1B6813F0040F03D00B4B72
:10850C001B68002B01DC0027A1E7094BD3F80435CD
:10851C000192084A009240F27F320749012004F090
:10852C008DFBF0E7002792E7102E00200C2E002088
:10853C0000100140D80F0400A70E04002DE9F041F3
:10854C0082B007460E46144698461046FFF746FF83
:10855C00002846D00546404B1B6813F0040F03D08F
:10856C003E4B1B68032B3FDC2846FFF701F92B7BA6
:10857C00012B47D0EB6C217A01228A40134230D177
:10858C001343EB64043E237AE27D002A42D04FF081
:10859C00080C0CFB03FC697A8B423ED0002A41D0BC
:1085AC000823B34240D1AA69A3699A4209D205F1C2
:1085BC000C0E0C340FCCAEE80F0094E803008EE8E0
:1085CC000300E86E3246391D604417F087FBEC6CF3
:1085DC002B7873B36A7A013201239340013B9C429E
:1085EC002BD002B0BDE8F0811D4BD3F80435227AB4
:1085FC0001921C4A009240F2A3321B49042004F061
:10860C001DFBB1E795F86830002BB3D12846FFF776
:10861C00C5F8AFE74FF00C0CBBE70CEB0603A5F865
:10862C004A30C0E70C23BCE704212846FFF710FBB7
:10863C00D7E77846FEF790FCCCE7E96C2846FFF7C5
:10864C00FBFD43462A46B5F84A10E86EFFF73DFDA0
:10865C002846FFF7C7FAC4E7102E00200C2E002086
:10866C0000100140EC0F0400A70E04002DE9F041AE
:10867C0090B000284CD00F4614461E468046002A67
:10868C0048D004AB00933346FEF7ACFE054618B158
:10869C00284610B0BDE8F08104A8FFF79DF8054608
:1086AC000028F5D100230293039302A960880DF0F2
:1086BC00A5FC28B19DF8113043F001038DF8113061
:1086CC002269E168208905F097FE38B19DF81130D8
:1086DC0003F0FE038DF81130002BD9D09DF811302A
:1086EC00002BD5D013F0010F01D0039B08939DF8FC
:1086FC00103033B1334604AA39464046FFF71EFF0B
:10870C00C6E7334604AA39464046FFF7EDFCBFE7FF
:10871C000E25BDE70E25BBE7F8B508B30E4605469A
:10872C00164B1F68F7B93C46B4420FD205EBC40395
:10873C005B68D3B115F8340015F93430002B16DB17
:10874C00B8B1FEF7E5FDB0B90134EDE70C4B43F8D9
:10875C00375003EBC7035E607B1C084A136002E0D2
:10876C000E2700E004273846F8BD0E27FBE70B2741
:10877C00F9E70F27F7E70F27F5E700BF9434002040
:10878C0098340020084B196861B110B501E02146FE
:10879C003CB10C680B79002BF9D0034804F0B9F903
:1087AC00F5E710BD704700BF8036002038B5054690
:1087BC0030B1104B1C68C4B10F4B01221A7004E08D
:1087CC007846FEF7C9FBF4E724683CB12379002B0B
:1087DC00FAD154F8043C28469847F5E7064B1B7829
:1087EC00022B03D0044B00221A7038BDFFF7CAFFCE
:1087FC00F8E700BF803600207C36002010B5044618
:10880C0030B100232372211D034804F057F910BD29
:10881C007846FEF7A1FBF4E78036002010B504463D
:10882C0058B10A4B1B78013BDBB2012B09D8074B23
:10883C0002221A700123237210BD7846FEF78CFBBE
:10884C00EFE7211D024804F064F9F5E77C360020BF
:10885C00803600200A8883689B5A07339BB223F02A
:10886C00030313449BB20288043A934200D90023B9
:10887C000B80704710B582B004468368C91AADF8F6
:10888C0006100DF10601FFF7E5FFBDF80630A068F4
:10889C00184402B010BD0088043880B27047438879
:1088AC008268D018D15201238370704782680023EC
:1088BC00937043808380704708B5073189B221F0EB
:1088CC00030189B2428883889A4204D29B1A994246
:1088DC0020DC002008BD9A4212D9B0F800C0ACEBE5
:1088EC00020C614518D98B4218D3BCF1030F03D984
:1088FC008368134404229A70002343801846E9E7E6
:10890C0082681A4493780BB10420E3E7FFF7CEFF9B
:10891C000020DFE70420DDE70020DBE70420D9E7B7
:10892C0038B504460D468368828813448B4202D0C6
:10893C007846FEF711FB0023AB70211D2046FFF794
:10894C0089FFA288A36813449B78042B00D038BD00
:10895C000023A380FBE710B50C46836842881344C0
:10896C008B4202D07846FEF7F7FA0023A37010BDB5
:10897C0070B5054614460E46002944D0002D46D04D
:10898C00B6F1005F08D94FF08053D3F80C3103F5E2
:10899C000023B6EB832F0ED3B6F5000F08D94FF09A
:1089AC008053D3F80C3103F50053B6EB832F02D36D
:1089BC007846FEF7D1FA631E3344B3F1005F08D951
:1089CC004FF08052D2F80C2102F50022B3EB822F2B
:1089DC000ED3B3F5000F08D94FF08052D2F80C210A
:1089EC0002F50052B3EB822F02D37846FEF7B4FAAD
:1089FC00042C10D92C8000236B80AB80AE60043C1F
:108A0C003480B37070BD7846FEF7A6FAB6E77846A8
:108A1C00FEF7A2FAB4E77846FEF79EFAEAE738B515
:108A2C000446A0B16288A36813449B78012B12D032
:108A3C00EFF3108572B6A388A16819448B78032BC9
:108A4C000DD02046FFF732FF05B962B638BD784627
:108A5C00FEF782FAE6E77846FEF77EFAE8E720466C
:108A6C00FFF708FFA368C31A638000238370EBE74A
:108A7C002DE9F0410E4614460546D0B1EEB16A8898
:108A8C00AB6813449B78012B1BD024B32846FFF70B
:108A9C0002FFA04221D3EFF3108872B6214628467C
:108AAC00FFF70AFF074680B1B8F1000F16D162B686
:108ABC0014E07846FEF750FAE0E77846FEF74CFAF9
:108ACC00DDE77846FEF748FADFE721462846FFF750
:108ADC00E6FE3060E8E7092700E009273846BDE8E4
:108AEC00F081F8B50C4615460646E0B1FCB1A3780A
:108AFC00012B20D12388AB4221D325B3EFF3108770
:108B0C0072B625800223A370F1183046FFF7A2FE3F
:108B1C007388B288934203D0B268134400229A70CF
:108B2C0007B962B6F8BD7846FEF716FADEE7784666
:108B3C00FEF712FADBE77846FEF70EFADAE778462C
:108B4C00FEF70AFAD9E77846FEF706FAD6E770B5CB
:108B5C000C46054690B1ACB1EFF3108672B6AA88FC
:108B6C00AB6813449A78042A10D09A78022A15D04C
:108B7C00032A18D0052006B962B670BD7846FEF7F8
:108B8C00EBF9E8E77846FEF7E7F9E5E7291D284613
:108B9C00FFF760FEAA88AB681344E6E703229A70DD
:108BAC0023600020E7E77846FEF7D6F90020E2E7DD
:108BBC0038B5044680B1EFF3108572B6A388A1686E
:108BCC0019448B78042B0BD08878022814BF002012
:108BDC00012005B962B638BD7846FEF7BDF9EAE763
:108BEC002046FFF747FE0146EEE738B5054630B1A3
:108BFC00EFF3108472B6AB88A968194407E0784685
:108C0C00FEF7AAF9F4E72846FFF734FE0146887808
:108C1C00C31EDBB2012BF6D9022814BF00200120A1
:108C2C0004B962B638BD70B50C46064678B194B13D
:108C3C00EFF3108572B6A378012B10D0032B13D150
:108C4C0021463046FFF76CFE05B962B670BD78461A
:108C5C00FEF782F9EBE77846FEF77EF9E8E7214666
:108C6C003046FFF778FEEFE77846FEF775F9EBE74D
:108C7C0010B5EFF3108472B68388816819448B7831
:108C8C00042B06D08878B0FA80F0400904B962B69B
:108C9C0010BDFFF7EFFD0146F4E70000024B002288
:108CAC001A769A60022070478436002008B5064B6D
:108CBC00986800221A605A609A60DA601A615A61E8
:108CCC009A6104F083FF08BD8436002000B585B09E
:108CDC000A4BDB6802228DF8002001934FF480537D
:108CEC000293074A6946012001F0F8FA18B90120ED
:108CFC0005B05DF804FB0020FAE700BF84360020C5
:108D0C00A236002000B585B00A4B1B6802228DF8F4
:108D1C00002001934FF480530293074A69460120C7
:108D2C0001F0DCFA18B9012005B05DF804FB002055
:108D3C00FAE700BFA4360020A2360020164BDA68F2
:108D4C00137951795B1A03F57F2303F6FF7302EB5A
:108D5C0003339A4205D002F580520F4BDA600320A0
:108D6C00704700B585B00D4B1B6801208DF80000D5
:108D7C0001930B4B0393042302930A4A694601F0B7
:108D8C00ADFA18B1002005B05DF804FB024B0122CE
:108D9C001A760220F7E700BF84360020A4360020A4
:108DAC00A8360020A236002000B585B00C4BDA683E
:108DBC000C4B1B68043301208DF8000001920393C7
:108DCC0040F6FC730293084A694601F087FA28B909
:108DDC000120034B187605B05DF804FB0020FAE780
:108DEC0084360020A4360020A236002000B585B0C1
:108DFC000A4B1B6801208DF800000193084B03936C
:108E0C0004230293074A694601F068FA18B9012055
:108E1C0005B05DF804FB0020FAE700BFA436002083
:108E2C0090360020A236002010B584B0104BDA68C2
:108E3C001478104B1B68043301208DF8000001934B
:108E4C00039202940C4A694601F048FA70B9094B36
:108E5C001B6804F0FC0423440433054A5361D168B5
:108E6C000B780B441361012004B010BD0020FBE70C
:108E7C0084360020A4360020A236002008B500233A
:108E8C000A2B09D8064A52F82320824201D001331A
:108E9C00F6E7044A536002E07846FEF75DF808BD39
:108EAC00841004008436002010B5214BDB6853B1CC
:108EBC001F4B1B7E5BB91E4B5B680A2B26D9784671
:108ECC00FEF74AF822E07846FEF746F8F0E77846D7
:108EDC00FEF742F8EFE7164A5368013353600A2B4A
:108EEC0021D97846FEF738F81DE0114B00225A6064
:108EFC0019E00F4B1B7E1BB10D4B02221A7012E0B6
:108F0C00FFF7D4FE0FE00A4B1B7E83B9084B5A685F
:108F1C00084B53F82230984704460228E9D003281E
:108F2C00E3D00128D7D0012CEDD0032CEBD010BD11
:108F3C008436002084100400104B1B681B685A1EDA
:108F4C0012F1030F18D8C3F30B020AB100207047BB
:108F5C0010B50B4AD360002313765376012414709A
:108F6C0093600848FFF78AFF0749204601F0A4F9EF
:108F7C00FFF79AFF204610BD00207047A436002052
:108F8C0084360020D98C0200998F020008B50B782A
:108F9C00032B06D00B4B1B78012B06D0022B0BD0CE
:108FAC0008BD084B00221A76F4E7064B1B7E002BFB
:108FBC00F6D1FFF779FFF3E70B78032BF0D1FFF72E
:108FCC0075FEEDE78436002000B585B0174BDB68E5
:108FDC0018784FF6FF7203F58051184405F000FC29
:108FEC00E0B10246114BD9680B780B44984217D06C
:108FFC000E4B5B7E83B10E4B01208DF8000001926D
:10900C000393042302930B4A694601F067F948B9AC
:10901C000120064B187606E0074BEDE7012002E035
:10902C00012000E0002005B05DF804FB8436002030
:10903C00D0120400A2360020CC12040008B5104B4C
:10904C00DB681878002203F58051184405F0C8FB42
:10905C0008B1012008BD0A4BDA68137951795B1A03
:10906C0003F57F2303F6FF7302EB03339A4205D01B
:10907C0002F58052024BDA600320EBE70220E9E7AD
:10908C0084360020F0B585B0514BDE6872793379A7
:10909C00591E8A4214D006F580510D780D444D4965
:1090AC000968081D0F7907449B1A06EB03366B8879
:1090BC00013B9BB247F6FE62934260D92C461AE004
:1090CC000120434B58767EE07846FDF745FF15E0CE
:1090DC0024F47F6424F00F0404F5805423781C449A
:1090EC00A6421CD9A5421CD26388013B9BB247F611
:1090FC00FE62934211D92388002BE5D0238804EB20
:10910C00830323F47F6222F00F029342E0D0628843
:10911C00B2F5FE4FDCD01C46E2E725462FE00025D9
:10912C002DE000252BE07846FDF716FF15E024F422
:10913C007F6424F00F0404F5805423781C44A64269
:10914C001CD9A54237D26388013B9BB247F6FE621D
:10915C00934211D92388002BE5D0238804EB830399
:10916C0023F47F6222F00F029342E0D06288B2F5C2
:10917C00FE4FDCD01C46E2E7254600E00025E5B1B9
:10918C00144B19686A8801F58051384605F028FBA4
:10919C00074690B101200E4B18768DF80000019512
:1091AC000D4B0393042302930C4A694601F096F885
:1091BC0058B92C46CEE70025E1E7B5FA85F56D09DF
:1091CC00034B5D76012005B0F0BD0020FBE700BF2E
:1091DC0084360020A4360020C8120400A2360020D9
:1091EC002DE9F04186B0654B1B6923B1634B5B697C
:1091FC002BB1002748E07846FDF7AEFEF6E778463F
:10920C00FDF7AAFEF5E7A04618E07846FDF7A4FEA8
:10921C0018E028F47F6828F00F0808F5805898F8B3
:10922C0000309844454520D944454AD2B8F802301C
:10923C00013B9BB247F6FE62934214D9B8F800305A
:10924C00002BE2D0B8F8003008EB830323F47F62E4
:10925C0022F00F029342DCD0B8F80220B2F5FE4F98
:10926C00D7D09846DEE7444600E000243CBB002300
:10927C000093019B002B5CD10127002C78D06288D5
:10928C0047F6FF739A4273D0002F75D13B4B5A6946
:10929C0022F47F6626F00F06B61A06F580561C6976
:1092AC00DD682B796A799B1A05EB03350023019352
:1092BC006388013B9BB247F6FE629342A3D80094AD
:1092CC000EE00024D2E77846FDF746FE23E024F4B6
:1092DC007F6323F00F0303F580531A7813441C4665
:1092EC00A542C6D92388019A02EB83029642C0D9C3
:1092FC00009B634023F47F6323F00F03002BB8D152
:10930C006388013B9BB247F6FE618B42B1D8019258
:10931C002388002BD7D0238804EB830323F47F62AC
:10932C0022F00F029342D2D06288B2F5FE4FD6D112
:10933C00CDE7124A526901208DF808000392009A79
:10934C00059204930E4A02A900F0C8FF70B90B49AC
:10935C00019B23F003024B6913444B6114B1074B7F
:10936C001C618AE77846FDF7F7FDF8E7002000E07E
:10937C00012006B0BDE8F0810120FAE78436002018
:10938C00A236002000B585B00023294A1370D3F80B
:10939C00F83FB3F1FF3F09D0B3F1FF3F0DD08BB1D4
:1093AC00B3F1FF3F39D0A3F5805211E04FF01022FA
:1093BC005269B2F1FF3FEFD104E04FF01022526935
:1093CC00002AEDD14FF080535A691B6903FB02F25E
:1093DC00A2F58052174B1A60174B1B6813F4801FB1
:1093EC0016D0164B1B68062B12DD154BD3F8043523
:1093FC000021D1F8F81FB1F1FF3F14D00292019176
:10940C00104A009240F276220F49072003F016FC16
:10941C00FFF792FD05B05DF804FB4FF010235A697D
:10942C00A2F58052D4E74FF010214969E6E700BF5E
:10943C00A0360020A4360020102E00200C2E002078
:10944C0000100140501004003710040010B5044601
:10945C00B0B1104B1B78BBB10E4BD968E36858798F
:10946C00A3EB0032914211D31A79121A02F57F2222
:10947C0002F6FF7203EB0233994209D8012004E093
:10948C007846FDF769FDE4E7002010BD0020FCE7FD
:10949C000020FAE784360020024B1878003818BFF9
:1094AC00012070478436002010B50446124B1B78FF
:1094BC00BBB92378032B18D10F4B9C60E268DA60A0
:1094CC000E4B1B78ABB10A220B4B5A6000221A765A
:1094DC00012018705A760A4900F0EEFEFFF7E4FC02
:1094EC0010BD7846FDF738FDE3E77846FDF734FD0F
:1094FC00E2E70022E8E700BF84360020A036002017
:10950C00998F0200014B1868704700BFA4360020E9
:10951C0010B5044680B163681BB123680BB1A36816
:10952C0013B97846FDF718FDA3685A1E134207D1EC
:10953C000023E360236110BD7846FDF70DFDEAE7DB
:10954C007846FDF709FDF3E770B508B30E460446FF
:10955C008368FBB1EFF3108572B60369C26893425E
:10956C0012D001684268806800F1FF3C03EA0C03EA
:10957C0003FB021116B1304616F0B0FB2369013320
:10958C0023614DB962B608E005B962B6052504E061
:10959C000E2502E0092500E00025284670BD0000DC
:1095AC000246C0F30B0030BB39B301F6FF714FEA32
:1095BC00113C134B0221C3F80415114BD3F80034A2
:1095CC00002BFAD001460AE00D4BC3F808250C4BD2
:1095DC00D3F80034002BFAD002F5805201316145EA
:1095EC00F2D3074B0022C3F80425054BD3F8003403
:1095FC00002BFAD07047102070470920704700BF2D
:10960C0000E00140844610F0030F2DD111F0030F40
:10961C002CD16AB312F0030F2CD19008164B0122F7
:10962C00C3F80425144BD3F80034002BFAD003E014
:10963C000CF1040C04311046421E58B10B68B3F106
:10964C00FF3FF5D0CCF800300B4BD3F80034002B97
:10965C00FAD0EDE7084B0022C3F80425064BD3F8EB
:10966C000034002BFAD07047102070471020704740
:10967C00092070470920704700E00140094B1B7816
:10968C0013F0040F02D00378122B00D07047064B56
:10969C001A68064B5A60034B1A786FF382021A70E1
:1096AC00F4E700BF5037002040370020DC360020A4
:1096BC0010B582B001900C46BDF80630012B11D1CB
:1096CC0023680A490B600A4B1A7842F001021A709F
:1096DC00D3B25B0883F0010303F001030B7100208C
:1096EC0002B010BD7846FDF737FCE9E740370020A3
:1096FC005037002010B582B001900C46BDF80630F2
:10970C00022B0FD12268094B1A6022791A710020A2
:10971C0058719871D871064A137843F0020313708C
:10972C0002B010BD7846FDF717FCEBE73837002088
:10973C005037002010B582B001900C46BDF80630B1
:10974C00032B06D1054B186820601B79237102B0DE
:10975C0010BD7846FDF700FCF4E700BF4037002051
:10976C0010B582B001900C46BDF80630032B0CD11D
:10977C00084B2068186022791A71074A137843F055
:10978C0001031370002002B010BD7846FDF7E4FB16
:10979C00EEE700BF403700205037002010B582B0F4
:1097AC0001900C46BDF80630042B05D1044B03CBBD
:1097BC002060616002B010BD7846FDF7CDFBF5E787
:1097CC003837002010B582B001900C46BDF8063039
:1097DC00042B0BD1074B2068616803C3064A13782E
:1097EC0043F002031370002002B010BD7846FDF761
:1097FC00B3FBEFE7383700205037002000B583B0BB
:10980C000190BDF80630032B06D1054B00221A60DF
:10981C001A7103B05DF804FB7846FDF79DFBF4E785
:10982C004037002000B583B00190BDF80630042B02
:10983C0006D1054B00221A605A6003B05DF804FB98
:10984C007846FDF789FBF4E73837002000B585B082
:10985C001A4B1B7813F0400F13D0184B1B7813F0D6
:10986C00040F0BD1002301938DF80830144B5B6867
:10987C0003F500530193B3F1807F06D905B05DF871
:10988C0004FB7846FDF768FBE7E70E4B1B788DF879
:10989C0008300A4A137843F0040313700023ADF820
:1098AC000C300323ADF80E3001A9039806F030F903
:1098BC000028E3D07846FDF74FFBDFE75037002058
:1098CC00DC3600205137002000B585B00022019213
:1098DC0002920F4B996801911B7B8DF808300D4952
:1098EC000B780133DBB20B708DF80B30ADF80C201C
:1098FC000423ADF80E300DEB0301039806F008F9C4
:10990C0010B905B05DF804FB7846FDF725FBF8E7C8
:10991C00DC3600205137002000B585B000230193C0
:10992C0002930F4A91680191117B8DF80810128AED
:10993C00ADF809200B4A12788DF80B20ADF80C30DD
:10994C000423ADF80E300DEB0301039806F0E0F89C
:10995C0010B905B05DF804FB7846FDF7FDFAF8E7A1
:10996C00DC3600205137002000B58DB00B4B1B7B33
:10997C00012B0ED0094A926804928DF8083003909E
:10998C0002238DF8043001A8FEF710FF0DB05DF82E
:10999C0004FB024A9268013A0492EEE7DC3600209E
:1099AC0008B51D481D4B036000F004FF1C4B1B78D1
:1099BC0013F0200F2AD103F00303032B14D1194BFE
:1099CC001968194A916019791173B3F8050010825E
:1099DC00DB79164A1370164A1279934217D0B1B933
:1099EC00114B00221A6007E00F4B00221A609A609C
:1099FC001A731A82FFF768FF0B4B1A685A60084AF1
:109A0C00137843F040031370FFF720FF08BD084B99
:109A1C001A68054B1A60EFE72C3700208996020074
:109A2C005037002038370020DC360020513700201A
:109A3C004037002010B582B00024ADF8004001235F
:109A4C00ADF80230009806F094F8ADF8044002230B
:109A5C00ADF80630019806F08CF802B010BD00008D
:109A6C0008B5002006F0ACF8094A002313605360D7
:109A7C009360D3601361074A117863F34511117039
:109A8C00CBB243F040031370FFF7E0FE08BD00BFFC
:109A9C00DC3600205037002038B50C4D00242C60EB
:109AAC006C60AC60EC602C6101F08CF9084B586078
:109ABC00084A9A60084ADA601C615C61074B1A78A4
:109ACC0064F3C3021A706C6038BD00BFDC36002032
:109ADC00B8360020459C02000087930350370020C5
:109AEC0008B50C4B1B7813F0100F00D008BD0A48BA
:109AFC000A4B036000F05EFEFFF752FFFFF79AFF80
:109B0C00074801F0E3F8034A137843F0100313708D
:109B1C00ECE700BF50370020D03600209D9D02009E
:109B2C00B8360020034B1878800880F0010000F054
:109B3C00010070475037002010B501F0BFFE174BE5
:109B4C001B7B1BBB154B9B7B2BBB144B1A8A41F20B
:109B5C0082639A4206D8124B1B7813F0080F05D07B
:109B6C00012300E001231BB9082410E00023FAE7CD
:109B7C000A4B01221A7300241C829A6801329A60E3
:109B8C00FFF7A2FE2046FFF7EFFE00E0082401F0ED
:109B9C00DBFE204610BD0824F9E700BFDC360020B0
:109BAC005037002010B501F089FE214B5B7BABB127
:109BBC001F4B9B7B03BB1E4B1A8A41F282639A425A
:109BCC0006D81C4B1B7813F0080F05D0012300E0BE
:109BDC0001239BB1012302E00023FAE700231C467A
:109BEC000BB3134B00225A731B7B4BB1012B0ED0C2
:109BFC007846FDF7B1F916E00023F0E70023EEE715
:109C0C00FFF79AFF78B17846FDF7A6F90BE0084B01
:109C1C0000201860586018731882FFF7A5FEFFF734
:109C2C0053FEFFF713FE01F08FFE204610BD00BF60
:109C3C00DC3600205037002008B52C4B1B7BDBB1E9
:109C4C00012B2ED07846FDF787F9284A138A013369
:109C5C009BB21382264AA2FB03121209C2EB021218
:109C6C00A3EB42039BB2002B3DD0204B5B8A13B17C
:109C7C00013B1E4A538208BD1C4B1A8A41F2826377
:109C8C009A4206D81B4B1B7813F0080F07D0012300
:109C9C0000E00123002BD8D0FFF784FFE5E7002379
:109CAC00F8E7124B1B8A41F28262934206D8114AA2
:109CBC00127812F0080F14D0012200E00122002AC1
:109CCC00C3D042F2B012934202D9084B01225A730C
:109CDC00FFF768FF0028C8D1044B5B7B012BB4D184
:109CEC00C3E70022EBE7FFF717FEBEE7DC360020E8
:109CFC00898888885037002010B5244B1B7B002B9B
:109D0C0035D10446214B5B8A2BBB1AB91F4B9B6880
:109D1C008B4205D3FAB11D4B9B6801338B421AD28F
:109D2C001A4B9B682A338B4223D3184B9B7B03BB68
:109D3C00164B996000221A605A601A8242F606513C
:109D4C0059825A731A73FFF7BFFDFFF77FFD204648
:109D5C00FFF70AFE0DE062B10C4B9B6801338B429E
:109D6C0007D10A4B01225A73FFF71CFF01E0012BAC
:109D7C0000D010BD002AFCD1044B9B688B42F8D15B
:109D8C00024B01225A73FFF70DFFF2E7DC3600207D
:109D9C000378042B00D0704743681B78002BFAD053
:109DAC0010B58468027E437E012A14BF0022012272
:109DBC00416904F11000FFF79FFF10BD08B538B1E1
:109DCC000D4B01229A730D4A13680133136008BDC1
:109DDC000A4B1B685BB1094A1368013B1360002BEB
:109DEC00F5D1054B00229A73FFF7DCFEEFE77846BE
:109DFC00FDF7B2F8EFE700BFDC360020AC360020F0
:109E0C0000B58DB0ADF808008DF810200391032338
:109E1C008DF8043001A8FEF7C9FC0DB05DF804FB09
:109E2C00014B9868704700BFDC360020054B1B7B4C
:109E3C00012B02D0034B98687047024B986801388D
:109E4C00704700BFDC3600201D4B1B7813F0400F11
:109E5C0034D070B504460D461A4B1A685B689A42AA
:109E6C0028D2184B1B7B012B17D0174B9A4216D2BA
:109E7C00144B1A685B68403B9A4218D2EFF3108679
:109E8C0072B6104A1368591C11602B60FFF7CEFF95
:109E9C00206006B962B6002070BD0C4BE6E7094B9A
:109EAC0001225A73FFF77EFE0028E7D1E0E7FFF7A7
:109EBC00CDFCE3E7FFF7CAFC0F20EDE70F2070475E
:109ECC0050370020DC360020FFFF7F0000E0FF0051
:109EDC00044B9B68584010F0010F00D0013B184612
:109EEC00704700BFDC360020014B187B704700BF69
:109EFC00DC360020F8B5104B1B7813F0200F01D086
:109F0C000820F8BD17460C4E43F0200333700B4D60
:109F1C00A860297300242C82FFF7D6FC2046FFF79B
:109F2C0023FD2F606F60337843F040033370FFF7ED
:109F3C008DFC2046E5E700BF50370020DC360020C2
:109F4C0008B50022FFF7D6FF08BD00002DE9F0414F
:109F5C00002625E0134604FB03F3244AD25A30466C
:109F6C00C0472249BC2304FB03F3CA5A0132CA522C
:109F7C000221284602F0A2FC01370221284602F0F9
:109F8C006DFC014649B1194BBC2202FB0433D3F8DA
:109F9C000880B8F1000FDDD1E3E797B90136F6B2CE
:109FAC00022E1FD83446BC2306FB03F308330F4D97
:109FBC001D4404350221284602F050FC01460027BE
:109FCC00E0E7284602F0E2FC0828E7D1074BBC2268
:109FDC0002FB04339B68002BE0D00022044930467E
:109FEC009847DBE70120BDE8F08100BF5C3700201B
:109FFC00C010040008B5082383731023437300F1C9
:10A00C001C0343610323037300F1180303610C3039
:10A01C0002F08EFC08BD000008B50378012B06D0B9
:10A02C00022B07D07846FCF797FF002003E04FF493
:10A03C00A97000E0004808BD645E010008B5037813
:10A04C00012B07D0022B13D07846FCF785FF4FF479
:10A05C00FA7308E083685B1A9B084FF4A97202FB41
:10A06C0003F303F5FA730748984228BF184608BD56
:10A07C0083685B1A1B0B044A02FB03F303F5FA73A8
:10A08C00F1E700BF60850100645E010038B504464D
:10A09C0001210C3002F0E2FB054678B1084BC4F804
:10A0AC009C300023C4F8A0306168FFF7C7FFC4F8E8
:10A0BC00A800C4F8AC40012384F8B830284638BD59
:10A0CC00EDA1020010B50446FFF7E0FF20B104F14A
:10A0DC009C000CF05FFD00B910BD7846FCF73CFF0E
:10A0EC00FAE70000F8B505460C46164617680378E3
:10A0FC00012B19D1124BA3FB0431C9098B00AC689D
:10A10C00E41BB4EB810F00D31C468CB1686827F0BC
:10A11C000307E968224639443844FFF773FA58B903
:10A12C00336823443360F8BD7846FCF715FFE1E74C
:10A13C007846FCF711FFE9E77846FCF70DFFEFE7EF
:10A14C00EB5DF260F8B506460C46154617680378C9
:10A15C00022B17D1114BA3FB04231B0C1A03B4685D
:10A16C00E41BB4EB033F00D314467CB1706827F0BA
:10A17C00030721463844FFF713FA58B92B682344D8
:10A18C002B60F8BD7846FCF7E7FEE3E77846FCF772
:10A19C00E3FEEBE77846FCF7DFFEEFE7B77609BBAB
:10A1AC0038B505460C4611462378012B06D0022BF8
:10A1BC000FD07846FCF7D0FE002004E0021D2046AC
:10A1CC00FFF790FFA0686B68834214BF002001204A
:10A1DC0038BD021D2046FFF7B5FFA068F3E700006D
:10A1EC002DE9F8430F46D1F8A850254B1B786BB9D5
:10A1FC000446A5F5FA7501F10C080121404602F060
:10A20C002DFB064648B14FF0000922E00CF0FEFC95
:10A21C00002387F8B830BDE8F8837846FCF79CFE3D
:10A22C00F1E70CF0F3FC0121404602F047FB002360
:10A23C007B6087F8B830134B186801F0DDFB3846AB
:10A24C00FFF740FFE7E73046FFF7E6FE4844A84239
:10A25C000FD8A5EB090231463846FFF7A1FF0028BD
:10A26C00DFD101F0F7F9B0EB0409ECD5A4EB000950
:10A27C00E9E70CF0CBFC3846FFF724FFCBE700BF37
:10A28C00583700205437002010B5084801F094FBD3
:10A29C00074B1860002406E0064BBC2000FB043082
:10A2AC00FFF7A8FE0134022CF6D910BD599F02000D
:10A2BC00543700205C37002038B504460D46022880
:10A2CC0005D8054BBC2202FB04339D6038BD784693
:10A2DC00FCF742FEF5E700BF5C3700202DE9F843A0
:10A2EC0005460C461746022816D8CCB12378012B0C
:10A2FC001AD0022B3ED16368C3F30B03002B31D170
:10A30C00A368C3F30B03002B30D1A368002B34D10B
:10A31C007846FCF721FE30E07846FCF71DFEE4E7BA
:10A32C007846FCF719FEE1E7636813F0030F0DD1D3
:10A33C00E36813F0030F0DD1A36813F0030F0DD1D5
:10A34C00A368D3B97846FCF707FE16E07846FCF70D
:10A35C0003FEEDE77846FCF7FFFDEDE77846FCF7EA
:10A36C00FBFDEDE77846FCF7F7FDC9E77846FCF70F
:10A37C00F3FDCAE77846FCF7EFFDEFF3108872B6F1
:10A38C00BC2305FB03F308332A4E1E44043600217C
:10A39C00304602F063FA814678B30021304602F071
:10A3AC008DFA20686168A268E368C9F80000C9F8F2
:10A3BC000410C9F80820C9F80C302FB11D4BBC2271
:10A3CC0002FB05335B883B801A4BBC2202FB053336
:10A3DC005A8801325A8093F8B83083B9164B1B78DF
:10A3EC0013B10024A1460CE0124BBC2000FB05303D
:10A3FC00FFF74CFE8146002403E0042401E0002416
:10A40C00A146B8F1000F00D162B6B9F1000F09D026
:10A41C00BC2303FB05F598350648284404300CF0A2
:10A42C00B9FB10B92046BDE8F8837846FCF794FDDB
:10A43C00F8E700BF5C3700205837002038B50446D9
:10A44C00EFF3108572B610B9164B1B6873B18CB153
:10A45C00144A136801331360124B1B68003B18BF7E
:10A46C000123114A137005B962B638BD7846FCF762
:10A47C0073FDECE70B4B1C68013C1C600CB1EBE76B
:10A48C000134022CE8D8094BBC2202FB043393F8AC
:10A49C00B830002BF4D1054B02FB0430FFF712FE51
:10A4AC00EEE700BF90390020583700205C370020C1
:10A4BC0018B1830B024AD05C70470020704700BF74
:10A4CC00D010040012DF704700B583B001F0DCFE41
:10A4DC0040B10C4B1B6813F0400F03D00A4B1B68A8
:10A4EC00012B02DC03B05DF804FB084BD3F80435F8
:10A4FC000190074A009275220649022002F09EFB49
:10A50C00F0E700BF102E00200C2E002000100140A0
:10A51C000C110400FF10040000B58DB0114B1B781A
:10A52C00022B06D07846FCF717FD01200DB05DF824
:10A53C0004FBFFF7F7FA18B90B48FEF75FF9F4E7DD
:10A54C000DF0A2F8074B03221A702C22002101A84F
:10A55C0015F0FAFB1D238DF8043001A8FEF726F93F
:10A56C00E3E700BF98390020002E002008B50378DF
:10A57C00122B00D008BD0448FEF750F9034B1868A5
:10A58C0001F03AFAF6E700BF002E002094390020C3
:10A59C0010B58AB00DF0BCF870B3044600238DF8EA
:10A5AC0010300DF1140C8646BEE80F00ACE80F001D
:10A5BC00DEF80030CCF80030627D052A04D9237D0A
:10A5CC0003F00F03072B1ED1164B1A688AB104AB8C
:10A5DC000393237DC3F303038DF80430637D062BB3
:10A5EC001BD9063B8DF8053004F11D03029301A81D
:10A5FC00904720460DF06AF80DF0A6F880F00100A7
:10A60C00C0B20AB010BD207D04AB063A04F11D01A6
:10A61C0000F00F000BF092FDD6E700238DF805300B
:10A62C000293E4E79C39002070B582B0314B1B7863
:10A63C00002B54D10446002855D0067A0F2E01D099
:10A64C00062E52D106F0A6F9E06870B1FCF796FC24
:10A65C000DF10700FFF736FF0546002840D19DF8A5
:10A66C000730012B04D002253AE0FCF795FCEFE70C
:10A67C00FCF7B6FC00F012FB304601F0BDF8E078B8
:10A68C0000F02CF900F0BEFE0CF028FA1A480DF080
:10A69C00F7F80BF0FFFE0BF033FDFFF7F5FD05F0BF
:10A6AC00FBF900F00BFD06F035F905F0D1FE204664
:10A6BC0001F0FEFCFDF71EFD04F036FCFCF79AFBE6
:10A6CC0008B1062813D10D4801F076F90C4B18602F
:10A6DC000C4B00221A60074B01221A7000E008256F
:10A6EC00284602B070BD0E25FAE70725F8E70546A7
:10A6FC00F6E700BF983900209DA5020025A50200B1
:10A70C00943900209C39002010B582B0204B1B7866
:10A71C00012B0DD05AB2002A35D0043BDBB2012BF1
:10A72C0033D80CF027FA044628B3204602B010BDEB
:10A73C0001F0CEFCFDF720FDFCF75CFB0446B8B144
:10A74C00062815D0134B1B6813F4804FEDD0124B19
:10A75C001B68012BE9DD114BD3F804350190104A2D
:10A76C0000924FF4C2720F49022002F067FADCE744
:10A77C0001F078F8D5E7064B02221A700A4B1868DC
:10A78C0001F03AF9D1E70824CFE70824CDE700BF60
:10A79C0098390020102E00200C2E002000100140B3
:10A7AC0038110400FF1004009439002008B5FDF79F
:10A7BC00E7FC08BD08B5FEF721F808BD08B5FEF7A3
:10A7CC002DF808BD08B500F0E3FD002008BD000021
:10A7DC00014B1860704700BF9C3900207047000087
:10A7EC00074A136801331360B3F1704F02D0044B66
:10A7FC0018687047134600221A6001221A60F6E7A7
:10A80C00A039002010B5044618B100232360636002
:10A81C0010BD7846FCF7A0FBF7E738B50C460546AB
:10A82C0068B184B100236360EFF3108372B62A68B9
:10A83C006AB16A6854606C6003B962B638BD784618
:10A84C00FCF78AFBEDE77846FCF786FBEAE72C6021
:10A85C00F1E710B5044658B1EFF3108372B62068D7
:10A86C0008B142682260226832B103B962B610BDE9
:10A87C007846FCF771FBEFE76260F6E710B504462B
:10A88C0008B1206810BD7846FCF766FBF9E735DFA8
:10A89C0070473CDF70473DDF7047000010B5044641
:10A8AC004FF0FF30FFF7F3FFFF210020FFF7F3FF1E
:10A8BC0021460020FFF7EDFFBFF34F8F0549CA6813
:10A8CC0002F4E062044B1343CB60BFF34F8F00BF25
:10A8DC00FDE700BF00ED00E00400FA05072814D8DE
:10A8EC00DFE800F0080C1504110F0A06642070470D
:10A8FC0014207047FA2070471E2070474FF4FA70EE
:10A90C007047322070474B207047FA2070479620D2
:10A91C0070470000024B5868103840B2704700BFB7
:10A92C0000ED00E0034600280FDB5B11084A52F8EB
:10A93C002330424200F01F0002F01F0258BF504269
:10A94C0023FA00F000F00100704700F11F03ECE760
:10A95C0000E100E046DF704738B504460D464B1E5B
:10A96C00DBB2012B0AD8002323616361A361E3618D
:10A97C002046FFF7EFFF4FF0010C1AE07846FCF78A
:10A98C00EBFAF0E7CA5CC8185200D2B2CA5440784D
:10A99C0042EAD012CA5401339BB20E2BF2D9CB7BB4
:10A9AC005B00CB73BEF1000F0ADB0CF1010C5FFAFC
:10A9BC008CFCAC450BD8214611F920EF0023ECE7B9
:10A9CC0094F82F3083F0870384F82F30EDE738BDEF
:10A9DC002DE9F04190B084460C4696461F4602F194
:10A9EC000F084FEA281604AD0068DCF80410DCF8F8
:10A9FC000820DCF80C300FC50EF00F055FEA1818B4
:10AA0C0002D07DB1002300E00023984663B1012100
:10AA1C0004A8FFF7A1FFB8F1000F1BD0701E0001B6
:10AA2C0010230FE00123F0E70221F1E7013B9BB279
:10AA3C002218D25C03F14001694411F8101C4A4001
:10AA4C000DF80320002BF1D100250C950D950E95DA
:10AA5C000F9535E0711EADB22A4604EB0111684624
:10AA6C0015F03CF980230DF805306B1C03E0002237
:10AA7C000DF8032001330F2BF9DD10230BE0013B04
:10AA8C009BB21DF8032003F14001694411F8101C1E
:10AA9C004A400DF80320002BF1D1D5E7013A92B2D0
:10AAAC0002F140036B4413F8100C63189B5C584084
:10AABC0008AB9854002AF1D104A8FFF74BFF0135DD
:10AACC00731EAB4202DD29011022F3E710230CE0C8
:10AADC00013B9BB203F140020DEB020111F8402C3B
:10AAEC0011F8101C4A4008A9CA54002BF0D104A834
:10AAFC00FFF730FF0CAC0FCC38607960BA60FB60AC
:10AB0C0010B0BDE8F081000010B50446134B1B6873
:10AB1C0093B14168114B1B685B68CB1A002B0BDBA4
:10AB2C000E4B1B6818465B691BB15A68521A002AF7
:10AB3C00F8DB6361446103E0084B1A6862611C60D6
:10AB4C00064A93889BB201339BB2938013B10123C5
:10AB5C00237010BD7846FCF7FFF9F8E7AC390020FC
:10AB6C0038B5054619E06369214A13600023636117
:10AB7C0093889BB2591E89B291800BB3A3681BB307
:10AB8C0002232370A36821692846984700F01AF91C
:10AB9C0005462378DBB2022B1AD0154B1B6833B356
:10ABAC00134B1B685B685B1B642B20D5104B1C681C
:10ABBC002378DBB2012BD6D07846FCF7CDF9D2E75F
:10ABCC007846FCF7C9F9D9E77846FCF7C5F9D7E719
:10ABDC00E26812B900232370DFE7636813446360F3
:10ABEC005B1B642BF9D42046FFF78EFFD5E738BDED
:10ABFC00AC39002010B50446144B1B68834207D0B7
:10AC0C00124B1B68D3B15A69A2420ED01346F9E716
:10AC1C0043690E4A136093889BB2591E89B2918086
:10AC2C0063B97846FCF798F908E062695A610749FC
:10AC3C008B889BB25A1E92B28A8013B10023237068
:10AC4C0010BD7846FCF788F9F8E700BFAC39002056
:10AC5C0008B5064B1B6833B1044B1B680449586894
:10AC6C0000F05CF908BD00F0B7F9FBE7AC39002047
:10AC7C0099AC020008B500F0A5F8FFF771FF00F0E1
:10AC8C00A1F8FFF7E5FF012008BD000008B5024B55
:10AC9C00186800F0B1FE08BDA439002008B50023E7
:10ACAC00064A1370064A13605360064800F084FE8F
:10ACBC00054B186000F078F808BD00BFA8390020DB
:10ACCC00AC39002081AC0200A439002010B5044638
:10ACDC00154B1B789BB900F061FFA0B1BCB1A36808
:10ACEC00CBB12378DBB2012B19D000236361204652
:10ACFC00FFF70AFF00F066F8FFF7AAFF10BD7846D1
:10AD0C00FCF72AF9E7E77846FCF726F9E6E77846F8
:10AD1C00FCF722F9E3E77846FCF71EF9E1E7784601
:10AD2C00FCF71AF9E1E700BFA839002010B504467A
:10AD3C0000F034FF50B16CB12046FFF75BFF0023ED
:10AD4C00636100F03FF8FFF783FF10BD7846FCF716
:10AD5C0003F9F0E77846FCF7FFF8EDE738B5044661
:10AD6C000D46104B1B788BB900F018FF90B1ACB1AD
:10AD7C002046FFF73FFF0023636165602046FFF725
:10AD8C00C3FE00F01FF8FFF763FF38BD7846FCF7F1
:10AD9C00E3F8E9E77846FCF7DFF8E8E77846FCF7F4
:10ADAC00DBF8E5E7A839002008B514F0A5FE00B1E2
:10ADBC0008BD14F019FE0028FAD07846FCF7CCF840
:10ADCC00F6E70000EFF3108072B6194B1968194BB7
:10ADDC00D3F80425D3F80431012B24D000B962B682
:10ADEC0042EA01624FEAD26C5001801A6CF1000CFD
:10ADFC004FEA4C2343EAD0534102891843F1000C2B
:10AE0C004FEA8C1040EA91608B015B1A60EB0C00EE
:10AE1C009B1840F1000013F5804340F10000DB0B60
:10AE2C0043EA40407047034BD3F804250131D5E782
:10AE3C00B43900200010014010B50A4B4FF4003219
:10AE4C00C3F84823C3F80823074B1B682BB1064BE8
:10AE5C001C68FFF7B7FFA04710BD7846FCF77CF8DD
:10AE6C00F5E700BF00100140C0390020EFF310815E
:10AE7C0072B6254B0022C3F80421244A136801330F
:10AE8C00136001B962B6224B1B68002B3AD0204BE1
:10AE9C001A68013A1A601B68002B33D103F1804306
:10AEAC0003F58833D3F804251A4B1B689A421BD23E
:10AEBC00EFF3108272B6144BD3F80435981C154975
:10AECC00096888420DD303330F49C1F8443502B9E0
:10AEDC0062B60D4B4FF40032C3F84423C3F804237D
:10AEEC0070470C4B1B68EFE710B50B4B1B682BB175
:10AEFC00094B1C68FFF766FFA04710BD7846FCF7AE
:10AF0C002BF8F5E7704700BF00100140B439002062
:10AF1C00B8390020BC390020C039002030B583B0CE
:10AF2C000446002301930D46002936D0244B1D60A6
:10AF3C00FFF748FF031B002B33DB0020410CC00341
:10AF4C00204BC018204A4FF0000341F1000114F0CF
:10AF5C00FDFDEFF31083019372B61C4BD3F804354F
:10AF6C00032838BF0320C3F1FF1202F57F4282424F
:10AF7C0019D30344154AC2F844354FF40033C2F8D0
:10AF8C004433C2F804330023114A1360114A13608E
:10AF9C00019B03B962B603B030BD7846FBF7DCFF0A
:10AFAC00C4E7201ACAE7034403F17F4301331A0EA6
:10AFBC00013207490A6023F07F43064A1360E7E732
:10AFCC00C039002020A1070040420F0000100140B2
:10AFDC00B8390020BC390020074B4FF40032C3F8BD
:10AFEC004823C3F808230023044A1360044A13605F
:10AFFC00044A1360704700BF00100140B8390020AC
:10B00C00BC390020C039002030DF704731DF704779
:10B01C0010B4034602684068A2EB70129C6880EA88
:10B02C00F4301860D9680C445C6011449960104489
:10B03C00D8605DF8044B704770B582B00D4606467B
:10B04C0008B100240BE07846FBF786FFF9E79DF882
:10B05C0007103019FFF7DAFF9DF807301C44A542A2
:10B06C000DD90DF10700FFF7CFFF9DF80730002B2E
:10B07C00F7D02A1B9342EAD98DF80720E7E702B0F4
:10B08C0070BD000030B583B0054600240194042146
:10B09C000DEB0100FFF7D0FF074B2B60019B6B60A2
:10B0AC00AB60EB6003E02846FFF7B2FF0134132CD2
:10B0BC00F9D903B030BD00BFED5EEAF1704708B5B9
:10B0CC00032004F07DFD08BD48DF704749DF704761
:10B0DC004ADF7047044B01225A7143F2B0629A6006
:10B0EC0043F69822DA607047203A0020094B03227D
:10B0FC001A74094A5A611A6840F6D8639A4204D9FC
:10B10C00054B43F2B0629A607047034B40F6D8622D
:10B11C009A607047003A0020203A002008B50F4B87
:10B12C001B78022B12D0032B08D0012B03D07846AE
:10B13C00FBF712FF0EE0022303740BE0084B002216
:10B14C005A71084999600849D960827103230374C4
:10B15C00034B4361014B00221A7008BD313A0020A9
:10B16C00203A0020A0860100FF1FA10738B5044635
:10B17C0000250574012343710E4A136801331360D3
:10B18C0000F0C2FA0BF0BCFD21680B4B1B68283396
:10B19C0001FB03F3094AA2FB0323A1EB9341084AE9
:10B1AC007839284600F030FA00B938BD7846FBF7FC
:10B1BC00D3FEFAE7343A00201C3A002083DE1B430E
:10B1CC00F9B0020010B5044600238360C360036825
:10B1DC000D4A92680260817991B10121017403B921
:10B1EC000A4B991A6161B1F57A7F01D39A4202D95F
:10B1FC004FF47A736361FFF76DFF0123A37110BDE8
:10B20C00FFF7B4FFF7E700BF203A002080969800C4
:10B21C0010B50C4631B1C3680133C3604269036891
:10B22C001344036083680133836001220274426912
:10B23C0052084261012B0DD0022B19D042690368D0
:10B24C00134417498B4222D840F6D7639A4221D82F
:10B25C0000231DE0B2F5FA7F05D040F6D8639A4280
:10B26C00ECD84361EAE7002CF7D100234361E5E712
:10B27C00C368022B06D0012BE0D1002CDED10023B9
:10B28C004361DBE70268064B9B1A4361D6E7002358
:10B29C0013B110BD0123FBE7FFF768FFF9E700BF0F
:10B2AC008096980043791BB90D4B00221A70704799
:10B2BC0010B504460BF040FD20680A4B1B68283380
:10B2CC0000FB03F3084AA2FB0323A0EB934078385E
:10B2DC0000F04AFA00236371014B00221A7010BD72
:10B2EC00303A00201C3A002083DE1B4308B5254B66
:10B2FC0001221A71244B1B7813B1244B1B781BB3FE
:10B30C00204B00221A7404281AD8DFE800F003142A
:10B31C00110C07001B48FFF755FF1CE001211948D1
:10B32C00FFF776FF17E000211648FFF771FF12E0D8
:10B33C000BF092FC0FE000F0ADF90BF0C7FC0AE04B
:10B34C007846FBF709FE06E000F084F90D4B186017
:10B35C001846FFF7E3FE0B4B1B7C023BDBB2012BC9
:10B36C0008D9084B1B7C022B08D00648002303711C
:10B37C00103008BD0348FFF795FFF2E7014B01229F
:10B38C001A76F2E7003A0020313A0020303A0020D9
:10B39C0008B50438042814D8DFE800F01826140384
:10B3AC000E00164B1B7E012B0BD1FFF78FFE40B10D
:10B3BC007846FBF7D1FD04E0104B00221A760BF017
:10B3CC00E3FC08BD7846FBF7C7FDFAE7FFF782FE02
:10B3DC000B4840F6D8638360FFF77AFE0028F0D064
:10B3EC007846FBF7B9FDECE70548FFF771FE00283E
:10B3FC00E7D07846FBF7B0FDE3E700BF003A00204A
:10B40C00203A002010B40E4A00231370137101214E
:10B41C00517143F2B064946043F69824D460094AA5
:10B42C001060094A1370094A1370094A1360094ADB
:10B43C00137153711360137691715DF8044B70475F
:10B44C00203A00201C3A0020303A0020313A0020EB
:10B45C00343A0020003A002008B5104B1B7E012B1B
:10B46C0008D0022B17D00BB1002008BD0C48FFF7F9
:10B47C002BFE40B90B48FFF72BFE40B9074B0222BD
:10B48C001A760020F1E77846FBF766FDF2E778467E
:10B49C00FBF762FDF2E71120E7E700BF003A00205E
:10B4AC00F9B20200203A00200B4B1B7C023BDBB2B2
:10B4BC00012B0BD9094B1B78012B09D0022B09D07E
:10B4CC00032B01D0002070470120704701207047EA
:10B4DC000120704701207047003A0020313A0020CB
:10B4EC00014B1868704700BF003A00200D4B5B7988
:10B4FC000BB90020704710B50A4B1C680A4B1B682F
:10B50C00283304FB03F3094AA2FB0323A4EB934463
:10B51C00783C00F09FF80346201A00D410BD181B8D
:10B52C00FCE700BF003A00201C3A002083DE1B43DE
:10B53C00014B1879704700BF003A0020EFF31083DD
:10B54C0072B6054A527922B1044A4FF48071C2F89E
:10B55C00001103B962B67047003A002000E100E028
:10B56C0008B5054B1B7E022B00D008BD034B0122F6
:10B57C001A70FFF7E3FFF8E7003A0020313A002099
:10B58C0008B5074B1B7E022B00D008BD012804D048
:10B59C00044A1370FFF7D2FFF7E70323F8E700BF65
:10B5AC00003A0020313A002008B5094B1B782BB12A
:10B5BC0048B9084B1B7813B1012300E00023044A5F
:10B5CC00107013B908BD0023F9E7FFF7B7FFF9E7CF
:10B5DC00303A0020313A002010B40A4B00F15002EE
:10B5EC00002443F8224000F1100C012202FA0CF264
:10B5FC00C3F8042300F5A87043F820105DF8044B41
:10B60C00704700BF00800040022817D810B5EFF338
:10B61C0010840C4B1C6072B60B4B43F820200B4B68
:10B62C00002243F820200A4B1B7823B9054B1868DD
:10B63C0030B962B605E0FFF7CFFFF7E70720704798
:10B64C00002010BD483A0020383A0020543A00201F
:10B65C00443A0020EFF310820A4B1A6072B60A4B80
:10B66C001B7863B1094B0022C3F84C210122DA6428
:10B67C00D3F84C05034B1B6803B962B67047044BF7
:10B68C001868F7E7483A0020443A00200080004050
:10B69C004C3A00202DE9F04100240EE00027154B18
:10B6AC0043F82470144EC6F80853FFF7D3FFC04775
:10B6BC0004F1500346F823700134022C18D804F11D
:10B6CC0050030D4A52F82330002BF5D0D2F8043336
:10B6DC0004F11002012595402B42EDD0054B53F897
:10B6EC002480B8F1000FD9D17846FBF735FCD5E7AB
:10B6FC00BDE8F081383A002000800040014B1B6807
:10B70C0018447047503A002010B500230CE0114A41
:10B71C0003F5A871002042F8210003F1500142F812
:10B72C00210052F821200133022BF0D90A4B1B685F
:10B73C001BB90A4B4FF480721A60094B01221A7024
:10B74C00FFF740FB0446FFF785FF241A054B1C60EE
:10B75C0010BD00BF00800040483A002000E100E02E
:10B76C00443A0020503A0020002307E000220C4904
:10B77C0041F823200B4941F823200133022BF5D942
:10B78C00094B1860094B00221A70094B4FF0FF321D
:10B79C00C3F80823074B4FF48072C3F8802170471D
:10B7AC00383A0020543A00204C3A0020443A002009
:10B7BC000080004000E100E008B503783BB1012BAC
:10B7CC0004D1436813B1C1688068984708BD4368C9
:10B7DC00002BFBD080689847F8E70000044B1B78DF
:10B7EC000F2B04D0034B4FF48022C3F80021704779
:10B7FC00C43B002000E100E010B5154C207015484A
:10B80C00154B0360102343608360FDF781FE1348E2
:10B81C00FEF7F8FF23780F2B00D110BD072B10D8A3
:10B82C00EC221A4112F0010F0ED05B01DBB20C4A74
:10B83C0082F812330023002BEFD07846FBF78CFBF9
:10B84C00EBE742F20203F6E742F20203F3E700BF32
:10B85C00C43B0020603A0020743A0020C83B002012
:10B86C0000E100E008B5124B1B780F2B00D108BD8E
:10B87C00104B93F812235209EC23134113F0010FD0
:10B88C0013D00D4B9B685BB10B4A136843F48023B8
:10B89C0013600023002BEAD07846FBF75DFBE6E74C
:10B8AC00044A4FF480211160F4E742F20203F1E7FD
:10B8BC00C43B002000E100E09858002038B5EFF3BD
:10B8CC00108472B61A4A1368591C11601BB9194BB3
:10B8DC001B780F2B05D1164B1B682BB304B962B622
:10B8EC0038BDEFF3108272B6134B9B68C3B9124983
:10B8FC0001238B60114BD3F88000114D2840086058
:10B90C00C3F88050D3F8840048604FF0FF31C3F87F
:10B91C0084100C4B00211970002ADCD162B6DAE7D6
:10B92C00084B01211970F7E77846FBF715FBD5E7B3
:10B93C00743B0020C43B00209858002000E100E03C
:10B94C00FC06FFBDC53B002010B5EFF3108472B6AA
:10B95C00144B1B685BB1134A1368013B13601BB992
:10B96C00114B1B780F2B06D104B962B610BD78466B
:10B97C00FBF7F2FAEFE70D4B1A780D4B9B68002B97
:10B98C00F2D0002AF0D1EFF3108172B6084B186890
:10B99C00084A10605868506000229A600029E3D170
:10B9AC0062B6E1E7743B0020C43B0020C53B00209D
:10B9BC009858002000E100E010B5044680B10C4B13
:10B9CC001B68102B10D8EFF3108272B6084B186856
:10B9DC00411C1960074B43F8204002B962B610BDF8
:10B9EC007846FBF7B9FAEAE77846FBF7B5FAEAE7E7
:10B9FC00783B00207C3B002038B504460D4B1B687F
:10BA0C00834212D9EFF3108572B660090A4904F02B
:10BA1C001F040122A24051F82030134341F820307A
:10BA2C00FFF7DCFE05B962B638BD7846FBF794FA31
:10BA3C00E8E700BF783B0020C03B002070B50D4606
:10BA4C001646044658B175B1EFF3108372B6A56073
:10BA5C00E66000222274246003B962B670BD784699
:10BA6C00FBF77AFAEFE77846FBF776FAECE700009B
:10BA7C0038B5044650B1A36863B1EFF3108572B6C4
:10BA8C00237C5BB1112005B962B638BD7846FBF753
:10BA9C0063FAF0E77846FBF75FFAEEE701232374CD
:10BAAC0021460348FEF7B9FEFFF798FE0020EAE7AF
:10BABC00C83B002010B5044608B1207C10BD784668
:10BACC00FBF74AFAF9E7000070B584B02B4B1B78F2
